{
	"contracts/SampleCoffeeToken.sol": {
		"CoffeToken": {
			"abi": [
				{
					"inputs": [
						{
							"internalType": "address",
							"name": "defaultAdmin",
							"type": "address"
						},
						{
							"internalType": "address",
							"name": "minter",
							"type": "address"
						}
					],
					"stateMutability": "nonpayable",
					"type": "constructor"
				},
				{
					"inputs": [],
					"name": "AccessControlBadConfirmation",
					"type": "error"
				},
				{
					"inputs": [
						{
							"internalType": "address",
							"name": "account",
							"type": "address"
						},
						{
							"internalType": "bytes32",
							"name": "neededRole",
							"type": "bytes32"
						}
					],
					"name": "AccessControlUnauthorizedAccount",
					"type": "error"
				},
				{
					"inputs": [
						{
							"internalType": "address",
							"name": "spender",
							"type": "address"
						},
						{
							"internalType": "uint256",
							"name": "allowance",
							"type": "uint256"
						},
						{
							"internalType": "uint256",
							"name": "needed",
							"type": "uint256"
						}
					],
					"name": "ERC20InsufficientAllowance",
					"type": "error"
				},
				{
					"inputs": [
						{
							"internalType": "address",
							"name": "sender",
							"type": "address"
						},
						{
							"internalType": "uint256",
							"name": "balance",
							"type": "uint256"
						},
						{
							"internalType": "uint256",
							"name": "needed",
							"type": "uint256"
						}
					],
					"name": "ERC20InsufficientBalance",
					"type": "error"
				},
				{
					"inputs": [
						{
							"internalType": "address",
							"name": "approver",
							"type": "address"
						}
					],
					"name": "ERC20InvalidApprover",
					"type": "error"
				},
				{
					"inputs": [
						{
							"internalType": "address",
							"name": "receiver",
							"type": "address"
						}
					],
					"name": "ERC20InvalidReceiver",
					"type": "error"
				},
				{
					"inputs": [
						{
							"internalType": "address",
							"name": "sender",
							"type": "address"
						}
					],
					"name": "ERC20InvalidSender",
					"type": "error"
				},
				{
					"inputs": [
						{
							"internalType": "address",
							"name": "spender",
							"type": "address"
						}
					],
					"name": "ERC20InvalidSpender",
					"type": "error"
				},
				{
					"anonymous": false,
					"inputs": [
						{
							"indexed": true,
							"internalType": "address",
							"name": "owner",
							"type": "address"
						},
						{
							"indexed": true,
							"internalType": "address",
							"name": "spender",
							"type": "address"
						},
						{
							"indexed": false,
							"internalType": "uint256",
							"name": "value",
							"type": "uint256"
						}
					],
					"name": "Approval",
					"type": "event"
				},
				{
					"anonymous": false,
					"inputs": [
						{
							"indexed": true,
							"internalType": "bytes32",
							"name": "role",
							"type": "bytes32"
						},
						{
							"indexed": true,
							"internalType": "bytes32",
							"name": "previousAdminRole",
							"type": "bytes32"
						},
						{
							"indexed": true,
							"internalType": "bytes32",
							"name": "newAdminRole",
							"type": "bytes32"
						}
					],
					"name": "RoleAdminChanged",
					"type": "event"
				},
				{
					"anonymous": false,
					"inputs": [
						{
							"indexed": true,
							"internalType": "bytes32",
							"name": "role",
							"type": "bytes32"
						},
						{
							"indexed": true,
							"internalType": "address",
							"name": "account",
							"type": "address"
						},
						{
							"indexed": true,
							"internalType": "address",
							"name": "sender",
							"type": "address"
						}
					],
					"name": "RoleGranted",
					"type": "event"
				},
				{
					"anonymous": false,
					"inputs": [
						{
							"indexed": true,
							"internalType": "bytes32",
							"name": "role",
							"type": "bytes32"
						},
						{
							"indexed": true,
							"internalType": "address",
							"name": "account",
							"type": "address"
						},
						{
							"indexed": true,
							"internalType": "address",
							"name": "sender",
							"type": "address"
						}
					],
					"name": "RoleRevoked",
					"type": "event"
				},
				{
					"anonymous": false,
					"inputs": [
						{
							"indexed": true,
							"internalType": "address",
							"name": "from",
							"type": "address"
						},
						{
							"indexed": true,
							"internalType": "address",
							"name": "to",
							"type": "address"
						},
						{
							"indexed": false,
							"internalType": "uint256",
							"name": "value",
							"type": "uint256"
						}
					],
					"name": "Transfer",
					"type": "event"
				},
				{
					"anonymous": false,
					"inputs": [
						{
							"indexed": true,
							"internalType": "address",
							"name": "receiver",
							"type": "address"
						},
						{
							"indexed": true,
							"internalType": "address",
							"name": "buyer",
							"type": "address"
						}
					],
					"name": "coffeePurchased",
					"type": "event"
				},
				{
					"inputs": [],
					"name": "DEFAULT_ADMIN_ROLE",
					"outputs": [
						{
							"internalType": "bytes32",
							"name": "",
							"type": "bytes32"
						}
					],
					"stateMutability": "view",
					"type": "function"
				},
				{
					"inputs": [],
					"name": "MINTER_ROLE",
					"outputs": [
						{
							"internalType": "bytes32",
							"name": "",
							"type": "bytes32"
						}
					],
					"stateMutability": "view",
					"type": "function"
				},
				{
					"inputs": [
						{
							"internalType": "address",
							"name": "owner",
							"type": "address"
						},
						{
							"internalType": "address",
							"name": "spender",
							"type": "address"
						}
					],
					"name": "allowance",
					"outputs": [
						{
							"internalType": "uint256",
							"name": "",
							"type": "uint256"
						}
					],
					"stateMutability": "view",
					"type": "function"
				},
				{
					"inputs": [
						{
							"internalType": "address",
							"name": "spender",
							"type": "address"
						},
						{
							"internalType": "uint256",
							"name": "value",
							"type": "uint256"
						}
					],
					"name": "approve",
					"outputs": [
						{
							"internalType": "bool",
							"name": "",
							"type": "bool"
						}
					],
					"stateMutability": "nonpayable",
					"type": "function"
				},
				{
					"inputs": [
						{
							"internalType": "address",
							"name": "account",
							"type": "address"
						}
					],
					"name": "balanceOf",
					"outputs": [
						{
							"internalType": "uint256",
							"name": "",
							"type": "uint256"
						}
					],
					"stateMutability": "view",
					"type": "function"
				},
				{
					"inputs": [],
					"name": "buyOneCoffee",
					"outputs": [],
					"stateMutability": "nonpayable",
					"type": "function"
				},
				{
					"inputs": [
						{
							"internalType": "address",
							"name": "account",
							"type": "address"
						}
					],
					"name": "buyOneCoffeeFrom",
					"outputs": [],
					"stateMutability": "nonpayable",
					"type": "function"
				},
				{
					"inputs": [],
					"name": "decimals",
					"outputs": [
						{
							"internalType": "uint8",
							"name": "",
							"type": "uint8"
						}
					],
					"stateMutability": "view",
					"type": "function"
				},
				{
					"inputs": [
						{
							"internalType": "bytes32",
							"name": "role",
							"type": "bytes32"
						}
					],
					"name": "getRoleAdmin",
					"outputs": [
						{
							"internalType": "bytes32",
							"name": "",
							"type": "bytes32"
						}
					],
					"stateMutability": "view",
					"type": "function"
				},
				{
					"inputs": [
						{
							"internalType": "bytes32",
							"name": "role",
							"type": "bytes32"
						},
						{
							"internalType": "address",
							"name": "account",
							"type": "address"
						}
					],
					"name": "grantRole",
					"outputs": [],
					"stateMutability": "nonpayable",
					"type": "function"
				},
				{
					"inputs": [
						{
							"internalType": "bytes32",
							"name": "role",
							"type": "bytes32"
						},
						{
							"internalType": "address",
							"name": "account",
							"type": "address"
						}
					],
					"name": "hasRole",
					"outputs": [
						{
							"internalType": "bool",
							"name": "",
							"type": "bool"
						}
					],
					"stateMutability": "view",
					"type": "function"
				},
				{
					"inputs": [
						{
							"internalType": "address",
							"name": "to",
							"type": "address"
						},
						{
							"internalType": "uint256",
							"name": "amount",
							"type": "uint256"
						}
					],
					"name": "mint",
					"outputs": [],
					"stateMutability": "nonpayable",
					"type": "function"
				},
				{
					"inputs": [],
					"name": "name",
					"outputs": [
						{
							"internalType": "string",
							"name": "",
							"type": "string"
						}
					],
					"stateMutability": "view",
					"type": "function"
				},
				{
					"inputs": [
						{
							"internalType": "bytes32",
							"name": "role",
							"type": "bytes32"
						},
						{
							"internalType": "address",
							"name": "callerConfirmation",
							"type": "address"
						}
					],
					"name": "renounceRole",
					"outputs": [],
					"stateMutability": "nonpayable",
					"type": "function"
				},
				{
					"inputs": [
						{
							"internalType": "bytes32",
							"name": "role",
							"type": "bytes32"
						},
						{
							"internalType": "address",
							"name": "account",
							"type": "address"
						}
					],
					"name": "revokeRole",
					"outputs": [],
					"stateMutability": "nonpayable",
					"type": "function"
				},
				{
					"inputs": [
						{
							"internalType": "bytes4",
							"name": "interfaceId",
							"type": "bytes4"
						}
					],
					"name": "supportsInterface",
					"outputs": [
						{
							"internalType": "bool",
							"name": "",
							"type": "bool"
						}
					],
					"stateMutability": "view",
					"type": "function"
				},
				{
					"inputs": [],
					"name": "symbol",
					"outputs": [
						{
							"internalType": "string",
							"name": "",
							"type": "string"
						}
					],
					"stateMutability": "view",
					"type": "function"
				},
				{
					"inputs": [],
					"name": "totalSupply",
					"outputs": [
						{
							"internalType": "uint256",
							"name": "",
							"type": "uint256"
						}
					],
					"stateMutability": "view",
					"type": "function"
				},
				{
					"inputs": [
						{
							"internalType": "address",
							"name": "to",
							"type": "address"
						},
						{
							"internalType": "uint256",
							"name": "value",
							"type": "uint256"
						}
					],
					"name": "transfer",
					"outputs": [
						{
							"internalType": "bool",
							"name": "",
							"type": "bool"
						}
					],
					"stateMutability": "nonpayable",
					"type": "function"
				},
				{
					"inputs": [
						{
							"internalType": "address",
							"name": "from",
							"type": "address"
						},
						{
							"internalType": "address",
							"name": "to",
							"type": "address"
						},
						{
							"internalType": "uint256",
							"name": "value",
							"type": "uint256"
						}
					],
					"name": "transferFrom",
					"outputs": [
						{
							"internalType": "bool",
							"name": "",
							"type": "bool"
						}
					],
					"stateMutability": "nonpayable",
					"type": "function"
				}
			],
			"devdoc": {
				"errors": {
					"AccessControlBadConfirmation()": [
						{
							"details": "The caller of a function is not the expected one. NOTE: Don't confuse with {AccessControlUnauthorizedAccount}."
						}
					],
					"AccessControlUnauthorizedAccount(address,bytes32)": [
						{
							"details": "The `account` is missing a role."
						}
					],
					"ERC20InsufficientAllowance(address,uint256,uint256)": [
						{
							"details": "Indicates a failure with the `spender`’s `allowance`. Used in transfers.",
							"params": {
								"allowance": "Amount of tokens a `spender` is allowed to operate with.",
								"needed": "Minimum amount required to perform a transfer.",
								"spender": "Address that may be allowed to operate on tokens without being their owner."
							}
						}
					],
					"ERC20InsufficientBalance(address,uint256,uint256)": [
						{
							"details": "Indicates an error related to the current `balance` of a `sender`. Used in transfers.",
							"params": {
								"balance": "Current balance for the interacting account.",
								"needed": "Minimum amount required to perform a transfer.",
								"sender": "Address whose tokens are being transferred."
							}
						}
					],
					"ERC20InvalidApprover(address)": [
						{
							"details": "Indicates a failure with the `approver` of a token to be approved. Used in approvals.",
							"params": {
								"approver": "Address initiating an approval operation."
							}
						}
					],
					"ERC20InvalidReceiver(address)": [
						{
							"details": "Indicates a failure with the token `receiver`. Used in transfers.",
							"params": {
								"receiver": "Address to which tokens are being transferred."
							}
						}
					],
					"ERC20InvalidSender(address)": [
						{
							"details": "Indicates a failure with the token `sender`. Used in transfers.",
							"params": {
								"sender": "Address whose tokens are being transferred."
							}
						}
					],
					"ERC20InvalidSpender(address)": [
						{
							"details": "Indicates a failure with the `spender` to be approved. Used in approvals.",
							"params": {
								"spender": "Address that may be allowed to operate on tokens without being their owner."
							}
						}
					]
				},
				"events": {
					"Approval(address,address,uint256)": {
						"details": "Emitted when the allowance of a `spender` for an `owner` is set by a call to {approve}. `value` is the new allowance."
					},
					"RoleAdminChanged(bytes32,bytes32,bytes32)": {
						"details": "Emitted when `newAdminRole` is set as ``role``'s admin role, replacing `previousAdminRole` `DEFAULT_ADMIN_ROLE` is the starting admin for all roles, despite {RoleAdminChanged} not being emitted signaling this."
					},
					"RoleGranted(bytes32,address,address)": {
						"details": "Emitted when `account` is granted `role`. `sender` is the account that originated the contract call. This account bears the admin role (for the granted role). Expected in cases where the role was granted using the internal {AccessControl-_grantRole}."
					},
					"RoleRevoked(bytes32,address,address)": {
						"details": "Emitted when `account` is revoked `role`. `sender` is the account that originated the contract call:   - if using `revokeRole`, it is the admin role bearer   - if using `renounceRole`, it is the role bearer (i.e. `account`)"
					},
					"Transfer(address,address,uint256)": {
						"details": "Emitted when `value` tokens are moved from one account (`from`) to another (`to`). Note that `value` may be zero."
					}
				},
				"kind": "dev",
				"methods": {
					"allowance(address,address)": {
						"details": "See {IERC20-allowance}."
					},
					"approve(address,uint256)": {
						"details": "See {IERC20-approve}. NOTE: If `value` is the maximum `uint256`, the allowance is not updated on `transferFrom`. This is semantically equivalent to an infinite approval. Requirements: - `spender` cannot be the zero address."
					},
					"balanceOf(address)": {
						"details": "See {IERC20-balanceOf}."
					},
					"decimals()": {
						"details": "Returns the number of decimals used to get its user representation. For example, if `decimals` equals `2`, a balance of `505` tokens should be displayed to a user as `5.05` (`505 / 10 ** 2`). Tokens usually opt for a value of 18, imitating the relationship between Ether and Wei. This is the default value returned by this function, unless it's overridden. NOTE: This information is only used for _display_ purposes: it in no way affects any of the arithmetic of the contract, including {IERC20-balanceOf} and {IERC20-transfer}."
					},
					"getRoleAdmin(bytes32)": {
						"details": "Returns the admin role that controls `role`. See {grantRole} and {revokeRole}. To change a role's admin, use {_setRoleAdmin}."
					},
					"grantRole(bytes32,address)": {
						"details": "Grants `role` to `account`. If `account` had not been already granted `role`, emits a {RoleGranted} event. Requirements: - the caller must have ``role``'s admin role. May emit a {RoleGranted} event."
					},
					"hasRole(bytes32,address)": {
						"details": "Returns `true` if `account` has been granted `role`."
					},
					"name()": {
						"details": "Returns the name of the token."
					},
					"renounceRole(bytes32,address)": {
						"details": "Revokes `role` from the calling account. Roles are often managed via {grantRole} and {revokeRole}: this function's purpose is to provide a mechanism for accounts to lose their privileges if they are compromised (such as when a trusted device is misplaced). If the calling account had been revoked `role`, emits a {RoleRevoked} event. Requirements: - the caller must be `callerConfirmation`. May emit a {RoleRevoked} event."
					},
					"revokeRole(bytes32,address)": {
						"details": "Revokes `role` from `account`. If `account` had been granted `role`, emits a {RoleRevoked} event. Requirements: - the caller must have ``role``'s admin role. May emit a {RoleRevoked} event."
					},
					"supportsInterface(bytes4)": {
						"details": "See {IERC165-supportsInterface}."
					},
					"symbol()": {
						"details": "Returns the symbol of the token, usually a shorter version of the name."
					},
					"totalSupply()": {
						"details": "See {IERC20-totalSupply}."
					},
					"transfer(address,uint256)": {
						"details": "See {IERC20-transfer}. Requirements: - `to` cannot be the zero address. - the caller must have a balance of at least `value`."
					},
					"transferFrom(address,address,uint256)": {
						"details": "See {IERC20-transferFrom}. Skips emitting an {Approval} event indicating an allowance update. This is not required by the ERC. See {xref-ERC20-_approve-address-address-uint256-bool-}[_approve]. NOTE: Does not update the allowance if the current allowance is the maximum `uint256`. Requirements: - `from` and `to` cannot be the zero address. - `from` must have a balance of at least `value`. - the caller must have allowance for ``from``'s tokens of at least `value`."
					}
				},
				"version": 1
			},
			"evm": {
				"assembly": "    /* \"contracts/SampleCoffeeToken.sol\":264:1253  contract CoffeToken is ERC20, AccessControl {... */\n  mstore(0x40, 0x80)\n    /* \"contracts/SampleCoffeeToken.sol\":466:648  constructor(address defaultAdmin, address minter) ERC20(\"CoffeToken\", \"CFE\") {... */\n  callvalue\n  dup1\n  iszero\n  tag_1\n  jumpi\n  0x00\n  dup1\n  revert\ntag_1:\n  pop\n  mload(0x40)\n  sub(codesize, bytecodeSize)\n  dup1\n  bytecodeSize\n  dup4\n  codecopy\n  dup2\n  dup2\n  add\n  0x40\n  mstore\n  dup2\n  add\n  swap1\n  tag_2\n  swap2\n  swap1\n  tag_3\n  jump\t// in\ntag_2:\n    /* \"@openzeppelin/contracts/token/ERC20/ERC20.sol\":1601:1714  constructor(string memory name_, string memory symbol_) {... */\n  mload(0x40)\n  dup1\n  0x40\n  add\n  0x40\n  mstore\n  dup1\n  0x0a\n  dup2\n  mstore\n  0x20\n  add\n  0x436f666665546f6b656e00000000000000000000000000000000000000000000\n  dup2\n  mstore\n  pop\n  mload(0x40)\n  dup1\n  0x40\n  add\n  0x40\n  mstore\n  dup1\n  0x03\n  dup2\n  mstore\n  0x20\n  add\n  0x4346450000000000000000000000000000000000000000000000000000000000\n  dup2\n  mstore\n  pop\n    /* \"@openzeppelin/contracts/token/ERC20/ERC20.sol\":1675:1680  name_ */\n  dup2\n    /* \"@openzeppelin/contracts/token/ERC20/ERC20.sol\":1667:1672  _name */\n  0x03\n    /* \"@openzeppelin/contracts/token/ERC20/ERC20.sol\":1667:1680  _name = name_ */\n  swap1\n  dup2\n  tag_7\n  swap2\n  swap1\n  tag_8\n  jump\t// in\ntag_7:\n  pop\n    /* \"@openzeppelin/contracts/token/ERC20/ERC20.sol\":1700:1707  symbol_ */\n  dup1\n    /* \"@openzeppelin/contracts/token/ERC20/ERC20.sol\":1690:1697  _symbol */\n  0x04\n    /* \"@openzeppelin/contracts/token/ERC20/ERC20.sol\":1690:1707  _symbol = symbol_ */\n  swap1\n  dup2\n  tag_9\n  swap2\n  swap1\n  tag_8\n  jump\t// in\ntag_9:\n  pop\n    /* \"@openzeppelin/contracts/token/ERC20/ERC20.sol\":1601:1714  constructor(string memory name_, string memory symbol_) {... */\n  pop\n  pop\n    /* \"contracts/SampleCoffeeToken.sol\":554:598  _grantRole(DEFAULT_ADMIN_ROLE, defaultAdmin) */\n  tag_11\n    /* \"@openzeppelin/contracts/access/AccessControl.sol\":2232:2236  0x00 */\n  0x00\n    /* \"contracts/SampleCoffeeToken.sol\":565:583  DEFAULT_ADMIN_ROLE */\n  dup1\n  shl\n    /* \"contracts/SampleCoffeeToken.sol\":585:597  defaultAdmin */\n  dup4\n    /* \"contracts/SampleCoffeeToken.sol\":554:564  _grantRole */\n  shl(0x20, tag_12)\n    /* \"contracts/SampleCoffeeToken.sol\":554:598  _grantRole(DEFAULT_ADMIN_ROLE, defaultAdmin) */\n  0x20\n  shr\n  jump\t// in\ntag_11:\n  pop\n    /* \"contracts/SampleCoffeeToken.sol\":609:640  _grantRole(MINTER_ROLE, minter) */\n  tag_13\n    /* \"contracts/SampleCoffeeToken.sol\":353:377  keccak256(\"MINTER_ROLE\") */\n  0x9f2df0fed2c77648de5860a4cc508cd0818c85b8b8a1ab4ceeef8d981c8956a6\n    /* \"contracts/SampleCoffeeToken.sol\":633:639  minter */\n  dup3\n    /* \"contracts/SampleCoffeeToken.sol\":609:619  _grantRole */\n  shl(0x20, tag_12)\n    /* \"contracts/SampleCoffeeToken.sol\":609:640  _grantRole(MINTER_ROLE, minter) */\n  0x20\n  shr\n  jump\t// in\ntag_13:\n  pop\n    /* \"contracts/SampleCoffeeToken.sol\":466:648  constructor(address defaultAdmin, address minter) ERC20(\"CoffeToken\", \"CFE\") {... */\n  pop\n  pop\n    /* \"contracts/SampleCoffeeToken.sol\":264:1253  contract CoffeToken is ERC20, AccessControl {... */\n  jump(tag_14)\n    /* \"@openzeppelin/contracts/access/AccessControl.sol\":6179:6495  function _grantRole(bytes32 role, address account) internal virtual returns (bool) {... */\ntag_12:\n    /* \"@openzeppelin/contracts/access/AccessControl.sol\":6256:6260  bool */\n  0x00\n    /* \"@openzeppelin/contracts/access/AccessControl.sol\":6277:6299  hasRole(role, account) */\n  tag_16\n    /* \"@openzeppelin/contracts/access/AccessControl.sol\":6285:6289  role */\n  dup4\n    /* \"@openzeppelin/contracts/access/AccessControl.sol\":6291:6298  account */\n  dup4\n    /* \"@openzeppelin/contracts/access/AccessControl.sol\":6277:6284  hasRole */\n  shl(0x20, tag_17)\n    /* \"@openzeppelin/contracts/access/AccessControl.sol\":6277:6299  hasRole(role, account) */\n  0x20\n  shr\n  jump\t// in\ntag_16:\n    /* \"@openzeppelin/contracts/access/AccessControl.sol\":6272:6489  if (!hasRole(role, account)) {... */\n  tag_18\n  jumpi\n    /* \"@openzeppelin/contracts/access/AccessControl.sol\":6347:6351  true */\n  0x01\n    /* \"@openzeppelin/contracts/access/AccessControl.sol\":6315:6321  _roles */\n  0x05\n    /* \"@openzeppelin/contracts/access/AccessControl.sol\":6315:6327  _roles[role] */\n  0x00\n    /* \"@openzeppelin/contracts/access/AccessControl.sol\":6322:6326  role */\n  dup6\n    /* \"@openzeppelin/contracts/access/AccessControl.sol\":6315:6327  _roles[role] */\n  dup2\n  mstore\n  0x20\n  add\n  swap1\n  dup2\n  mstore\n  0x20\n  add\n  0x00\n  keccak256\n    /* \"@openzeppelin/contracts/access/AccessControl.sol\":6315:6335  _roles[role].hasRole */\n  0x00\n  add\n    /* \"@openzeppelin/contracts/access/AccessControl.sol\":6315:6344  _roles[role].hasRole[account] */\n  0x00\n    /* \"@openzeppelin/contracts/access/AccessControl.sol\":6336:6343  account */\n  dup5\n    /* \"@openzeppelin/contracts/access/AccessControl.sol\":6315:6344  _roles[role].hasRole[account] */\n  0xffffffffffffffffffffffffffffffffffffffff\n  and\n  0xffffffffffffffffffffffffffffffffffffffff\n  and\n  dup2\n  mstore\n  0x20\n  add\n  swap1\n  dup2\n  mstore\n  0x20\n  add\n  0x00\n  keccak256\n  0x00\n    /* \"@openzeppelin/contracts/access/AccessControl.sol\":6315:6351  _roles[role].hasRole[account] = true */\n  0x0100\n  exp\n  dup2\n  sload\n  dup2\n  0xff\n  mul\n  not\n  and\n  swap1\n  dup4\n  iszero\n  iszero\n  mul\n  or\n  swap1\n  sstore\n  pop\n    /* \"@openzeppelin/contracts/access/AccessControl.sol\":6397:6409  _msgSender() */\n  tag_19\n    /* \"@openzeppelin/contracts/access/AccessControl.sol\":6397:6407  _msgSender */\n  shl(0x20, tag_20)\n    /* \"@openzeppelin/contracts/access/AccessControl.sol\":6397:6409  _msgSender() */\n  0x20\n  shr\n  jump\t// in\ntag_19:\n    /* \"@openzeppelin/contracts/access/AccessControl.sol\":6370:6410  RoleGranted(role, account, _msgSender()) */\n  0xffffffffffffffffffffffffffffffffffffffff\n  and\n    /* \"@openzeppelin/contracts/access/AccessControl.sol\":6388:6395  account */\n  dup3\n    /* \"@openzeppelin/contracts/access/AccessControl.sol\":6370:6410  RoleGranted(role, account, _msgSender()) */\n  0xffffffffffffffffffffffffffffffffffffffff\n  and\n    /* \"@openzeppelin/contracts/access/AccessControl.sol\":6382:6386  role */\n  dup5\n    /* \"@openzeppelin/contracts/access/AccessControl.sol\":6370:6410  RoleGranted(role, account, _msgSender()) */\n  0x2f8788117e7eff1d82e926ec794901d17c78024a50270940304540a733656f0d\n  mload(0x40)\n  mload(0x40)\n  dup1\n  swap2\n  sub\n  swap1\n  log4\n    /* \"@openzeppelin/contracts/access/AccessControl.sol\":6431:6435  true */\n  0x01\n    /* \"@openzeppelin/contracts/access/AccessControl.sol\":6424:6435  return true */\n  swap1\n  pop\n  jump(tag_15)\n    /* \"@openzeppelin/contracts/access/AccessControl.sol\":6272:6489  if (!hasRole(role, account)) {... */\ntag_18:\n    /* \"@openzeppelin/contracts/access/AccessControl.sol\":6473:6478  false */\n  0x00\n    /* \"@openzeppelin/contracts/access/AccessControl.sol\":6466:6478  return false */\n  swap1\n  pop\n    /* \"@openzeppelin/contracts/access/AccessControl.sol\":6179:6495  function _grantRole(bytes32 role, address account) internal virtual returns (bool) {... */\ntag_15:\n  swap3\n  swap2\n  pop\n  pop\n  jump\t// out\n    /* \"@openzeppelin/contracts/access/AccessControl.sol\":2854:2990  function hasRole(bytes32 role, address account) public view virtual returns (bool) {... */\ntag_17:\n    /* \"@openzeppelin/contracts/access/AccessControl.sol\":2931:2935  bool */\n  0x00\n    /* \"@openzeppelin/contracts/access/AccessControl.sol\":2954:2960  _roles */\n  0x05\n    /* \"@openzeppelin/contracts/access/AccessControl.sol\":2954:2966  _roles[role] */\n  0x00\n    /* \"@openzeppelin/contracts/access/AccessControl.sol\":2961:2965  role */\n  dup5\n    /* \"@openzeppelin/contracts/access/AccessControl.sol\":2954:2966  _roles[role] */\n  dup2\n  mstore\n  0x20\n  add\n  swap1\n  dup2\n  mstore\n  0x20\n  add\n  0x00\n  keccak256\n    /* \"@openzeppelin/contracts/access/AccessControl.sol\":2954:2974  _roles[role].hasRole */\n  0x00\n  add\n    /* \"@openzeppelin/contracts/access/AccessControl.sol\":2954:2983  _roles[role].hasRole[account] */\n  0x00\n    /* \"@openzeppelin/contracts/access/AccessControl.sol\":2975:2982  account */\n  dup4\n    /* \"@openzeppelin/contracts/access/AccessControl.sol\":2954:2983  _roles[role].hasRole[account] */\n  0xffffffffffffffffffffffffffffffffffffffff\n  and\n  0xffffffffffffffffffffffffffffffffffffffff\n  and\n  dup2\n  mstore\n  0x20\n  add\n  swap1\n  dup2\n  mstore\n  0x20\n  add\n  0x00\n  keccak256\n  0x00\n  swap1\n  sload\n  swap1\n  0x0100\n  exp\n  swap1\n  div\n  0xff\n  and\n    /* \"@openzeppelin/contracts/access/AccessControl.sol\":2947:2983  return _roles[role].hasRole[account] */\n  swap1\n  pop\n    /* \"@openzeppelin/contracts/access/AccessControl.sol\":2854:2990  function hasRole(bytes32 role, address account) public view virtual returns (bool) {... */\n  swap3\n  swap2\n  pop\n  pop\n  jump\t// out\n    /* \"@openzeppelin/contracts/utils/Context.sol\":656:752  function _msgSender() internal view virtual returns (address) {... */\ntag_20:\n    /* \"@openzeppelin/contracts/utils/Context.sol\":709:716  address */\n  0x00\n    /* \"@openzeppelin/contracts/utils/Context.sol\":735:745  msg.sender */\n  caller\n    /* \"@openzeppelin/contracts/utils/Context.sol\":728:745  return msg.sender */\n  swap1\n  pop\n    /* \"@openzeppelin/contracts/utils/Context.sol\":656:752  function _msgSender() internal view virtual returns (address) {... */\n  swap1\n  jump\t// out\n    /* \"#utility.yul\":88:205   */\ntag_25:\n    /* \"#utility.yul\":197:198   */\n  0x00\n    /* \"#utility.yul\":194:195   */\n  dup1\n    /* \"#utility.yul\":187:199   */\n  revert\n    /* \"#utility.yul\":334:460   */\ntag_27:\n    /* \"#utility.yul\":371:378   */\n  0x00\n    /* \"#utility.yul\":411:453   */\n  0xffffffffffffffffffffffffffffffffffffffff\n    /* \"#utility.yul\":404:409   */\n  dup3\n    /* \"#utility.yul\":400:454   */\n  and\n    /* \"#utility.yul\":389:454   */\n  swap1\n  pop\n    /* \"#utility.yul\":334:460   */\n  swap2\n  swap1\n  pop\n  jump\t// out\n    /* \"#utility.yul\":466:562   */\ntag_28:\n    /* \"#utility.yul\":503:510   */\n  0x00\n    /* \"#utility.yul\":532:556   */\n  tag_57\n    /* \"#utility.yul\":550:555   */\n  dup3\n    /* \"#utility.yul\":532:556   */\n  tag_27\n  jump\t// in\ntag_57:\n    /* \"#utility.yul\":521:556   */\n  swap1\n  pop\n    /* \"#utility.yul\":466:562   */\n  swap2\n  swap1\n  pop\n  jump\t// out\n    /* \"#utility.yul\":568:690   */\ntag_29:\n    /* \"#utility.yul\":641:665   */\n  tag_59\n    /* \"#utility.yul\":659:664   */\n  dup2\n    /* \"#utility.yul\":641:665   */\n  tag_28\n  jump\t// in\ntag_59:\n    /* \"#utility.yul\":634:639   */\n  dup2\n    /* \"#utility.yul\":631:666   */\n  eq\n    /* \"#utility.yul\":621:684   */\n  tag_60\n  jumpi\n    /* \"#utility.yul\":680:681   */\n  0x00\n    /* \"#utility.yul\":677:678   */\n  dup1\n    /* \"#utility.yul\":670:682   */\n  revert\n    /* \"#utility.yul\":621:684   */\ntag_60:\n    /* \"#utility.yul\":568:690   */\n  pop\n  jump\t// out\n    /* \"#utility.yul\":696:839   */\ntag_30:\n    /* \"#utility.yul\":753:758   */\n  0x00\n    /* \"#utility.yul\":784:790   */\n  dup2\n    /* \"#utility.yul\":778:791   */\n  mload\n    /* \"#utility.yul\":769:791   */\n  swap1\n  pop\n    /* \"#utility.yul\":800:833   */\n  tag_62\n    /* \"#utility.yul\":827:832   */\n  dup2\n    /* \"#utility.yul\":800:833   */\n  tag_29\n  jump\t// in\ntag_62:\n    /* \"#utility.yul\":696:839   */\n  swap3\n  swap2\n  pop\n  pop\n  jump\t// out\n    /* \"#utility.yul\":845:1352   */\ntag_3:\n    /* \"#utility.yul\":924:930   */\n  0x00\n    /* \"#utility.yul\":932:938   */\n  dup1\n    /* \"#utility.yul\":981:983   */\n  0x40\n    /* \"#utility.yul\":969:978   */\n  dup4\n    /* \"#utility.yul\":960:967   */\n  dup6\n    /* \"#utility.yul\":956:979   */\n  sub\n    /* \"#utility.yul\":952:984   */\n  slt\n    /* \"#utility.yul\":949:1068   */\n  iszero\n  tag_64\n  jumpi\n    /* \"#utility.yul\":987:1066   */\n  tag_65\n  tag_25\n  jump\t// in\ntag_65:\n    /* \"#utility.yul\":949:1068   */\ntag_64:\n    /* \"#utility.yul\":1107:1108   */\n  0x00\n    /* \"#utility.yul\":1132:1196   */\n  tag_66\n    /* \"#utility.yul\":1188:1195   */\n  dup6\n    /* \"#utility.yul\":1179:1185   */\n  dup3\n    /* \"#utility.yul\":1168:1177   */\n  dup7\n    /* \"#utility.yul\":1164:1186   */\n  add\n    /* \"#utility.yul\":1132:1196   */\n  tag_30\n  jump\t// in\ntag_66:\n    /* \"#utility.yul\":1122:1196   */\n  swap3\n  pop\n    /* \"#utility.yul\":1078:1206   */\n  pop\n    /* \"#utility.yul\":1245:1247   */\n  0x20\n    /* \"#utility.yul\":1271:1335   */\n  tag_67\n    /* \"#utility.yul\":1327:1334   */\n  dup6\n    /* \"#utility.yul\":1318:1324   */\n  dup3\n    /* \"#utility.yul\":1307:1316   */\n  dup7\n    /* \"#utility.yul\":1303:1325   */\n  add\n    /* \"#utility.yul\":1271:1335   */\n  tag_30\n  jump\t// in\ntag_67:\n    /* \"#utility.yul\":1261:1335   */\n  swap2\n  pop\n    /* \"#utility.yul\":1216:1345   */\n  pop\n    /* \"#utility.yul\":845:1352   */\n  swap3\n  pop\n  swap3\n  swap1\n  pop\n  jump\t// out\n    /* \"#utility.yul\":1358:1457   */\ntag_31:\n    /* \"#utility.yul\":1410:1416   */\n  0x00\n    /* \"#utility.yul\":1444:1449   */\n  dup2\n    /* \"#utility.yul\":1438:1450   */\n  mload\n    /* \"#utility.yul\":1428:1450   */\n  swap1\n  pop\n    /* \"#utility.yul\":1358:1457   */\n  swap2\n  swap1\n  pop\n  jump\t// out\n    /* \"#utility.yul\":1463:1643   */\ntag_32:\n    /* \"#utility.yul\":1511:1588   */\n  0x4e487b7100000000000000000000000000000000000000000000000000000000\n    /* \"#utility.yul\":1508:1509   */\n  0x00\n    /* \"#utility.yul\":1501:1589   */\n  mstore\n    /* \"#utility.yul\":1608:1612   */\n  0x41\n    /* \"#utility.yul\":1605:1606   */\n  0x04\n    /* \"#utility.yul\":1598:1613   */\n  mstore\n    /* \"#utility.yul\":1632:1636   */\n  0x24\n    /* \"#utility.yul\":1629:1630   */\n  0x00\n    /* \"#utility.yul\":1622:1637   */\n  revert\n    /* \"#utility.yul\":1649:1829   */\ntag_33:\n    /* \"#utility.yul\":1697:1774   */\n  0x4e487b7100000000000000000000000000000000000000000000000000000000\n    /* \"#utility.yul\":1694:1695   */\n  0x00\n    /* \"#utility.yul\":1687:1775   */\n  mstore\n    /* \"#utility.yul\":1794:1798   */\n  0x22\n    /* \"#utility.yul\":1791:1792   */\n  0x04\n    /* \"#utility.yul\":1784:1799   */\n  mstore\n    /* \"#utility.yul\":1818:1822   */\n  0x24\n    /* \"#utility.yul\":1815:1816   */\n  0x00\n    /* \"#utility.yul\":1808:1823   */\n  revert\n    /* \"#utility.yul\":1835:2155   */\ntag_34:\n    /* \"#utility.yul\":1879:1885   */\n  0x00\n    /* \"#utility.yul\":1916:1917   */\n  0x02\n    /* \"#utility.yul\":1910:1914   */\n  dup3\n    /* \"#utility.yul\":1906:1918   */\n  div\n    /* \"#utility.yul\":1896:1918   */\n  swap1\n  pop\n    /* \"#utility.yul\":1963:1964   */\n  0x01\n    /* \"#utility.yul\":1957:1961   */\n  dup3\n    /* \"#utility.yul\":1953:1965   */\n  and\n    /* \"#utility.yul\":1984:2002   */\n  dup1\n    /* \"#utility.yul\":1974:2055   */\n  tag_72\n  jumpi\n    /* \"#utility.yul\":2040:2044   */\n  0x7f\n    /* \"#utility.yul\":2032:2038   */\n  dup3\n    /* \"#utility.yul\":2028:2045   */\n  and\n    /* \"#utility.yul\":2018:2045   */\n  swap2\n  pop\n    /* \"#utility.yul\":1974:2055   */\ntag_72:\n    /* \"#utility.yul\":2102:2104   */\n  0x20\n    /* \"#utility.yul\":2094:2100   */\n  dup3\n    /* \"#utility.yul\":2091:2105   */\n  lt\n    /* \"#utility.yul\":2071:2089   */\n  dup2\n    /* \"#utility.yul\":2068:2106   */\n  sub\n    /* \"#utility.yul\":2065:2149   */\n  tag_73\n  jumpi\n    /* \"#utility.yul\":2121:2139   */\n  tag_74\n  tag_33\n  jump\t// in\ntag_74:\n    /* \"#utility.yul\":2065:2149   */\ntag_73:\n    /* \"#utility.yul\":1886:2155   */\n  pop\n    /* \"#utility.yul\":1835:2155   */\n  swap2\n  swap1\n  pop\n  jump\t// out\n    /* \"#utility.yul\":2161:2302   */\ntag_35:\n    /* \"#utility.yul\":2210:2214   */\n  0x00\n    /* \"#utility.yul\":2233:2236   */\n  dup2\n    /* \"#utility.yul\":2225:2236   */\n  swap1\n  pop\n    /* \"#utility.yul\":2256:2259   */\n  dup2\n    /* \"#utility.yul\":2253:2254   */\n  0x00\n    /* \"#utility.yul\":2246:2260   */\n  mstore\n    /* \"#utility.yul\":2290:2294   */\n  0x20\n    /* \"#utility.yul\":2287:2288   */\n  0x00\n    /* \"#utility.yul\":2277:2295   */\n  keccak256\n    /* \"#utility.yul\":2269:2295   */\n  swap1\n  pop\n    /* \"#utility.yul\":2161:2302   */\n  swap2\n  swap1\n  pop\n  jump\t// out\n    /* \"#utility.yul\":2308:2401   */\ntag_36:\n    /* \"#utility.yul\":2345:2351   */\n  0x00\n    /* \"#utility.yul\":2392:2394   */\n  0x20\n    /* \"#utility.yul\":2387:2389   */\n  0x1f\n    /* \"#utility.yul\":2380:2385   */\n  dup4\n    /* \"#utility.yul\":2376:2390   */\n  add\n    /* \"#utility.yul\":2372:2395   */\n  div\n    /* \"#utility.yul\":2362:2395   */\n  swap1\n  pop\n    /* \"#utility.yul\":2308:2401   */\n  swap2\n  swap1\n  pop\n  jump\t// out\n    /* \"#utility.yul\":2407:2514   */\ntag_37:\n    /* \"#utility.yul\":2451:2459   */\n  0x00\n    /* \"#utility.yul\":2501:2506   */\n  dup3\n    /* \"#utility.yul\":2495:2499   */\n  dup3\n    /* \"#utility.yul\":2491:2507   */\n  shl\n    /* \"#utility.yul\":2470:2507   */\n  swap1\n  pop\n    /* \"#utility.yul\":2407:2514   */\n  swap3\n  swap2\n  pop\n  pop\n  jump\t// out\n    /* \"#utility.yul\":2520:2913   */\ntag_38:\n    /* \"#utility.yul\":2589:2595   */\n  0x00\n    /* \"#utility.yul\":2639:2640   */\n  0x08\n    /* \"#utility.yul\":2627:2637   */\n  dup4\n    /* \"#utility.yul\":2623:2641   */\n  mul\n    /* \"#utility.yul\":2662:2759   */\n  tag_79\n    /* \"#utility.yul\":2692:2758   */\n  0xffffffffffffffffffffffffffffffffffffffffffffffffffffffffffffffff\n    /* \"#utility.yul\":2681:2690   */\n  dup3\n    /* \"#utility.yul\":2662:2759   */\n  tag_37\n  jump\t// in\ntag_79:\n    /* \"#utility.yul\":2780:2819   */\n  tag_80\n    /* \"#utility.yul\":2810:2818   */\n  dup7\n    /* \"#utility.yul\":2799:2808   */\n  dup4\n    /* \"#utility.yul\":2780:2819   */\n  tag_37\n  jump\t// in\ntag_80:\n    /* \"#utility.yul\":2768:2819   */\n  swap6\n  pop\n    /* \"#utility.yul\":2852:2856   */\n  dup1\n    /* \"#utility.yul\":2848:2857   */\n  not\n    /* \"#utility.yul\":2841:2846   */\n  dup5\n    /* \"#utility.yul\":2837:2858   */\n  and\n    /* \"#utility.yul\":2828:2858   */\n  swap4\n  pop\n    /* \"#utility.yul\":2901:2905   */\n  dup1\n    /* \"#utility.yul\":2891:2899   */\n  dup7\n    /* \"#utility.yul\":2887:2906   */\n  and\n    /* \"#utility.yul\":2880:2885   */\n  dup5\n    /* \"#utility.yul\":2877:2907   */\n  or\n    /* \"#utility.yul\":2867:2907   */\n  swap3\n  pop\n    /* \"#utility.yul\":2596:2913   */\n  pop\n  pop\n    /* \"#utility.yul\":2520:2913   */\n  swap4\n  swap3\n  pop\n  pop\n  pop\n  jump\t// out\n    /* \"#utility.yul\":2919:2996   */\ntag_39:\n    /* \"#utility.yul\":2956:2963   */\n  0x00\n    /* \"#utility.yul\":2985:2990   */\n  dup2\n    /* \"#utility.yul\":2974:2990   */\n  swap1\n  pop\n    /* \"#utility.yul\":2919:2996   */\n  swap2\n  swap1\n  pop\n  jump\t// out\n    /* \"#utility.yul\":3002:3062   */\ntag_40:\n    /* \"#utility.yul\":3030:3033   */\n  0x00\n    /* \"#utility.yul\":3051:3056   */\n  dup2\n    /* \"#utility.yul\":3044:3056   */\n  swap1\n  pop\n    /* \"#utility.yul\":3002:3062   */\n  swap2\n  swap1\n  pop\n  jump\t// out\n    /* \"#utility.yul\":3068:3210   */\ntag_41:\n    /* \"#utility.yul\":3118:3127   */\n  0x00\n    /* \"#utility.yul\":3151:3204   */\n  tag_84\n    /* \"#utility.yul\":3169:3203   */\n  tag_85\n    /* \"#utility.yul\":3178:3202   */\n  tag_86\n    /* \"#utility.yul\":3196:3201   */\n  dup5\n    /* \"#utility.yul\":3178:3202   */\n  tag_39\n  jump\t// in\ntag_86:\n    /* \"#utility.yul\":3169:3203   */\n  tag_40\n  jump\t// in\ntag_85:\n    /* \"#utility.yul\":3151:3204   */\n  tag_39\n  jump\t// in\ntag_84:\n    /* \"#utility.yul\":3138:3204   */\n  swap1\n  pop\n    /* \"#utility.yul\":3068:3210   */\n  swap2\n  swap1\n  pop\n  jump\t// out\n    /* \"#utility.yul\":3216:3291   */\ntag_42:\n    /* \"#utility.yul\":3259:3262   */\n  0x00\n    /* \"#utility.yul\":3280:3285   */\n  dup2\n    /* \"#utility.yul\":3273:3285   */\n  swap1\n  pop\n    /* \"#utility.yul\":3216:3291   */\n  swap2\n  swap1\n  pop\n  jump\t// out\n    /* \"#utility.yul\":3297:3566   */\ntag_43:\n    /* \"#utility.yul\":3407:3446   */\n  tag_89\n    /* \"#utility.yul\":3438:3445   */\n  dup4\n    /* \"#utility.yul\":3407:3446   */\n  tag_41\n  jump\t// in\ntag_89:\n    /* \"#utility.yul\":3468:3559   */\n  tag_90\n    /* \"#utility.yul\":3517:3558   */\n  tag_91\n    /* \"#utility.yul\":3541:3557   */\n  dup3\n    /* \"#utility.yul\":3517:3558   */\n  tag_42\n  jump\t// in\ntag_91:\n    /* \"#utility.yul\":3509:3515   */\n  dup5\n    /* \"#utility.yul\":3502:3506   */\n  dup5\n    /* \"#utility.yul\":3496:3507   */\n  sload\n    /* \"#utility.yul\":3468:3559   */\n  tag_38\n  jump\t// in\ntag_90:\n    /* \"#utility.yul\":3462:3466   */\n  dup3\n    /* \"#utility.yul\":3455:3560   */\n  sstore\n    /* \"#utility.yul\":3373:3566   */\n  pop\n    /* \"#utility.yul\":3297:3566   */\n  pop\n  pop\n  pop\n  jump\t// out\n    /* \"#utility.yul\":3572:3645   */\ntag_44:\n    /* \"#utility.yul\":3617:3620   */\n  0x00\n    /* \"#utility.yul\":3572:3645   */\n  swap1\n  jump\t// out\n    /* \"#utility.yul\":3651:3840   */\ntag_45:\n    /* \"#utility.yul\":3728:3760   */\n  tag_94\n  tag_44\n  jump\t// in\ntag_94:\n    /* \"#utility.yul\":3769:3834   */\n  tag_95\n    /* \"#utility.yul\":3827:3833   */\n  dup2\n    /* \"#utility.yul\":3819:3825   */\n  dup5\n    /* \"#utility.yul\":3813:3817   */\n  dup5\n    /* \"#utility.yul\":3769:3834   */\n  tag_43\n  jump\t// in\ntag_95:\n    /* \"#utility.yul\":3704:3840   */\n  pop\n    /* \"#utility.yul\":3651:3840   */\n  pop\n  pop\n  jump\t// out\n    /* \"#utility.yul\":3846:4032   */\ntag_46:\n    /* \"#utility.yul\":3906:4026   */\ntag_97:\n    /* \"#utility.yul\":3923:3926   */\n  dup2\n    /* \"#utility.yul\":3916:3921   */\n  dup2\n    /* \"#utility.yul\":3913:3927   */\n  lt\n    /* \"#utility.yul\":3906:4026   */\n  iszero\n  tag_99\n  jumpi\n    /* \"#utility.yul\":3977:4016   */\n  tag_100\n    /* \"#utility.yul\":4014:4015   */\n  0x00\n    /* \"#utility.yul\":4007:4012   */\n  dup3\n    /* \"#utility.yul\":3977:4016   */\n  tag_45\n  jump\t// in\ntag_100:\n    /* \"#utility.yul\":3950:3951   */\n  0x01\n    /* \"#utility.yul\":3943:3948   */\n  dup2\n    /* \"#utility.yul\":3939:3952   */\n  add\n    /* \"#utility.yul\":3930:3952   */\n  swap1\n  pop\n    /* \"#utility.yul\":3906:4026   */\n  jump(tag_97)\ntag_99:\n    /* \"#utility.yul\":3846:4032   */\n  pop\n  pop\n  jump\t// out\n    /* \"#utility.yul\":4038:4581   */\ntag_47:\n    /* \"#utility.yul\":4139:4141   */\n  0x1f\n    /* \"#utility.yul\":4134:4137   */\n  dup3\n    /* \"#utility.yul\":4131:4142   */\n  gt\n    /* \"#utility.yul\":4128:4574   */\n  iszero\n  tag_102\n  jumpi\n    /* \"#utility.yul\":4173:4211   */\n  tag_103\n    /* \"#utility.yul\":4205:4210   */\n  dup2\n    /* \"#utility.yul\":4173:4211   */\n  tag_35\n  jump\t// in\ntag_103:\n    /* \"#utility.yul\":4257:4286   */\n  tag_104\n    /* \"#utility.yul\":4275:4285   */\n  dup5\n    /* \"#utility.yul\":4257:4286   */\n  tag_36\n  jump\t// in\ntag_104:\n    /* \"#utility.yul\":4247:4255   */\n  dup2\n    /* \"#utility.yul\":4243:4287   */\n  add\n    /* \"#utility.yul\":4440:4442   */\n  0x20\n    /* \"#utility.yul\":4428:4438   */\n  dup6\n    /* \"#utility.yul\":4425:4443   */\n  lt\n    /* \"#utility.yul\":4422:4471   */\n  iszero\n  tag_105\n  jumpi\n    /* \"#utility.yul\":4461:4469   */\n  dup2\n    /* \"#utility.yul\":4446:4469   */\n  swap1\n  pop\n    /* \"#utility.yul\":4422:4471   */\ntag_105:\n    /* \"#utility.yul\":4484:4564   */\n  tag_106\n    /* \"#utility.yul\":4540:4562   */\n  tag_107\n    /* \"#utility.yul\":4558:4561   */\n  dup6\n    /* \"#utility.yul\":4540:4562   */\n  tag_36\n  jump\t// in\ntag_107:\n    /* \"#utility.yul\":4530:4538   */\n  dup4\n    /* \"#utility.yul\":4526:4563   */\n  add\n    /* \"#utility.yul\":4513:4524   */\n  dup3\n    /* \"#utility.yul\":4484:4564   */\n  tag_46\n  jump\t// in\ntag_106:\n    /* \"#utility.yul\":4143:4574   */\n  pop\n  pop\n    /* \"#utility.yul\":4128:4574   */\ntag_102:\n    /* \"#utility.yul\":4038:4581   */\n  pop\n  pop\n  pop\n  jump\t// out\n    /* \"#utility.yul\":4587:4704   */\ntag_48:\n    /* \"#utility.yul\":4641:4649   */\n  0x00\n    /* \"#utility.yul\":4691:4696   */\n  dup3\n    /* \"#utility.yul\":4685:4689   */\n  dup3\n    /* \"#utility.yul\":4681:4697   */\n  shr\n    /* \"#utility.yul\":4660:4697   */\n  swap1\n  pop\n    /* \"#utility.yul\":4587:4704   */\n  swap3\n  swap2\n  pop\n  pop\n  jump\t// out\n    /* \"#utility.yul\":4710:4879   */\ntag_49:\n    /* \"#utility.yul\":4754:4760   */\n  0x00\n    /* \"#utility.yul\":4787:4838   */\n  tag_110\n    /* \"#utility.yul\":4835:4836   */\n  0x00\n    /* \"#utility.yul\":4831:4837   */\n  not\n    /* \"#utility.yul\":4823:4828   */\n  dup5\n    /* \"#utility.yul\":4820:4821   */\n  0x08\n    /* \"#utility.yul\":4816:4829   */\n  mul\n    /* \"#utility.yul\":4787:4838   */\n  tag_48\n  jump\t// in\ntag_110:\n    /* \"#utility.yul\":4783:4839   */\n  not\n    /* \"#utility.yul\":4868:4872   */\n  dup1\n    /* \"#utility.yul\":4862:4866   */\n  dup4\n    /* \"#utility.yul\":4858:4873   */\n  and\n    /* \"#utility.yul\":4848:4873   */\n  swap2\n  pop\n    /* \"#utility.yul\":4761:4879   */\n  pop\n    /* \"#utility.yul\":4710:4879   */\n  swap3\n  swap2\n  pop\n  pop\n  jump\t// out\n    /* \"#utility.yul\":4884:5179   */\ntag_50:\n    /* \"#utility.yul\":4960:4964   */\n  0x00\n    /* \"#utility.yul\":5106:5135   */\n  tag_112\n    /* \"#utility.yul\":5131:5134   */\n  dup4\n    /* \"#utility.yul\":5125:5129   */\n  dup4\n    /* \"#utility.yul\":5106:5135   */\n  tag_49\n  jump\t// in\ntag_112:\n    /* \"#utility.yul\":5098:5135   */\n  swap2\n  pop\n    /* \"#utility.yul\":5168:5171   */\n  dup3\n    /* \"#utility.yul\":5165:5166   */\n  0x02\n    /* \"#utility.yul\":5161:5172   */\n  mul\n    /* \"#utility.yul\":5155:5159   */\n  dup3\n    /* \"#utility.yul\":5152:5173   */\n  or\n    /* \"#utility.yul\":5144:5173   */\n  swap1\n  pop\n    /* \"#utility.yul\":4884:5179   */\n  swap3\n  swap2\n  pop\n  pop\n  jump\t// out\n    /* \"#utility.yul\":5184:6579   */\ntag_8:\n    /* \"#utility.yul\":5301:5338   */\n  tag_114\n    /* \"#utility.yul\":5334:5337   */\n  dup3\n    /* \"#utility.yul\":5301:5338   */\n  tag_31\n  jump\t// in\ntag_114:\n    /* \"#utility.yul\":5403:5421   */\n  0xffffffffffffffff\n    /* \"#utility.yul\":5395:5401   */\n  dup2\n    /* \"#utility.yul\":5392:5422   */\n  gt\n    /* \"#utility.yul\":5389:5445   */\n  iszero\n  tag_115\n  jumpi\n    /* \"#utility.yul\":5425:5443   */\n  tag_116\n  tag_32\n  jump\t// in\ntag_116:\n    /* \"#utility.yul\":5389:5445   */\ntag_115:\n    /* \"#utility.yul\":5469:5507   */\n  tag_117\n    /* \"#utility.yul\":5501:5505   */\n  dup3\n    /* \"#utility.yul\":5495:5506   */\n  sload\n    /* \"#utility.yul\":5469:5507   */\n  tag_34\n  jump\t// in\ntag_117:\n    /* \"#utility.yul\":5554:5621   */\n  tag_118\n    /* \"#utility.yul\":5614:5620   */\n  dup3\n    /* \"#utility.yul\":5606:5612   */\n  dup3\n    /* \"#utility.yul\":5600:5604   */\n  dup6\n    /* \"#utility.yul\":5554:5621   */\n  tag_47\n  jump\t// in\ntag_118:\n    /* \"#utility.yul\":5648:5649   */\n  0x00\n    /* \"#utility.yul\":5672:5676   */\n  0x20\n    /* \"#utility.yul\":5659:5676   */\n  swap1\n  pop\n    /* \"#utility.yul\":5704:5706   */\n  0x1f\n    /* \"#utility.yul\":5696:5702   */\n  dup4\n    /* \"#utility.yul\":5693:5707   */\n  gt\n    /* \"#utility.yul\":5721:5722   */\n  0x01\n    /* \"#utility.yul\":5716:6334   */\n  dup2\n  eq\n  tag_120\n  jumpi\n    /* \"#utility.yul\":6378:6379   */\n  0x00\n    /* \"#utility.yul\":6395:6401   */\n  dup5\n    /* \"#utility.yul\":6392:6469   */\n  iszero\n  tag_121\n  jumpi\n    /* \"#utility.yul\":6444:6453   */\n  dup3\n    /* \"#utility.yul\":6439:6442   */\n  dup8\n    /* \"#utility.yul\":6435:6454   */\n  add\n    /* \"#utility.yul\":6429:6455   */\n  mload\n    /* \"#utility.yul\":6420:6455   */\n  swap1\n  pop\n    /* \"#utility.yul\":6392:6469   */\ntag_121:\n    /* \"#utility.yul\":6495:6562   */\n  tag_122\n    /* \"#utility.yul\":6555:6561   */\n  dup6\n    /* \"#utility.yul\":6548:6553   */\n  dup3\n    /* \"#utility.yul\":6495:6562   */\n  tag_50\n  jump\t// in\ntag_122:\n    /* \"#utility.yul\":6489:6493   */\n  dup7\n    /* \"#utility.yul\":6482:6563   */\n  sstore\n    /* \"#utility.yul\":6351:6573   */\n  pop\n    /* \"#utility.yul\":5686:6573   */\n  jump(tag_119)\n    /* \"#utility.yul\":5716:6334   */\ntag_120:\n    /* \"#utility.yul\":5768:5772   */\n  0x1f\n    /* \"#utility.yul\":5764:5773   */\n  not\n    /* \"#utility.yul\":5756:5762   */\n  dup5\n    /* \"#utility.yul\":5752:5774   */\n  and\n    /* \"#utility.yul\":5802:5839   */\n  tag_123\n    /* \"#utility.yul\":5834:5838   */\n  dup7\n    /* \"#utility.yul\":5802:5839   */\n  tag_35\n  jump\t// in\ntag_123:\n    /* \"#utility.yul\":5861:5862   */\n  0x00\n    /* \"#utility.yul\":5875:6083   */\ntag_124:\n    /* \"#utility.yul\":5889:5896   */\n  dup3\n    /* \"#utility.yul\":5886:5887   */\n  dup2\n    /* \"#utility.yul\":5883:5897   */\n  lt\n    /* \"#utility.yul\":5875:6083   */\n  iszero\n  tag_126\n  jumpi\n    /* \"#utility.yul\":5968:5977   */\n  dup5\n    /* \"#utility.yul\":5963:5966   */\n  dup10\n    /* \"#utility.yul\":5959:5978   */\n  add\n    /* \"#utility.yul\":5953:5979   */\n  mload\n    /* \"#utility.yul\":5945:5951   */\n  dup3\n    /* \"#utility.yul\":5938:5980   */\n  sstore\n    /* \"#utility.yul\":6019:6020   */\n  0x01\n    /* \"#utility.yul\":6011:6017   */\n  dup3\n    /* \"#utility.yul\":6007:6021   */\n  add\n    /* \"#utility.yul\":5997:6021   */\n  swap2\n  pop\n    /* \"#utility.yul\":6066:6068   */\n  0x20\n    /* \"#utility.yul\":6055:6064   */\n  dup6\n    /* \"#utility.yul\":6051:6069   */\n  add\n    /* \"#utility.yul\":6038:6069   */\n  swap5\n  pop\n    /* \"#utility.yul\":5912:5916   */\n  0x20\n    /* \"#utility.yul\":5909:5910   */\n  dup2\n    /* \"#utility.yul\":5905:5917   */\n  add\n    /* \"#utility.yul\":5900:5917   */\n  swap1\n  pop\n    /* \"#utility.yul\":5875:6083   */\n  jump(tag_124)\ntag_126:\n    /* \"#utility.yul\":6111:6117   */\n  dup7\n    /* \"#utility.yul\":6102:6109   */\n  dup4\n    /* \"#utility.yul\":6099:6118   */\n  lt\n    /* \"#utility.yul\":6096:6275   */\n  iszero\n  tag_127\n  jumpi\n    /* \"#utility.yul\":6169:6178   */\n  dup5\n    /* \"#utility.yul\":6164:6167   */\n  dup10\n    /* \"#utility.yul\":6160:6179   */\n  add\n    /* \"#utility.yul\":6154:6180   */\n  mload\n    /* \"#utility.yul\":6212:6260   */\n  tag_128\n    /* \"#utility.yul\":6254:6258   */\n  0x1f\n    /* \"#utility.yul\":6246:6252   */\n  dup10\n    /* \"#utility.yul\":6242:6259   */\n  and\n    /* \"#utility.yul\":6231:6240   */\n  dup3\n    /* \"#utility.yul\":6212:6260   */\n  tag_49\n  jump\t// in\ntag_128:\n    /* \"#utility.yul\":6204:6210   */\n  dup4\n    /* \"#utility.yul\":6197:6261   */\n  sstore\n    /* \"#utility.yul\":6119:6275   */\n  pop\n    /* \"#utility.yul\":6096:6275   */\ntag_127:\n    /* \"#utility.yul\":6321:6322   */\n  0x01\n    /* \"#utility.yul\":6317:6318   */\n  0x02\n    /* \"#utility.yul\":6309:6315   */\n  dup9\n    /* \"#utility.yul\":6305:6319   */\n  mul\n    /* \"#utility.yul\":6301:6323   */\n  add\n    /* \"#utility.yul\":6295:6299   */\n  dup9\n    /* \"#utility.yul\":6288:6324   */\n  sstore\n    /* \"#utility.yul\":5723:6334   */\n  pop\n  pop\n  pop\n    /* \"#utility.yul\":5686:6573   */\ntag_119:\n  pop\n    /* \"#utility.yul\":5276:6579   */\n  pop\n  pop\n  pop\n    /* \"#utility.yul\":5184:6579   */\n  pop\n  pop\n  jump\t// out\n    /* \"contracts/SampleCoffeeToken.sol\":264:1253  contract CoffeToken is ERC20, AccessControl {... */\ntag_14:\n  dataSize(sub_0)\n  dup1\n  dataOffset(sub_0)\n  0x00\n  codecopy\n  0x00\n  return\nstop\n\nsub_0: assembly {\n        /* \"contracts/SampleCoffeeToken.sol\":264:1253  contract CoffeToken is ERC20, AccessControl {... */\n      mstore(0x40, 0x80)\n      callvalue\n      dup1\n      iszero\n      tag_1\n      jumpi\n      0x00\n      dup1\n      revert\n    tag_1:\n      pop\n      jumpi(tag_2, lt(calldatasize, 0x04))\n      shr(0xe0, calldataload(0x00))\n      dup1\n      0x70a08231\n      gt\n      tag_23\n      jumpi\n      dup1\n      0xb9aa8c31\n      gt\n      tag_24\n      jumpi\n      dup1\n      0xb9aa8c31\n      eq\n      tag_18\n      jumpi\n      dup1\n      0xc4954732\n      eq\n      tag_19\n      jumpi\n      dup1\n      0xd5391393\n      eq\n      tag_20\n      jumpi\n      dup1\n      0xd547741f\n      eq\n      tag_21\n      jumpi\n      dup1\n      0xdd62ed3e\n      eq\n      tag_22\n      jumpi\n      jump(tag_2)\n    tag_24:\n      dup1\n      0x70a08231\n      eq\n      tag_13\n      jumpi\n      dup1\n      0x91d14854\n      eq\n      tag_14\n      jumpi\n      dup1\n      0x95d89b41\n      eq\n      tag_15\n      jumpi\n      dup1\n      0xa217fddf\n      eq\n      tag_16\n      jumpi\n      dup1\n      0xa9059cbb\n      eq\n      tag_17\n      jumpi\n      jump(tag_2)\n    tag_23:\n      dup1\n      0x248a9ca3\n      gt\n      tag_25\n      jumpi\n      dup1\n      0x248a9ca3\n      eq\n      tag_8\n      jumpi\n      dup1\n      0x2f2ff15d\n      eq\n      tag_9\n      jumpi\n      dup1\n      0x313ce567\n      eq\n      tag_10\n      jumpi\n      dup1\n      0x36568abe\n      eq\n      tag_11\n      jumpi\n      dup1\n      0x40c10f19\n      eq\n      tag_12\n      jumpi\n      jump(tag_2)\n    tag_25:\n      dup1\n      0x01ffc9a7\n      eq\n      tag_3\n      jumpi\n      dup1\n      0x06fdde03\n      eq\n      tag_4\n      jumpi\n      dup1\n      0x095ea7b3\n      eq\n      tag_5\n      jumpi\n      dup1\n      0x18160ddd\n      eq\n      tag_6\n      jumpi\n      dup1\n      0x23b872dd\n      eq\n      tag_7\n      jumpi\n    tag_2:\n      0x00\n      dup1\n      revert\n        /* \"@openzeppelin/contracts/access/AccessControl.sol\":2565:2767  function supportsInterface(bytes4 interfaceId) public view virtual override returns (bool) {... */\n    tag_3:\n      tag_26\n      0x04\n      dup1\n      calldatasize\n      sub\n      dup2\n      add\n      swap1\n      tag_27\n      swap2\n      swap1\n      tag_28\n      jump\t// in\n    tag_27:\n      tag_29\n      jump\t// in\n    tag_26:\n      mload(0x40)\n      tag_30\n      swap2\n      swap1\n      tag_31\n      jump\t// in\n    tag_30:\n      mload(0x40)\n      dup1\n      swap2\n      sub\n      swap1\n      return\n        /* \"@openzeppelin/contracts/token/ERC20/ERC20.sol\":1779:1868  function name() public view virtual returns (string memory) {... */\n    tag_4:\n      tag_32\n      tag_33\n      jump\t// in\n    tag_32:\n      mload(0x40)\n      tag_34\n      swap2\n      swap1\n      tag_35\n      jump\t// in\n    tag_34:\n      mload(0x40)\n      dup1\n      swap2\n      sub\n      swap1\n      return\n        /* \"@openzeppelin/contracts/token/ERC20/ERC20.sol\":3998:4184  function approve(address spender, uint256 value) public virtual returns (bool) {... */\n    tag_5:\n      tag_36\n      0x04\n      dup1\n      calldatasize\n      sub\n      dup2\n      add\n      swap1\n      tag_37\n      swap2\n      swap1\n      tag_38\n      jump\t// in\n    tag_37:\n      tag_39\n      jump\t// in\n    tag_36:\n      mload(0x40)\n      tag_40\n      swap2\n      swap1\n      tag_31\n      jump\t// in\n    tag_40:\n      mload(0x40)\n      dup1\n      swap2\n      sub\n      swap1\n      return\n        /* \"@openzeppelin/contracts/token/ERC20/ERC20.sol\":2849:2946  function totalSupply() public view virtual returns (uint256) {... */\n    tag_6:\n      tag_41\n      tag_42\n      jump\t// in\n    tag_41:\n      mload(0x40)\n      tag_43\n      swap2\n      swap1\n      tag_44\n      jump\t// in\n    tag_43:\n      mload(0x40)\n      dup1\n      swap2\n      sub\n      swap1\n      return\n        /* \"@openzeppelin/contracts/token/ERC20/ERC20.sol\":4776:5020  function transferFrom(address from, address to, uint256 value) public virtual returns (bool) {... */\n    tag_7:\n      tag_45\n      0x04\n      dup1\n      calldatasize\n      sub\n      dup2\n      add\n      swap1\n      tag_46\n      swap2\n      swap1\n      tag_47\n      jump\t// in\n    tag_46:\n      tag_48\n      jump\t// in\n    tag_45:\n      mload(0x40)\n      tag_49\n      swap2\n      swap1\n      tag_31\n      jump\t// in\n    tag_49:\n      mload(0x40)\n      dup1\n      swap2\n      sub\n      swap1\n      return\n        /* \"@openzeppelin/contracts/access/AccessControl.sol\":3810:3930  function getRoleAdmin(bytes32 role) public view virtual returns (bytes32) {... */\n    tag_8:\n      tag_50\n      0x04\n      dup1\n      calldatasize\n      sub\n      dup2\n      add\n      swap1\n      tag_51\n      swap2\n      swap1\n      tag_52\n      jump\t// in\n    tag_51:\n      tag_53\n      jump\t// in\n    tag_50:\n      mload(0x40)\n      tag_54\n      swap2\n      swap1\n      tag_55\n      jump\t// in\n    tag_54:\n      mload(0x40)\n      dup1\n      swap2\n      sub\n      swap1\n      return\n        /* \"@openzeppelin/contracts/access/AccessControl.sol\":4226:4362  function grantRole(bytes32 role, address account) public virtual onlyRole(getRoleAdmin(role)) {... */\n    tag_9:\n      tag_56\n      0x04\n      dup1\n      calldatasize\n      sub\n      dup2\n      add\n      swap1\n      tag_57\n      swap2\n      swap1\n      tag_58\n      jump\t// in\n    tag_57:\n      tag_59\n      jump\t// in\n    tag_56:\n      stop\n        /* \"@openzeppelin/contracts/token/ERC20/ERC20.sol\":2707:2789  function decimals() public view virtual returns (uint8) {... */\n    tag_10:\n      tag_60\n      tag_61\n      jump\t// in\n    tag_60:\n      mload(0x40)\n      tag_62\n      swap2\n      swap1\n      tag_63\n      jump\t// in\n    tag_62:\n      mload(0x40)\n      dup1\n      swap2\n      sub\n      swap1\n      return\n        /* \"@openzeppelin/contracts/access/AccessControl.sol\":5328:5573  function renounceRole(bytes32 role, address callerConfirmation) public virtual {... */\n    tag_11:\n      tag_64\n      0x04\n      dup1\n      calldatasize\n      sub\n      dup2\n      add\n      swap1\n      tag_65\n      swap2\n      swap1\n      tag_58\n      jump\t// in\n    tag_65:\n      tag_66\n      jump\t// in\n    tag_64:\n      stop\n        /* \"contracts/SampleCoffeeToken.sol\":656:763  function mint(address to, uint256 amount) public onlyRole(MINTER_ROLE) {... */\n    tag_12:\n      tag_67\n      0x04\n      dup1\n      calldatasize\n      sub\n      dup2\n      add\n      swap1\n      tag_68\n      swap2\n      swap1\n      tag_38\n      jump\t// in\n    tag_68:\n      tag_69\n      jump\t// in\n    tag_67:\n      stop\n        /* \"@openzeppelin/contracts/token/ERC20/ERC20.sol\":3004:3120  function balanceOf(address account) public view virtual returns (uint256) {... */\n    tag_13:\n      tag_70\n      0x04\n      dup1\n      calldatasize\n      sub\n      dup2\n      add\n      swap1\n      tag_71\n      swap2\n      swap1\n      tag_72\n      jump\t// in\n    tag_71:\n      tag_73\n      jump\t// in\n    tag_70:\n      mload(0x40)\n      tag_74\n      swap2\n      swap1\n      tag_44\n      jump\t// in\n    tag_74:\n      mload(0x40)\n      dup1\n      swap2\n      sub\n      swap1\n      return\n        /* \"@openzeppelin/contracts/access/AccessControl.sol\":2854:2990  function hasRole(bytes32 role, address account) public view virtual returns (bool) {... */\n    tag_14:\n      tag_75\n      0x04\n      dup1\n      calldatasize\n      sub\n      dup2\n      add\n      swap1\n      tag_76\n      swap2\n      swap1\n      tag_58\n      jump\t// in\n    tag_76:\n      tag_77\n      jump\t// in\n    tag_75:\n      mload(0x40)\n      tag_78\n      swap2\n      swap1\n      tag_31\n      jump\t// in\n    tag_78:\n      mload(0x40)\n      dup1\n      swap2\n      sub\n      swap1\n      return\n        /* \"@openzeppelin/contracts/token/ERC20/ERC20.sol\":1981:2074  function symbol() public view virtual returns (string memory) {... */\n    tag_15:\n      tag_79\n      tag_80\n      jump\t// in\n    tag_79:\n      mload(0x40)\n      tag_81\n      swap2\n      swap1\n      tag_35\n      jump\t// in\n    tag_81:\n      mload(0x40)\n      dup1\n      swap2\n      sub\n      swap1\n      return\n        /* \"@openzeppelin/contracts/access/AccessControl.sol\":2187:2236  bytes32 public constant DEFAULT_ADMIN_ROLE = 0x00 */\n    tag_16:\n      tag_82\n      tag_83\n      jump\t// in\n    tag_82:\n      mload(0x40)\n      tag_84\n      swap2\n      swap1\n      tag_55\n      jump\t// in\n    tag_84:\n      mload(0x40)\n      dup1\n      swap2\n      sub\n      swap1\n      return\n        /* \"@openzeppelin/contracts/token/ERC20/ERC20.sol\":3315:3493  function transfer(address to, uint256 value) public virtual returns (bool) {... */\n    tag_17:\n      tag_85\n      0x04\n      dup1\n      calldatasize\n      sub\n      dup2\n      add\n      swap1\n      tag_86\n      swap2\n      swap1\n      tag_38\n      jump\t// in\n    tag_86:\n      tag_87\n      jump\t// in\n    tag_85:\n      mload(0x40)\n      tag_88\n      swap2\n      swap1\n      tag_31\n      jump\t// in\n    tag_88:\n      mload(0x40)\n      dup1\n      swap2\n      sub\n      swap1\n      return\n        /* \"contracts/SampleCoffeeToken.sol\":771:1048  function buyOneCoffee() public {... */\n    tag_18:\n      tag_89\n      tag_90\n      jump\t// in\n    tag_89:\n      stop\n        /* \"contracts/SampleCoffeeToken.sol\":1056:1250  function buyOneCoffeeFrom(address account) public {... */\n    tag_19:\n      tag_91\n      0x04\n      dup1\n      calldatasize\n      sub\n      dup2\n      add\n      swap1\n      tag_92\n      swap2\n      swap1\n      tag_72\n      jump\t// in\n    tag_92:\n      tag_93\n      jump\t// in\n    tag_91:\n      stop\n        /* \"contracts/SampleCoffeeToken.sol\":315:377  bytes32 public constant MINTER_ROLE = keccak256(\"MINTER_ROLE\") */\n    tag_20:\n      tag_94\n      tag_95\n      jump\t// in\n    tag_94:\n      mload(0x40)\n      tag_96\n      swap2\n      swap1\n      tag_55\n      jump\t// in\n    tag_96:\n      mload(0x40)\n      dup1\n      swap2\n      sub\n      swap1\n      return\n        /* \"@openzeppelin/contracts/access/AccessControl.sol\":4642:4780  function revokeRole(bytes32 role, address account) public virtual onlyRole(getRoleAdmin(role)) {... */\n    tag_21:\n      tag_97\n      0x04\n      dup1\n      calldatasize\n      sub\n      dup2\n      add\n      swap1\n      tag_98\n      swap2\n      swap1\n      tag_58\n      jump\t// in\n    tag_98:\n      tag_99\n      jump\t// in\n    tag_97:\n      stop\n        /* \"@openzeppelin/contracts/token/ERC20/ERC20.sol\":3551:3691  function allowance(address owner, address spender) public view virtual returns (uint256) {... */\n    tag_22:\n      tag_100\n      0x04\n      dup1\n      calldatasize\n      sub\n      dup2\n      add\n      swap1\n      tag_101\n      swap2\n      swap1\n      tag_102\n      jump\t// in\n    tag_101:\n      tag_103\n      jump\t// in\n    tag_100:\n      mload(0x40)\n      tag_104\n      swap2\n      swap1\n      tag_44\n      jump\t// in\n    tag_104:\n      mload(0x40)\n      dup1\n      swap2\n      sub\n      swap1\n      return\n        /* \"@openzeppelin/contracts/access/AccessControl.sol\":2565:2767  function supportsInterface(bytes4 interfaceId) public view virtual override returns (bool) {... */\n    tag_29:\n        /* \"@openzeppelin/contracts/access/AccessControl.sol\":2650:2654  bool */\n      0x00\n        /* \"@openzeppelin/contracts/access/AccessControl.sol\":2688:2720  type(IAccessControl).interfaceId */\n      0x7965db0b00000000000000000000000000000000000000000000000000000000\n        /* \"@openzeppelin/contracts/access/AccessControl.sol\":2673:2720  interfaceId == type(IAccessControl).interfaceId */\n      not(0xffffffffffffffffffffffffffffffffffffffffffffffffffffffff)\n      and\n        /* \"@openzeppelin/contracts/access/AccessControl.sol\":2673:2684  interfaceId */\n      dup3\n        /* \"@openzeppelin/contracts/access/AccessControl.sol\":2673:2720  interfaceId == type(IAccessControl).interfaceId */\n      not(0xffffffffffffffffffffffffffffffffffffffffffffffffffffffff)\n      and\n      eq\n        /* \"@openzeppelin/contracts/access/AccessControl.sol\":2673:2760  interfaceId == type(IAccessControl).interfaceId || super.supportsInterface(interfaceId) */\n      dup1\n      tag_106\n      jumpi\n      pop\n        /* \"@openzeppelin/contracts/access/AccessControl.sol\":2724:2760  super.supportsInterface(interfaceId) */\n      tag_107\n        /* \"@openzeppelin/contracts/access/AccessControl.sol\":2748:2759  interfaceId */\n      dup3\n        /* \"@openzeppelin/contracts/access/AccessControl.sol\":2724:2747  super.supportsInterface */\n      tag_108\n        /* \"@openzeppelin/contracts/access/AccessControl.sol\":2724:2760  super.supportsInterface(interfaceId) */\n      jump\t// in\n    tag_107:\n        /* \"@openzeppelin/contracts/access/AccessControl.sol\":2673:2760  interfaceId == type(IAccessControl).interfaceId || super.supportsInterface(interfaceId) */\n    tag_106:\n        /* \"@openzeppelin/contracts/access/AccessControl.sol\":2666:2760  return interfaceId == type(IAccessControl).interfaceId || super.supportsInterface(interfaceId) */\n      swap1\n      pop\n        /* \"@openzeppelin/contracts/access/AccessControl.sol\":2565:2767  function supportsInterface(bytes4 interfaceId) public view virtual override returns (bool) {... */\n      swap2\n      swap1\n      pop\n      jump\t// out\n        /* \"@openzeppelin/contracts/token/ERC20/ERC20.sol\":1779:1868  function name() public view virtual returns (string memory) {... */\n    tag_33:\n        /* \"@openzeppelin/contracts/token/ERC20/ERC20.sol\":1824:1837  string memory */\n      0x60\n        /* \"@openzeppelin/contracts/token/ERC20/ERC20.sol\":1856:1861  _name */\n      0x03\n        /* \"@openzeppelin/contracts/token/ERC20/ERC20.sol\":1849:1861  return _name */\n      dup1\n      sload\n      tag_110\n      swap1\n      tag_111\n      jump\t// in\n    tag_110:\n      dup1\n      0x1f\n      add\n      0x20\n      dup1\n      swap2\n      div\n      mul\n      0x20\n      add\n      mload(0x40)\n      swap1\n      dup2\n      add\n      0x40\n      mstore\n      dup1\n      swap3\n      swap2\n      swap1\n      dup2\n      dup2\n      mstore\n      0x20\n      add\n      dup3\n      dup1\n      sload\n      tag_112\n      swap1\n      tag_111\n      jump\t// in\n    tag_112:\n      dup1\n      iszero\n      tag_113\n      jumpi\n      dup1\n      0x1f\n      lt\n      tag_114\n      jumpi\n      0x0100\n      dup1\n      dup4\n      sload\n      div\n      mul\n      dup4\n      mstore\n      swap2\n      0x20\n      add\n      swap2\n      jump(tag_113)\n    tag_114:\n      dup3\n      add\n      swap2\n      swap1\n      0x00\n      mstore\n      keccak256(0x00, 0x20)\n      swap1\n    tag_115:\n      dup2\n      sload\n      dup2\n      mstore\n      swap1\n      0x01\n      add\n      swap1\n      0x20\n      add\n      dup1\n      dup4\n      gt\n      tag_115\n      jumpi\n      dup3\n      swap1\n      sub\n      0x1f\n      and\n      dup3\n      add\n      swap2\n    tag_113:\n      pop\n      pop\n      pop\n      pop\n      pop\n      swap1\n      pop\n        /* \"@openzeppelin/contracts/token/ERC20/ERC20.sol\":1779:1868  function name() public view virtual returns (string memory) {... */\n      swap1\n      jump\t// out\n        /* \"@openzeppelin/contracts/token/ERC20/ERC20.sol\":3998:4184  function approve(address spender, uint256 value) public virtual returns (bool) {... */\n    tag_39:\n        /* \"@openzeppelin/contracts/token/ERC20/ERC20.sol\":4071:4075  bool */\n      0x00\n        /* \"@openzeppelin/contracts/token/ERC20/ERC20.sol\":4087:4100  address owner */\n      dup1\n        /* \"@openzeppelin/contracts/token/ERC20/ERC20.sol\":4103:4115  _msgSender() */\n      tag_117\n        /* \"@openzeppelin/contracts/token/ERC20/ERC20.sol\":4103:4113  _msgSender */\n      tag_118\n        /* \"@openzeppelin/contracts/token/ERC20/ERC20.sol\":4103:4115  _msgSender() */\n      jump\t// in\n    tag_117:\n        /* \"@openzeppelin/contracts/token/ERC20/ERC20.sol\":4087:4115  address owner = _msgSender() */\n      swap1\n      pop\n        /* \"@openzeppelin/contracts/token/ERC20/ERC20.sol\":4125:4156  _approve(owner, spender, value) */\n      tag_119\n        /* \"@openzeppelin/contracts/token/ERC20/ERC20.sol\":4134:4139  owner */\n      dup2\n        /* \"@openzeppelin/contracts/token/ERC20/ERC20.sol\":4141:4148  spender */\n      dup6\n        /* \"@openzeppelin/contracts/token/ERC20/ERC20.sol\":4150:4155  value */\n      dup6\n        /* \"@openzeppelin/contracts/token/ERC20/ERC20.sol\":4125:4133  _approve */\n      tag_120\n        /* \"@openzeppelin/contracts/token/ERC20/ERC20.sol\":4125:4156  _approve(owner, spender, value) */\n      jump\t// in\n    tag_119:\n        /* \"@openzeppelin/contracts/token/ERC20/ERC20.sol\":4173:4177  true */\n      0x01\n        /* \"@openzeppelin/contracts/token/ERC20/ERC20.sol\":4166:4177  return true */\n      swap2\n      pop\n      pop\n        /* \"@openzeppelin/contracts/token/ERC20/ERC20.sol\":3998:4184  function approve(address spender, uint256 value) public virtual returns (bool) {... */\n      swap3\n      swap2\n      pop\n      pop\n      jump\t// out\n        /* \"@openzeppelin/contracts/token/ERC20/ERC20.sol\":2849:2946  function totalSupply() public view virtual returns (uint256) {... */\n    tag_42:\n        /* \"@openzeppelin/contracts/token/ERC20/ERC20.sol\":2901:2908  uint256 */\n      0x00\n        /* \"@openzeppelin/contracts/token/ERC20/ERC20.sol\":2927:2939  _totalSupply */\n      sload(0x02)\n        /* \"@openzeppelin/contracts/token/ERC20/ERC20.sol\":2920:2939  return _totalSupply */\n      swap1\n      pop\n        /* \"@openzeppelin/contracts/token/ERC20/ERC20.sol\":2849:2946  function totalSupply() public view virtual returns (uint256) {... */\n      swap1\n      jump\t// out\n        /* \"@openzeppelin/contracts/token/ERC20/ERC20.sol\":4776:5020  function transferFrom(address from, address to, uint256 value) public virtual returns (bool) {... */\n    tag_48:\n        /* \"@openzeppelin/contracts/token/ERC20/ERC20.sol\":4863:4867  bool */\n      0x00\n        /* \"@openzeppelin/contracts/token/ERC20/ERC20.sol\":4879:4894  address spender */\n      dup1\n        /* \"@openzeppelin/contracts/token/ERC20/ERC20.sol\":4897:4909  _msgSender() */\n      tag_123\n        /* \"@openzeppelin/contracts/token/ERC20/ERC20.sol\":4897:4907  _msgSender */\n      tag_118\n        /* \"@openzeppelin/contracts/token/ERC20/ERC20.sol\":4897:4909  _msgSender() */\n      jump\t// in\n    tag_123:\n        /* \"@openzeppelin/contracts/token/ERC20/ERC20.sol\":4879:4909  address spender = _msgSender() */\n      swap1\n      pop\n        /* \"@openzeppelin/contracts/token/ERC20/ERC20.sol\":4919:4956  _spendAllowance(from, spender, value) */\n      tag_124\n        /* \"@openzeppelin/contracts/token/ERC20/ERC20.sol\":4935:4939  from */\n      dup6\n        /* \"@openzeppelin/contracts/token/ERC20/ERC20.sol\":4941:4948  spender */\n      dup3\n        /* \"@openzeppelin/contracts/token/ERC20/ERC20.sol\":4950:4955  value */\n      dup6\n        /* \"@openzeppelin/contracts/token/ERC20/ERC20.sol\":4919:4934  _spendAllowance */\n      tag_125\n        /* \"@openzeppelin/contracts/token/ERC20/ERC20.sol\":4919:4956  _spendAllowance(from, spender, value) */\n      jump\t// in\n    tag_124:\n        /* \"@openzeppelin/contracts/token/ERC20/ERC20.sol\":4966:4992  _transfer(from, to, value) */\n      tag_126\n        /* \"@openzeppelin/contracts/token/ERC20/ERC20.sol\":4976:4980  from */\n      dup6\n        /* \"@openzeppelin/contracts/token/ERC20/ERC20.sol\":4982:4984  to */\n      dup6\n        /* \"@openzeppelin/contracts/token/ERC20/ERC20.sol\":4986:4991  value */\n      dup6\n        /* \"@openzeppelin/contracts/token/ERC20/ERC20.sol\":4966:4975  _transfer */\n      tag_127\n        /* \"@openzeppelin/contracts/token/ERC20/ERC20.sol\":4966:4992  _transfer(from, to, value) */\n      jump\t// in\n    tag_126:\n        /* \"@openzeppelin/contracts/token/ERC20/ERC20.sol\":5009:5013  true */\n      0x01\n        /* \"@openzeppelin/contracts/token/ERC20/ERC20.sol\":5002:5013  return true */\n      swap2\n      pop\n      pop\n        /* \"@openzeppelin/contracts/token/ERC20/ERC20.sol\":4776:5020  function transferFrom(address from, address to, uint256 value) public virtual returns (bool) {... */\n      swap4\n      swap3\n      pop\n      pop\n      pop\n      jump\t// out\n        /* \"@openzeppelin/contracts/access/AccessControl.sol\":3810:3930  function getRoleAdmin(bytes32 role) public view virtual returns (bytes32) {... */\n    tag_53:\n        /* \"@openzeppelin/contracts/access/AccessControl.sol\":3875:3882  bytes32 */\n      0x00\n        /* \"@openzeppelin/contracts/access/AccessControl.sol\":3901:3907  _roles */\n      0x05\n        /* \"@openzeppelin/contracts/access/AccessControl.sol\":3901:3913  _roles[role] */\n      0x00\n        /* \"@openzeppelin/contracts/access/AccessControl.sol\":3908:3912  role */\n      dup4\n        /* \"@openzeppelin/contracts/access/AccessControl.sol\":3901:3913  _roles[role] */\n      dup2\n      mstore\n      0x20\n      add\n      swap1\n      dup2\n      mstore\n      0x20\n      add\n      0x00\n      keccak256\n        /* \"@openzeppelin/contracts/access/AccessControl.sol\":3901:3923  _roles[role].adminRole */\n      0x01\n      add\n      sload\n        /* \"@openzeppelin/contracts/access/AccessControl.sol\":3894:3923  return _roles[role].adminRole */\n      swap1\n      pop\n        /* \"@openzeppelin/contracts/access/AccessControl.sol\":3810:3930  function getRoleAdmin(bytes32 role) public view virtual returns (bytes32) {... */\n      swap2\n      swap1\n      pop\n      jump\t// out\n        /* \"@openzeppelin/contracts/access/AccessControl.sol\":4226:4362  function grantRole(bytes32 role, address account) public virtual onlyRole(getRoleAdmin(role)) {... */\n    tag_59:\n        /* \"@openzeppelin/contracts/access/AccessControl.sol\":4300:4318  getRoleAdmin(role) */\n      tag_129\n        /* \"@openzeppelin/contracts/access/AccessControl.sol\":4313:4317  role */\n      dup3\n        /* \"@openzeppelin/contracts/access/AccessControl.sol\":4300:4312  getRoleAdmin */\n      tag_53\n        /* \"@openzeppelin/contracts/access/AccessControl.sol\":4300:4318  getRoleAdmin(role) */\n      jump\t// in\n    tag_129:\n        /* \"@openzeppelin/contracts/access/AccessControl.sol\":2464:2480  _checkRole(role) */\n      tag_131\n        /* \"@openzeppelin/contracts/access/AccessControl.sol\":2475:2479  role */\n      dup2\n        /* \"@openzeppelin/contracts/access/AccessControl.sol\":2464:2474  _checkRole */\n      tag_132\n        /* \"@openzeppelin/contracts/access/AccessControl.sol\":2464:2480  _checkRole(role) */\n      jump\t// in\n    tag_131:\n        /* \"@openzeppelin/contracts/access/AccessControl.sol\":4330:4355  _grantRole(role, account) */\n      tag_134\n        /* \"@openzeppelin/contracts/access/AccessControl.sol\":4341:4345  role */\n      dup4\n        /* \"@openzeppelin/contracts/access/AccessControl.sol\":4347:4354  account */\n      dup4\n        /* \"@openzeppelin/contracts/access/AccessControl.sol\":4330:4340  _grantRole */\n      tag_135\n        /* \"@openzeppelin/contracts/access/AccessControl.sol\":4330:4355  _grantRole(role, account) */\n      jump\t// in\n    tag_134:\n      pop\n        /* \"@openzeppelin/contracts/access/AccessControl.sol\":4226:4362  function grantRole(bytes32 role, address account) public virtual onlyRole(getRoleAdmin(role)) {... */\n      pop\n      pop\n      pop\n      jump\t// out\n        /* \"@openzeppelin/contracts/token/ERC20/ERC20.sol\":2707:2789  function decimals() public view virtual returns (uint8) {... */\n    tag_61:\n        /* \"@openzeppelin/contracts/token/ERC20/ERC20.sol\":2756:2761  uint8 */\n      0x00\n        /* \"@openzeppelin/contracts/token/ERC20/ERC20.sol\":2780:2782  18 */\n      0x12\n        /* \"@openzeppelin/contracts/token/ERC20/ERC20.sol\":2773:2782  return 18 */\n      swap1\n      pop\n        /* \"@openzeppelin/contracts/token/ERC20/ERC20.sol\":2707:2789  function decimals() public view virtual returns (uint8) {... */\n      swap1\n      jump\t// out\n        /* \"@openzeppelin/contracts/access/AccessControl.sol\":5328:5573  function renounceRole(bytes32 role, address callerConfirmation) public virtual {... */\n    tag_66:\n        /* \"@openzeppelin/contracts/access/AccessControl.sol\":5443:5455  _msgSender() */\n      tag_138\n        /* \"@openzeppelin/contracts/access/AccessControl.sol\":5443:5453  _msgSender */\n      tag_118\n        /* \"@openzeppelin/contracts/access/AccessControl.sol\":5443:5455  _msgSender() */\n      jump\t// in\n    tag_138:\n        /* \"@openzeppelin/contracts/access/AccessControl.sol\":5421:5455  callerConfirmation != _msgSender() */\n      0xffffffffffffffffffffffffffffffffffffffff\n      and\n        /* \"@openzeppelin/contracts/access/AccessControl.sol\":5421:5439  callerConfirmation */\n      dup2\n        /* \"@openzeppelin/contracts/access/AccessControl.sol\":5421:5455  callerConfirmation != _msgSender() */\n      0xffffffffffffffffffffffffffffffffffffffff\n      and\n      eq\n        /* \"@openzeppelin/contracts/access/AccessControl.sol\":5417:5519  if (callerConfirmation != _msgSender()) {... */\n      tag_139\n      jumpi\n        /* \"@openzeppelin/contracts/access/AccessControl.sol\":5478:5508  AccessControlBadConfirmation() */\n      mload(0x40)\n      0x6697b23200000000000000000000000000000000000000000000000000000000\n      dup2\n      mstore\n      0x04\n      add\n      mload(0x40)\n      dup1\n      swap2\n      sub\n      swap1\n      revert\n        /* \"@openzeppelin/contracts/access/AccessControl.sol\":5417:5519  if (callerConfirmation != _msgSender()) {... */\n    tag_139:\n        /* \"@openzeppelin/contracts/access/AccessControl.sol\":5529:5566  _revokeRole(role, callerConfirmation) */\n      tag_140\n        /* \"@openzeppelin/contracts/access/AccessControl.sol\":5541:5545  role */\n      dup3\n        /* \"@openzeppelin/contracts/access/AccessControl.sol\":5547:5565  callerConfirmation */\n      dup3\n        /* \"@openzeppelin/contracts/access/AccessControl.sol\":5529:5540  _revokeRole */\n      tag_141\n        /* \"@openzeppelin/contracts/access/AccessControl.sol\":5529:5566  _revokeRole(role, callerConfirmation) */\n      jump\t// in\n    tag_140:\n      pop\n        /* \"@openzeppelin/contracts/access/AccessControl.sol\":5328:5573  function renounceRole(bytes32 role, address callerConfirmation) public virtual {... */\n      pop\n      pop\n      jump\t// out\n        /* \"contracts/SampleCoffeeToken.sol\":656:763  function mint(address to, uint256 amount) public onlyRole(MINTER_ROLE) {... */\n    tag_69:\n        /* \"contracts/SampleCoffeeToken.sol\":353:377  keccak256(\"MINTER_ROLE\") */\n      0x9f2df0fed2c77648de5860a4cc508cd0818c85b8b8a1ab4ceeef8d981c8956a6\n        /* \"@openzeppelin/contracts/access/AccessControl.sol\":2464:2480  _checkRole(role) */\n      tag_143\n        /* \"@openzeppelin/contracts/access/AccessControl.sol\":2475:2479  role */\n      dup2\n        /* \"@openzeppelin/contracts/access/AccessControl.sol\":2464:2474  _checkRole */\n      tag_132\n        /* \"@openzeppelin/contracts/access/AccessControl.sol\":2464:2480  _checkRole(role) */\n      jump\t// in\n    tag_143:\n        /* \"contracts/SampleCoffeeToken.sol\":738:755  _mint(to, amount) */\n      tag_145\n        /* \"contracts/SampleCoffeeToken.sol\":744:746  to */\n      dup4\n        /* \"contracts/SampleCoffeeToken.sol\":748:754  amount */\n      dup4\n        /* \"contracts/SampleCoffeeToken.sol\":738:743  _mint */\n      tag_146\n        /* \"contracts/SampleCoffeeToken.sol\":738:755  _mint(to, amount) */\n      jump\t// in\n    tag_145:\n        /* \"contracts/SampleCoffeeToken.sol\":656:763  function mint(address to, uint256 amount) public onlyRole(MINTER_ROLE) {... */\n      pop\n      pop\n      pop\n      jump\t// out\n        /* \"@openzeppelin/contracts/token/ERC20/ERC20.sol\":3004:3120  function balanceOf(address account) public view virtual returns (uint256) {... */\n    tag_73:\n        /* \"@openzeppelin/contracts/token/ERC20/ERC20.sol\":3069:3076  uint256 */\n      0x00\n        /* \"@openzeppelin/contracts/token/ERC20/ERC20.sol\":3095:3104  _balances */\n      dup1\n        /* \"@openzeppelin/contracts/token/ERC20/ERC20.sol\":3095:3113  _balances[account] */\n      0x00\n        /* \"@openzeppelin/contracts/token/ERC20/ERC20.sol\":3105:3112  account */\n      dup4\n        /* \"@openzeppelin/contracts/token/ERC20/ERC20.sol\":3095:3113  _balances[account] */\n      0xffffffffffffffffffffffffffffffffffffffff\n      and\n      0xffffffffffffffffffffffffffffffffffffffff\n      and\n      dup2\n      mstore\n      0x20\n      add\n      swap1\n      dup2\n      mstore\n      0x20\n      add\n      0x00\n      keccak256\n      sload\n        /* \"@openzeppelin/contracts/token/ERC20/ERC20.sol\":3088:3113  return _balances[account] */\n      swap1\n      pop\n        /* \"@openzeppelin/contracts/token/ERC20/ERC20.sol\":3004:3120  function balanceOf(address account) public view virtual returns (uint256) {... */\n      swap2\n      swap1\n      pop\n      jump\t// out\n        /* \"@openzeppelin/contracts/access/AccessControl.sol\":2854:2990  function hasRole(bytes32 role, address account) public view virtual returns (bool) {... */\n    tag_77:\n        /* \"@openzeppelin/contracts/access/AccessControl.sol\":2931:2935  bool */\n      0x00\n        /* \"@openzeppelin/contracts/access/AccessControl.sol\":2954:2960  _roles */\n      0x05\n        /* \"@openzeppelin/contracts/access/AccessControl.sol\":2954:2966  _roles[role] */\n      0x00\n        /* \"@openzeppelin/contracts/access/AccessControl.sol\":2961:2965  role */\n      dup5\n        /* \"@openzeppelin/contracts/access/AccessControl.sol\":2954:2966  _roles[role] */\n      dup2\n      mstore\n      0x20\n      add\n      swap1\n      dup2\n      mstore\n      0x20\n      add\n      0x00\n      keccak256\n        /* \"@openzeppelin/contracts/access/AccessControl.sol\":2954:2974  _roles[role].hasRole */\n      0x00\n      add\n        /* \"@openzeppelin/contracts/access/AccessControl.sol\":2954:2983  _roles[role].hasRole[account] */\n      0x00\n        /* \"@openzeppelin/contracts/access/AccessControl.sol\":2975:2982  account */\n      dup4\n        /* \"@openzeppelin/contracts/access/AccessControl.sol\":2954:2983  _roles[role].hasRole[account] */\n      0xffffffffffffffffffffffffffffffffffffffff\n      and\n      0xffffffffffffffffffffffffffffffffffffffff\n      and\n      dup2\n      mstore\n      0x20\n      add\n      swap1\n      dup2\n      mstore\n      0x20\n      add\n      0x00\n      keccak256\n      0x00\n      swap1\n      sload\n      swap1\n      0x0100\n      exp\n      swap1\n      div\n      0xff\n      and\n        /* \"@openzeppelin/contracts/access/AccessControl.sol\":2947:2983  return _roles[role].hasRole[account] */\n      swap1\n      pop\n        /* \"@openzeppelin/contracts/access/AccessControl.sol\":2854:2990  function hasRole(bytes32 role, address account) public view virtual returns (bool) {... */\n      swap3\n      swap2\n      pop\n      pop\n      jump\t// out\n        /* \"@openzeppelin/contracts/token/ERC20/ERC20.sol\":1981:2074  function symbol() public view virtual returns (string memory) {... */\n    tag_80:\n        /* \"@openzeppelin/contracts/token/ERC20/ERC20.sol\":2028:2041  string memory */\n      0x60\n        /* \"@openzeppelin/contracts/token/ERC20/ERC20.sol\":2060:2067  _symbol */\n      0x04\n        /* \"@openzeppelin/contracts/token/ERC20/ERC20.sol\":2053:2067  return _symbol */\n      dup1\n      sload\n      tag_150\n      swap1\n      tag_111\n      jump\t// in\n    tag_150:\n      dup1\n      0x1f\n      add\n      0x20\n      dup1\n      swap2\n      div\n      mul\n      0x20\n      add\n      mload(0x40)\n      swap1\n      dup2\n      add\n      0x40\n      mstore\n      dup1\n      swap3\n      swap2\n      swap1\n      dup2\n      dup2\n      mstore\n      0x20\n      add\n      dup3\n      dup1\n      sload\n      tag_151\n      swap1\n      tag_111\n      jump\t// in\n    tag_151:\n      dup1\n      iszero\n      tag_152\n      jumpi\n      dup1\n      0x1f\n      lt\n      tag_153\n      jumpi\n      0x0100\n      dup1\n      dup4\n      sload\n      div\n      mul\n      dup4\n      mstore\n      swap2\n      0x20\n      add\n      swap2\n      jump(tag_152)\n    tag_153:\n      dup3\n      add\n      swap2\n      swap1\n      0x00\n      mstore\n      keccak256(0x00, 0x20)\n      swap1\n    tag_154:\n      dup2\n      sload\n      dup2\n      mstore\n      swap1\n      0x01\n      add\n      swap1\n      0x20\n      add\n      dup1\n      dup4\n      gt\n      tag_154\n      jumpi\n      dup3\n      swap1\n      sub\n      0x1f\n      and\n      dup3\n      add\n      swap2\n    tag_152:\n      pop\n      pop\n      pop\n      pop\n      pop\n      swap1\n      pop\n        /* \"@openzeppelin/contracts/token/ERC20/ERC20.sol\":1981:2074  function symbol() public view virtual returns (string memory) {... */\n      swap1\n      jump\t// out\n        /* \"@openzeppelin/contracts/access/AccessControl.sol\":2187:2236  bytes32 public constant DEFAULT_ADMIN_ROLE = 0x00 */\n    tag_83:\n        /* \"@openzeppelin/contracts/access/AccessControl.sol\":2232:2236  0x00 */\n      0x00\n        /* \"@openzeppelin/contracts/access/AccessControl.sol\":2187:2236  bytes32 public constant DEFAULT_ADMIN_ROLE = 0x00 */\n      dup1\n      shl\n      dup2\n      jump\t// out\n        /* \"@openzeppelin/contracts/token/ERC20/ERC20.sol\":3315:3493  function transfer(address to, uint256 value) public virtual returns (bool) {... */\n    tag_87:\n        /* \"@openzeppelin/contracts/token/ERC20/ERC20.sol\":3384:3388  bool */\n      0x00\n        /* \"@openzeppelin/contracts/token/ERC20/ERC20.sol\":3400:3413  address owner */\n      dup1\n        /* \"@openzeppelin/contracts/token/ERC20/ERC20.sol\":3416:3428  _msgSender() */\n      tag_156\n        /* \"@openzeppelin/contracts/token/ERC20/ERC20.sol\":3416:3426  _msgSender */\n      tag_118\n        /* \"@openzeppelin/contracts/token/ERC20/ERC20.sol\":3416:3428  _msgSender() */\n      jump\t// in\n    tag_156:\n        /* \"@openzeppelin/contracts/token/ERC20/ERC20.sol\":3400:3428  address owner = _msgSender() */\n      swap1\n      pop\n        /* \"@openzeppelin/contracts/token/ERC20/ERC20.sol\":3438:3465  _transfer(owner, to, value) */\n      tag_157\n        /* \"@openzeppelin/contracts/token/ERC20/ERC20.sol\":3448:3453  owner */\n      dup2\n        /* \"@openzeppelin/contracts/token/ERC20/ERC20.sol\":3455:3457  to */\n      dup6\n        /* \"@openzeppelin/contracts/token/ERC20/ERC20.sol\":3459:3464  value */\n      dup6\n        /* \"@openzeppelin/contracts/token/ERC20/ERC20.sol\":3438:3447  _transfer */\n      tag_127\n        /* \"@openzeppelin/contracts/token/ERC20/ERC20.sol\":3438:3465  _transfer(owner, to, value) */\n      jump\t// in\n    tag_157:\n        /* \"@openzeppelin/contracts/token/ERC20/ERC20.sol\":3482:3486  true */\n      0x01\n        /* \"@openzeppelin/contracts/token/ERC20/ERC20.sol\":3475:3486  return true */\n      swap2\n      pop\n      pop\n        /* \"@openzeppelin/contracts/token/ERC20/ERC20.sol\":3315:3493  function transfer(address to, uint256 value) public virtual returns (bool) {... */\n      swap3\n      swap2\n      pop\n      pop\n      jump\t// out\n        /* \"contracts/SampleCoffeeToken.sol\":771:1048  function buyOneCoffee() public {... */\n    tag_90:\n        /* \"contracts/SampleCoffeeToken.sol\":811:833  _burn(_msgSender(), 1) */\n      tag_159\n        /* \"contracts/SampleCoffeeToken.sol\":817:829  _msgSender() */\n      tag_160\n        /* \"contracts/SampleCoffeeToken.sol\":817:827  _msgSender */\n      tag_118\n        /* \"contracts/SampleCoffeeToken.sol\":817:829  _msgSender() */\n      jump\t// in\n    tag_160:\n        /* \"contracts/SampleCoffeeToken.sol\":831:832  1 */\n      0x01\n        /* \"contracts/SampleCoffeeToken.sol\":811:816  _burn */\n      tag_161\n        /* \"contracts/SampleCoffeeToken.sol\":811:833  _burn(_msgSender(), 1) */\n      jump\t// in\n    tag_159:\n        /* \"contracts/SampleCoffeeToken.sol\":1027:1039  _msgSender() */\n      tag_162\n        /* \"contracts/SampleCoffeeToken.sol\":1027:1037  _msgSender */\n      tag_118\n        /* \"contracts/SampleCoffeeToken.sol\":1027:1039  _msgSender() */\n      jump\t// in\n    tag_162:\n        /* \"contracts/SampleCoffeeToken.sol\":997:1040  coffeePurchased(_msgSender(), _msgSender()) */\n      0xffffffffffffffffffffffffffffffffffffffff\n      and\n        /* \"contracts/SampleCoffeeToken.sol\":1013:1025  _msgSender() */\n      tag_163\n        /* \"contracts/SampleCoffeeToken.sol\":1013:1023  _msgSender */\n      tag_118\n        /* \"contracts/SampleCoffeeToken.sol\":1013:1025  _msgSender() */\n      jump\t// in\n    tag_163:\n        /* \"contracts/SampleCoffeeToken.sol\":997:1040  coffeePurchased(_msgSender(), _msgSender()) */\n      0xffffffffffffffffffffffffffffffffffffffff\n      and\n      0xec55f742f16d213923033df55c0e3fcff39f4de98b16b032ecc5ec934fe84f39\n      mload(0x40)\n      mload(0x40)\n      dup1\n      swap2\n      sub\n      swap1\n      log3\n        /* \"contracts/SampleCoffeeToken.sol\":771:1048  function buyOneCoffee() public {... */\n      jump\t// out\n        /* \"contracts/SampleCoffeeToken.sol\":1056:1250  function buyOneCoffeeFrom(address account) public {... */\n    tag_93:\n        /* \"contracts/SampleCoffeeToken.sol\":1117:1158  _spendAllowance(account, _msgSender(), 1) */\n      tag_165\n        /* \"contracts/SampleCoffeeToken.sol\":1133:1140  account */\n      dup2\n        /* \"contracts/SampleCoffeeToken.sol\":1142:1154  _msgSender() */\n      tag_166\n        /* \"contracts/SampleCoffeeToken.sol\":1142:1152  _msgSender */\n      tag_118\n        /* \"contracts/SampleCoffeeToken.sol\":1142:1154  _msgSender() */\n      jump\t// in\n    tag_166:\n        /* \"contracts/SampleCoffeeToken.sol\":1156:1157  1 */\n      0x01\n        /* \"contracts/SampleCoffeeToken.sol\":1117:1132  _spendAllowance */\n      tag_125\n        /* \"contracts/SampleCoffeeToken.sol\":1117:1158  _spendAllowance(account, _msgSender(), 1) */\n      jump\t// in\n    tag_165:\n        /* \"contracts/SampleCoffeeToken.sol\":1169:1186  _burn(account, 1) */\n      tag_167\n        /* \"contracts/SampleCoffeeToken.sol\":1175:1182  account */\n      dup2\n        /* \"contracts/SampleCoffeeToken.sol\":1184:1185  1 */\n      0x01\n        /* \"contracts/SampleCoffeeToken.sol\":1169:1174  _burn */\n      tag_161\n        /* \"contracts/SampleCoffeeToken.sol\":1169:1186  _burn(account, 1) */\n      jump\t// in\n    tag_167:\n        /* \"contracts/SampleCoffeeToken.sol\":1232:1239  account */\n      dup1\n        /* \"contracts/SampleCoffeeToken.sol\":1202:1240  coffeePurchased(_msgSender(), account) */\n      0xffffffffffffffffffffffffffffffffffffffff\n      and\n        /* \"contracts/SampleCoffeeToken.sol\":1218:1230  _msgSender() */\n      tag_168\n        /* \"contracts/SampleCoffeeToken.sol\":1218:1228  _msgSender */\n      tag_118\n        /* \"contracts/SampleCoffeeToken.sol\":1218:1230  _msgSender() */\n      jump\t// in\n    tag_168:\n        /* \"contracts/SampleCoffeeToken.sol\":1202:1240  coffeePurchased(_msgSender(), account) */\n      0xffffffffffffffffffffffffffffffffffffffff\n      and\n      0xec55f742f16d213923033df55c0e3fcff39f4de98b16b032ecc5ec934fe84f39\n      mload(0x40)\n      mload(0x40)\n      dup1\n      swap2\n      sub\n      swap1\n      log3\n        /* \"contracts/SampleCoffeeToken.sol\":1056:1250  function buyOneCoffeeFrom(address account) public {... */\n      pop\n      jump\t// out\n        /* \"contracts/SampleCoffeeToken.sol\":315:377  bytes32 public constant MINTER_ROLE = keccak256(\"MINTER_ROLE\") */\n    tag_95:\n        /* \"contracts/SampleCoffeeToken.sol\":353:377  keccak256(\"MINTER_ROLE\") */\n      0x9f2df0fed2c77648de5860a4cc508cd0818c85b8b8a1ab4ceeef8d981c8956a6\n        /* \"contracts/SampleCoffeeToken.sol\":315:377  bytes32 public constant MINTER_ROLE = keccak256(\"MINTER_ROLE\") */\n      dup2\n      jump\t// out\n        /* \"@openzeppelin/contracts/access/AccessControl.sol\":4642:4780  function revokeRole(bytes32 role, address account) public virtual onlyRole(getRoleAdmin(role)) {... */\n    tag_99:\n        /* \"@openzeppelin/contracts/access/AccessControl.sol\":4717:4735  getRoleAdmin(role) */\n      tag_169\n        /* \"@openzeppelin/contracts/access/AccessControl.sol\":4730:4734  role */\n      dup3\n        /* \"@openzeppelin/contracts/access/AccessControl.sol\":4717:4729  getRoleAdmin */\n      tag_53\n        /* \"@openzeppelin/contracts/access/AccessControl.sol\":4717:4735  getRoleAdmin(role) */\n      jump\t// in\n    tag_169:\n        /* \"@openzeppelin/contracts/access/AccessControl.sol\":2464:2480  _checkRole(role) */\n      tag_171\n        /* \"@openzeppelin/contracts/access/AccessControl.sol\":2475:2479  role */\n      dup2\n        /* \"@openzeppelin/contracts/access/AccessControl.sol\":2464:2474  _checkRole */\n      tag_132\n        /* \"@openzeppelin/contracts/access/AccessControl.sol\":2464:2480  _checkRole(role) */\n      jump\t// in\n    tag_171:\n        /* \"@openzeppelin/contracts/access/AccessControl.sol\":4747:4773  _revokeRole(role, account) */\n      tag_173\n        /* \"@openzeppelin/contracts/access/AccessControl.sol\":4759:4763  role */\n      dup4\n        /* \"@openzeppelin/contracts/access/AccessControl.sol\":4765:4772  account */\n      dup4\n        /* \"@openzeppelin/contracts/access/AccessControl.sol\":4747:4758  _revokeRole */\n      tag_141\n        /* \"@openzeppelin/contracts/access/AccessControl.sol\":4747:4773  _revokeRole(role, account) */\n      jump\t// in\n    tag_173:\n      pop\n        /* \"@openzeppelin/contracts/access/AccessControl.sol\":4642:4780  function revokeRole(bytes32 role, address account) public virtual onlyRole(getRoleAdmin(role)) {... */\n      pop\n      pop\n      pop\n      jump\t// out\n        /* \"@openzeppelin/contracts/token/ERC20/ERC20.sol\":3551:3691  function allowance(address owner, address spender) public view virtual returns (uint256) {... */\n    tag_103:\n        /* \"@openzeppelin/contracts/token/ERC20/ERC20.sol\":3631:3638  uint256 */\n      0x00\n        /* \"@openzeppelin/contracts/token/ERC20/ERC20.sol\":3657:3668  _allowances */\n      0x01\n        /* \"@openzeppelin/contracts/token/ERC20/ERC20.sol\":3657:3675  _allowances[owner] */\n      0x00\n        /* \"@openzeppelin/contracts/token/ERC20/ERC20.sol\":3669:3674  owner */\n      dup5\n        /* \"@openzeppelin/contracts/token/ERC20/ERC20.sol\":3657:3675  _allowances[owner] */\n      0xffffffffffffffffffffffffffffffffffffffff\n      and\n      0xffffffffffffffffffffffffffffffffffffffff\n      and\n      dup2\n      mstore\n      0x20\n      add\n      swap1\n      dup2\n      mstore\n      0x20\n      add\n      0x00\n      keccak256\n        /* \"@openzeppelin/contracts/token/ERC20/ERC20.sol\":3657:3684  _allowances[owner][spender] */\n      0x00\n        /* \"@openzeppelin/contracts/token/ERC20/ERC20.sol\":3676:3683  spender */\n      dup4\n        /* \"@openzeppelin/contracts/token/ERC20/ERC20.sol\":3657:3684  _allowances[owner][spender] */\n      0xffffffffffffffffffffffffffffffffffffffff\n      and\n      0xffffffffffffffffffffffffffffffffffffffff\n      and\n      dup2\n      mstore\n      0x20\n      add\n      swap1\n      dup2\n      mstore\n      0x20\n      add\n      0x00\n      keccak256\n      sload\n        /* \"@openzeppelin/contracts/token/ERC20/ERC20.sol\":3650:3684  return _allowances[owner][spender] */\n      swap1\n      pop\n        /* \"@openzeppelin/contracts/token/ERC20/ERC20.sol\":3551:3691  function allowance(address owner, address spender) public view virtual returns (uint256) {... */\n      swap3\n      swap2\n      pop\n      pop\n      jump\t// out\n        /* \"@openzeppelin/contracts/utils/introspection/ERC165.sol\":763:909  function supportsInterface(bytes4 interfaceId) public view virtual returns (bool) {... */\n    tag_108:\n        /* \"@openzeppelin/contracts/utils/introspection/ERC165.sol\":839:843  bool */\n      0x00\n        /* \"@openzeppelin/contracts/utils/introspection/ERC165.sol\":877:902  type(IERC165).interfaceId */\n      0x01ffc9a700000000000000000000000000000000000000000000000000000000\n        /* \"@openzeppelin/contracts/utils/introspection/ERC165.sol\":862:902  interfaceId == type(IERC165).interfaceId */\n      not(0xffffffffffffffffffffffffffffffffffffffffffffffffffffffff)\n      and\n        /* \"@openzeppelin/contracts/utils/introspection/ERC165.sol\":862:873  interfaceId */\n      dup3\n        /* \"@openzeppelin/contracts/utils/introspection/ERC165.sol\":862:902  interfaceId == type(IERC165).interfaceId */\n      not(0xffffffffffffffffffffffffffffffffffffffffffffffffffffffff)\n      and\n      eq\n        /* \"@openzeppelin/contracts/utils/introspection/ERC165.sol\":855:902  return interfaceId == type(IERC165).interfaceId */\n      swap1\n      pop\n        /* \"@openzeppelin/contracts/utils/introspection/ERC165.sol\":763:909  function supportsInterface(bytes4 interfaceId) public view virtual returns (bool) {... */\n      swap2\n      swap1\n      pop\n      jump\t// out\n        /* \"@openzeppelin/contracts/utils/Context.sol\":656:752  function _msgSender() internal view virtual returns (address) {... */\n    tag_118:\n        /* \"@openzeppelin/contracts/utils/Context.sol\":709:716  address */\n      0x00\n        /* \"@openzeppelin/contracts/utils/Context.sol\":735:745  msg.sender */\n      caller\n        /* \"@openzeppelin/contracts/utils/Context.sol\":728:745  return msg.sender */\n      swap1\n      pop\n        /* \"@openzeppelin/contracts/utils/Context.sol\":656:752  function _msgSender() internal view virtual returns (address) {... */\n      swap1\n      jump\t// out\n        /* \"@openzeppelin/contracts/token/ERC20/ERC20.sol\":8726:8854  function _approve(address owner, address spender, uint256 value) internal {... */\n    tag_120:\n        /* \"@openzeppelin/contracts/token/ERC20/ERC20.sol\":8810:8847  _approve(owner, spender, value, true) */\n      tag_178\n        /* \"@openzeppelin/contracts/token/ERC20/ERC20.sol\":8819:8824  owner */\n      dup4\n        /* \"@openzeppelin/contracts/token/ERC20/ERC20.sol\":8826:8833  spender */\n      dup4\n        /* \"@openzeppelin/contracts/token/ERC20/ERC20.sol\":8835:8840  value */\n      dup4\n        /* \"@openzeppelin/contracts/token/ERC20/ERC20.sol\":8842:8846  true */\n      0x01\n        /* \"@openzeppelin/contracts/token/ERC20/ERC20.sol\":8810:8818  _approve */\n      tag_179\n        /* \"@openzeppelin/contracts/token/ERC20/ERC20.sol\":8810:8847  _approve(owner, spender, value, true) */\n      jump\t// in\n    tag_178:\n        /* \"@openzeppelin/contracts/token/ERC20/ERC20.sol\":8726:8854  function _approve(address owner, address spender, uint256 value) internal {... */\n      pop\n      pop\n      pop\n      jump\t// out\n        /* \"@openzeppelin/contracts/token/ERC20/ERC20.sol\":10415:10892  function _spendAllowance(address owner, address spender, uint256 value) internal virtual {... */\n    tag_125:\n        /* \"@openzeppelin/contracts/token/ERC20/ERC20.sol\":10514:10538  uint256 currentAllowance */\n      0x00\n        /* \"@openzeppelin/contracts/token/ERC20/ERC20.sol\":10541:10566  allowance(owner, spender) */\n      tag_181\n        /* \"@openzeppelin/contracts/token/ERC20/ERC20.sol\":10551:10556  owner */\n      dup5\n        /* \"@openzeppelin/contracts/token/ERC20/ERC20.sol\":10558:10565  spender */\n      dup5\n        /* \"@openzeppelin/contracts/token/ERC20/ERC20.sol\":10541:10550  allowance */\n      tag_103\n        /* \"@openzeppelin/contracts/token/ERC20/ERC20.sol\":10541:10566  allowance(owner, spender) */\n      jump\t// in\n    tag_181:\n        /* \"@openzeppelin/contracts/token/ERC20/ERC20.sol\":10514:10566  uint256 currentAllowance = allowance(owner, spender) */\n      swap1\n      pop\n        /* \"@openzeppelin/contracts/token/ERC20/ERC20.sol\":10600:10617  type(uint256).max */\n      0xffffffffffffffffffffffffffffffffffffffffffffffffffffffffffffffff\n        /* \"@openzeppelin/contracts/token/ERC20/ERC20.sol\":10580:10596  currentAllowance */\n      dup2\n        /* \"@openzeppelin/contracts/token/ERC20/ERC20.sol\":10580:10617  currentAllowance != type(uint256).max */\n      eq\n        /* \"@openzeppelin/contracts/token/ERC20/ERC20.sol\":10576:10886  if (currentAllowance != type(uint256).max) {... */\n      tag_182\n      jumpi\n        /* \"@openzeppelin/contracts/token/ERC20/ERC20.sol\":10656:10661  value */\n      dup2\n        /* \"@openzeppelin/contracts/token/ERC20/ERC20.sol\":10637:10653  currentAllowance */\n      dup2\n        /* \"@openzeppelin/contracts/token/ERC20/ERC20.sol\":10637:10661  currentAllowance < value */\n      lt\n        /* \"@openzeppelin/contracts/token/ERC20/ERC20.sol\":10633:10763  if (currentAllowance < value) {... */\n      iszero\n      tag_183\n      jumpi\n        /* \"@openzeppelin/contracts/token/ERC20/ERC20.sol\":10715:10722  spender */\n      dup3\n        /* \"@openzeppelin/contracts/token/ERC20/ERC20.sol\":10724:10740  currentAllowance */\n      dup2\n        /* \"@openzeppelin/contracts/token/ERC20/ERC20.sol\":10742:10747  value */\n      dup4\n        /* \"@openzeppelin/contracts/token/ERC20/ERC20.sol\":10688:10748  ERC20InsufficientAllowance(spender, currentAllowance, value) */\n      mload(0x40)\n      0xfb8f41b200000000000000000000000000000000000000000000000000000000\n      dup2\n      mstore\n      0x04\n      add\n      tag_184\n      swap4\n      swap3\n      swap2\n      swap1\n      tag_185\n      jump\t// in\n    tag_184:\n      mload(0x40)\n      dup1\n      swap2\n      sub\n      swap1\n      revert\n        /* \"@openzeppelin/contracts/token/ERC20/ERC20.sol\":10633:10763  if (currentAllowance < value) {... */\n    tag_183:\n        /* \"@openzeppelin/contracts/token/ERC20/ERC20.sol\":10804:10861  _approve(owner, spender, currentAllowance - value, false) */\n      tag_186\n        /* \"@openzeppelin/contracts/token/ERC20/ERC20.sol\":10813:10818  owner */\n      dup5\n        /* \"@openzeppelin/contracts/token/ERC20/ERC20.sol\":10820:10827  spender */\n      dup5\n        /* \"@openzeppelin/contracts/token/ERC20/ERC20.sol\":10848:10853  value */\n      dup5\n        /* \"@openzeppelin/contracts/token/ERC20/ERC20.sol\":10829:10845  currentAllowance */\n      dup5\n        /* \"@openzeppelin/contracts/token/ERC20/ERC20.sol\":10829:10853  currentAllowance - value */\n      sub\n        /* \"@openzeppelin/contracts/token/ERC20/ERC20.sol\":10855:10860  false */\n      0x00\n        /* \"@openzeppelin/contracts/token/ERC20/ERC20.sol\":10804:10812  _approve */\n      tag_179\n        /* \"@openzeppelin/contracts/token/ERC20/ERC20.sol\":10804:10861  _approve(owner, spender, currentAllowance - value, false) */\n      jump\t// in\n    tag_186:\n        /* \"@openzeppelin/contracts/token/ERC20/ERC20.sol\":10576:10886  if (currentAllowance != type(uint256).max) {... */\n    tag_182:\n        /* \"@openzeppelin/contracts/token/ERC20/ERC20.sol\":10504:10892  {... */\n      pop\n        /* \"@openzeppelin/contracts/token/ERC20/ERC20.sol\":10415:10892  function _spendAllowance(address owner, address spender, uint256 value) internal virtual {... */\n      pop\n      pop\n      pop\n      jump\t// out\n        /* \"@openzeppelin/contracts/token/ERC20/ERC20.sol\":5393:5693  function _transfer(address from, address to, uint256 value) internal {... */\n    tag_127:\n        /* \"@openzeppelin/contracts/token/ERC20/ERC20.sol\":5492:5493  0 */\n      0x00\n        /* \"@openzeppelin/contracts/token/ERC20/ERC20.sol\":5476:5494  from == address(0) */\n      0xffffffffffffffffffffffffffffffffffffffff\n      and\n        /* \"@openzeppelin/contracts/token/ERC20/ERC20.sol\":5476:5480  from */\n      dup4\n        /* \"@openzeppelin/contracts/token/ERC20/ERC20.sol\":5476:5494  from == address(0) */\n      0xffffffffffffffffffffffffffffffffffffffff\n      and\n      sub\n        /* \"@openzeppelin/contracts/token/ERC20/ERC20.sol\":5472:5558  if (from == address(0)) {... */\n      tag_188\n      jumpi\n        /* \"@openzeppelin/contracts/token/ERC20/ERC20.sol\":5544:5545  0 */\n      0x00\n        /* \"@openzeppelin/contracts/token/ERC20/ERC20.sol\":5517:5547  ERC20InvalidSender(address(0)) */\n      mload(0x40)\n      0x96c6fd1e00000000000000000000000000000000000000000000000000000000\n      dup2\n      mstore\n      0x04\n      add\n      tag_189\n      swap2\n      swap1\n      tag_190\n      jump\t// in\n    tag_189:\n      mload(0x40)\n      dup1\n      swap2\n      sub\n      swap1\n      revert\n        /* \"@openzeppelin/contracts/token/ERC20/ERC20.sol\":5472:5558  if (from == address(0)) {... */\n    tag_188:\n        /* \"@openzeppelin/contracts/token/ERC20/ERC20.sol\":5585:5586  0 */\n      0x00\n        /* \"@openzeppelin/contracts/token/ERC20/ERC20.sol\":5571:5587  to == address(0) */\n      0xffffffffffffffffffffffffffffffffffffffff\n      and\n        /* \"@openzeppelin/contracts/token/ERC20/ERC20.sol\":5571:5573  to */\n      dup3\n        /* \"@openzeppelin/contracts/token/ERC20/ERC20.sol\":5571:5587  to == address(0) */\n      0xffffffffffffffffffffffffffffffffffffffff\n      and\n      sub\n        /* \"@openzeppelin/contracts/token/ERC20/ERC20.sol\":5567:5653  if (to == address(0)) {... */\n      tag_191\n      jumpi\n        /* \"@openzeppelin/contracts/token/ERC20/ERC20.sol\":5639:5640  0 */\n      0x00\n        /* \"@openzeppelin/contracts/token/ERC20/ERC20.sol\":5610:5642  ERC20InvalidReceiver(address(0)) */\n      mload(0x40)\n      0xec442f0500000000000000000000000000000000000000000000000000000000\n      dup2\n      mstore\n      0x04\n      add\n      tag_192\n      swap2\n      swap1\n      tag_190\n      jump\t// in\n    tag_192:\n      mload(0x40)\n      dup1\n      swap2\n      sub\n      swap1\n      revert\n        /* \"@openzeppelin/contracts/token/ERC20/ERC20.sol\":5567:5653  if (to == address(0)) {... */\n    tag_191:\n        /* \"@openzeppelin/contracts/token/ERC20/ERC20.sol\":5662:5686  _update(from, to, value) */\n      tag_193\n        /* \"@openzeppelin/contracts/token/ERC20/ERC20.sol\":5670:5674  from */\n      dup4\n        /* \"@openzeppelin/contracts/token/ERC20/ERC20.sol\":5676:5678  to */\n      dup4\n        /* \"@openzeppelin/contracts/token/ERC20/ERC20.sol\":5680:5685  value */\n      dup4\n        /* \"@openzeppelin/contracts/token/ERC20/ERC20.sol\":5662:5669  _update */\n      tag_194\n        /* \"@openzeppelin/contracts/token/ERC20/ERC20.sol\":5662:5686  _update(from, to, value) */\n      jump\t// in\n    tag_193:\n        /* \"@openzeppelin/contracts/token/ERC20/ERC20.sol\":5393:5693  function _transfer(address from, address to, uint256 value) internal {... */\n      pop\n      pop\n      pop\n      jump\t// out\n        /* \"@openzeppelin/contracts/access/AccessControl.sol\":3199:3302  function _checkRole(bytes32 role) internal view virtual {... */\n    tag_132:\n        /* \"@openzeppelin/contracts/access/AccessControl.sol\":3265:3295  _checkRole(role, _msgSender()) */\n      tag_196\n        /* \"@openzeppelin/contracts/access/AccessControl.sol\":3276:3280  role */\n      dup2\n        /* \"@openzeppelin/contracts/access/AccessControl.sol\":3282:3294  _msgSender() */\n      tag_197\n        /* \"@openzeppelin/contracts/access/AccessControl.sol\":3282:3292  _msgSender */\n      tag_118\n        /* \"@openzeppelin/contracts/access/AccessControl.sol\":3282:3294  _msgSender() */\n      jump\t// in\n    tag_197:\n        /* \"@openzeppelin/contracts/access/AccessControl.sol\":3265:3275  _checkRole */\n      tag_198\n        /* \"@openzeppelin/contracts/access/AccessControl.sol\":3265:3295  _checkRole(role, _msgSender()) */\n      jump\t// in\n    tag_196:\n        /* \"@openzeppelin/contracts/access/AccessControl.sol\":3199:3302  function _checkRole(bytes32 role) internal view virtual {... */\n      pop\n      jump\t// out\n        /* \"@openzeppelin/contracts/access/AccessControl.sol\":6179:6495  function _grantRole(bytes32 role, address account) internal virtual returns (bool) {... */\n    tag_135:\n        /* \"@openzeppelin/contracts/access/AccessControl.sol\":6256:6260  bool */\n      0x00\n        /* \"@openzeppelin/contracts/access/AccessControl.sol\":6277:6299  hasRole(role, account) */\n      tag_200\n        /* \"@openzeppelin/contracts/access/AccessControl.sol\":6285:6289  role */\n      dup4\n        /* \"@openzeppelin/contracts/access/AccessControl.sol\":6291:6298  account */\n      dup4\n        /* \"@openzeppelin/contracts/access/AccessControl.sol\":6277:6284  hasRole */\n      tag_77\n        /* \"@openzeppelin/contracts/access/AccessControl.sol\":6277:6299  hasRole(role, account) */\n      jump\t// in\n    tag_200:\n        /* \"@openzeppelin/contracts/access/AccessControl.sol\":6272:6489  if (!hasRole(role, account)) {... */\n      tag_201\n      jumpi\n        /* \"@openzeppelin/contracts/access/AccessControl.sol\":6347:6351  true */\n      0x01\n        /* \"@openzeppelin/contracts/access/AccessControl.sol\":6315:6321  _roles */\n      0x05\n        /* \"@openzeppelin/contracts/access/AccessControl.sol\":6315:6327  _roles[role] */\n      0x00\n        /* \"@openzeppelin/contracts/access/AccessControl.sol\":6322:6326  role */\n      dup6\n        /* \"@openzeppelin/contracts/access/AccessControl.sol\":6315:6327  _roles[role] */\n      dup2\n      mstore\n      0x20\n      add\n      swap1\n      dup2\n      mstore\n      0x20\n      add\n      0x00\n      keccak256\n        /* \"@openzeppelin/contracts/access/AccessControl.sol\":6315:6335  _roles[role].hasRole */\n      0x00\n      add\n        /* \"@openzeppelin/contracts/access/AccessControl.sol\":6315:6344  _roles[role].hasRole[account] */\n      0x00\n        /* \"@openzeppelin/contracts/access/AccessControl.sol\":6336:6343  account */\n      dup5\n        /* \"@openzeppelin/contracts/access/AccessControl.sol\":6315:6344  _roles[role].hasRole[account] */\n      0xffffffffffffffffffffffffffffffffffffffff\n      and\n      0xffffffffffffffffffffffffffffffffffffffff\n      and\n      dup2\n      mstore\n      0x20\n      add\n      swap1\n      dup2\n      mstore\n      0x20\n      add\n      0x00\n      keccak256\n      0x00\n        /* \"@openzeppelin/contracts/access/AccessControl.sol\":6315:6351  _roles[role].hasRole[account] = true */\n      0x0100\n      exp\n      dup2\n      sload\n      dup2\n      0xff\n      mul\n      not\n      and\n      swap1\n      dup4\n      iszero\n      iszero\n      mul\n      or\n      swap1\n      sstore\n      pop\n        /* \"@openzeppelin/contracts/access/AccessControl.sol\":6397:6409  _msgSender() */\n      tag_202\n        /* \"@openzeppelin/contracts/access/AccessControl.sol\":6397:6407  _msgSender */\n      tag_118\n        /* \"@openzeppelin/contracts/access/AccessControl.sol\":6397:6409  _msgSender() */\n      jump\t// in\n    tag_202:\n        /* \"@openzeppelin/contracts/access/AccessControl.sol\":6370:6410  RoleGranted(role, account, _msgSender()) */\n      0xffffffffffffffffffffffffffffffffffffffff\n      and\n        /* \"@openzeppelin/contracts/access/AccessControl.sol\":6388:6395  account */\n      dup3\n        /* \"@openzeppelin/contracts/access/AccessControl.sol\":6370:6410  RoleGranted(role, account, _msgSender()) */\n      0xffffffffffffffffffffffffffffffffffffffff\n      and\n        /* \"@openzeppelin/contracts/access/AccessControl.sol\":6382:6386  role */\n      dup5\n        /* \"@openzeppelin/contracts/access/AccessControl.sol\":6370:6410  RoleGranted(role, account, _msgSender()) */\n      0x2f8788117e7eff1d82e926ec794901d17c78024a50270940304540a733656f0d\n      mload(0x40)\n      mload(0x40)\n      dup1\n      swap2\n      sub\n      swap1\n      log4\n        /* \"@openzeppelin/contracts/access/AccessControl.sol\":6431:6435  true */\n      0x01\n        /* \"@openzeppelin/contracts/access/AccessControl.sol\":6424:6435  return true */\n      swap1\n      pop\n      jump(tag_199)\n        /* \"@openzeppelin/contracts/access/AccessControl.sol\":6272:6489  if (!hasRole(role, account)) {... */\n    tag_201:\n        /* \"@openzeppelin/contracts/access/AccessControl.sol\":6473:6478  false */\n      0x00\n        /* \"@openzeppelin/contracts/access/AccessControl.sol\":6466:6478  return false */\n      swap1\n      pop\n        /* \"@openzeppelin/contracts/access/AccessControl.sol\":6179:6495  function _grantRole(bytes32 role, address account) internal virtual returns (bool) {... */\n    tag_199:\n      swap3\n      swap2\n      pop\n      pop\n      jump\t// out\n        /* \"@openzeppelin/contracts/access/AccessControl.sol\":6730:7047  function _revokeRole(bytes32 role, address account) internal virtual returns (bool) {... */\n    tag_141:\n        /* \"@openzeppelin/contracts/access/AccessControl.sol\":6808:6812  bool */\n      0x00\n        /* \"@openzeppelin/contracts/access/AccessControl.sol\":6828:6850  hasRole(role, account) */\n      tag_205\n        /* \"@openzeppelin/contracts/access/AccessControl.sol\":6836:6840  role */\n      dup4\n        /* \"@openzeppelin/contracts/access/AccessControl.sol\":6842:6849  account */\n      dup4\n        /* \"@openzeppelin/contracts/access/AccessControl.sol\":6828:6835  hasRole */\n      tag_77\n        /* \"@openzeppelin/contracts/access/AccessControl.sol\":6828:6850  hasRole(role, account) */\n      jump\t// in\n    tag_205:\n        /* \"@openzeppelin/contracts/access/AccessControl.sol\":6824:7041  if (hasRole(role, account)) {... */\n      iszero\n      tag_206\n      jumpi\n        /* \"@openzeppelin/contracts/access/AccessControl.sol\":6898:6903  false */\n      0x00\n        /* \"@openzeppelin/contracts/access/AccessControl.sol\":6866:6872  _roles */\n      0x05\n        /* \"@openzeppelin/contracts/access/AccessControl.sol\":6866:6878  _roles[role] */\n      0x00\n        /* \"@openzeppelin/contracts/access/AccessControl.sol\":6873:6877  role */\n      dup6\n        /* \"@openzeppelin/contracts/access/AccessControl.sol\":6866:6878  _roles[role] */\n      dup2\n      mstore\n      0x20\n      add\n      swap1\n      dup2\n      mstore\n      0x20\n      add\n      0x00\n      keccak256\n        /* \"@openzeppelin/contracts/access/AccessControl.sol\":6866:6886  _roles[role].hasRole */\n      0x00\n      add\n        /* \"@openzeppelin/contracts/access/AccessControl.sol\":6866:6895  _roles[role].hasRole[account] */\n      0x00\n        /* \"@openzeppelin/contracts/access/AccessControl.sol\":6887:6894  account */\n      dup5\n        /* \"@openzeppelin/contracts/access/AccessControl.sol\":6866:6895  _roles[role].hasRole[account] */\n      0xffffffffffffffffffffffffffffffffffffffff\n      and\n      0xffffffffffffffffffffffffffffffffffffffff\n      and\n      dup2\n      mstore\n      0x20\n      add\n      swap1\n      dup2\n      mstore\n      0x20\n      add\n      0x00\n      keccak256\n      0x00\n        /* \"@openzeppelin/contracts/access/AccessControl.sol\":6866:6903  _roles[role].hasRole[account] = false */\n      0x0100\n      exp\n      dup2\n      sload\n      dup2\n      0xff\n      mul\n      not\n      and\n      swap1\n      dup4\n      iszero\n      iszero\n      mul\n      or\n      swap1\n      sstore\n      pop\n        /* \"@openzeppelin/contracts/access/AccessControl.sol\":6949:6961  _msgSender() */\n      tag_207\n        /* \"@openzeppelin/contracts/access/AccessControl.sol\":6949:6959  _msgSender */\n      tag_118\n        /* \"@openzeppelin/contracts/access/AccessControl.sol\":6949:6961  _msgSender() */\n      jump\t// in\n    tag_207:\n        /* \"@openzeppelin/contracts/access/AccessControl.sol\":6922:6962  RoleRevoked(role, account, _msgSender()) */\n      0xffffffffffffffffffffffffffffffffffffffff\n      and\n        /* \"@openzeppelin/contracts/access/AccessControl.sol\":6940:6947  account */\n      dup3\n        /* \"@openzeppelin/contracts/access/AccessControl.sol\":6922:6962  RoleRevoked(role, account, _msgSender()) */\n      0xffffffffffffffffffffffffffffffffffffffff\n      and\n        /* \"@openzeppelin/contracts/access/AccessControl.sol\":6934:6938  role */\n      dup5\n        /* \"@openzeppelin/contracts/access/AccessControl.sol\":6922:6962  RoleRevoked(role, account, _msgSender()) */\n      0xf6391f5c32d9c69d2a47ea670b442974b53935d1edc7fd64eb21e047a839171b\n      mload(0x40)\n      mload(0x40)\n      dup1\n      swap2\n      sub\n      swap1\n      log4\n        /* \"@openzeppelin/contracts/access/AccessControl.sol\":6983:6987  true */\n      0x01\n        /* \"@openzeppelin/contracts/access/AccessControl.sol\":6976:6987  return true */\n      swap1\n      pop\n      jump(tag_204)\n        /* \"@openzeppelin/contracts/access/AccessControl.sol\":6824:7041  if (hasRole(role, account)) {... */\n    tag_206:\n        /* \"@openzeppelin/contracts/access/AccessControl.sol\":7025:7030  false */\n      0x00\n        /* \"@openzeppelin/contracts/access/AccessControl.sol\":7018:7030  return false */\n      swap1\n      pop\n        /* \"@openzeppelin/contracts/access/AccessControl.sol\":6730:7047  function _revokeRole(bytes32 role, address account) internal virtual returns (bool) {... */\n    tag_204:\n      swap3\n      swap2\n      pop\n      pop\n      jump\t// out\n        /* \"@openzeppelin/contracts/token/ERC20/ERC20.sol\":7458:7666  function _mint(address account, uint256 value) internal {... */\n    tag_146:\n        /* \"@openzeppelin/contracts/token/ERC20/ERC20.sol\":7547:7548  0 */\n      0x00\n        /* \"@openzeppelin/contracts/token/ERC20/ERC20.sol\":7528:7549  account == address(0) */\n      0xffffffffffffffffffffffffffffffffffffffff\n      and\n        /* \"@openzeppelin/contracts/token/ERC20/ERC20.sol\":7528:7535  account */\n      dup3\n        /* \"@openzeppelin/contracts/token/ERC20/ERC20.sol\":7528:7549  account == address(0) */\n      0xffffffffffffffffffffffffffffffffffffffff\n      and\n      sub\n        /* \"@openzeppelin/contracts/token/ERC20/ERC20.sol\":7524:7615  if (account == address(0)) {... */\n      tag_210\n      jumpi\n        /* \"@openzeppelin/contracts/token/ERC20/ERC20.sol\":7601:7602  0 */\n      0x00\n        /* \"@openzeppelin/contracts/token/ERC20/ERC20.sol\":7572:7604  ERC20InvalidReceiver(address(0)) */\n      mload(0x40)\n      0xec442f0500000000000000000000000000000000000000000000000000000000\n      dup2\n      mstore\n      0x04\n      add\n      tag_211\n      swap2\n      swap1\n      tag_190\n      jump\t// in\n    tag_211:\n      mload(0x40)\n      dup1\n      swap2\n      sub\n      swap1\n      revert\n        /* \"@openzeppelin/contracts/token/ERC20/ERC20.sol\":7524:7615  if (account == address(0)) {... */\n    tag_210:\n        /* \"@openzeppelin/contracts/token/ERC20/ERC20.sol\":7624:7659  _update(address(0), account, value) */\n      tag_212\n        /* \"@openzeppelin/contracts/token/ERC20/ERC20.sol\":7640:7641  0 */\n      0x00\n        /* \"@openzeppelin/contracts/token/ERC20/ERC20.sol\":7644:7651  account */\n      dup4\n        /* \"@openzeppelin/contracts/token/ERC20/ERC20.sol\":7653:7658  value */\n      dup4\n        /* \"@openzeppelin/contracts/token/ERC20/ERC20.sol\":7624:7631  _update */\n      tag_194\n        /* \"@openzeppelin/contracts/token/ERC20/ERC20.sol\":7624:7659  _update(address(0), account, value) */\n      jump\t// in\n    tag_212:\n        /* \"@openzeppelin/contracts/token/ERC20/ERC20.sol\":7458:7666  function _mint(address account, uint256 value) internal {... */\n      pop\n      pop\n      jump\t// out\n        /* \"@openzeppelin/contracts/token/ERC20/ERC20.sol\":7984:8190  function _burn(address account, uint256 value) internal {... */\n    tag_161:\n        /* \"@openzeppelin/contracts/token/ERC20/ERC20.sol\":8073:8074  0 */\n      0x00\n        /* \"@openzeppelin/contracts/token/ERC20/ERC20.sol\":8054:8075  account == address(0) */\n      0xffffffffffffffffffffffffffffffffffffffff\n      and\n        /* \"@openzeppelin/contracts/token/ERC20/ERC20.sol\":8054:8061  account */\n      dup3\n        /* \"@openzeppelin/contracts/token/ERC20/ERC20.sol\":8054:8075  account == address(0) */\n      0xffffffffffffffffffffffffffffffffffffffff\n      and\n      sub\n        /* \"@openzeppelin/contracts/token/ERC20/ERC20.sol\":8050:8139  if (account == address(0)) {... */\n      tag_214\n      jumpi\n        /* \"@openzeppelin/contracts/token/ERC20/ERC20.sol\":8125:8126  0 */\n      0x00\n        /* \"@openzeppelin/contracts/token/ERC20/ERC20.sol\":8098:8128  ERC20InvalidSender(address(0)) */\n      mload(0x40)\n      0x96c6fd1e00000000000000000000000000000000000000000000000000000000\n      dup2\n      mstore\n      0x04\n      add\n      tag_215\n      swap2\n      swap1\n      tag_190\n      jump\t// in\n    tag_215:\n      mload(0x40)\n      dup1\n      swap2\n      sub\n      swap1\n      revert\n        /* \"@openzeppelin/contracts/token/ERC20/ERC20.sol\":8050:8139  if (account == address(0)) {... */\n    tag_214:\n        /* \"@openzeppelin/contracts/token/ERC20/ERC20.sol\":8148:8183  _update(account, address(0), value) */\n      tag_216\n        /* \"@openzeppelin/contracts/token/ERC20/ERC20.sol\":8156:8163  account */\n      dup3\n        /* \"@openzeppelin/contracts/token/ERC20/ERC20.sol\":8173:8174  0 */\n      0x00\n        /* \"@openzeppelin/contracts/token/ERC20/ERC20.sol\":8177:8182  value */\n      dup4\n        /* \"@openzeppelin/contracts/token/ERC20/ERC20.sol\":8148:8155  _update */\n      tag_194\n        /* \"@openzeppelin/contracts/token/ERC20/ERC20.sol\":8148:8183  _update(account, address(0), value) */\n      jump\t// in\n    tag_216:\n        /* \"@openzeppelin/contracts/token/ERC20/ERC20.sol\":7984:8190  function _burn(address account, uint256 value) internal {... */\n      pop\n      pop\n      jump\t// out\n        /* \"@openzeppelin/contracts/token/ERC20/ERC20.sol\":9701:10133  function _approve(address owner, address spender, uint256 value, bool emitEvent) internal virtual {... */\n    tag_179:\n        /* \"@openzeppelin/contracts/token/ERC20/ERC20.sol\":9830:9831  0 */\n      0x00\n        /* \"@openzeppelin/contracts/token/ERC20/ERC20.sol\":9813:9832  owner == address(0) */\n      0xffffffffffffffffffffffffffffffffffffffff\n      and\n        /* \"@openzeppelin/contracts/token/ERC20/ERC20.sol\":9813:9818  owner */\n      dup5\n        /* \"@openzeppelin/contracts/token/ERC20/ERC20.sol\":9813:9832  owner == address(0) */\n      0xffffffffffffffffffffffffffffffffffffffff\n      and\n      sub\n        /* \"@openzeppelin/contracts/token/ERC20/ERC20.sol\":9809:9898  if (owner == address(0)) {... */\n      tag_218\n      jumpi\n        /* \"@openzeppelin/contracts/token/ERC20/ERC20.sol\":9884:9885  0 */\n      0x00\n        /* \"@openzeppelin/contracts/token/ERC20/ERC20.sol\":9855:9887  ERC20InvalidApprover(address(0)) */\n      mload(0x40)\n      0xe602df0500000000000000000000000000000000000000000000000000000000\n      dup2\n      mstore\n      0x04\n      add\n      tag_219\n      swap2\n      swap1\n      tag_190\n      jump\t// in\n    tag_219:\n      mload(0x40)\n      dup1\n      swap2\n      sub\n      swap1\n      revert\n        /* \"@openzeppelin/contracts/token/ERC20/ERC20.sol\":9809:9898  if (owner == address(0)) {... */\n    tag_218:\n        /* \"@openzeppelin/contracts/token/ERC20/ERC20.sol\":9930:9931  0 */\n      0x00\n        /* \"@openzeppelin/contracts/token/ERC20/ERC20.sol\":9911:9932  spender == address(0) */\n      0xffffffffffffffffffffffffffffffffffffffff\n      and\n        /* \"@openzeppelin/contracts/token/ERC20/ERC20.sol\":9911:9918  spender */\n      dup4\n        /* \"@openzeppelin/contracts/token/ERC20/ERC20.sol\":9911:9932  spender == address(0) */\n      0xffffffffffffffffffffffffffffffffffffffff\n      and\n      sub\n        /* \"@openzeppelin/contracts/token/ERC20/ERC20.sol\":9907:9997  if (spender == address(0)) {... */\n      tag_220\n      jumpi\n        /* \"@openzeppelin/contracts/token/ERC20/ERC20.sol\":9983:9984  0 */\n      0x00\n        /* \"@openzeppelin/contracts/token/ERC20/ERC20.sol\":9955:9986  ERC20InvalidSpender(address(0)) */\n      mload(0x40)\n      0x94280d6200000000000000000000000000000000000000000000000000000000\n      dup2\n      mstore\n      0x04\n      add\n      tag_221\n      swap2\n      swap1\n      tag_190\n      jump\t// in\n    tag_221:\n      mload(0x40)\n      dup1\n      swap2\n      sub\n      swap1\n      revert\n        /* \"@openzeppelin/contracts/token/ERC20/ERC20.sol\":9907:9997  if (spender == address(0)) {... */\n    tag_220:\n        /* \"@openzeppelin/contracts/token/ERC20/ERC20.sol\":10036:10041  value */\n      dup2\n        /* \"@openzeppelin/contracts/token/ERC20/ERC20.sol\":10006:10017  _allowances */\n      0x01\n        /* \"@openzeppelin/contracts/token/ERC20/ERC20.sol\":10006:10024  _allowances[owner] */\n      0x00\n        /* \"@openzeppelin/contracts/token/ERC20/ERC20.sol\":10018:10023  owner */\n      dup7\n        /* \"@openzeppelin/contracts/token/ERC20/ERC20.sol\":10006:10024  _allowances[owner] */\n      0xffffffffffffffffffffffffffffffffffffffff\n      and\n      0xffffffffffffffffffffffffffffffffffffffff\n      and\n      dup2\n      mstore\n      0x20\n      add\n      swap1\n      dup2\n      mstore\n      0x20\n      add\n      0x00\n      keccak256\n        /* \"@openzeppelin/contracts/token/ERC20/ERC20.sol\":10006:10033  _allowances[owner][spender] */\n      0x00\n        /* \"@openzeppelin/contracts/token/ERC20/ERC20.sol\":10025:10032  spender */\n      dup6\n        /* \"@openzeppelin/contracts/token/ERC20/ERC20.sol\":10006:10033  _allowances[owner][spender] */\n      0xffffffffffffffffffffffffffffffffffffffff\n      and\n      0xffffffffffffffffffffffffffffffffffffffff\n      and\n      dup2\n      mstore\n      0x20\n      add\n      swap1\n      dup2\n      mstore\n      0x20\n      add\n      0x00\n      keccak256\n        /* \"@openzeppelin/contracts/token/ERC20/ERC20.sol\":10006:10041  _allowances[owner][spender] = value */\n      dup2\n      swap1\n      sstore\n      pop\n        /* \"@openzeppelin/contracts/token/ERC20/ERC20.sol\":10055:10064  emitEvent */\n      dup1\n        /* \"@openzeppelin/contracts/token/ERC20/ERC20.sol\":10051:10127  if (emitEvent) {... */\n      iszero\n      tag_222\n      jumpi\n        /* \"@openzeppelin/contracts/token/ERC20/ERC20.sol\":10101:10108  spender */\n      dup3\n        /* \"@openzeppelin/contracts/token/ERC20/ERC20.sol\":10085:10116  Approval(owner, spender, value) */\n      0xffffffffffffffffffffffffffffffffffffffff\n      and\n        /* \"@openzeppelin/contracts/token/ERC20/ERC20.sol\":10094:10099  owner */\n      dup5\n        /* \"@openzeppelin/contracts/token/ERC20/ERC20.sol\":10085:10116  Approval(owner, spender, value) */\n      0xffffffffffffffffffffffffffffffffffffffff\n      and\n      0x8c5be1e5ebec7d5bd14f71427d1e84f3dd0314c0f7b2291e5b200ac8c7c3b925\n        /* \"@openzeppelin/contracts/token/ERC20/ERC20.sol\":10110:10115  value */\n      dup5\n        /* \"@openzeppelin/contracts/token/ERC20/ERC20.sol\":10085:10116  Approval(owner, spender, value) */\n      mload(0x40)\n      tag_223\n      swap2\n      swap1\n      tag_44\n      jump\t// in\n    tag_223:\n      mload(0x40)\n      dup1\n      swap2\n      sub\n      swap1\n      log3\n        /* \"@openzeppelin/contracts/token/ERC20/ERC20.sol\":10051:10127  if (emitEvent) {... */\n    tag_222:\n        /* \"@openzeppelin/contracts/token/ERC20/ERC20.sol\":9701:10133  function _approve(address owner, address spender, uint256 value, bool emitEvent) internal virtual {... */\n      pop\n      pop\n      pop\n      pop\n      jump\t// out\n        /* \"@openzeppelin/contracts/token/ERC20/ERC20.sol\":6008:7115  function _update(address from, address to, uint256 value) internal virtual {... */\n    tag_194:\n        /* \"@openzeppelin/contracts/token/ERC20/ERC20.sol\":6113:6114  0 */\n      0x00\n        /* \"@openzeppelin/contracts/token/ERC20/ERC20.sol\":6097:6115  from == address(0) */\n      0xffffffffffffffffffffffffffffffffffffffff\n      and\n        /* \"@openzeppelin/contracts/token/ERC20/ERC20.sol\":6097:6101  from */\n      dup4\n        /* \"@openzeppelin/contracts/token/ERC20/ERC20.sol\":6097:6115  from == address(0) */\n      0xffffffffffffffffffffffffffffffffffffffff\n      and\n      sub\n        /* \"@openzeppelin/contracts/token/ERC20/ERC20.sol\":6093:6633  if (from == address(0)) {... */\n      tag_225\n      jumpi\n        /* \"@openzeppelin/contracts/token/ERC20/ERC20.sol\":6249:6254  value */\n      dup1\n        /* \"@openzeppelin/contracts/token/ERC20/ERC20.sol\":6233:6245  _totalSupply */\n      0x02\n      0x00\n        /* \"@openzeppelin/contracts/token/ERC20/ERC20.sol\":6233:6254  _totalSupply += value */\n      dup3\n      dup3\n      sload\n      tag_226\n      swap2\n      swap1\n      tag_227\n      jump\t// in\n    tag_226:\n      swap3\n      pop\n      pop\n      dup2\n      swap1\n      sstore\n      pop\n        /* \"@openzeppelin/contracts/token/ERC20/ERC20.sol\":6093:6633  if (from == address(0)) {... */\n      jump(tag_228)\n    tag_225:\n        /* \"@openzeppelin/contracts/token/ERC20/ERC20.sol\":6285:6304  uint256 fromBalance */\n      0x00\n        /* \"@openzeppelin/contracts/token/ERC20/ERC20.sol\":6307:6316  _balances */\n      dup1\n        /* \"@openzeppelin/contracts/token/ERC20/ERC20.sol\":6307:6322  _balances[from] */\n      0x00\n        /* \"@openzeppelin/contracts/token/ERC20/ERC20.sol\":6317:6321  from */\n      dup6\n        /* \"@openzeppelin/contracts/token/ERC20/ERC20.sol\":6307:6322  _balances[from] */\n      0xffffffffffffffffffffffffffffffffffffffff\n      and\n      0xffffffffffffffffffffffffffffffffffffffff\n      and\n      dup2\n      mstore\n      0x20\n      add\n      swap1\n      dup2\n      mstore\n      0x20\n      add\n      0x00\n      keccak256\n      sload\n        /* \"@openzeppelin/contracts/token/ERC20/ERC20.sol\":6285:6322  uint256 fromBalance = _balances[from] */\n      swap1\n      pop\n        /* \"@openzeppelin/contracts/token/ERC20/ERC20.sol\":6354:6359  value */\n      dup2\n        /* \"@openzeppelin/contracts/token/ERC20/ERC20.sol\":6340:6351  fromBalance */\n      dup2\n        /* \"@openzeppelin/contracts/token/ERC20/ERC20.sol\":6340:6359  fromBalance < value */\n      lt\n        /* \"@openzeppelin/contracts/token/ERC20/ERC20.sol\":6336:6451  if (fromBalance < value) {... */\n      iszero\n      tag_229\n      jumpi\n        /* \"@openzeppelin/contracts/token/ERC20/ERC20.sol\":6411:6415  from */\n      dup4\n        /* \"@openzeppelin/contracts/token/ERC20/ERC20.sol\":6417:6428  fromBalance */\n      dup2\n        /* \"@openzeppelin/contracts/token/ERC20/ERC20.sol\":6430:6435  value */\n      dup4\n        /* \"@openzeppelin/contracts/token/ERC20/ERC20.sol\":6386:6436  ERC20InsufficientBalance(from, fromBalance, value) */\n      mload(0x40)\n      0xe450d38c00000000000000000000000000000000000000000000000000000000\n      dup2\n      mstore\n      0x04\n      add\n      tag_230\n      swap4\n      swap3\n      swap2\n      swap1\n      tag_185\n      jump\t// in\n    tag_230:\n      mload(0x40)\n      dup1\n      swap2\n      sub\n      swap1\n      revert\n        /* \"@openzeppelin/contracts/token/ERC20/ERC20.sol\":6336:6451  if (fromBalance < value) {... */\n    tag_229:\n        /* \"@openzeppelin/contracts/token/ERC20/ERC20.sol\":6603:6608  value */\n      dup2\n        /* \"@openzeppelin/contracts/token/ERC20/ERC20.sol\":6589:6600  fromBalance */\n      dup2\n        /* \"@openzeppelin/contracts/token/ERC20/ERC20.sol\":6589:6608  fromBalance - value */\n      sub\n        /* \"@openzeppelin/contracts/token/ERC20/ERC20.sol\":6571:6580  _balances */\n      0x00\n        /* \"@openzeppelin/contracts/token/ERC20/ERC20.sol\":6571:6586  _balances[from] */\n      dup1\n        /* \"@openzeppelin/contracts/token/ERC20/ERC20.sol\":6581:6585  from */\n      dup7\n        /* \"@openzeppelin/contracts/token/ERC20/ERC20.sol\":6571:6586  _balances[from] */\n      0xffffffffffffffffffffffffffffffffffffffff\n      and\n      0xffffffffffffffffffffffffffffffffffffffff\n      and\n      dup2\n      mstore\n      0x20\n      add\n      swap1\n      dup2\n      mstore\n      0x20\n      add\n      0x00\n      keccak256\n        /* \"@openzeppelin/contracts/token/ERC20/ERC20.sol\":6571:6608  _balances[from] = fromBalance - value */\n      dup2\n      swap1\n      sstore\n      pop\n        /* \"@openzeppelin/contracts/token/ERC20/ERC20.sol\":6271:6633  {... */\n      pop\n        /* \"@openzeppelin/contracts/token/ERC20/ERC20.sol\":6093:6633  if (from == address(0)) {... */\n    tag_228:\n        /* \"@openzeppelin/contracts/token/ERC20/ERC20.sol\":6661:6662  0 */\n      0x00\n        /* \"@openzeppelin/contracts/token/ERC20/ERC20.sol\":6647:6663  to == address(0) */\n      0xffffffffffffffffffffffffffffffffffffffff\n      and\n        /* \"@openzeppelin/contracts/token/ERC20/ERC20.sol\":6647:6649  to */\n      dup3\n        /* \"@openzeppelin/contracts/token/ERC20/ERC20.sol\":6647:6663  to == address(0) */\n      0xffffffffffffffffffffffffffffffffffffffff\n      and\n      sub\n        /* \"@openzeppelin/contracts/token/ERC20/ERC20.sol\":6643:7068  if (to == address(0)) {... */\n      tag_231\n      jumpi\n        /* \"@openzeppelin/contracts/token/ERC20/ERC20.sol\":6826:6831  value */\n      dup1\n        /* \"@openzeppelin/contracts/token/ERC20/ERC20.sol\":6810:6822  _totalSupply */\n      0x02\n      0x00\n        /* \"@openzeppelin/contracts/token/ERC20/ERC20.sol\":6810:6831  _totalSupply -= value */\n      dup3\n      dup3\n      sload\n      sub\n      swap3\n      pop\n      pop\n      dup2\n      swap1\n      sstore\n      pop\n        /* \"@openzeppelin/contracts/token/ERC20/ERC20.sol\":6643:7068  if (to == address(0)) {... */\n      jump(tag_232)\n    tag_231:\n        /* \"@openzeppelin/contracts/token/ERC20/ERC20.sol\":7038:7043  value */\n      dup1\n        /* \"@openzeppelin/contracts/token/ERC20/ERC20.sol\":7021:7030  _balances */\n      0x00\n        /* \"@openzeppelin/contracts/token/ERC20/ERC20.sol\":7021:7034  _balances[to] */\n      dup1\n        /* \"@openzeppelin/contracts/token/ERC20/ERC20.sol\":7031:7033  to */\n      dup5\n        /* \"@openzeppelin/contracts/token/ERC20/ERC20.sol\":7021:7034  _balances[to] */\n      0xffffffffffffffffffffffffffffffffffffffff\n      and\n      0xffffffffffffffffffffffffffffffffffffffff\n      and\n      dup2\n      mstore\n      0x20\n      add\n      swap1\n      dup2\n      mstore\n      0x20\n      add\n      0x00\n      keccak256\n      0x00\n        /* \"@openzeppelin/contracts/token/ERC20/ERC20.sol\":7021:7043  _balances[to] += value */\n      dup3\n      dup3\n      sload\n      add\n      swap3\n      pop\n      pop\n      dup2\n      swap1\n      sstore\n      pop\n        /* \"@openzeppelin/contracts/token/ERC20/ERC20.sol\":6643:7068  if (to == address(0)) {... */\n    tag_232:\n        /* \"@openzeppelin/contracts/token/ERC20/ERC20.sol\":7098:7100  to */\n      dup2\n        /* \"@openzeppelin/contracts/token/ERC20/ERC20.sol\":7083:7108  Transfer(from, to, value) */\n      0xffffffffffffffffffffffffffffffffffffffff\n      and\n        /* \"@openzeppelin/contracts/token/ERC20/ERC20.sol\":7092:7096  from */\n      dup4\n        /* \"@openzeppelin/contracts/token/ERC20/ERC20.sol\":7083:7108  Transfer(from, to, value) */\n      0xffffffffffffffffffffffffffffffffffffffff\n      and\n      0xddf252ad1be2c89b69c2b068fc378daa952ba7f163c4a11628f55a4df523b3ef\n        /* \"@openzeppelin/contracts/token/ERC20/ERC20.sol\":7102:7107  value */\n      dup4\n        /* \"@openzeppelin/contracts/token/ERC20/ERC20.sol\":7083:7108  Transfer(from, to, value) */\n      mload(0x40)\n      tag_233\n      swap2\n      swap1\n      tag_44\n      jump\t// in\n    tag_233:\n      mload(0x40)\n      dup1\n      swap2\n      sub\n      swap1\n      log3\n        /* \"@openzeppelin/contracts/token/ERC20/ERC20.sol\":6008:7115  function _update(address from, address to, uint256 value) internal virtual {... */\n      pop\n      pop\n      pop\n      jump\t// out\n        /* \"@openzeppelin/contracts/access/AccessControl.sol\":3432:3629  function _checkRole(bytes32 role, address account) internal view virtual {... */\n    tag_198:\n        /* \"@openzeppelin/contracts/access/AccessControl.sol\":3520:3542  hasRole(role, account) */\n      tag_235\n        /* \"@openzeppelin/contracts/access/AccessControl.sol\":3528:3532  role */\n      dup3\n        /* \"@openzeppelin/contracts/access/AccessControl.sol\":3534:3541  account */\n      dup3\n        /* \"@openzeppelin/contracts/access/AccessControl.sol\":3520:3527  hasRole */\n      tag_77\n        /* \"@openzeppelin/contracts/access/AccessControl.sol\":3520:3542  hasRole(role, account) */\n      jump\t// in\n    tag_235:\n        /* \"@openzeppelin/contracts/access/AccessControl.sol\":3515:3623  if (!hasRole(role, account)) {... */\n      tag_236\n      jumpi\n        /* \"@openzeppelin/contracts/access/AccessControl.sol\":3598:3605  account */\n      dup1\n        /* \"@openzeppelin/contracts/access/AccessControl.sol\":3607:3611  role */\n      dup3\n        /* \"@openzeppelin/contracts/access/AccessControl.sol\":3565:3612  AccessControlUnauthorizedAccount(account, role) */\n      mload(0x40)\n      0xe2517d3f00000000000000000000000000000000000000000000000000000000\n      dup2\n      mstore\n      0x04\n      add\n      tag_237\n      swap3\n      swap2\n      swap1\n      tag_238\n      jump\t// in\n    tag_237:\n      mload(0x40)\n      dup1\n      swap2\n      sub\n      swap1\n      revert\n        /* \"@openzeppelin/contracts/access/AccessControl.sol\":3515:3623  if (!hasRole(role, account)) {... */\n    tag_236:\n        /* \"@openzeppelin/contracts/access/AccessControl.sol\":3432:3629  function _checkRole(bytes32 role, address account) internal view virtual {... */\n      pop\n      pop\n      jump\t// out\n        /* \"#utility.yul\":88:205   */\n    tag_240:\n        /* \"#utility.yul\":197:198   */\n      0x00\n        /* \"#utility.yul\":194:195   */\n      dup1\n        /* \"#utility.yul\":187:199   */\n      revert\n        /* \"#utility.yul\":334:483   */\n    tag_242:\n        /* \"#utility.yul\":370:377   */\n      0x00\n        /* \"#utility.yul\":410:476   */\n      0xffffffff00000000000000000000000000000000000000000000000000000000\n        /* \"#utility.yul\":403:408   */\n      dup3\n        /* \"#utility.yul\":399:477   */\n      and\n        /* \"#utility.yul\":388:477   */\n      swap1\n      pop\n        /* \"#utility.yul\":334:483   */\n      swap2\n      swap1\n      pop\n      jump\t// out\n        /* \"#utility.yul\":489:609   */\n    tag_243:\n        /* \"#utility.yul\":561:584   */\n      tag_275\n        /* \"#utility.yul\":578:583   */\n      dup2\n        /* \"#utility.yul\":561:584   */\n      tag_242\n      jump\t// in\n    tag_275:\n        /* \"#utility.yul\":554:559   */\n      dup2\n        /* \"#utility.yul\":551:585   */\n      eq\n        /* \"#utility.yul\":541:603   */\n      tag_276\n      jumpi\n        /* \"#utility.yul\":599:600   */\n      0x00\n        /* \"#utility.yul\":596:597   */\n      dup1\n        /* \"#utility.yul\":589:601   */\n      revert\n        /* \"#utility.yul\":541:603   */\n    tag_276:\n        /* \"#utility.yul\":489:609   */\n      pop\n      jump\t// out\n        /* \"#utility.yul\":615:752   */\n    tag_244:\n        /* \"#utility.yul\":660:665   */\n      0x00\n        /* \"#utility.yul\":698:704   */\n      dup2\n        /* \"#utility.yul\":685:705   */\n      calldataload\n        /* \"#utility.yul\":676:705   */\n      swap1\n      pop\n        /* \"#utility.yul\":714:746   */\n      tag_278\n        /* \"#utility.yul\":740:745   */\n      dup2\n        /* \"#utility.yul\":714:746   */\n      tag_243\n      jump\t// in\n    tag_278:\n        /* \"#utility.yul\":615:752   */\n      swap3\n      swap2\n      pop\n      pop\n      jump\t// out\n        /* \"#utility.yul\":758:1085   */\n    tag_28:\n        /* \"#utility.yul\":816:822   */\n      0x00\n        /* \"#utility.yul\":865:867   */\n      0x20\n        /* \"#utility.yul\":853:862   */\n      dup3\n        /* \"#utility.yul\":844:851   */\n      dup5\n        /* \"#utility.yul\":840:863   */\n      sub\n        /* \"#utility.yul\":836:868   */\n      slt\n        /* \"#utility.yul\":833:952   */\n      iszero\n      tag_280\n      jumpi\n        /* \"#utility.yul\":871:950   */\n      tag_281\n      tag_240\n      jump\t// in\n    tag_281:\n        /* \"#utility.yul\":833:952   */\n    tag_280:\n        /* \"#utility.yul\":991:992   */\n      0x00\n        /* \"#utility.yul\":1016:1068   */\n      tag_282\n        /* \"#utility.yul\":1060:1067   */\n      dup5\n        /* \"#utility.yul\":1051:1057   */\n      dup3\n        /* \"#utility.yul\":1040:1049   */\n      dup6\n        /* \"#utility.yul\":1036:1058   */\n      add\n        /* \"#utility.yul\":1016:1068   */\n      tag_244\n      jump\t// in\n    tag_282:\n        /* \"#utility.yul\":1006:1068   */\n      swap2\n      pop\n        /* \"#utility.yul\":962:1078   */\n      pop\n        /* \"#utility.yul\":758:1085   */\n      swap3\n      swap2\n      pop\n      pop\n      jump\t// out\n        /* \"#utility.yul\":1091:1181   */\n    tag_245:\n        /* \"#utility.yul\":1125:1132   */\n      0x00\n        /* \"#utility.yul\":1168:1173   */\n      dup2\n        /* \"#utility.yul\":1161:1174   */\n      iszero\n        /* \"#utility.yul\":1154:1175   */\n      iszero\n        /* \"#utility.yul\":1143:1175   */\n      swap1\n      pop\n        /* \"#utility.yul\":1091:1181   */\n      swap2\n      swap1\n      pop\n      jump\t// out\n        /* \"#utility.yul\":1187:1296   */\n    tag_246:\n        /* \"#utility.yul\":1268:1289   */\n      tag_285\n        /* \"#utility.yul\":1283:1288   */\n      dup2\n        /* \"#utility.yul\":1268:1289   */\n      tag_245\n      jump\t// in\n    tag_285:\n        /* \"#utility.yul\":1263:1266   */\n      dup3\n        /* \"#utility.yul\":1256:1290   */\n      mstore\n        /* \"#utility.yul\":1187:1296   */\n      pop\n      pop\n      jump\t// out\n        /* \"#utility.yul\":1302:1512   */\n    tag_31:\n        /* \"#utility.yul\":1389:1393   */\n      0x00\n        /* \"#utility.yul\":1427:1429   */\n      0x20\n        /* \"#utility.yul\":1416:1425   */\n      dup3\n        /* \"#utility.yul\":1412:1430   */\n      add\n        /* \"#utility.yul\":1404:1430   */\n      swap1\n      pop\n        /* \"#utility.yul\":1440:1505   */\n      tag_287\n        /* \"#utility.yul\":1502:1503   */\n      0x00\n        /* \"#utility.yul\":1491:1500   */\n      dup4\n        /* \"#utility.yul\":1487:1504   */\n      add\n        /* \"#utility.yul\":1478:1484   */\n      dup5\n        /* \"#utility.yul\":1440:1505   */\n      tag_246\n      jump\t// in\n    tag_287:\n        /* \"#utility.yul\":1302:1512   */\n      swap3\n      swap2\n      pop\n      pop\n      jump\t// out\n        /* \"#utility.yul\":1518:1617   */\n    tag_247:\n        /* \"#utility.yul\":1570:1576   */\n      0x00\n        /* \"#utility.yul\":1604:1609   */\n      dup2\n        /* \"#utility.yul\":1598:1610   */\n      mload\n        /* \"#utility.yul\":1588:1610   */\n      swap1\n      pop\n        /* \"#utility.yul\":1518:1617   */\n      swap2\n      swap1\n      pop\n      jump\t// out\n        /* \"#utility.yul\":1623:1792   */\n    tag_248:\n        /* \"#utility.yul\":1707:1718   */\n      0x00\n        /* \"#utility.yul\":1741:1747   */\n      dup3\n        /* \"#utility.yul\":1736:1739   */\n      dup3\n        /* \"#utility.yul\":1729:1748   */\n      mstore\n        /* \"#utility.yul\":1781:1785   */\n      0x20\n        /* \"#utility.yul\":1776:1779   */\n      dup3\n        /* \"#utility.yul\":1772:1786   */\n      add\n        /* \"#utility.yul\":1757:1786   */\n      swap1\n      pop\n        /* \"#utility.yul\":1623:1792   */\n      swap3\n      swap2\n      pop\n      pop\n      jump\t// out\n        /* \"#utility.yul\":1798:1937   */\n    tag_249:\n        /* \"#utility.yul\":1887:1893   */\n      dup3\n        /* \"#utility.yul\":1882:1885   */\n      dup2\n        /* \"#utility.yul\":1877:1880   */\n      dup4\n        /* \"#utility.yul\":1871:1894   */\n      mcopy\n        /* \"#utility.yul\":1928:1929   */\n      0x00\n        /* \"#utility.yul\":1919:1925   */\n      dup4\n        /* \"#utility.yul\":1914:1917   */\n      dup4\n        /* \"#utility.yul\":1910:1926   */\n      add\n        /* \"#utility.yul\":1903:1930   */\n      mstore\n        /* \"#utility.yul\":1798:1937   */\n      pop\n      pop\n      pop\n      jump\t// out\n        /* \"#utility.yul\":1943:2045   */\n    tag_250:\n        /* \"#utility.yul\":1984:1990   */\n      0x00\n        /* \"#utility.yul\":2035:2037   */\n      0x1f\n        /* \"#utility.yul\":2031:2038   */\n      not\n        /* \"#utility.yul\":2026:2028   */\n      0x1f\n        /* \"#utility.yul\":2019:2024   */\n      dup4\n        /* \"#utility.yul\":2015:2029   */\n      add\n        /* \"#utility.yul\":2011:2039   */\n      and\n        /* \"#utility.yul\":2001:2039   */\n      swap1\n      pop\n        /* \"#utility.yul\":1943:2045   */\n      swap2\n      swap1\n      pop\n      jump\t// out\n        /* \"#utility.yul\":2051:2428   */\n    tag_251:\n        /* \"#utility.yul\":2139:2142   */\n      0x00\n        /* \"#utility.yul\":2167:2206   */\n      tag_293\n        /* \"#utility.yul\":2200:2205   */\n      dup3\n        /* \"#utility.yul\":2167:2206   */\n      tag_247\n      jump\t// in\n    tag_293:\n        /* \"#utility.yul\":2222:2293   */\n      tag_294\n        /* \"#utility.yul\":2286:2292   */\n      dup2\n        /* \"#utility.yul\":2281:2284   */\n      dup6\n        /* \"#utility.yul\":2222:2293   */\n      tag_248\n      jump\t// in\n    tag_294:\n        /* \"#utility.yul\":2215:2293   */\n      swap4\n      pop\n        /* \"#utility.yul\":2302:2367   */\n      tag_295\n        /* \"#utility.yul\":2360:2366   */\n      dup2\n        /* \"#utility.yul\":2355:2358   */\n      dup6\n        /* \"#utility.yul\":2348:2352   */\n      0x20\n        /* \"#utility.yul\":2341:2346   */\n      dup7\n        /* \"#utility.yul\":2337:2353   */\n      add\n        /* \"#utility.yul\":2302:2367   */\n      tag_249\n      jump\t// in\n    tag_295:\n        /* \"#utility.yul\":2392:2421   */\n      tag_296\n        /* \"#utility.yul\":2414:2420   */\n      dup2\n        /* \"#utility.yul\":2392:2421   */\n      tag_250\n      jump\t// in\n    tag_296:\n        /* \"#utility.yul\":2387:2390   */\n      dup5\n        /* \"#utility.yul\":2383:2422   */\n      add\n        /* \"#utility.yul\":2376:2422   */\n      swap2\n      pop\n        /* \"#utility.yul\":2143:2428   */\n      pop\n        /* \"#utility.yul\":2051:2428   */\n      swap3\n      swap2\n      pop\n      pop\n      jump\t// out\n        /* \"#utility.yul\":2434:2747   */\n    tag_35:\n        /* \"#utility.yul\":2547:2551   */\n      0x00\n        /* \"#utility.yul\":2585:2587   */\n      0x20\n        /* \"#utility.yul\":2574:2583   */\n      dup3\n        /* \"#utility.yul\":2570:2588   */\n      add\n        /* \"#utility.yul\":2562:2588   */\n      swap1\n      pop\n        /* \"#utility.yul\":2634:2643   */\n      dup2\n        /* \"#utility.yul\":2628:2632   */\n      dup2\n        /* \"#utility.yul\":2624:2644   */\n      sub\n        /* \"#utility.yul\":2620:2621   */\n      0x00\n        /* \"#utility.yul\":2609:2618   */\n      dup4\n        /* \"#utility.yul\":2605:2622   */\n      add\n        /* \"#utility.yul\":2598:2645   */\n      mstore\n        /* \"#utility.yul\":2662:2740   */\n      tag_298\n        /* \"#utility.yul\":2735:2739   */\n      dup2\n        /* \"#utility.yul\":2726:2732   */\n      dup5\n        /* \"#utility.yul\":2662:2740   */\n      tag_251\n      jump\t// in\n    tag_298:\n        /* \"#utility.yul\":2654:2740   */\n      swap1\n      pop\n        /* \"#utility.yul\":2434:2747   */\n      swap3\n      swap2\n      pop\n      pop\n      jump\t// out\n        /* \"#utility.yul\":2753:2879   */\n    tag_252:\n        /* \"#utility.yul\":2790:2797   */\n      0x00\n        /* \"#utility.yul\":2830:2872   */\n      0xffffffffffffffffffffffffffffffffffffffff\n        /* \"#utility.yul\":2823:2828   */\n      dup3\n        /* \"#utility.yul\":2819:2873   */\n      and\n        /* \"#utility.yul\":2808:2873   */\n      swap1\n      pop\n        /* \"#utility.yul\":2753:2879   */\n      swap2\n      swap1\n      pop\n      jump\t// out\n        /* \"#utility.yul\":2885:2981   */\n    tag_253:\n        /* \"#utility.yul\":2922:2929   */\n      0x00\n        /* \"#utility.yul\":2951:2975   */\n      tag_301\n        /* \"#utility.yul\":2969:2974   */\n      dup3\n        /* \"#utility.yul\":2951:2975   */\n      tag_252\n      jump\t// in\n    tag_301:\n        /* \"#utility.yul\":2940:2975   */\n      swap1\n      pop\n        /* \"#utility.yul\":2885:2981   */\n      swap2\n      swap1\n      pop\n      jump\t// out\n        /* \"#utility.yul\":2987:3109   */\n    tag_254:\n        /* \"#utility.yul\":3060:3084   */\n      tag_303\n        /* \"#utility.yul\":3078:3083   */\n      dup2\n        /* \"#utility.yul\":3060:3084   */\n      tag_253\n      jump\t// in\n    tag_303:\n        /* \"#utility.yul\":3053:3058   */\n      dup2\n        /* \"#utility.yul\":3050:3085   */\n      eq\n        /* \"#utility.yul\":3040:3103   */\n      tag_304\n      jumpi\n        /* \"#utility.yul\":3099:3100   */\n      0x00\n        /* \"#utility.yul\":3096:3097   */\n      dup1\n        /* \"#utility.yul\":3089:3101   */\n      revert\n        /* \"#utility.yul\":3040:3103   */\n    tag_304:\n        /* \"#utility.yul\":2987:3109   */\n      pop\n      jump\t// out\n        /* \"#utility.yul\":3115:3254   */\n    tag_255:\n        /* \"#utility.yul\":3161:3166   */\n      0x00\n        /* \"#utility.yul\":3199:3205   */\n      dup2\n        /* \"#utility.yul\":3186:3206   */\n      calldataload\n        /* \"#utility.yul\":3177:3206   */\n      swap1\n      pop\n        /* \"#utility.yul\":3215:3248   */\n      tag_306\n        /* \"#utility.yul\":3242:3247   */\n      dup2\n        /* \"#utility.yul\":3215:3248   */\n      tag_254\n      jump\t// in\n    tag_306:\n        /* \"#utility.yul\":3115:3254   */\n      swap3\n      swap2\n      pop\n      pop\n      jump\t// out\n        /* \"#utility.yul\":3260:3337   */\n    tag_256:\n        /* \"#utility.yul\":3297:3304   */\n      0x00\n        /* \"#utility.yul\":3326:3331   */\n      dup2\n        /* \"#utility.yul\":3315:3331   */\n      swap1\n      pop\n        /* \"#utility.yul\":3260:3337   */\n      swap2\n      swap1\n      pop\n      jump\t// out\n        /* \"#utility.yul\":3343:3465   */\n    tag_257:\n        /* \"#utility.yul\":3416:3440   */\n      tag_309\n        /* \"#utility.yul\":3434:3439   */\n      dup2\n        /* \"#utility.yul\":3416:3440   */\n      tag_256\n      jump\t// in\n    tag_309:\n        /* \"#utility.yul\":3409:3414   */\n      dup2\n        /* \"#utility.yul\":3406:3441   */\n      eq\n        /* \"#utility.yul\":3396:3459   */\n      tag_310\n      jumpi\n        /* \"#utility.yul\":3455:3456   */\n      0x00\n        /* \"#utility.yul\":3452:3453   */\n      dup1\n        /* \"#utility.yul\":3445:3457   */\n      revert\n        /* \"#utility.yul\":3396:3459   */\n    tag_310:\n        /* \"#utility.yul\":3343:3465   */\n      pop\n      jump\t// out\n        /* \"#utility.yul\":3471:3610   */\n    tag_258:\n        /* \"#utility.yul\":3517:3522   */\n      0x00\n        /* \"#utility.yul\":3555:3561   */\n      dup2\n        /* \"#utility.yul\":3542:3562   */\n      calldataload\n        /* \"#utility.yul\":3533:3562   */\n      swap1\n      pop\n        /* \"#utility.yul\":3571:3604   */\n      tag_312\n        /* \"#utility.yul\":3598:3603   */\n      dup2\n        /* \"#utility.yul\":3571:3604   */\n      tag_257\n      jump\t// in\n    tag_312:\n        /* \"#utility.yul\":3471:3610   */\n      swap3\n      swap2\n      pop\n      pop\n      jump\t// out\n        /* \"#utility.yul\":3616:4090   */\n    tag_38:\n        /* \"#utility.yul\":3684:3690   */\n      0x00\n        /* \"#utility.yul\":3692:3698   */\n      dup1\n        /* \"#utility.yul\":3741:3743   */\n      0x40\n        /* \"#utility.yul\":3729:3738   */\n      dup4\n        /* \"#utility.yul\":3720:3727   */\n      dup6\n        /* \"#utility.yul\":3716:3739   */\n      sub\n        /* \"#utility.yul\":3712:3744   */\n      slt\n        /* \"#utility.yul\":3709:3828   */\n      iszero\n      tag_314\n      jumpi\n        /* \"#utility.yul\":3747:3826   */\n      tag_315\n      tag_240\n      jump\t// in\n    tag_315:\n        /* \"#utility.yul\":3709:3828   */\n    tag_314:\n        /* \"#utility.yul\":3867:3868   */\n      0x00\n        /* \"#utility.yul\":3892:3945   */\n      tag_316\n        /* \"#utility.yul\":3937:3944   */\n      dup6\n        /* \"#utility.yul\":3928:3934   */\n      dup3\n        /* \"#utility.yul\":3917:3926   */\n      dup7\n        /* \"#utility.yul\":3913:3935   */\n      add\n        /* \"#utility.yul\":3892:3945   */\n      tag_255\n      jump\t// in\n    tag_316:\n        /* \"#utility.yul\":3882:3945   */\n      swap3\n      pop\n        /* \"#utility.yul\":3838:3955   */\n      pop\n        /* \"#utility.yul\":3994:3996   */\n      0x20\n        /* \"#utility.yul\":4020:4073   */\n      tag_317\n        /* \"#utility.yul\":4065:4072   */\n      dup6\n        /* \"#utility.yul\":4056:4062   */\n      dup3\n        /* \"#utility.yul\":4045:4054   */\n      dup7\n        /* \"#utility.yul\":4041:4063   */\n      add\n        /* \"#utility.yul\":4020:4073   */\n      tag_258\n      jump\t// in\n    tag_317:\n        /* \"#utility.yul\":4010:4073   */\n      swap2\n      pop\n        /* \"#utility.yul\":3965:4083   */\n      pop\n        /* \"#utility.yul\":3616:4090   */\n      swap3\n      pop\n      swap3\n      swap1\n      pop\n      jump\t// out\n        /* \"#utility.yul\":4096:4214   */\n    tag_259:\n        /* \"#utility.yul\":4183:4207   */\n      tag_319\n        /* \"#utility.yul\":4201:4206   */\n      dup2\n        /* \"#utility.yul\":4183:4207   */\n      tag_256\n      jump\t// in\n    tag_319:\n        /* \"#utility.yul\":4178:4181   */\n      dup3\n        /* \"#utility.yul\":4171:4208   */\n      mstore\n        /* \"#utility.yul\":4096:4214   */\n      pop\n      pop\n      jump\t// out\n        /* \"#utility.yul\":4220:4442   */\n    tag_44:\n        /* \"#utility.yul\":4313:4317   */\n      0x00\n        /* \"#utility.yul\":4351:4353   */\n      0x20\n        /* \"#utility.yul\":4340:4349   */\n      dup3\n        /* \"#utility.yul\":4336:4354   */\n      add\n        /* \"#utility.yul\":4328:4354   */\n      swap1\n      pop\n        /* \"#utility.yul\":4364:4435   */\n      tag_321\n        /* \"#utility.yul\":4432:4433   */\n      0x00\n        /* \"#utility.yul\":4421:4430   */\n      dup4\n        /* \"#utility.yul\":4417:4434   */\n      add\n        /* \"#utility.yul\":4408:4414   */\n      dup5\n        /* \"#utility.yul\":4364:4435   */\n      tag_259\n      jump\t// in\n    tag_321:\n        /* \"#utility.yul\":4220:4442   */\n      swap3\n      swap2\n      pop\n      pop\n      jump\t// out\n        /* \"#utility.yul\":4448:5067   */\n    tag_47:\n        /* \"#utility.yul\":4525:4531   */\n      0x00\n        /* \"#utility.yul\":4533:4539   */\n      dup1\n        /* \"#utility.yul\":4541:4547   */\n      0x00\n        /* \"#utility.yul\":4590:4592   */\n      0x60\n        /* \"#utility.yul\":4578:4587   */\n      dup5\n        /* \"#utility.yul\":4569:4576   */\n      dup7\n        /* \"#utility.yul\":4565:4588   */\n      sub\n        /* \"#utility.yul\":4561:4593   */\n      slt\n        /* \"#utility.yul\":4558:4677   */\n      iszero\n      tag_323\n      jumpi\n        /* \"#utility.yul\":4596:4675   */\n      tag_324\n      tag_240\n      jump\t// in\n    tag_324:\n        /* \"#utility.yul\":4558:4677   */\n    tag_323:\n        /* \"#utility.yul\":4716:4717   */\n      0x00\n        /* \"#utility.yul\":4741:4794   */\n      tag_325\n        /* \"#utility.yul\":4786:4793   */\n      dup7\n        /* \"#utility.yul\":4777:4783   */\n      dup3\n        /* \"#utility.yul\":4766:4775   */\n      dup8\n        /* \"#utility.yul\":4762:4784   */\n      add\n        /* \"#utility.yul\":4741:4794   */\n      tag_255\n      jump\t// in\n    tag_325:\n        /* \"#utility.yul\":4731:4794   */\n      swap4\n      pop\n        /* \"#utility.yul\":4687:4804   */\n      pop\n        /* \"#utility.yul\":4843:4845   */\n      0x20\n        /* \"#utility.yul\":4869:4922   */\n      tag_326\n        /* \"#utility.yul\":4914:4921   */\n      dup7\n        /* \"#utility.yul\":4905:4911   */\n      dup3\n        /* \"#utility.yul\":4894:4903   */\n      dup8\n        /* \"#utility.yul\":4890:4912   */\n      add\n        /* \"#utility.yul\":4869:4922   */\n      tag_255\n      jump\t// in\n    tag_326:\n        /* \"#utility.yul\":4859:4922   */\n      swap3\n      pop\n        /* \"#utility.yul\":4814:4932   */\n      pop\n        /* \"#utility.yul\":4971:4973   */\n      0x40\n        /* \"#utility.yul\":4997:5050   */\n      tag_327\n        /* \"#utility.yul\":5042:5049   */\n      dup7\n        /* \"#utility.yul\":5033:5039   */\n      dup3\n        /* \"#utility.yul\":5022:5031   */\n      dup8\n        /* \"#utility.yul\":5018:5040   */\n      add\n        /* \"#utility.yul\":4997:5050   */\n      tag_258\n      jump\t// in\n    tag_327:\n        /* \"#utility.yul\":4987:5050   */\n      swap2\n      pop\n        /* \"#utility.yul\":4942:5060   */\n      pop\n        /* \"#utility.yul\":4448:5067   */\n      swap3\n      pop\n      swap3\n      pop\n      swap3\n      jump\t// out\n        /* \"#utility.yul\":5073:5150   */\n    tag_260:\n        /* \"#utility.yul\":5110:5117   */\n      0x00\n        /* \"#utility.yul\":5139:5144   */\n      dup2\n        /* \"#utility.yul\":5128:5144   */\n      swap1\n      pop\n        /* \"#utility.yul\":5073:5150   */\n      swap2\n      swap1\n      pop\n      jump\t// out\n        /* \"#utility.yul\":5156:5278   */\n    tag_261:\n        /* \"#utility.yul\":5229:5253   */\n      tag_330\n        /* \"#utility.yul\":5247:5252   */\n      dup2\n        /* \"#utility.yul\":5229:5253   */\n      tag_260\n      jump\t// in\n    tag_330:\n        /* \"#utility.yul\":5222:5227   */\n      dup2\n        /* \"#utility.yul\":5219:5254   */\n      eq\n        /* \"#utility.yul\":5209:5272   */\n      tag_331\n      jumpi\n        /* \"#utility.yul\":5268:5269   */\n      0x00\n        /* \"#utility.yul\":5265:5266   */\n      dup1\n        /* \"#utility.yul\":5258:5270   */\n      revert\n        /* \"#utility.yul\":5209:5272   */\n    tag_331:\n        /* \"#utility.yul\":5156:5278   */\n      pop\n      jump\t// out\n        /* \"#utility.yul\":5284:5423   */\n    tag_262:\n        /* \"#utility.yul\":5330:5335   */\n      0x00\n        /* \"#utility.yul\":5368:5374   */\n      dup2\n        /* \"#utility.yul\":5355:5375   */\n      calldataload\n        /* \"#utility.yul\":5346:5375   */\n      swap1\n      pop\n        /* \"#utility.yul\":5384:5417   */\n      tag_333\n        /* \"#utility.yul\":5411:5416   */\n      dup2\n        /* \"#utility.yul\":5384:5417   */\n      tag_261\n      jump\t// in\n    tag_333:\n        /* \"#utility.yul\":5284:5423   */\n      swap3\n      swap2\n      pop\n      pop\n      jump\t// out\n        /* \"#utility.yul\":5429:5758   */\n    tag_52:\n        /* \"#utility.yul\":5488:5494   */\n      0x00\n        /* \"#utility.yul\":5537:5539   */\n      0x20\n        /* \"#utility.yul\":5525:5534   */\n      dup3\n        /* \"#utility.yul\":5516:5523   */\n      dup5\n        /* \"#utility.yul\":5512:5535   */\n      sub\n        /* \"#utility.yul\":5508:5540   */\n      slt\n        /* \"#utility.yul\":5505:5624   */\n      iszero\n      tag_335\n      jumpi\n        /* \"#utility.yul\":5543:5622   */\n      tag_336\n      tag_240\n      jump\t// in\n    tag_336:\n        /* \"#utility.yul\":5505:5624   */\n    tag_335:\n        /* \"#utility.yul\":5663:5664   */\n      0x00\n        /* \"#utility.yul\":5688:5741   */\n      tag_337\n        /* \"#utility.yul\":5733:5740   */\n      dup5\n        /* \"#utility.yul\":5724:5730   */\n      dup3\n        /* \"#utility.yul\":5713:5722   */\n      dup6\n        /* \"#utility.yul\":5709:5731   */\n      add\n        /* \"#utility.yul\":5688:5741   */\n      tag_262\n      jump\t// in\n    tag_337:\n        /* \"#utility.yul\":5678:5741   */\n      swap2\n      pop\n        /* \"#utility.yul\":5634:5751   */\n      pop\n        /* \"#utility.yul\":5429:5758   */\n      swap3\n      swap2\n      pop\n      pop\n      jump\t// out\n        /* \"#utility.yul\":5764:5882   */\n    tag_263:\n        /* \"#utility.yul\":5851:5875   */\n      tag_339\n        /* \"#utility.yul\":5869:5874   */\n      dup2\n        /* \"#utility.yul\":5851:5875   */\n      tag_260\n      jump\t// in\n    tag_339:\n        /* \"#utility.yul\":5846:5849   */\n      dup3\n        /* \"#utility.yul\":5839:5876   */\n      mstore\n        /* \"#utility.yul\":5764:5882   */\n      pop\n      pop\n      jump\t// out\n        /* \"#utility.yul\":5888:6110   */\n    tag_55:\n        /* \"#utility.yul\":5981:5985   */\n      0x00\n        /* \"#utility.yul\":6019:6021   */\n      0x20\n        /* \"#utility.yul\":6008:6017   */\n      dup3\n        /* \"#utility.yul\":6004:6022   */\n      add\n        /* \"#utility.yul\":5996:6022   */\n      swap1\n      pop\n        /* \"#utility.yul\":6032:6103   */\n      tag_341\n        /* \"#utility.yul\":6100:6101   */\n      0x00\n        /* \"#utility.yul\":6089:6098   */\n      dup4\n        /* \"#utility.yul\":6085:6102   */\n      add\n        /* \"#utility.yul\":6076:6082   */\n      dup5\n        /* \"#utility.yul\":6032:6103   */\n      tag_263\n      jump\t// in\n    tag_341:\n        /* \"#utility.yul\":5888:6110   */\n      swap3\n      swap2\n      pop\n      pop\n      jump\t// out\n        /* \"#utility.yul\":6116:6590   */\n    tag_58:\n        /* \"#utility.yul\":6184:6190   */\n      0x00\n        /* \"#utility.yul\":6192:6198   */\n      dup1\n        /* \"#utility.yul\":6241:6243   */\n      0x40\n        /* \"#utility.yul\":6229:6238   */\n      dup4\n        /* \"#utility.yul\":6220:6227   */\n      dup6\n        /* \"#utility.yul\":6216:6239   */\n      sub\n        /* \"#utility.yul\":6212:6244   */\n      slt\n        /* \"#utility.yul\":6209:6328   */\n      iszero\n      tag_343\n      jumpi\n        /* \"#utility.yul\":6247:6326   */\n      tag_344\n      tag_240\n      jump\t// in\n    tag_344:\n        /* \"#utility.yul\":6209:6328   */\n    tag_343:\n        /* \"#utility.yul\":6367:6368   */\n      0x00\n        /* \"#utility.yul\":6392:6445   */\n      tag_345\n        /* \"#utility.yul\":6437:6444   */\n      dup6\n        /* \"#utility.yul\":6428:6434   */\n      dup3\n        /* \"#utility.yul\":6417:6426   */\n      dup7\n        /* \"#utility.yul\":6413:6435   */\n      add\n        /* \"#utility.yul\":6392:6445   */\n      tag_262\n      jump\t// in\n    tag_345:\n        /* \"#utility.yul\":6382:6445   */\n      swap3\n      pop\n        /* \"#utility.yul\":6338:6455   */\n      pop\n        /* \"#utility.yul\":6494:6496   */\n      0x20\n        /* \"#utility.yul\":6520:6573   */\n      tag_346\n        /* \"#utility.yul\":6565:6572   */\n      dup6\n        /* \"#utility.yul\":6556:6562   */\n      dup3\n        /* \"#utility.yul\":6545:6554   */\n      dup7\n        /* \"#utility.yul\":6541:6563   */\n      add\n        /* \"#utility.yul\":6520:6573   */\n      tag_255\n      jump\t// in\n    tag_346:\n        /* \"#utility.yul\":6510:6573   */\n      swap2\n      pop\n        /* \"#utility.yul\":6465:6583   */\n      pop\n        /* \"#utility.yul\":6116:6590   */\n      swap3\n      pop\n      swap3\n      swap1\n      pop\n      jump\t// out\n        /* \"#utility.yul\":6596:6682   */\n    tag_264:\n        /* \"#utility.yul\":6631:6638   */\n      0x00\n        /* \"#utility.yul\":6671:6675   */\n      0xff\n        /* \"#utility.yul\":6664:6669   */\n      dup3\n        /* \"#utility.yul\":6660:6676   */\n      and\n        /* \"#utility.yul\":6649:6676   */\n      swap1\n      pop\n        /* \"#utility.yul\":6596:6682   */\n      swap2\n      swap1\n      pop\n      jump\t// out\n        /* \"#utility.yul\":6688:6800   */\n    tag_265:\n        /* \"#utility.yul\":6771:6793   */\n      tag_349\n        /* \"#utility.yul\":6787:6792   */\n      dup2\n        /* \"#utility.yul\":6771:6793   */\n      tag_264\n      jump\t// in\n    tag_349:\n        /* \"#utility.yul\":6766:6769   */\n      dup3\n        /* \"#utility.yul\":6759:6794   */\n      mstore\n        /* \"#utility.yul\":6688:6800   */\n      pop\n      pop\n      jump\t// out\n        /* \"#utility.yul\":6806:7020   */\n    tag_63:\n        /* \"#utility.yul\":6895:6899   */\n      0x00\n        /* \"#utility.yul\":6933:6935   */\n      0x20\n        /* \"#utility.yul\":6922:6931   */\n      dup3\n        /* \"#utility.yul\":6918:6936   */\n      add\n        /* \"#utility.yul\":6910:6936   */\n      swap1\n      pop\n        /* \"#utility.yul\":6946:7013   */\n      tag_351\n        /* \"#utility.yul\":7010:7011   */\n      0x00\n        /* \"#utility.yul\":6999:7008   */\n      dup4\n        /* \"#utility.yul\":6995:7012   */\n      add\n        /* \"#utility.yul\":6986:6992   */\n      dup5\n        /* \"#utility.yul\":6946:7013   */\n      tag_265\n      jump\t// in\n    tag_351:\n        /* \"#utility.yul\":6806:7020   */\n      swap3\n      swap2\n      pop\n      pop\n      jump\t// out\n        /* \"#utility.yul\":7026:7355   */\n    tag_72:\n        /* \"#utility.yul\":7085:7091   */\n      0x00\n        /* \"#utility.yul\":7134:7136   */\n      0x20\n        /* \"#utility.yul\":7122:7131   */\n      dup3\n        /* \"#utility.yul\":7113:7120   */\n      dup5\n        /* \"#utility.yul\":7109:7132   */\n      sub\n        /* \"#utility.yul\":7105:7137   */\n      slt\n        /* \"#utility.yul\":7102:7221   */\n      iszero\n      tag_353\n      jumpi\n        /* \"#utility.yul\":7140:7219   */\n      tag_354\n      tag_240\n      jump\t// in\n    tag_354:\n        /* \"#utility.yul\":7102:7221   */\n    tag_353:\n        /* \"#utility.yul\":7260:7261   */\n      0x00\n        /* \"#utility.yul\":7285:7338   */\n      tag_355\n        /* \"#utility.yul\":7330:7337   */\n      dup5\n        /* \"#utility.yul\":7321:7327   */\n      dup3\n        /* \"#utility.yul\":7310:7319   */\n      dup6\n        /* \"#utility.yul\":7306:7328   */\n      add\n        /* \"#utility.yul\":7285:7338   */\n      tag_255\n      jump\t// in\n    tag_355:\n        /* \"#utility.yul\":7275:7338   */\n      swap2\n      pop\n        /* \"#utility.yul\":7231:7348   */\n      pop\n        /* \"#utility.yul\":7026:7355   */\n      swap3\n      swap2\n      pop\n      pop\n      jump\t// out\n        /* \"#utility.yul\":7361:7835   */\n    tag_102:\n        /* \"#utility.yul\":7429:7435   */\n      0x00\n        /* \"#utility.yul\":7437:7443   */\n      dup1\n        /* \"#utility.yul\":7486:7488   */\n      0x40\n        /* \"#utility.yul\":7474:7483   */\n      dup4\n        /* \"#utility.yul\":7465:7472   */\n      dup6\n        /* \"#utility.yul\":7461:7484   */\n      sub\n        /* \"#utility.yul\":7457:7489   */\n      slt\n        /* \"#utility.yul\":7454:7573   */\n      iszero\n      tag_357\n      jumpi\n        /* \"#utility.yul\":7492:7571   */\n      tag_358\n      tag_240\n      jump\t// in\n    tag_358:\n        /* \"#utility.yul\":7454:7573   */\n    tag_357:\n        /* \"#utility.yul\":7612:7613   */\n      0x00\n        /* \"#utility.yul\":7637:7690   */\n      tag_359\n        /* \"#utility.yul\":7682:7689   */\n      dup6\n        /* \"#utility.yul\":7673:7679   */\n      dup3\n        /* \"#utility.yul\":7662:7671   */\n      dup7\n        /* \"#utility.yul\":7658:7680   */\n      add\n        /* \"#utility.yul\":7637:7690   */\n      tag_255\n      jump\t// in\n    tag_359:\n        /* \"#utility.yul\":7627:7690   */\n      swap3\n      pop\n        /* \"#utility.yul\":7583:7700   */\n      pop\n        /* \"#utility.yul\":7739:7741   */\n      0x20\n        /* \"#utility.yul\":7765:7818   */\n      tag_360\n        /* \"#utility.yul\":7810:7817   */\n      dup6\n        /* \"#utility.yul\":7801:7807   */\n      dup3\n        /* \"#utility.yul\":7790:7799   */\n      dup7\n        /* \"#utility.yul\":7786:7808   */\n      add\n        /* \"#utility.yul\":7765:7818   */\n      tag_255\n      jump\t// in\n    tag_360:\n        /* \"#utility.yul\":7755:7818   */\n      swap2\n      pop\n        /* \"#utility.yul\":7710:7828   */\n      pop\n        /* \"#utility.yul\":7361:7835   */\n      swap3\n      pop\n      swap3\n      swap1\n      pop\n      jump\t// out\n        /* \"#utility.yul\":7841:8021   */\n    tag_266:\n        /* \"#utility.yul\":7889:7966   */\n      0x4e487b7100000000000000000000000000000000000000000000000000000000\n        /* \"#utility.yul\":7886:7887   */\n      0x00\n        /* \"#utility.yul\":7879:7967   */\n      mstore\n        /* \"#utility.yul\":7986:7990   */\n      0x22\n        /* \"#utility.yul\":7983:7984   */\n      0x04\n        /* \"#utility.yul\":7976:7991   */\n      mstore\n        /* \"#utility.yul\":8010:8014   */\n      0x24\n        /* \"#utility.yul\":8007:8008   */\n      0x00\n        /* \"#utility.yul\":8000:8015   */\n      revert\n        /* \"#utility.yul\":8027:8347   */\n    tag_111:\n        /* \"#utility.yul\":8071:8077   */\n      0x00\n        /* \"#utility.yul\":8108:8109   */\n      0x02\n        /* \"#utility.yul\":8102:8106   */\n      dup3\n        /* \"#utility.yul\":8098:8110   */\n      div\n        /* \"#utility.yul\":8088:8110   */\n      swap1\n      pop\n        /* \"#utility.yul\":8155:8156   */\n      0x01\n        /* \"#utility.yul\":8149:8153   */\n      dup3\n        /* \"#utility.yul\":8145:8157   */\n      and\n        /* \"#utility.yul\":8176:8194   */\n      dup1\n        /* \"#utility.yul\":8166:8247   */\n      tag_363\n      jumpi\n        /* \"#utility.yul\":8232:8236   */\n      0x7f\n        /* \"#utility.yul\":8224:8230   */\n      dup3\n        /* \"#utility.yul\":8220:8237   */\n      and\n        /* \"#utility.yul\":8210:8237   */\n      swap2\n      pop\n        /* \"#utility.yul\":8166:8247   */\n    tag_363:\n        /* \"#utility.yul\":8294:8296   */\n      0x20\n        /* \"#utility.yul\":8286:8292   */\n      dup3\n        /* \"#utility.yul\":8283:8297   */\n      lt\n        /* \"#utility.yul\":8263:8281   */\n      dup2\n        /* \"#utility.yul\":8260:8298   */\n      sub\n        /* \"#utility.yul\":8257:8341   */\n      tag_364\n      jumpi\n        /* \"#utility.yul\":8313:8331   */\n      tag_365\n      tag_266\n      jump\t// in\n    tag_365:\n        /* \"#utility.yul\":8257:8341   */\n    tag_364:\n        /* \"#utility.yul\":8078:8347   */\n      pop\n        /* \"#utility.yul\":8027:8347   */\n      swap2\n      swap1\n      pop\n      jump\t// out\n        /* \"#utility.yul\":8353:8471   */\n    tag_267:\n        /* \"#utility.yul\":8440:8464   */\n      tag_367\n        /* \"#utility.yul\":8458:8463   */\n      dup2\n        /* \"#utility.yul\":8440:8464   */\n      tag_253\n      jump\t// in\n    tag_367:\n        /* \"#utility.yul\":8435:8438   */\n      dup3\n        /* \"#utility.yul\":8428:8465   */\n      mstore\n        /* \"#utility.yul\":8353:8471   */\n      pop\n      pop\n      jump\t// out\n        /* \"#utility.yul\":8477:8919   */\n    tag_185:\n        /* \"#utility.yul\":8626:8630   */\n      0x00\n        /* \"#utility.yul\":8664:8666   */\n      0x60\n        /* \"#utility.yul\":8653:8662   */\n      dup3\n        /* \"#utility.yul\":8649:8667   */\n      add\n        /* \"#utility.yul\":8641:8667   */\n      swap1\n      pop\n        /* \"#utility.yul\":8677:8748   */\n      tag_369\n        /* \"#utility.yul\":8745:8746   */\n      0x00\n        /* \"#utility.yul\":8734:8743   */\n      dup4\n        /* \"#utility.yul\":8730:8747   */\n      add\n        /* \"#utility.yul\":8721:8727   */\n      dup7\n        /* \"#utility.yul\":8677:8748   */\n      tag_267\n      jump\t// in\n    tag_369:\n        /* \"#utility.yul\":8758:8830   */\n      tag_370\n        /* \"#utility.yul\":8826:8828   */\n      0x20\n        /* \"#utility.yul\":8815:8824   */\n      dup4\n        /* \"#utility.yul\":8811:8829   */\n      add\n        /* \"#utility.yul\":8802:8808   */\n      dup6\n        /* \"#utility.yul\":8758:8830   */\n      tag_259\n      jump\t// in\n    tag_370:\n        /* \"#utility.yul\":8840:8912   */\n      tag_371\n        /* \"#utility.yul\":8908:8910   */\n      0x40\n        /* \"#utility.yul\":8897:8906   */\n      dup4\n        /* \"#utility.yul\":8893:8911   */\n      add\n        /* \"#utility.yul\":8884:8890   */\n      dup5\n        /* \"#utility.yul\":8840:8912   */\n      tag_259\n      jump\t// in\n    tag_371:\n        /* \"#utility.yul\":8477:8919   */\n      swap5\n      swap4\n      pop\n      pop\n      pop\n      pop\n      jump\t// out\n        /* \"#utility.yul\":8925:9147   */\n    tag_190:\n        /* \"#utility.yul\":9018:9022   */\n      0x00\n        /* \"#utility.yul\":9056:9058   */\n      0x20\n        /* \"#utility.yul\":9045:9054   */\n      dup3\n        /* \"#utility.yul\":9041:9059   */\n      add\n        /* \"#utility.yul\":9033:9059   */\n      swap1\n      pop\n        /* \"#utility.yul\":9069:9140   */\n      tag_373\n        /* \"#utility.yul\":9137:9138   */\n      0x00\n        /* \"#utility.yul\":9126:9135   */\n      dup4\n        /* \"#utility.yul\":9122:9139   */\n      add\n        /* \"#utility.yul\":9113:9119   */\n      dup5\n        /* \"#utility.yul\":9069:9140   */\n      tag_267\n      jump\t// in\n    tag_373:\n        /* \"#utility.yul\":8925:9147   */\n      swap3\n      swap2\n      pop\n      pop\n      jump\t// out\n        /* \"#utility.yul\":9153:9333   */\n    tag_268:\n        /* \"#utility.yul\":9201:9278   */\n      0x4e487b7100000000000000000000000000000000000000000000000000000000\n        /* \"#utility.yul\":9198:9199   */\n      0x00\n        /* \"#utility.yul\":9191:9279   */\n      mstore\n        /* \"#utility.yul\":9298:9302   */\n      0x11\n        /* \"#utility.yul\":9295:9296   */\n      0x04\n        /* \"#utility.yul\":9288:9303   */\n      mstore\n        /* \"#utility.yul\":9322:9326   */\n      0x24\n        /* \"#utility.yul\":9319:9320   */\n      0x00\n        /* \"#utility.yul\":9312:9327   */\n      revert\n        /* \"#utility.yul\":9339:9530   */\n    tag_227:\n        /* \"#utility.yul\":9379:9382   */\n      0x00\n        /* \"#utility.yul\":9398:9418   */\n      tag_376\n        /* \"#utility.yul\":9416:9417   */\n      dup3\n        /* \"#utility.yul\":9398:9418   */\n      tag_256\n      jump\t// in\n    tag_376:\n        /* \"#utility.yul\":9393:9418   */\n      swap2\n      pop\n        /* \"#utility.yul\":9432:9452   */\n      tag_377\n        /* \"#utility.yul\":9450:9451   */\n      dup4\n        /* \"#utility.yul\":9432:9452   */\n      tag_256\n      jump\t// in\n    tag_377:\n        /* \"#utility.yul\":9427:9452   */\n      swap3\n      pop\n        /* \"#utility.yul\":9475:9476   */\n      dup3\n        /* \"#utility.yul\":9472:9473   */\n      dup3\n        /* \"#utility.yul\":9468:9477   */\n      add\n        /* \"#utility.yul\":9461:9477   */\n      swap1\n      pop\n        /* \"#utility.yul\":9496:9499   */\n      dup1\n        /* \"#utility.yul\":9493:9494   */\n      dup3\n        /* \"#utility.yul\":9490:9500   */\n      gt\n        /* \"#utility.yul\":9487:9523   */\n      iszero\n      tag_378\n      jumpi\n        /* \"#utility.yul\":9503:9521   */\n      tag_379\n      tag_268\n      jump\t// in\n    tag_379:\n        /* \"#utility.yul\":9487:9523   */\n    tag_378:\n        /* \"#utility.yul\":9339:9530   */\n      swap3\n      swap2\n      pop\n      pop\n      jump\t// out\n        /* \"#utility.yul\":9536:9868   */\n    tag_238:\n        /* \"#utility.yul\":9657:9661   */\n      0x00\n        /* \"#utility.yul\":9695:9697   */\n      0x40\n        /* \"#utility.yul\":9684:9693   */\n      dup3\n        /* \"#utility.yul\":9680:9698   */\n      add\n        /* \"#utility.yul\":9672:9698   */\n      swap1\n      pop\n        /* \"#utility.yul\":9708:9779   */\n      tag_381\n        /* \"#utility.yul\":9776:9777   */\n      0x00\n        /* \"#utility.yul\":9765:9774   */\n      dup4\n        /* \"#utility.yul\":9761:9778   */\n      add\n        /* \"#utility.yul\":9752:9758   */\n      dup6\n        /* \"#utility.yul\":9708:9779   */\n      tag_267\n      jump\t// in\n    tag_381:\n        /* \"#utility.yul\":9789:9861   */\n      tag_382\n        /* \"#utility.yul\":9857:9859   */\n      0x20\n        /* \"#utility.yul\":9846:9855   */\n      dup4\n        /* \"#utility.yul\":9842:9860   */\n      add\n        /* \"#utility.yul\":9833:9839   */\n      dup5\n        /* \"#utility.yul\":9789:9861   */\n      tag_263\n      jump\t// in\n    tag_382:\n        /* \"#utility.yul\":9536:9868   */\n      swap4\n      swap3\n      pop\n      pop\n      pop\n      jump\t// out\n\n    auxdata: 0xa26469706673582212207bc0e1b8cf5b526fe2c615ad18f83d08f9fef175ecaf08254f95713442c5473964736f6c634300081a0033\n}\n",
				"bytecode": {
					"linkReferences": {},
					"object": "608060405234801561000f575f80fd5b50604051611e1e380380611e1e833981810160405281019061003191906102c9565b6040518060400160405280600a81526020017f436f666665546f6b656e000000000000000000000000000000000000000000008152506040518060400160405280600381526020017f434645000000000000000000000000000000000000000000000000000000000081525081600390816100ac9190610541565b5080600490816100bc9190610541565b5050506100d15f801b8361010a60201b60201c565b506101027f9f2df0fed2c77648de5860a4cc508cd0818c85b8b8a1ab4ceeef8d981c8956a68261010a60201b60201c565b505050610610565b5f61011b838361020060201b60201c565b6101f657600160055f8581526020019081526020015f205f015f8473ffffffffffffffffffffffffffffffffffffffff1673ffffffffffffffffffffffffffffffffffffffff1681526020019081526020015f205f6101000a81548160ff02191690831515021790555061019361026460201b60201c565b73ffffffffffffffffffffffffffffffffffffffff168273ffffffffffffffffffffffffffffffffffffffff16847f2f8788117e7eff1d82e926ec794901d17c78024a50270940304540a733656f0d60405160405180910390a4600190506101fa565b5f90505b92915050565b5f60055f8481526020019081526020015f205f015f8373ffffffffffffffffffffffffffffffffffffffff1673ffffffffffffffffffffffffffffffffffffffff1681526020019081526020015f205f9054906101000a900460ff16905092915050565b5f33905090565b5f80fd5b5f73ffffffffffffffffffffffffffffffffffffffff82169050919050565b5f6102988261026f565b9050919050565b6102a88161028e565b81146102b2575f80fd5b50565b5f815190506102c38161029f565b92915050565b5f80604083850312156102df576102de61026b565b5b5f6102ec858286016102b5565b92505060206102fd858286016102b5565b9150509250929050565b5f81519050919050565b7f4e487b71000000000000000000000000000000000000000000000000000000005f52604160045260245ffd5b7f4e487b71000000000000000000000000000000000000000000000000000000005f52602260045260245ffd5b5f600282049050600182168061038257607f821691505b6020821081036103955761039461033e565b5b50919050565b5f819050815f5260205f209050919050565b5f6020601f8301049050919050565b5f82821b905092915050565b5f600883026103f77fffffffffffffffffffffffffffffffffffffffffffffffffffffffffffffffff826103bc565b61040186836103bc565b95508019841693508086168417925050509392505050565b5f819050919050565b5f819050919050565b5f61044561044061043b84610419565b610422565b610419565b9050919050565b5f819050919050565b61045e8361042b565b61047261046a8261044c565b8484546103c8565b825550505050565b5f90565b61048661047a565b610491818484610455565b505050565b5b818110156104b4576104a95f8261047e565b600181019050610497565b5050565b601f8211156104f9576104ca8161039b565b6104d3846103ad565b810160208510156104e2578190505b6104f66104ee856103ad565b830182610496565b50505b505050565b5f82821c905092915050565b5f6105195f19846008026104fe565b1980831691505092915050565b5f610531838361050a565b9150826002028217905092915050565b61054a82610307565b67ffffffffffffffff81111561056357610562610311565b5b61056d825461036b565b6105788282856104b8565b5f60209050601f8311600181146105a9575f8415610597578287015190505b6105a18582610526565b865550610608565b601f1984166105b78661039b565b5f5b828110156105de578489015182556001820191506020850194506020810190506105b9565b868310156105fb57848901516105f7601f89168261050a565b8355505b6001600288020188555050505b505050505050565b6118018061061d5f395ff3fe608060405234801561000f575f80fd5b506004361061012a575f3560e01c806370a08231116100ab578063b9aa8c311161006f578063b9aa8c3114610368578063c495473214610372578063d53913931461038e578063d547741f146103ac578063dd62ed3e146103c85761012a565b806370a082311461029c57806391d14854146102cc57806395d89b41146102fc578063a217fddf1461031a578063a9059cbb146103385761012a565b8063248a9ca3116100f2578063248a9ca3146101fa5780632f2ff15d1461022a578063313ce5671461024657806336568abe1461026457806340c10f19146102805761012a565b806301ffc9a71461012e57806306fdde031461015e578063095ea7b31461017c57806318160ddd146101ac57806323b872dd146101ca575b5f80fd5b610148600480360381019061014391906112f8565b6103f8565b604051610155919061133d565b60405180910390f35b610166610471565b60405161017391906113c6565b60405180910390f35b61019660048036038101906101919190611473565b610501565b6040516101a3919061133d565b60405180910390f35b6101b4610523565b6040516101c191906114c0565b60405180910390f35b6101e460048036038101906101df91906114d9565b61052c565b6040516101f1919061133d565b60405180910390f35b610214600480360381019061020f919061155c565b61055a565b6040516102219190611596565b60405180910390f35b610244600480360381019061023f91906115af565b610577565b005b61024e610599565b60405161025b9190611608565b60405180910390f35b61027e600480360381019061027991906115af565b6105a1565b005b61029a60048036038101906102959190611473565b61061c565b005b6102b660048036038101906102b19190611621565b610655565b6040516102c391906114c0565b60405180910390f35b6102e660048036038101906102e191906115af565b61069a565b6040516102f3919061133d565b60405180910390f35b6103046106fe565b60405161031191906113c6565b60405180910390f35b61032261078e565b60405161032f9190611596565b60405180910390f35b610352600480360381019061034d9190611473565b610794565b60405161035f919061133d565b60405180910390f35b6103706107b6565b005b61038c60048036038101906103879190611621565b610832565b005b6103966108b4565b6040516103a39190611596565b60405180910390f35b6103c660048036038101906103c191906115af565b6108d8565b005b6103e260048036038101906103dd919061164c565b6108fa565b6040516103ef91906114c0565b60405180910390f35b5f7f7965db0b000000000000000000000000000000000000000000000000000000007bffffffffffffffffffffffffffffffffffffffffffffffffffffffff1916827bffffffffffffffffffffffffffffffffffffffffffffffffffffffff1916148061046a57506104698261097c565b5b9050919050565b606060038054610480906116b7565b80601f01602080910402602001604051908101604052809291908181526020018280546104ac906116b7565b80156104f75780601f106104ce576101008083540402835291602001916104f7565b820191905f5260205f20905b8154815290600101906020018083116104da57829003601f168201915b5050505050905090565b5f8061050b6109e5565b90506105188185856109ec565b600191505092915050565b5f600254905090565b5f806105366109e5565b90506105438582856109fe565b61054e858585610a90565b60019150509392505050565b5f60055f8381526020019081526020015f20600101549050919050565b6105808261055a565b61058981610b80565b6105938383610b94565b50505050565b5f6012905090565b6105a96109e5565b73ffffffffffffffffffffffffffffffffffffffff168173ffffffffffffffffffffffffffffffffffffffff161461060d576040517f6697b23200000000000000000000000000000000000000000000000000000000815260040160405180910390fd5b6106178282610c7e565b505050565b7f9f2df0fed2c77648de5860a4cc508cd0818c85b8b8a1ab4ceeef8d981c8956a661064681610b80565b6106508383610d68565b505050565b5f805f8373ffffffffffffffffffffffffffffffffffffffff1673ffffffffffffffffffffffffffffffffffffffff1681526020019081526020015f20549050919050565b5f60055f8481526020019081526020015f205f015f8373ffffffffffffffffffffffffffffffffffffffff1673ffffffffffffffffffffffffffffffffffffffff1681526020019081526020015f205f9054906101000a900460ff16905092915050565b60606004805461070d906116b7565b80601f0160208091040260200160405190810160405280929190818152602001828054610739906116b7565b80156107845780601f1061075b57610100808354040283529160200191610784565b820191905f5260205f20905b81548152906001019060200180831161076757829003601f168201915b5050505050905090565b5f801b81565b5f8061079e6109e5565b90506107ab818585610a90565b600191505092915050565b6107c86107c16109e5565b6001610de7565b6107d06109e5565b73ffffffffffffffffffffffffffffffffffffffff166107ee6109e5565b73ffffffffffffffffffffffffffffffffffffffff167fec55f742f16d213923033df55c0e3fcff39f4de98b16b032ecc5ec934fe84f3960405160405180910390a3565b6108458161083e6109e5565b60016109fe565b610850816001610de7565b8073ffffffffffffffffffffffffffffffffffffffff1661086f6109e5565b73ffffffffffffffffffffffffffffffffffffffff167fec55f742f16d213923033df55c0e3fcff39f4de98b16b032ecc5ec934fe84f3960405160405180910390a350565b7f9f2df0fed2c77648de5860a4cc508cd0818c85b8b8a1ab4ceeef8d981c8956a681565b6108e18261055a565b6108ea81610b80565b6108f48383610c7e565b50505050565b5f60015f8473ffffffffffffffffffffffffffffffffffffffff1673ffffffffffffffffffffffffffffffffffffffff1681526020019081526020015f205f8373ffffffffffffffffffffffffffffffffffffffff1673ffffffffffffffffffffffffffffffffffffffff1681526020019081526020015f2054905092915050565b5f7f01ffc9a7000000000000000000000000000000000000000000000000000000007bffffffffffffffffffffffffffffffffffffffffffffffffffffffff1916827bffffffffffffffffffffffffffffffffffffffffffffffffffffffff1916149050919050565b5f33905090565b6109f98383836001610e66565b505050565b5f610a0984846108fa565b90507fffffffffffffffffffffffffffffffffffffffffffffffffffffffffffffffff8114610a8a5781811015610a7b578281836040517ffb8f41b2000000000000000000000000000000000000000000000000000000008152600401610a72939291906116f6565b60405180910390fd5b610a8984848484035f610e66565b5b50505050565b5f73ffffffffffffffffffffffffffffffffffffffff168373ffffffffffffffffffffffffffffffffffffffff1603610b00575f6040517f96c6fd1e000000000000000000000000000000000000000000000000000000008152600401610af7919061172b565b60405180910390fd5b5f73ffffffffffffffffffffffffffffffffffffffff168273ffffffffffffffffffffffffffffffffffffffff1603610b70575f6040517fec442f05000000000000000000000000000000000000000000000000000000008152600401610b67919061172b565b60405180910390fd5b610b7b838383611035565b505050565b610b9181610b8c6109e5565b61124e565b50565b5f610b9f838361069a565b610c7457600160055f8581526020019081526020015f205f015f8473ffffffffffffffffffffffffffffffffffffffff1673ffffffffffffffffffffffffffffffffffffffff1681526020019081526020015f205f6101000a81548160ff021916908315150217905550610c116109e5565b73ffffffffffffffffffffffffffffffffffffffff168273ffffffffffffffffffffffffffffffffffffffff16847f2f8788117e7eff1d82e926ec794901d17c78024a50270940304540a733656f0d60405160405180910390a460019050610c78565b5f90505b92915050565b5f610c89838361069a565b15610d5e575f60055f8581526020019081526020015f205f015f8473ffffffffffffffffffffffffffffffffffffffff1673ffffffffffffffffffffffffffffffffffffffff1681526020019081526020015f205f6101000a81548160ff021916908315150217905550610cfb6109e5565b73ffffffffffffffffffffffffffffffffffffffff168273ffffffffffffffffffffffffffffffffffffffff16847ff6391f5c32d9c69d2a47ea670b442974b53935d1edc7fd64eb21e047a839171b60405160405180910390a460019050610d62565b5f90505b92915050565b5f73ffffffffffffffffffffffffffffffffffffffff168273ffffffffffffffffffffffffffffffffffffffff1603610dd8575f6040517fec442f05000000000000000000000000000000000000000000000000000000008152600401610dcf919061172b565b60405180910390fd5b610de35f8383611035565b5050565b5f73ffffffffffffffffffffffffffffffffffffffff168273ffffffffffffffffffffffffffffffffffffffff1603610e57575f6040517f96c6fd1e000000000000000000000000000000000000000000000000000000008152600401610e4e919061172b565b60405180910390fd5b610e62825f83611035565b5050565b5f73ffffffffffffffffffffffffffffffffffffffff168473ffffffffffffffffffffffffffffffffffffffff1603610ed6575f6040517fe602df05000000000000000000000000000000000000000000000000000000008152600401610ecd919061172b565b60405180910390fd5b5f73ffffffffffffffffffffffffffffffffffffffff168373ffffffffffffffffffffffffffffffffffffffff1603610f46575f6040517f94280d62000000000000000000000000000000000000000000000000000000008152600401610f3d919061172b565b60405180910390fd5b8160015f8673ffffffffffffffffffffffffffffffffffffffff1673ffffffffffffffffffffffffffffffffffffffff1681526020019081526020015f205f8573ffffffffffffffffffffffffffffffffffffffff1673ffffffffffffffffffffffffffffffffffffffff1681526020019081526020015f2081905550801561102f578273ffffffffffffffffffffffffffffffffffffffff168473ffffffffffffffffffffffffffffffffffffffff167f8c5be1e5ebec7d5bd14f71427d1e84f3dd0314c0f7b2291e5b200ac8c7c3b9258460405161102691906114c0565b60405180910390a35b50505050565b5f73ffffffffffffffffffffffffffffffffffffffff168373ffffffffffffffffffffffffffffffffffffffff1603611085578060025f8282546110799190611771565b92505081905550611153565b5f805f8573ffffffffffffffffffffffffffffffffffffffff1673ffffffffffffffffffffffffffffffffffffffff1681526020019081526020015f205490508181101561110e578381836040517fe450d38c000000000000000000000000000000000000000000000000000000008152600401611105939291906116f6565b60405180910390fd5b8181035f808673ffffffffffffffffffffffffffffffffffffffff1673ffffffffffffffffffffffffffffffffffffffff1681526020019081526020015f2081905550505b5f73ffffffffffffffffffffffffffffffffffffffff168273ffffffffffffffffffffffffffffffffffffffff160361119a578060025f82825403925050819055506111e4565b805f808473ffffffffffffffffffffffffffffffffffffffff1673ffffffffffffffffffffffffffffffffffffffff1681526020019081526020015f205f82825401925050819055505b8173ffffffffffffffffffffffffffffffffffffffff168373ffffffffffffffffffffffffffffffffffffffff167fddf252ad1be2c89b69c2b068fc378daa952ba7f163c4a11628f55a4df523b3ef8360405161124191906114c0565b60405180910390a3505050565b611258828261069a565b61129b5780826040517fe2517d3f0000000000000000000000000000000000000000000000000000000081526004016112929291906117a4565b60405180910390fd5b5050565b5f80fd5b5f7fffffffff0000000000000000000000000000000000000000000000000000000082169050919050565b6112d7816112a3565b81146112e1575f80fd5b50565b5f813590506112f2816112ce565b92915050565b5f6020828403121561130d5761130c61129f565b5b5f61131a848285016112e4565b91505092915050565b5f8115159050919050565b61133781611323565b82525050565b5f6020820190506113505f83018461132e565b92915050565b5f81519050919050565b5f82825260208201905092915050565b8281835e5f83830152505050565b5f601f19601f8301169050919050565b5f61139882611356565b6113a28185611360565b93506113b2818560208601611370565b6113bb8161137e565b840191505092915050565b5f6020820190508181035f8301526113de818461138e565b905092915050565b5f73ffffffffffffffffffffffffffffffffffffffff82169050919050565b5f61140f826113e6565b9050919050565b61141f81611405565b8114611429575f80fd5b50565b5f8135905061143a81611416565b92915050565b5f819050919050565b61145281611440565b811461145c575f80fd5b50565b5f8135905061146d81611449565b92915050565b5f80604083850312156114895761148861129f565b5b5f6114968582860161142c565b92505060206114a78582860161145f565b9150509250929050565b6114ba81611440565b82525050565b5f6020820190506114d35f8301846114b1565b92915050565b5f805f606084860312156114f0576114ef61129f565b5b5f6114fd8682870161142c565b935050602061150e8682870161142c565b925050604061151f8682870161145f565b9150509250925092565b5f819050919050565b61153b81611529565b8114611545575f80fd5b50565b5f8135905061155681611532565b92915050565b5f602082840312156115715761157061129f565b5b5f61157e84828501611548565b91505092915050565b61159081611529565b82525050565b5f6020820190506115a95f830184611587565b92915050565b5f80604083850312156115c5576115c461129f565b5b5f6115d285828601611548565b92505060206115e38582860161142c565b9150509250929050565b5f60ff82169050919050565b611602816115ed565b82525050565b5f60208201905061161b5f8301846115f9565b92915050565b5f602082840312156116365761163561129f565b5b5f6116438482850161142c565b91505092915050565b5f80604083850312156116625761166161129f565b5b5f61166f8582860161142c565b92505060206116808582860161142c565b9150509250929050565b7f4e487b71000000000000000000000000000000000000000000000000000000005f52602260045260245ffd5b5f60028204905060018216806116ce57607f821691505b6020821081036116e1576116e061168a565b5b50919050565b6116f081611405565b82525050565b5f6060820190506117095f8301866116e7565b61171660208301856114b1565b61172360408301846114b1565b949350505050565b5f60208201905061173e5f8301846116e7565b92915050565b7f4e487b71000000000000000000000000000000000000000000000000000000005f52601160045260245ffd5b5f61177b82611440565b915061178683611440565b925082820190508082111561179e5761179d611744565b5b92915050565b5f6040820190506117b75f8301856116e7565b6117c46020830184611587565b939250505056fea26469706673582212207bc0e1b8cf5b526fe2c615ad18f83d08f9fef175ecaf08254f95713442c5473964736f6c634300081a0033",
					"opcodes": "PUSH1 0x80 PUSH1 0x40 MSTORE CALLVALUE DUP1 ISZERO PUSH2 0xF JUMPI PUSH0 DUP1 REVERT JUMPDEST POP PUSH1 0x40 MLOAD PUSH2 0x1E1E CODESIZE SUB DUP1 PUSH2 0x1E1E DUP4 CODECOPY DUP2 DUP2 ADD PUSH1 0x40 MSTORE DUP2 ADD SWAP1 PUSH2 0x31 SWAP2 SWAP1 PUSH2 0x2C9 JUMP JUMPDEST PUSH1 0x40 MLOAD DUP1 PUSH1 0x40 ADD PUSH1 0x40 MSTORE DUP1 PUSH1 0xA DUP2 MSTORE PUSH1 0x20 ADD PUSH32 0x436F666665546F6B656E00000000000000000000000000000000000000000000 DUP2 MSTORE POP PUSH1 0x40 MLOAD DUP1 PUSH1 0x40 ADD PUSH1 0x40 MSTORE DUP1 PUSH1 0x3 DUP2 MSTORE PUSH1 0x20 ADD PUSH32 0x4346450000000000000000000000000000000000000000000000000000000000 DUP2 MSTORE POP DUP2 PUSH1 0x3 SWAP1 DUP2 PUSH2 0xAC SWAP2 SWAP1 PUSH2 0x541 JUMP JUMPDEST POP DUP1 PUSH1 0x4 SWAP1 DUP2 PUSH2 0xBC SWAP2 SWAP1 PUSH2 0x541 JUMP JUMPDEST POP POP POP PUSH2 0xD1 PUSH0 DUP1 SHL DUP4 PUSH2 0x10A PUSH1 0x20 SHL PUSH1 0x20 SHR JUMP JUMPDEST POP PUSH2 0x102 PUSH32 0x9F2DF0FED2C77648DE5860A4CC508CD0818C85B8B8A1AB4CEEEF8D981C8956A6 DUP3 PUSH2 0x10A PUSH1 0x20 SHL PUSH1 0x20 SHR JUMP JUMPDEST POP POP POP PUSH2 0x610 JUMP JUMPDEST PUSH0 PUSH2 0x11B DUP4 DUP4 PUSH2 0x200 PUSH1 0x20 SHL PUSH1 0x20 SHR JUMP JUMPDEST PUSH2 0x1F6 JUMPI PUSH1 0x1 PUSH1 0x5 PUSH0 DUP6 DUP2 MSTORE PUSH1 0x20 ADD SWAP1 DUP2 MSTORE PUSH1 0x20 ADD PUSH0 KECCAK256 PUSH0 ADD PUSH0 DUP5 PUSH20 0xFFFFFFFFFFFFFFFFFFFFFFFFFFFFFFFFFFFFFFFF AND PUSH20 0xFFFFFFFFFFFFFFFFFFFFFFFFFFFFFFFFFFFFFFFF AND DUP2 MSTORE PUSH1 0x20 ADD SWAP1 DUP2 MSTORE PUSH1 0x20 ADD PUSH0 KECCAK256 PUSH0 PUSH2 0x100 EXP DUP2 SLOAD DUP2 PUSH1 0xFF MUL NOT AND SWAP1 DUP4 ISZERO ISZERO MUL OR SWAP1 SSTORE POP PUSH2 0x193 PUSH2 0x264 PUSH1 0x20 SHL PUSH1 0x20 SHR JUMP JUMPDEST PUSH20 0xFFFFFFFFFFFFFFFFFFFFFFFFFFFFFFFFFFFFFFFF AND DUP3 PUSH20 0xFFFFFFFFFFFFFFFFFFFFFFFFFFFFFFFFFFFFFFFF AND DUP5 PUSH32 0x2F8788117E7EFF1D82E926EC794901D17C78024A50270940304540A733656F0D PUSH1 0x40 MLOAD PUSH1 0x40 MLOAD DUP1 SWAP2 SUB SWAP1 LOG4 PUSH1 0x1 SWAP1 POP PUSH2 0x1FA JUMP JUMPDEST PUSH0 SWAP1 POP JUMPDEST SWAP3 SWAP2 POP POP JUMP JUMPDEST PUSH0 PUSH1 0x5 PUSH0 DUP5 DUP2 MSTORE PUSH1 0x20 ADD SWAP1 DUP2 MSTORE PUSH1 0x20 ADD PUSH0 KECCAK256 PUSH0 ADD PUSH0 DUP4 PUSH20 0xFFFFFFFFFFFFFFFFFFFFFFFFFFFFFFFFFFFFFFFF AND PUSH20 0xFFFFFFFFFFFFFFFFFFFFFFFFFFFFFFFFFFFFFFFF AND DUP2 MSTORE PUSH1 0x20 ADD SWAP1 DUP2 MSTORE PUSH1 0x20 ADD PUSH0 KECCAK256 PUSH0 SWAP1 SLOAD SWAP1 PUSH2 0x100 EXP SWAP1 DIV PUSH1 0xFF AND SWAP1 POP SWAP3 SWAP2 POP POP JUMP JUMPDEST PUSH0 CALLER SWAP1 POP SWAP1 JUMP JUMPDEST PUSH0 DUP1 REVERT JUMPDEST PUSH0 PUSH20 0xFFFFFFFFFFFFFFFFFFFFFFFFFFFFFFFFFFFFFFFF DUP3 AND SWAP1 POP SWAP2 SWAP1 POP JUMP JUMPDEST PUSH0 PUSH2 0x298 DUP3 PUSH2 0x26F JUMP JUMPDEST SWAP1 POP SWAP2 SWAP1 POP JUMP JUMPDEST PUSH2 0x2A8 DUP2 PUSH2 0x28E JUMP JUMPDEST DUP2 EQ PUSH2 0x2B2 JUMPI PUSH0 DUP1 REVERT JUMPDEST POP JUMP JUMPDEST PUSH0 DUP2 MLOAD SWAP1 POP PUSH2 0x2C3 DUP2 PUSH2 0x29F JUMP JUMPDEST SWAP3 SWAP2 POP POP JUMP JUMPDEST PUSH0 DUP1 PUSH1 0x40 DUP4 DUP6 SUB SLT ISZERO PUSH2 0x2DF JUMPI PUSH2 0x2DE PUSH2 0x26B JUMP JUMPDEST JUMPDEST PUSH0 PUSH2 0x2EC DUP6 DUP3 DUP7 ADD PUSH2 0x2B5 JUMP JUMPDEST SWAP3 POP POP PUSH1 0x20 PUSH2 0x2FD DUP6 DUP3 DUP7 ADD PUSH2 0x2B5 JUMP JUMPDEST SWAP2 POP POP SWAP3 POP SWAP3 SWAP1 POP JUMP JUMPDEST PUSH0 DUP2 MLOAD SWAP1 POP SWAP2 SWAP1 POP JUMP JUMPDEST PUSH32 0x4E487B7100000000000000000000000000000000000000000000000000000000 PUSH0 MSTORE PUSH1 0x41 PUSH1 0x4 MSTORE PUSH1 0x24 PUSH0 REVERT JUMPDEST PUSH32 0x4E487B7100000000000000000000000000000000000000000000000000000000 PUSH0 MSTORE PUSH1 0x22 PUSH1 0x4 MSTORE PUSH1 0x24 PUSH0 REVERT JUMPDEST PUSH0 PUSH1 0x2 DUP3 DIV SWAP1 POP PUSH1 0x1 DUP3 AND DUP1 PUSH2 0x382 JUMPI PUSH1 0x7F DUP3 AND SWAP2 POP JUMPDEST PUSH1 0x20 DUP3 LT DUP2 SUB PUSH2 0x395 JUMPI PUSH2 0x394 PUSH2 0x33E JUMP JUMPDEST JUMPDEST POP SWAP2 SWAP1 POP JUMP JUMPDEST PUSH0 DUP2 SWAP1 POP DUP2 PUSH0 MSTORE PUSH1 0x20 PUSH0 KECCAK256 SWAP1 POP SWAP2 SWAP1 POP JUMP JUMPDEST PUSH0 PUSH1 0x20 PUSH1 0x1F DUP4 ADD DIV SWAP1 POP SWAP2 SWAP1 POP JUMP JUMPDEST PUSH0 DUP3 DUP3 SHL SWAP1 POP SWAP3 SWAP2 POP POP JUMP JUMPDEST PUSH0 PUSH1 0x8 DUP4 MUL PUSH2 0x3F7 PUSH32 0xFFFFFFFFFFFFFFFFFFFFFFFFFFFFFFFFFFFFFFFFFFFFFFFFFFFFFFFFFFFFFFFF DUP3 PUSH2 0x3BC JUMP JUMPDEST PUSH2 0x401 DUP7 DUP4 PUSH2 0x3BC JUMP JUMPDEST SWAP6 POP DUP1 NOT DUP5 AND SWAP4 POP DUP1 DUP7 AND DUP5 OR SWAP3 POP POP POP SWAP4 SWAP3 POP POP POP JUMP JUMPDEST PUSH0 DUP2 SWAP1 POP SWAP2 SWAP1 POP JUMP JUMPDEST PUSH0 DUP2 SWAP1 POP SWAP2 SWAP1 POP JUMP JUMPDEST PUSH0 PUSH2 0x445 PUSH2 0x440 PUSH2 0x43B DUP5 PUSH2 0x419 JUMP JUMPDEST PUSH2 0x422 JUMP JUMPDEST PUSH2 0x419 JUMP JUMPDEST SWAP1 POP SWAP2 SWAP1 POP JUMP JUMPDEST PUSH0 DUP2 SWAP1 POP SWAP2 SWAP1 POP JUMP JUMPDEST PUSH2 0x45E DUP4 PUSH2 0x42B JUMP JUMPDEST PUSH2 0x472 PUSH2 0x46A DUP3 PUSH2 0x44C JUMP JUMPDEST DUP5 DUP5 SLOAD PUSH2 0x3C8 JUMP JUMPDEST DUP3 SSTORE POP POP POP POP JUMP JUMPDEST PUSH0 SWAP1 JUMP JUMPDEST PUSH2 0x486 PUSH2 0x47A JUMP JUMPDEST PUSH2 0x491 DUP2 DUP5 DUP5 PUSH2 0x455 JUMP JUMPDEST POP POP POP JUMP JUMPDEST JUMPDEST DUP2 DUP2 LT ISZERO PUSH2 0x4B4 JUMPI PUSH2 0x4A9 PUSH0 DUP3 PUSH2 0x47E JUMP JUMPDEST PUSH1 0x1 DUP2 ADD SWAP1 POP PUSH2 0x497 JUMP JUMPDEST POP POP JUMP JUMPDEST PUSH1 0x1F DUP3 GT ISZERO PUSH2 0x4F9 JUMPI PUSH2 0x4CA DUP2 PUSH2 0x39B JUMP JUMPDEST PUSH2 0x4D3 DUP5 PUSH2 0x3AD JUMP JUMPDEST DUP2 ADD PUSH1 0x20 DUP6 LT ISZERO PUSH2 0x4E2 JUMPI DUP2 SWAP1 POP JUMPDEST PUSH2 0x4F6 PUSH2 0x4EE DUP6 PUSH2 0x3AD JUMP JUMPDEST DUP4 ADD DUP3 PUSH2 0x496 JUMP JUMPDEST POP POP JUMPDEST POP POP POP JUMP JUMPDEST PUSH0 DUP3 DUP3 SHR SWAP1 POP SWAP3 SWAP2 POP POP JUMP JUMPDEST PUSH0 PUSH2 0x519 PUSH0 NOT DUP5 PUSH1 0x8 MUL PUSH2 0x4FE JUMP JUMPDEST NOT DUP1 DUP4 AND SWAP2 POP POP SWAP3 SWAP2 POP POP JUMP JUMPDEST PUSH0 PUSH2 0x531 DUP4 DUP4 PUSH2 0x50A JUMP JUMPDEST SWAP2 POP DUP3 PUSH1 0x2 MUL DUP3 OR SWAP1 POP SWAP3 SWAP2 POP POP JUMP JUMPDEST PUSH2 0x54A DUP3 PUSH2 0x307 JUMP JUMPDEST PUSH8 0xFFFFFFFFFFFFFFFF DUP2 GT ISZERO PUSH2 0x563 JUMPI PUSH2 0x562 PUSH2 0x311 JUMP JUMPDEST JUMPDEST PUSH2 0x56D DUP3 SLOAD PUSH2 0x36B JUMP JUMPDEST PUSH2 0x578 DUP3 DUP3 DUP6 PUSH2 0x4B8 JUMP JUMPDEST PUSH0 PUSH1 0x20 SWAP1 POP PUSH1 0x1F DUP4 GT PUSH1 0x1 DUP2 EQ PUSH2 0x5A9 JUMPI PUSH0 DUP5 ISZERO PUSH2 0x597 JUMPI DUP3 DUP8 ADD MLOAD SWAP1 POP JUMPDEST PUSH2 0x5A1 DUP6 DUP3 PUSH2 0x526 JUMP JUMPDEST DUP7 SSTORE POP PUSH2 0x608 JUMP JUMPDEST PUSH1 0x1F NOT DUP5 AND PUSH2 0x5B7 DUP7 PUSH2 0x39B JUMP JUMPDEST PUSH0 JUMPDEST DUP3 DUP2 LT ISZERO PUSH2 0x5DE JUMPI DUP5 DUP10 ADD MLOAD DUP3 SSTORE PUSH1 0x1 DUP3 ADD SWAP2 POP PUSH1 0x20 DUP6 ADD SWAP5 POP PUSH1 0x20 DUP2 ADD SWAP1 POP PUSH2 0x5B9 JUMP JUMPDEST DUP7 DUP4 LT ISZERO PUSH2 0x5FB JUMPI DUP5 DUP10 ADD MLOAD PUSH2 0x5F7 PUSH1 0x1F DUP10 AND DUP3 PUSH2 0x50A JUMP JUMPDEST DUP4 SSTORE POP JUMPDEST PUSH1 0x1 PUSH1 0x2 DUP9 MUL ADD DUP9 SSTORE POP POP POP JUMPDEST POP POP POP POP POP POP JUMP JUMPDEST PUSH2 0x1801 DUP1 PUSH2 0x61D PUSH0 CODECOPY PUSH0 RETURN INVALID PUSH1 0x80 PUSH1 0x40 MSTORE CALLVALUE DUP1 ISZERO PUSH2 0xF JUMPI PUSH0 DUP1 REVERT JUMPDEST POP PUSH1 0x4 CALLDATASIZE LT PUSH2 0x12A JUMPI PUSH0 CALLDATALOAD PUSH1 0xE0 SHR DUP1 PUSH4 0x70A08231 GT PUSH2 0xAB JUMPI DUP1 PUSH4 0xB9AA8C31 GT PUSH2 0x6F JUMPI DUP1 PUSH4 0xB9AA8C31 EQ PUSH2 0x368 JUMPI DUP1 PUSH4 0xC4954732 EQ PUSH2 0x372 JUMPI DUP1 PUSH4 0xD5391393 EQ PUSH2 0x38E JUMPI DUP1 PUSH4 0xD547741F EQ PUSH2 0x3AC JUMPI DUP1 PUSH4 0xDD62ED3E EQ PUSH2 0x3C8 JUMPI PUSH2 0x12A JUMP JUMPDEST DUP1 PUSH4 0x70A08231 EQ PUSH2 0x29C JUMPI DUP1 PUSH4 0x91D14854 EQ PUSH2 0x2CC JUMPI DUP1 PUSH4 0x95D89B41 EQ PUSH2 0x2FC JUMPI DUP1 PUSH4 0xA217FDDF EQ PUSH2 0x31A JUMPI DUP1 PUSH4 0xA9059CBB EQ PUSH2 0x338 JUMPI PUSH2 0x12A JUMP JUMPDEST DUP1 PUSH4 0x248A9CA3 GT PUSH2 0xF2 JUMPI DUP1 PUSH4 0x248A9CA3 EQ PUSH2 0x1FA JUMPI DUP1 PUSH4 0x2F2FF15D EQ PUSH2 0x22A JUMPI DUP1 PUSH4 0x313CE567 EQ PUSH2 0x246 JUMPI DUP1 PUSH4 0x36568ABE EQ PUSH2 0x264 JUMPI DUP1 PUSH4 0x40C10F19 EQ PUSH2 0x280 JUMPI PUSH2 0x12A JUMP JUMPDEST DUP1 PUSH4 0x1FFC9A7 EQ PUSH2 0x12E JUMPI DUP1 PUSH4 0x6FDDE03 EQ PUSH2 0x15E JUMPI DUP1 PUSH4 0x95EA7B3 EQ PUSH2 0x17C JUMPI DUP1 PUSH4 0x18160DDD EQ PUSH2 0x1AC JUMPI DUP1 PUSH4 0x23B872DD EQ PUSH2 0x1CA JUMPI JUMPDEST PUSH0 DUP1 REVERT JUMPDEST PUSH2 0x148 PUSH1 0x4 DUP1 CALLDATASIZE SUB DUP2 ADD SWAP1 PUSH2 0x143 SWAP2 SWAP1 PUSH2 0x12F8 JUMP JUMPDEST PUSH2 0x3F8 JUMP JUMPDEST PUSH1 0x40 MLOAD PUSH2 0x155 SWAP2 SWAP1 PUSH2 0x133D JUMP JUMPDEST PUSH1 0x40 MLOAD DUP1 SWAP2 SUB SWAP1 RETURN JUMPDEST PUSH2 0x166 PUSH2 0x471 JUMP JUMPDEST PUSH1 0x40 MLOAD PUSH2 0x173 SWAP2 SWAP1 PUSH2 0x13C6 JUMP JUMPDEST PUSH1 0x40 MLOAD DUP1 SWAP2 SUB SWAP1 RETURN JUMPDEST PUSH2 0x196 PUSH1 0x4 DUP1 CALLDATASIZE SUB DUP2 ADD SWAP1 PUSH2 0x191 SWAP2 SWAP1 PUSH2 0x1473 JUMP JUMPDEST PUSH2 0x501 JUMP JUMPDEST PUSH1 0x40 MLOAD PUSH2 0x1A3 SWAP2 SWAP1 PUSH2 0x133D JUMP JUMPDEST PUSH1 0x40 MLOAD DUP1 SWAP2 SUB SWAP1 RETURN JUMPDEST PUSH2 0x1B4 PUSH2 0x523 JUMP JUMPDEST PUSH1 0x40 MLOAD PUSH2 0x1C1 SWAP2 SWAP1 PUSH2 0x14C0 JUMP JUMPDEST PUSH1 0x40 MLOAD DUP1 SWAP2 SUB SWAP1 RETURN JUMPDEST PUSH2 0x1E4 PUSH1 0x4 DUP1 CALLDATASIZE SUB DUP2 ADD SWAP1 PUSH2 0x1DF SWAP2 SWAP1 PUSH2 0x14D9 JUMP JUMPDEST PUSH2 0x52C JUMP JUMPDEST PUSH1 0x40 MLOAD PUSH2 0x1F1 SWAP2 SWAP1 PUSH2 0x133D JUMP JUMPDEST PUSH1 0x40 MLOAD DUP1 SWAP2 SUB SWAP1 RETURN JUMPDEST PUSH2 0x214 PUSH1 0x4 DUP1 CALLDATASIZE SUB DUP2 ADD SWAP1 PUSH2 0x20F SWAP2 SWAP1 PUSH2 0x155C JUMP JUMPDEST PUSH2 0x55A JUMP JUMPDEST PUSH1 0x40 MLOAD PUSH2 0x221 SWAP2 SWAP1 PUSH2 0x1596 JUMP JUMPDEST PUSH1 0x40 MLOAD DUP1 SWAP2 SUB SWAP1 RETURN JUMPDEST PUSH2 0x244 PUSH1 0x4 DUP1 CALLDATASIZE SUB DUP2 ADD SWAP1 PUSH2 0x23F SWAP2 SWAP1 PUSH2 0x15AF JUMP JUMPDEST PUSH2 0x577 JUMP JUMPDEST STOP JUMPDEST PUSH2 0x24E PUSH2 0x599 JUMP JUMPDEST PUSH1 0x40 MLOAD PUSH2 0x25B SWAP2 SWAP1 PUSH2 0x1608 JUMP JUMPDEST PUSH1 0x40 MLOAD DUP1 SWAP2 SUB SWAP1 RETURN JUMPDEST PUSH2 0x27E PUSH1 0x4 DUP1 CALLDATASIZE SUB DUP2 ADD SWAP1 PUSH2 0x279 SWAP2 SWAP1 PUSH2 0x15AF JUMP JUMPDEST PUSH2 0x5A1 JUMP JUMPDEST STOP JUMPDEST PUSH2 0x29A PUSH1 0x4 DUP1 CALLDATASIZE SUB DUP2 ADD SWAP1 PUSH2 0x295 SWAP2 SWAP1 PUSH2 0x1473 JUMP JUMPDEST PUSH2 0x61C JUMP JUMPDEST STOP JUMPDEST PUSH2 0x2B6 PUSH1 0x4 DUP1 CALLDATASIZE SUB DUP2 ADD SWAP1 PUSH2 0x2B1 SWAP2 SWAP1 PUSH2 0x1621 JUMP JUMPDEST PUSH2 0x655 JUMP JUMPDEST PUSH1 0x40 MLOAD PUSH2 0x2C3 SWAP2 SWAP1 PUSH2 0x14C0 JUMP JUMPDEST PUSH1 0x40 MLOAD DUP1 SWAP2 SUB SWAP1 RETURN JUMPDEST PUSH2 0x2E6 PUSH1 0x4 DUP1 CALLDATASIZE SUB DUP2 ADD SWAP1 PUSH2 0x2E1 SWAP2 SWAP1 PUSH2 0x15AF JUMP JUMPDEST PUSH2 0x69A JUMP JUMPDEST PUSH1 0x40 MLOAD PUSH2 0x2F3 SWAP2 SWAP1 PUSH2 0x133D JUMP JUMPDEST PUSH1 0x40 MLOAD DUP1 SWAP2 SUB SWAP1 RETURN JUMPDEST PUSH2 0x304 PUSH2 0x6FE JUMP JUMPDEST PUSH1 0x40 MLOAD PUSH2 0x311 SWAP2 SWAP1 PUSH2 0x13C6 JUMP JUMPDEST PUSH1 0x40 MLOAD DUP1 SWAP2 SUB SWAP1 RETURN JUMPDEST PUSH2 0x322 PUSH2 0x78E JUMP JUMPDEST PUSH1 0x40 MLOAD PUSH2 0x32F SWAP2 SWAP1 PUSH2 0x1596 JUMP JUMPDEST PUSH1 0x40 MLOAD DUP1 SWAP2 SUB SWAP1 RETURN JUMPDEST PUSH2 0x352 PUSH1 0x4 DUP1 CALLDATASIZE SUB DUP2 ADD SWAP1 PUSH2 0x34D SWAP2 SWAP1 PUSH2 0x1473 JUMP JUMPDEST PUSH2 0x794 JUMP JUMPDEST PUSH1 0x40 MLOAD PUSH2 0x35F SWAP2 SWAP1 PUSH2 0x133D JUMP JUMPDEST PUSH1 0x40 MLOAD DUP1 SWAP2 SUB SWAP1 RETURN JUMPDEST PUSH2 0x370 PUSH2 0x7B6 JUMP JUMPDEST STOP JUMPDEST PUSH2 0x38C PUSH1 0x4 DUP1 CALLDATASIZE SUB DUP2 ADD SWAP1 PUSH2 0x387 SWAP2 SWAP1 PUSH2 0x1621 JUMP JUMPDEST PUSH2 0x832 JUMP JUMPDEST STOP JUMPDEST PUSH2 0x396 PUSH2 0x8B4 JUMP JUMPDEST PUSH1 0x40 MLOAD PUSH2 0x3A3 SWAP2 SWAP1 PUSH2 0x1596 JUMP JUMPDEST PUSH1 0x40 MLOAD DUP1 SWAP2 SUB SWAP1 RETURN JUMPDEST PUSH2 0x3C6 PUSH1 0x4 DUP1 CALLDATASIZE SUB DUP2 ADD SWAP1 PUSH2 0x3C1 SWAP2 SWAP1 PUSH2 0x15AF JUMP JUMPDEST PUSH2 0x8D8 JUMP JUMPDEST STOP JUMPDEST PUSH2 0x3E2 PUSH1 0x4 DUP1 CALLDATASIZE SUB DUP2 ADD SWAP1 PUSH2 0x3DD SWAP2 SWAP1 PUSH2 0x164C JUMP JUMPDEST PUSH2 0x8FA JUMP JUMPDEST PUSH1 0x40 MLOAD PUSH2 0x3EF SWAP2 SWAP1 PUSH2 0x14C0 JUMP JUMPDEST PUSH1 0x40 MLOAD DUP1 SWAP2 SUB SWAP1 RETURN JUMPDEST PUSH0 PUSH32 0x7965DB0B00000000000000000000000000000000000000000000000000000000 PUSH28 0xFFFFFFFFFFFFFFFFFFFFFFFFFFFFFFFFFFFFFFFFFFFFFFFFFFFFFFFF NOT AND DUP3 PUSH28 0xFFFFFFFFFFFFFFFFFFFFFFFFFFFFFFFFFFFFFFFFFFFFFFFFFFFFFFFF NOT AND EQ DUP1 PUSH2 0x46A JUMPI POP PUSH2 0x469 DUP3 PUSH2 0x97C JUMP JUMPDEST JUMPDEST SWAP1 POP SWAP2 SWAP1 POP JUMP JUMPDEST PUSH1 0x60 PUSH1 0x3 DUP1 SLOAD PUSH2 0x480 SWAP1 PUSH2 0x16B7 JUMP JUMPDEST DUP1 PUSH1 0x1F ADD PUSH1 0x20 DUP1 SWAP2 DIV MUL PUSH1 0x20 ADD PUSH1 0x40 MLOAD SWAP1 DUP2 ADD PUSH1 0x40 MSTORE DUP1 SWAP3 SWAP2 SWAP1 DUP2 DUP2 MSTORE PUSH1 0x20 ADD DUP3 DUP1 SLOAD PUSH2 0x4AC SWAP1 PUSH2 0x16B7 JUMP JUMPDEST DUP1 ISZERO PUSH2 0x4F7 JUMPI DUP1 PUSH1 0x1F LT PUSH2 0x4CE JUMPI PUSH2 0x100 DUP1 DUP4 SLOAD DIV MUL DUP4 MSTORE SWAP2 PUSH1 0x20 ADD SWAP2 PUSH2 0x4F7 JUMP JUMPDEST DUP3 ADD SWAP2 SWAP1 PUSH0 MSTORE PUSH1 0x20 PUSH0 KECCAK256 SWAP1 JUMPDEST DUP2 SLOAD DUP2 MSTORE SWAP1 PUSH1 0x1 ADD SWAP1 PUSH1 0x20 ADD DUP1 DUP4 GT PUSH2 0x4DA JUMPI DUP3 SWAP1 SUB PUSH1 0x1F AND DUP3 ADD SWAP2 JUMPDEST POP POP POP POP POP SWAP1 POP SWAP1 JUMP JUMPDEST PUSH0 DUP1 PUSH2 0x50B PUSH2 0x9E5 JUMP JUMPDEST SWAP1 POP PUSH2 0x518 DUP2 DUP6 DUP6 PUSH2 0x9EC JUMP JUMPDEST PUSH1 0x1 SWAP2 POP POP SWAP3 SWAP2 POP POP JUMP JUMPDEST PUSH0 PUSH1 0x2 SLOAD SWAP1 POP SWAP1 JUMP JUMPDEST PUSH0 DUP1 PUSH2 0x536 PUSH2 0x9E5 JUMP JUMPDEST SWAP1 POP PUSH2 0x543 DUP6 DUP3 DUP6 PUSH2 0x9FE JUMP JUMPDEST PUSH2 0x54E DUP6 DUP6 DUP6 PUSH2 0xA90 JUMP JUMPDEST PUSH1 0x1 SWAP2 POP POP SWAP4 SWAP3 POP POP POP JUMP JUMPDEST PUSH0 PUSH1 0x5 PUSH0 DUP4 DUP2 MSTORE PUSH1 0x20 ADD SWAP1 DUP2 MSTORE PUSH1 0x20 ADD PUSH0 KECCAK256 PUSH1 0x1 ADD SLOAD SWAP1 POP SWAP2 SWAP1 POP JUMP JUMPDEST PUSH2 0x580 DUP3 PUSH2 0x55A JUMP JUMPDEST PUSH2 0x589 DUP2 PUSH2 0xB80 JUMP JUMPDEST PUSH2 0x593 DUP4 DUP4 PUSH2 0xB94 JUMP JUMPDEST POP POP POP POP JUMP JUMPDEST PUSH0 PUSH1 0x12 SWAP1 POP SWAP1 JUMP JUMPDEST PUSH2 0x5A9 PUSH2 0x9E5 JUMP JUMPDEST PUSH20 0xFFFFFFFFFFFFFFFFFFFFFFFFFFFFFFFFFFFFFFFF AND DUP2 PUSH20 0xFFFFFFFFFFFFFFFFFFFFFFFFFFFFFFFFFFFFFFFF AND EQ PUSH2 0x60D JUMPI PUSH1 0x40 MLOAD PUSH32 0x6697B23200000000000000000000000000000000000000000000000000000000 DUP2 MSTORE PUSH1 0x4 ADD PUSH1 0x40 MLOAD DUP1 SWAP2 SUB SWAP1 REVERT JUMPDEST PUSH2 0x617 DUP3 DUP3 PUSH2 0xC7E JUMP JUMPDEST POP POP POP JUMP JUMPDEST PUSH32 0x9F2DF0FED2C77648DE5860A4CC508CD0818C85B8B8A1AB4CEEEF8D981C8956A6 PUSH2 0x646 DUP2 PUSH2 0xB80 JUMP JUMPDEST PUSH2 0x650 DUP4 DUP4 PUSH2 0xD68 JUMP JUMPDEST POP POP POP JUMP JUMPDEST PUSH0 DUP1 PUSH0 DUP4 PUSH20 0xFFFFFFFFFFFFFFFFFFFFFFFFFFFFFFFFFFFFFFFF AND PUSH20 0xFFFFFFFFFFFFFFFFFFFFFFFFFFFFFFFFFFFFFFFF AND DUP2 MSTORE PUSH1 0x20 ADD SWAP1 DUP2 MSTORE PUSH1 0x20 ADD PUSH0 KECCAK256 SLOAD SWAP1 POP SWAP2 SWAP1 POP JUMP JUMPDEST PUSH0 PUSH1 0x5 PUSH0 DUP5 DUP2 MSTORE PUSH1 0x20 ADD SWAP1 DUP2 MSTORE PUSH1 0x20 ADD PUSH0 KECCAK256 PUSH0 ADD PUSH0 DUP4 PUSH20 0xFFFFFFFFFFFFFFFFFFFFFFFFFFFFFFFFFFFFFFFF AND PUSH20 0xFFFFFFFFFFFFFFFFFFFFFFFFFFFFFFFFFFFFFFFF AND DUP2 MSTORE PUSH1 0x20 ADD SWAP1 DUP2 MSTORE PUSH1 0x20 ADD PUSH0 KECCAK256 PUSH0 SWAP1 SLOAD SWAP1 PUSH2 0x100 EXP SWAP1 DIV PUSH1 0xFF AND SWAP1 POP SWAP3 SWAP2 POP POP JUMP JUMPDEST PUSH1 0x60 PUSH1 0x4 DUP1 SLOAD PUSH2 0x70D SWAP1 PUSH2 0x16B7 JUMP JUMPDEST DUP1 PUSH1 0x1F ADD PUSH1 0x20 DUP1 SWAP2 DIV MUL PUSH1 0x20 ADD PUSH1 0x40 MLOAD SWAP1 DUP2 ADD PUSH1 0x40 MSTORE DUP1 SWAP3 SWAP2 SWAP1 DUP2 DUP2 MSTORE PUSH1 0x20 ADD DUP3 DUP1 SLOAD PUSH2 0x739 SWAP1 PUSH2 0x16B7 JUMP JUMPDEST DUP1 ISZERO PUSH2 0x784 JUMPI DUP1 PUSH1 0x1F LT PUSH2 0x75B JUMPI PUSH2 0x100 DUP1 DUP4 SLOAD DIV MUL DUP4 MSTORE SWAP2 PUSH1 0x20 ADD SWAP2 PUSH2 0x784 JUMP JUMPDEST DUP3 ADD SWAP2 SWAP1 PUSH0 MSTORE PUSH1 0x20 PUSH0 KECCAK256 SWAP1 JUMPDEST DUP2 SLOAD DUP2 MSTORE SWAP1 PUSH1 0x1 ADD SWAP1 PUSH1 0x20 ADD DUP1 DUP4 GT PUSH2 0x767 JUMPI DUP3 SWAP1 SUB PUSH1 0x1F AND DUP3 ADD SWAP2 JUMPDEST POP POP POP POP POP SWAP1 POP SWAP1 JUMP JUMPDEST PUSH0 DUP1 SHL DUP2 JUMP JUMPDEST PUSH0 DUP1 PUSH2 0x79E PUSH2 0x9E5 JUMP JUMPDEST SWAP1 POP PUSH2 0x7AB DUP2 DUP6 DUP6 PUSH2 0xA90 JUMP JUMPDEST PUSH1 0x1 SWAP2 POP POP SWAP3 SWAP2 POP POP JUMP JUMPDEST PUSH2 0x7C8 PUSH2 0x7C1 PUSH2 0x9E5 JUMP JUMPDEST PUSH1 0x1 PUSH2 0xDE7 JUMP JUMPDEST PUSH2 0x7D0 PUSH2 0x9E5 JUMP JUMPDEST PUSH20 0xFFFFFFFFFFFFFFFFFFFFFFFFFFFFFFFFFFFFFFFF AND PUSH2 0x7EE PUSH2 0x9E5 JUMP JUMPDEST PUSH20 0xFFFFFFFFFFFFFFFFFFFFFFFFFFFFFFFFFFFFFFFF AND PUSH32 0xEC55F742F16D213923033DF55C0E3FCFF39F4DE98B16B032ECC5EC934FE84F39 PUSH1 0x40 MLOAD PUSH1 0x40 MLOAD DUP1 SWAP2 SUB SWAP1 LOG3 JUMP JUMPDEST PUSH2 0x845 DUP2 PUSH2 0x83E PUSH2 0x9E5 JUMP JUMPDEST PUSH1 0x1 PUSH2 0x9FE JUMP JUMPDEST PUSH2 0x850 DUP2 PUSH1 0x1 PUSH2 0xDE7 JUMP JUMPDEST DUP1 PUSH20 0xFFFFFFFFFFFFFFFFFFFFFFFFFFFFFFFFFFFFFFFF AND PUSH2 0x86F PUSH2 0x9E5 JUMP JUMPDEST PUSH20 0xFFFFFFFFFFFFFFFFFFFFFFFFFFFFFFFFFFFFFFFF AND PUSH32 0xEC55F742F16D213923033DF55C0E3FCFF39F4DE98B16B032ECC5EC934FE84F39 PUSH1 0x40 MLOAD PUSH1 0x40 MLOAD DUP1 SWAP2 SUB SWAP1 LOG3 POP JUMP JUMPDEST PUSH32 0x9F2DF0FED2C77648DE5860A4CC508CD0818C85B8B8A1AB4CEEEF8D981C8956A6 DUP2 JUMP JUMPDEST PUSH2 0x8E1 DUP3 PUSH2 0x55A JUMP JUMPDEST PUSH2 0x8EA DUP2 PUSH2 0xB80 JUMP JUMPDEST PUSH2 0x8F4 DUP4 DUP4 PUSH2 0xC7E JUMP JUMPDEST POP POP POP POP JUMP JUMPDEST PUSH0 PUSH1 0x1 PUSH0 DUP5 PUSH20 0xFFFFFFFFFFFFFFFFFFFFFFFFFFFFFFFFFFFFFFFF AND PUSH20 0xFFFFFFFFFFFFFFFFFFFFFFFFFFFFFFFFFFFFFFFF AND DUP2 MSTORE PUSH1 0x20 ADD SWAP1 DUP2 MSTORE PUSH1 0x20 ADD PUSH0 KECCAK256 PUSH0 DUP4 PUSH20 0xFFFFFFFFFFFFFFFFFFFFFFFFFFFFFFFFFFFFFFFF AND PUSH20 0xFFFFFFFFFFFFFFFFFFFFFFFFFFFFFFFFFFFFFFFF AND DUP2 MSTORE PUSH1 0x20 ADD SWAP1 DUP2 MSTORE PUSH1 0x20 ADD PUSH0 KECCAK256 SLOAD SWAP1 POP SWAP3 SWAP2 POP POP JUMP JUMPDEST PUSH0 PUSH32 0x1FFC9A700000000000000000000000000000000000000000000000000000000 PUSH28 0xFFFFFFFFFFFFFFFFFFFFFFFFFFFFFFFFFFFFFFFFFFFFFFFFFFFFFFFF NOT AND DUP3 PUSH28 0xFFFFFFFFFFFFFFFFFFFFFFFFFFFFFFFFFFFFFFFFFFFFFFFFFFFFFFFF NOT AND EQ SWAP1 POP SWAP2 SWAP1 POP JUMP JUMPDEST PUSH0 CALLER SWAP1 POP SWAP1 JUMP JUMPDEST PUSH2 0x9F9 DUP4 DUP4 DUP4 PUSH1 0x1 PUSH2 0xE66 JUMP JUMPDEST POP POP POP JUMP JUMPDEST PUSH0 PUSH2 0xA09 DUP5 DUP5 PUSH2 0x8FA JUMP JUMPDEST SWAP1 POP PUSH32 0xFFFFFFFFFFFFFFFFFFFFFFFFFFFFFFFFFFFFFFFFFFFFFFFFFFFFFFFFFFFFFFFF DUP2 EQ PUSH2 0xA8A JUMPI DUP2 DUP2 LT ISZERO PUSH2 0xA7B JUMPI DUP3 DUP2 DUP4 PUSH1 0x40 MLOAD PUSH32 0xFB8F41B200000000000000000000000000000000000000000000000000000000 DUP2 MSTORE PUSH1 0x4 ADD PUSH2 0xA72 SWAP4 SWAP3 SWAP2 SWAP1 PUSH2 0x16F6 JUMP JUMPDEST PUSH1 0x40 MLOAD DUP1 SWAP2 SUB SWAP1 REVERT JUMPDEST PUSH2 0xA89 DUP5 DUP5 DUP5 DUP5 SUB PUSH0 PUSH2 0xE66 JUMP JUMPDEST JUMPDEST POP POP POP POP JUMP JUMPDEST PUSH0 PUSH20 0xFFFFFFFFFFFFFFFFFFFFFFFFFFFFFFFFFFFFFFFF AND DUP4 PUSH20 0xFFFFFFFFFFFFFFFFFFFFFFFFFFFFFFFFFFFFFFFF AND SUB PUSH2 0xB00 JUMPI PUSH0 PUSH1 0x40 MLOAD PUSH32 0x96C6FD1E00000000000000000000000000000000000000000000000000000000 DUP2 MSTORE PUSH1 0x4 ADD PUSH2 0xAF7 SWAP2 SWAP1 PUSH2 0x172B JUMP JUMPDEST PUSH1 0x40 MLOAD DUP1 SWAP2 SUB SWAP1 REVERT JUMPDEST PUSH0 PUSH20 0xFFFFFFFFFFFFFFFFFFFFFFFFFFFFFFFFFFFFFFFF AND DUP3 PUSH20 0xFFFFFFFFFFFFFFFFFFFFFFFFFFFFFFFFFFFFFFFF AND SUB PUSH2 0xB70 JUMPI PUSH0 PUSH1 0x40 MLOAD PUSH32 0xEC442F0500000000000000000000000000000000000000000000000000000000 DUP2 MSTORE PUSH1 0x4 ADD PUSH2 0xB67 SWAP2 SWAP1 PUSH2 0x172B JUMP JUMPDEST PUSH1 0x40 MLOAD DUP1 SWAP2 SUB SWAP1 REVERT JUMPDEST PUSH2 0xB7B DUP4 DUP4 DUP4 PUSH2 0x1035 JUMP JUMPDEST POP POP POP JUMP JUMPDEST PUSH2 0xB91 DUP2 PUSH2 0xB8C PUSH2 0x9E5 JUMP JUMPDEST PUSH2 0x124E JUMP JUMPDEST POP JUMP JUMPDEST PUSH0 PUSH2 0xB9F DUP4 DUP4 PUSH2 0x69A JUMP JUMPDEST PUSH2 0xC74 JUMPI PUSH1 0x1 PUSH1 0x5 PUSH0 DUP6 DUP2 MSTORE PUSH1 0x20 ADD SWAP1 DUP2 MSTORE PUSH1 0x20 ADD PUSH0 KECCAK256 PUSH0 ADD PUSH0 DUP5 PUSH20 0xFFFFFFFFFFFFFFFFFFFFFFFFFFFFFFFFFFFFFFFF AND PUSH20 0xFFFFFFFFFFFFFFFFFFFFFFFFFFFFFFFFFFFFFFFF AND DUP2 MSTORE PUSH1 0x20 ADD SWAP1 DUP2 MSTORE PUSH1 0x20 ADD PUSH0 KECCAK256 PUSH0 PUSH2 0x100 EXP DUP2 SLOAD DUP2 PUSH1 0xFF MUL NOT AND SWAP1 DUP4 ISZERO ISZERO MUL OR SWAP1 SSTORE POP PUSH2 0xC11 PUSH2 0x9E5 JUMP JUMPDEST PUSH20 0xFFFFFFFFFFFFFFFFFFFFFFFFFFFFFFFFFFFFFFFF AND DUP3 PUSH20 0xFFFFFFFFFFFFFFFFFFFFFFFFFFFFFFFFFFFFFFFF AND DUP5 PUSH32 0x2F8788117E7EFF1D82E926EC794901D17C78024A50270940304540A733656F0D PUSH1 0x40 MLOAD PUSH1 0x40 MLOAD DUP1 SWAP2 SUB SWAP1 LOG4 PUSH1 0x1 SWAP1 POP PUSH2 0xC78 JUMP JUMPDEST PUSH0 SWAP1 POP JUMPDEST SWAP3 SWAP2 POP POP JUMP JUMPDEST PUSH0 PUSH2 0xC89 DUP4 DUP4 PUSH2 0x69A JUMP JUMPDEST ISZERO PUSH2 0xD5E JUMPI PUSH0 PUSH1 0x5 PUSH0 DUP6 DUP2 MSTORE PUSH1 0x20 ADD SWAP1 DUP2 MSTORE PUSH1 0x20 ADD PUSH0 KECCAK256 PUSH0 ADD PUSH0 DUP5 PUSH20 0xFFFFFFFFFFFFFFFFFFFFFFFFFFFFFFFFFFFFFFFF AND PUSH20 0xFFFFFFFFFFFFFFFFFFFFFFFFFFFFFFFFFFFFFFFF AND DUP2 MSTORE PUSH1 0x20 ADD SWAP1 DUP2 MSTORE PUSH1 0x20 ADD PUSH0 KECCAK256 PUSH0 PUSH2 0x100 EXP DUP2 SLOAD DUP2 PUSH1 0xFF MUL NOT AND SWAP1 DUP4 ISZERO ISZERO MUL OR SWAP1 SSTORE POP PUSH2 0xCFB PUSH2 0x9E5 JUMP JUMPDEST PUSH20 0xFFFFFFFFFFFFFFFFFFFFFFFFFFFFFFFFFFFFFFFF AND DUP3 PUSH20 0xFFFFFFFFFFFFFFFFFFFFFFFFFFFFFFFFFFFFFFFF AND DUP5 PUSH32 0xF6391F5C32D9C69D2A47EA670B442974B53935D1EDC7FD64EB21E047A839171B PUSH1 0x40 MLOAD PUSH1 0x40 MLOAD DUP1 SWAP2 SUB SWAP1 LOG4 PUSH1 0x1 SWAP1 POP PUSH2 0xD62 JUMP JUMPDEST PUSH0 SWAP1 POP JUMPDEST SWAP3 SWAP2 POP POP JUMP JUMPDEST PUSH0 PUSH20 0xFFFFFFFFFFFFFFFFFFFFFFFFFFFFFFFFFFFFFFFF AND DUP3 PUSH20 0xFFFFFFFFFFFFFFFFFFFFFFFFFFFFFFFFFFFFFFFF AND SUB PUSH2 0xDD8 JUMPI PUSH0 PUSH1 0x40 MLOAD PUSH32 0xEC442F0500000000000000000000000000000000000000000000000000000000 DUP2 MSTORE PUSH1 0x4 ADD PUSH2 0xDCF SWAP2 SWAP1 PUSH2 0x172B JUMP JUMPDEST PUSH1 0x40 MLOAD DUP1 SWAP2 SUB SWAP1 REVERT JUMPDEST PUSH2 0xDE3 PUSH0 DUP4 DUP4 PUSH2 0x1035 JUMP JUMPDEST POP POP JUMP JUMPDEST PUSH0 PUSH20 0xFFFFFFFFFFFFFFFFFFFFFFFFFFFFFFFFFFFFFFFF AND DUP3 PUSH20 0xFFFFFFFFFFFFFFFFFFFFFFFFFFFFFFFFFFFFFFFF AND SUB PUSH2 0xE57 JUMPI PUSH0 PUSH1 0x40 MLOAD PUSH32 0x96C6FD1E00000000000000000000000000000000000000000000000000000000 DUP2 MSTORE PUSH1 0x4 ADD PUSH2 0xE4E SWAP2 SWAP1 PUSH2 0x172B JUMP JUMPDEST PUSH1 0x40 MLOAD DUP1 SWAP2 SUB SWAP1 REVERT JUMPDEST PUSH2 0xE62 DUP3 PUSH0 DUP4 PUSH2 0x1035 JUMP JUMPDEST POP POP JUMP JUMPDEST PUSH0 PUSH20 0xFFFFFFFFFFFFFFFFFFFFFFFFFFFFFFFFFFFFFFFF AND DUP5 PUSH20 0xFFFFFFFFFFFFFFFFFFFFFFFFFFFFFFFFFFFFFFFF AND SUB PUSH2 0xED6 JUMPI PUSH0 PUSH1 0x40 MLOAD PUSH32 0xE602DF0500000000000000000000000000000000000000000000000000000000 DUP2 MSTORE PUSH1 0x4 ADD PUSH2 0xECD SWAP2 SWAP1 PUSH2 0x172B JUMP JUMPDEST PUSH1 0x40 MLOAD DUP1 SWAP2 SUB SWAP1 REVERT JUMPDEST PUSH0 PUSH20 0xFFFFFFFFFFFFFFFFFFFFFFFFFFFFFFFFFFFFFFFF AND DUP4 PUSH20 0xFFFFFFFFFFFFFFFFFFFFFFFFFFFFFFFFFFFFFFFF AND SUB PUSH2 0xF46 JUMPI PUSH0 PUSH1 0x40 MLOAD PUSH32 0x94280D6200000000000000000000000000000000000000000000000000000000 DUP2 MSTORE PUSH1 0x4 ADD PUSH2 0xF3D SWAP2 SWAP1 PUSH2 0x172B JUMP JUMPDEST PUSH1 0x40 MLOAD DUP1 SWAP2 SUB SWAP1 REVERT JUMPDEST DUP2 PUSH1 0x1 PUSH0 DUP7 PUSH20 0xFFFFFFFFFFFFFFFFFFFFFFFFFFFFFFFFFFFFFFFF AND PUSH20 0xFFFFFFFFFFFFFFFFFFFFFFFFFFFFFFFFFFFFFFFF AND DUP2 MSTORE PUSH1 0x20 ADD SWAP1 DUP2 MSTORE PUSH1 0x20 ADD PUSH0 KECCAK256 PUSH0 DUP6 PUSH20 0xFFFFFFFFFFFFFFFFFFFFFFFFFFFFFFFFFFFFFFFF AND PUSH20 0xFFFFFFFFFFFFFFFFFFFFFFFFFFFFFFFFFFFFFFFF AND DUP2 MSTORE PUSH1 0x20 ADD SWAP1 DUP2 MSTORE PUSH1 0x20 ADD PUSH0 KECCAK256 DUP2 SWAP1 SSTORE POP DUP1 ISZERO PUSH2 0x102F JUMPI DUP3 PUSH20 0xFFFFFFFFFFFFFFFFFFFFFFFFFFFFFFFFFFFFFFFF AND DUP5 PUSH20 0xFFFFFFFFFFFFFFFFFFFFFFFFFFFFFFFFFFFFFFFF AND PUSH32 0x8C5BE1E5EBEC7D5BD14F71427D1E84F3DD0314C0F7B2291E5B200AC8C7C3B925 DUP5 PUSH1 0x40 MLOAD PUSH2 0x1026 SWAP2 SWAP1 PUSH2 0x14C0 JUMP JUMPDEST PUSH1 0x40 MLOAD DUP1 SWAP2 SUB SWAP1 LOG3 JUMPDEST POP POP POP POP JUMP JUMPDEST PUSH0 PUSH20 0xFFFFFFFFFFFFFFFFFFFFFFFFFFFFFFFFFFFFFFFF AND DUP4 PUSH20 0xFFFFFFFFFFFFFFFFFFFFFFFFFFFFFFFFFFFFFFFF AND SUB PUSH2 0x1085 JUMPI DUP1 PUSH1 0x2 PUSH0 DUP3 DUP3 SLOAD PUSH2 0x1079 SWAP2 SWAP1 PUSH2 0x1771 JUMP JUMPDEST SWAP3 POP POP DUP2 SWAP1 SSTORE POP PUSH2 0x1153 JUMP JUMPDEST PUSH0 DUP1 PUSH0 DUP6 PUSH20 0xFFFFFFFFFFFFFFFFFFFFFFFFFFFFFFFFFFFFFFFF AND PUSH20 0xFFFFFFFFFFFFFFFFFFFFFFFFFFFFFFFFFFFFFFFF AND DUP2 MSTORE PUSH1 0x20 ADD SWAP1 DUP2 MSTORE PUSH1 0x20 ADD PUSH0 KECCAK256 SLOAD SWAP1 POP DUP2 DUP2 LT ISZERO PUSH2 0x110E JUMPI DUP4 DUP2 DUP4 PUSH1 0x40 MLOAD PUSH32 0xE450D38C00000000000000000000000000000000000000000000000000000000 DUP2 MSTORE PUSH1 0x4 ADD PUSH2 0x1105 SWAP4 SWAP3 SWAP2 SWAP1 PUSH2 0x16F6 JUMP JUMPDEST PUSH1 0x40 MLOAD DUP1 SWAP2 SUB SWAP1 REVERT JUMPDEST DUP2 DUP2 SUB PUSH0 DUP1 DUP7 PUSH20 0xFFFFFFFFFFFFFFFFFFFFFFFFFFFFFFFFFFFFFFFF AND PUSH20 0xFFFFFFFFFFFFFFFFFFFFFFFFFFFFFFFFFFFFFFFF AND DUP2 MSTORE PUSH1 0x20 ADD SWAP1 DUP2 MSTORE PUSH1 0x20 ADD PUSH0 KECCAK256 DUP2 SWAP1 SSTORE POP POP JUMPDEST PUSH0 PUSH20 0xFFFFFFFFFFFFFFFFFFFFFFFFFFFFFFFFFFFFFFFF AND DUP3 PUSH20 0xFFFFFFFFFFFFFFFFFFFFFFFFFFFFFFFFFFFFFFFF AND SUB PUSH2 0x119A JUMPI DUP1 PUSH1 0x2 PUSH0 DUP3 DUP3 SLOAD SUB SWAP3 POP POP DUP2 SWAP1 SSTORE POP PUSH2 0x11E4 JUMP JUMPDEST DUP1 PUSH0 DUP1 DUP5 PUSH20 0xFFFFFFFFFFFFFFFFFFFFFFFFFFFFFFFFFFFFFFFF AND PUSH20 0xFFFFFFFFFFFFFFFFFFFFFFFFFFFFFFFFFFFFFFFF AND DUP2 MSTORE PUSH1 0x20 ADD SWAP1 DUP2 MSTORE PUSH1 0x20 ADD PUSH0 KECCAK256 PUSH0 DUP3 DUP3 SLOAD ADD SWAP3 POP POP DUP2 SWAP1 SSTORE POP JUMPDEST DUP2 PUSH20 0xFFFFFFFFFFFFFFFFFFFFFFFFFFFFFFFFFFFFFFFF AND DUP4 PUSH20 0xFFFFFFFFFFFFFFFFFFFFFFFFFFFFFFFFFFFFFFFF AND PUSH32 0xDDF252AD1BE2C89B69C2B068FC378DAA952BA7F163C4A11628F55A4DF523B3EF DUP4 PUSH1 0x40 MLOAD PUSH2 0x1241 SWAP2 SWAP1 PUSH2 0x14C0 JUMP JUMPDEST PUSH1 0x40 MLOAD DUP1 SWAP2 SUB SWAP1 LOG3 POP POP POP JUMP JUMPDEST PUSH2 0x1258 DUP3 DUP3 PUSH2 0x69A JUMP JUMPDEST PUSH2 0x129B JUMPI DUP1 DUP3 PUSH1 0x40 MLOAD PUSH32 0xE2517D3F00000000000000000000000000000000000000000000000000000000 DUP2 MSTORE PUSH1 0x4 ADD PUSH2 0x1292 SWAP3 SWAP2 SWAP1 PUSH2 0x17A4 JUMP JUMPDEST PUSH1 0x40 MLOAD DUP1 SWAP2 SUB SWAP1 REVERT JUMPDEST POP POP JUMP JUMPDEST PUSH0 DUP1 REVERT JUMPDEST PUSH0 PUSH32 0xFFFFFFFF00000000000000000000000000000000000000000000000000000000 DUP3 AND SWAP1 POP SWAP2 SWAP1 POP JUMP JUMPDEST PUSH2 0x12D7 DUP2 PUSH2 0x12A3 JUMP JUMPDEST DUP2 EQ PUSH2 0x12E1 JUMPI PUSH0 DUP1 REVERT JUMPDEST POP JUMP JUMPDEST PUSH0 DUP2 CALLDATALOAD SWAP1 POP PUSH2 0x12F2 DUP2 PUSH2 0x12CE JUMP JUMPDEST SWAP3 SWAP2 POP POP JUMP JUMPDEST PUSH0 PUSH1 0x20 DUP3 DUP5 SUB SLT ISZERO PUSH2 0x130D JUMPI PUSH2 0x130C PUSH2 0x129F JUMP JUMPDEST JUMPDEST PUSH0 PUSH2 0x131A DUP5 DUP3 DUP6 ADD PUSH2 0x12E4 JUMP JUMPDEST SWAP2 POP POP SWAP3 SWAP2 POP POP JUMP JUMPDEST PUSH0 DUP2 ISZERO ISZERO SWAP1 POP SWAP2 SWAP1 POP JUMP JUMPDEST PUSH2 0x1337 DUP2 PUSH2 0x1323 JUMP JUMPDEST DUP3 MSTORE POP POP JUMP JUMPDEST PUSH0 PUSH1 0x20 DUP3 ADD SWAP1 POP PUSH2 0x1350 PUSH0 DUP4 ADD DUP5 PUSH2 0x132E JUMP JUMPDEST SWAP3 SWAP2 POP POP JUMP JUMPDEST PUSH0 DUP2 MLOAD SWAP1 POP SWAP2 SWAP1 POP JUMP JUMPDEST PUSH0 DUP3 DUP3 MSTORE PUSH1 0x20 DUP3 ADD SWAP1 POP SWAP3 SWAP2 POP POP JUMP JUMPDEST DUP3 DUP2 DUP4 MCOPY PUSH0 DUP4 DUP4 ADD MSTORE POP POP POP JUMP JUMPDEST PUSH0 PUSH1 0x1F NOT PUSH1 0x1F DUP4 ADD AND SWAP1 POP SWAP2 SWAP1 POP JUMP JUMPDEST PUSH0 PUSH2 0x1398 DUP3 PUSH2 0x1356 JUMP JUMPDEST PUSH2 0x13A2 DUP2 DUP6 PUSH2 0x1360 JUMP JUMPDEST SWAP4 POP PUSH2 0x13B2 DUP2 DUP6 PUSH1 0x20 DUP7 ADD PUSH2 0x1370 JUMP JUMPDEST PUSH2 0x13BB DUP2 PUSH2 0x137E JUMP JUMPDEST DUP5 ADD SWAP2 POP POP SWAP3 SWAP2 POP POP JUMP JUMPDEST PUSH0 PUSH1 0x20 DUP3 ADD SWAP1 POP DUP2 DUP2 SUB PUSH0 DUP4 ADD MSTORE PUSH2 0x13DE DUP2 DUP5 PUSH2 0x138E JUMP JUMPDEST SWAP1 POP SWAP3 SWAP2 POP POP JUMP JUMPDEST PUSH0 PUSH20 0xFFFFFFFFFFFFFFFFFFFFFFFFFFFFFFFFFFFFFFFF DUP3 AND SWAP1 POP SWAP2 SWAP1 POP JUMP JUMPDEST PUSH0 PUSH2 0x140F DUP3 PUSH2 0x13E6 JUMP JUMPDEST SWAP1 POP SWAP2 SWAP1 POP JUMP JUMPDEST PUSH2 0x141F DUP2 PUSH2 0x1405 JUMP JUMPDEST DUP2 EQ PUSH2 0x1429 JUMPI PUSH0 DUP1 REVERT JUMPDEST POP JUMP JUMPDEST PUSH0 DUP2 CALLDATALOAD SWAP1 POP PUSH2 0x143A DUP2 PUSH2 0x1416 JUMP JUMPDEST SWAP3 SWAP2 POP POP JUMP JUMPDEST PUSH0 DUP2 SWAP1 POP SWAP2 SWAP1 POP JUMP JUMPDEST PUSH2 0x1452 DUP2 PUSH2 0x1440 JUMP JUMPDEST DUP2 EQ PUSH2 0x145C JUMPI PUSH0 DUP1 REVERT JUMPDEST POP JUMP JUMPDEST PUSH0 DUP2 CALLDATALOAD SWAP1 POP PUSH2 0x146D DUP2 PUSH2 0x1449 JUMP JUMPDEST SWAP3 SWAP2 POP POP JUMP JUMPDEST PUSH0 DUP1 PUSH1 0x40 DUP4 DUP6 SUB SLT ISZERO PUSH2 0x1489 JUMPI PUSH2 0x1488 PUSH2 0x129F JUMP JUMPDEST JUMPDEST PUSH0 PUSH2 0x1496 DUP6 DUP3 DUP7 ADD PUSH2 0x142C JUMP JUMPDEST SWAP3 POP POP PUSH1 0x20 PUSH2 0x14A7 DUP6 DUP3 DUP7 ADD PUSH2 0x145F JUMP JUMPDEST SWAP2 POP POP SWAP3 POP SWAP3 SWAP1 POP JUMP JUMPDEST PUSH2 0x14BA DUP2 PUSH2 0x1440 JUMP JUMPDEST DUP3 MSTORE POP POP JUMP JUMPDEST PUSH0 PUSH1 0x20 DUP3 ADD SWAP1 POP PUSH2 0x14D3 PUSH0 DUP4 ADD DUP5 PUSH2 0x14B1 JUMP JUMPDEST SWAP3 SWAP2 POP POP JUMP JUMPDEST PUSH0 DUP1 PUSH0 PUSH1 0x60 DUP5 DUP7 SUB SLT ISZERO PUSH2 0x14F0 JUMPI PUSH2 0x14EF PUSH2 0x129F JUMP JUMPDEST JUMPDEST PUSH0 PUSH2 0x14FD DUP7 DUP3 DUP8 ADD PUSH2 0x142C JUMP JUMPDEST SWAP4 POP POP PUSH1 0x20 PUSH2 0x150E DUP7 DUP3 DUP8 ADD PUSH2 0x142C JUMP JUMPDEST SWAP3 POP POP PUSH1 0x40 PUSH2 0x151F DUP7 DUP3 DUP8 ADD PUSH2 0x145F JUMP JUMPDEST SWAP2 POP POP SWAP3 POP SWAP3 POP SWAP3 JUMP JUMPDEST PUSH0 DUP2 SWAP1 POP SWAP2 SWAP1 POP JUMP JUMPDEST PUSH2 0x153B DUP2 PUSH2 0x1529 JUMP JUMPDEST DUP2 EQ PUSH2 0x1545 JUMPI PUSH0 DUP1 REVERT JUMPDEST POP JUMP JUMPDEST PUSH0 DUP2 CALLDATALOAD SWAP1 POP PUSH2 0x1556 DUP2 PUSH2 0x1532 JUMP JUMPDEST SWAP3 SWAP2 POP POP JUMP JUMPDEST PUSH0 PUSH1 0x20 DUP3 DUP5 SUB SLT ISZERO PUSH2 0x1571 JUMPI PUSH2 0x1570 PUSH2 0x129F JUMP JUMPDEST JUMPDEST PUSH0 PUSH2 0x157E DUP5 DUP3 DUP6 ADD PUSH2 0x1548 JUMP JUMPDEST SWAP2 POP POP SWAP3 SWAP2 POP POP JUMP JUMPDEST PUSH2 0x1590 DUP2 PUSH2 0x1529 JUMP JUMPDEST DUP3 MSTORE POP POP JUMP JUMPDEST PUSH0 PUSH1 0x20 DUP3 ADD SWAP1 POP PUSH2 0x15A9 PUSH0 DUP4 ADD DUP5 PUSH2 0x1587 JUMP JUMPDEST SWAP3 SWAP2 POP POP JUMP JUMPDEST PUSH0 DUP1 PUSH1 0x40 DUP4 DUP6 SUB SLT ISZERO PUSH2 0x15C5 JUMPI PUSH2 0x15C4 PUSH2 0x129F JUMP JUMPDEST JUMPDEST PUSH0 PUSH2 0x15D2 DUP6 DUP3 DUP7 ADD PUSH2 0x1548 JUMP JUMPDEST SWAP3 POP POP PUSH1 0x20 PUSH2 0x15E3 DUP6 DUP3 DUP7 ADD PUSH2 0x142C JUMP JUMPDEST SWAP2 POP POP SWAP3 POP SWAP3 SWAP1 POP JUMP JUMPDEST PUSH0 PUSH1 0xFF DUP3 AND SWAP1 POP SWAP2 SWAP1 POP JUMP JUMPDEST PUSH2 0x1602 DUP2 PUSH2 0x15ED JUMP JUMPDEST DUP3 MSTORE POP POP JUMP JUMPDEST PUSH0 PUSH1 0x20 DUP3 ADD SWAP1 POP PUSH2 0x161B PUSH0 DUP4 ADD DUP5 PUSH2 0x15F9 JUMP JUMPDEST SWAP3 SWAP2 POP POP JUMP JUMPDEST PUSH0 PUSH1 0x20 DUP3 DUP5 SUB SLT ISZERO PUSH2 0x1636 JUMPI PUSH2 0x1635 PUSH2 0x129F JUMP JUMPDEST JUMPDEST PUSH0 PUSH2 0x1643 DUP5 DUP3 DUP6 ADD PUSH2 0x142C JUMP JUMPDEST SWAP2 POP POP SWAP3 SWAP2 POP POP JUMP JUMPDEST PUSH0 DUP1 PUSH1 0x40 DUP4 DUP6 SUB SLT ISZERO PUSH2 0x1662 JUMPI PUSH2 0x1661 PUSH2 0x129F JUMP JUMPDEST JUMPDEST PUSH0 PUSH2 0x166F DUP6 DUP3 DUP7 ADD PUSH2 0x142C JUMP JUMPDEST SWAP3 POP POP PUSH1 0x20 PUSH2 0x1680 DUP6 DUP3 DUP7 ADD PUSH2 0x142C JUMP JUMPDEST SWAP2 POP POP SWAP3 POP SWAP3 SWAP1 POP JUMP JUMPDEST PUSH32 0x4E487B7100000000000000000000000000000000000000000000000000000000 PUSH0 MSTORE PUSH1 0x22 PUSH1 0x4 MSTORE PUSH1 0x24 PUSH0 REVERT JUMPDEST PUSH0 PUSH1 0x2 DUP3 DIV SWAP1 POP PUSH1 0x1 DUP3 AND DUP1 PUSH2 0x16CE JUMPI PUSH1 0x7F DUP3 AND SWAP2 POP JUMPDEST PUSH1 0x20 DUP3 LT DUP2 SUB PUSH2 0x16E1 JUMPI PUSH2 0x16E0 PUSH2 0x168A JUMP JUMPDEST JUMPDEST POP SWAP2 SWAP1 POP JUMP JUMPDEST PUSH2 0x16F0 DUP2 PUSH2 0x1405 JUMP JUMPDEST DUP3 MSTORE POP POP JUMP JUMPDEST PUSH0 PUSH1 0x60 DUP3 ADD SWAP1 POP PUSH2 0x1709 PUSH0 DUP4 ADD DUP7 PUSH2 0x16E7 JUMP JUMPDEST PUSH2 0x1716 PUSH1 0x20 DUP4 ADD DUP6 PUSH2 0x14B1 JUMP JUMPDEST PUSH2 0x1723 PUSH1 0x40 DUP4 ADD DUP5 PUSH2 0x14B1 JUMP JUMPDEST SWAP5 SWAP4 POP POP POP POP JUMP JUMPDEST PUSH0 PUSH1 0x20 DUP3 ADD SWAP1 POP PUSH2 0x173E PUSH0 DUP4 ADD DUP5 PUSH2 0x16E7 JUMP JUMPDEST SWAP3 SWAP2 POP POP JUMP JUMPDEST PUSH32 0x4E487B7100000000000000000000000000000000000000000000000000000000 PUSH0 MSTORE PUSH1 0x11 PUSH1 0x4 MSTORE PUSH1 0x24 PUSH0 REVERT JUMPDEST PUSH0 PUSH2 0x177B DUP3 PUSH2 0x1440 JUMP JUMPDEST SWAP2 POP PUSH2 0x1786 DUP4 PUSH2 0x1440 JUMP JUMPDEST SWAP3 POP DUP3 DUP3 ADD SWAP1 POP DUP1 DUP3 GT ISZERO PUSH2 0x179E JUMPI PUSH2 0x179D PUSH2 0x1744 JUMP JUMPDEST JUMPDEST SWAP3 SWAP2 POP POP JUMP JUMPDEST PUSH0 PUSH1 0x40 DUP3 ADD SWAP1 POP PUSH2 0x17B7 PUSH0 DUP4 ADD DUP6 PUSH2 0x16E7 JUMP JUMPDEST PUSH2 0x17C4 PUSH1 0x20 DUP4 ADD DUP5 PUSH2 0x1587 JUMP JUMPDEST SWAP4 SWAP3 POP POP POP JUMP INVALID LOG2 PUSH5 0x6970667358 0x22 SLT KECCAK256 PUSH28 0xC0E1B8CF5B526FE2C615AD18F83D08F9FEF175ECAF08254F95713442 0xC5 SELFBALANCE CODECOPY PUSH5 0x736F6C6343 STOP ADDMOD BYTE STOP CALLER "
				},
				"gasEstimates": {
					"creation": {
						"codeDepositCost": "1229000",
						"executionCost": "infinite",
						"totalCost": "infinite"
					},
					"external": {
						"DEFAULT_ADMIN_ROLE()": "419",
						"MINTER_ROLE()": "391",
						"allowance(address,address)": "infinite",
						"approve(address,uint256)": "infinite",
						"balanceOf(address)": "2852",
						"buyOneCoffee()": "infinite",
						"buyOneCoffeeFrom(address)": "infinite",
						"decimals()": "405",
						"getRoleAdmin(bytes32)": "infinite",
						"grantRole(bytes32,address)": "infinite",
						"hasRole(bytes32,address)": "3167",
						"mint(address,uint256)": "infinite",
						"name()": "infinite",
						"renounceRole(bytes32,address)": "infinite",
						"revokeRole(bytes32,address)": "infinite",
						"supportsInterface(bytes4)": "741",
						"symbol()": "infinite",
						"totalSupply()": "2522",
						"transfer(address,uint256)": "infinite",
						"transferFrom(address,address,uint256)": "infinite"
					}
				},
				"methodIdentifiers": {
					"DEFAULT_ADMIN_ROLE()": "a217fddf",
					"MINTER_ROLE()": "d5391393",
					"allowance(address,address)": "dd62ed3e",
					"approve(address,uint256)": "095ea7b3",
					"balanceOf(address)": "70a08231",
					"buyOneCoffee()": "b9aa8c31",
					"buyOneCoffeeFrom(address)": "c4954732",
					"decimals()": "313ce567",
					"getRoleAdmin(bytes32)": "248a9ca3",
					"grantRole(bytes32,address)": "2f2ff15d",
					"hasRole(bytes32,address)": "91d14854",
					"mint(address,uint256)": "40c10f19",
					"name()": "06fdde03",
					"renounceRole(bytes32,address)": "36568abe",
					"revokeRole(bytes32,address)": "d547741f",
					"supportsInterface(bytes4)": "01ffc9a7",
					"symbol()": "95d89b41",
					"totalSupply()": "18160ddd",
					"transfer(address,uint256)": "a9059cbb",
					"transferFrom(address,address,uint256)": "23b872dd"
				}
			},
			"storageLayout": {
				"storage": [
					{
						"astId": 538,
						"contract": "contracts/SampleCoffeeToken.sol:CoffeToken",
						"label": "_balances",
						"offset": 0,
						"slot": "0",
						"type": "t_mapping(t_address,t_uint256)"
					},
					{
						"astId": 544,
						"contract": "contracts/SampleCoffeeToken.sol:CoffeToken",
						"label": "_allowances",
						"offset": 0,
						"slot": "1",
						"type": "t_mapping(t_address,t_mapping(t_address,t_uint256))"
					},
					{
						"astId": 546,
						"contract": "contracts/SampleCoffeeToken.sol:CoffeToken",
						"label": "_totalSupply",
						"offset": 0,
						"slot": "2",
						"type": "t_uint256"
					},
					{
						"astId": 548,
						"contract": "contracts/SampleCoffeeToken.sol:CoffeToken",
						"label": "_name",
						"offset": 0,
						"slot": "3",
						"type": "t_string_storage"
					},
					{
						"astId": 550,
						"contract": "contracts/SampleCoffeeToken.sol:CoffeToken",
						"label": "_symbol",
						"offset": 0,
						"slot": "4",
						"type": "t_string_storage"
					},
					{
						"astId": 26,
						"contract": "contracts/SampleCoffeeToken.sol:CoffeToken",
						"label": "_roles",
						"offset": 0,
						"slot": "5",
						"type": "t_mapping(t_bytes32,t_struct(RoleData)21_storage)"
					}
				],
				"types": {
					"t_address": {
						"encoding": "inplace",
						"label": "address",
						"numberOfBytes": "20"
					},
					"t_bool": {
						"encoding": "inplace",
						"label": "bool",
						"numberOfBytes": "1"
					},
					"t_bytes32": {
						"encoding": "inplace",
						"label": "bytes32",
						"numberOfBytes": "32"
					},
					"t_mapping(t_address,t_bool)": {
						"encoding": "mapping",
						"key": "t_address",
						"label": "mapping(address => bool)",
						"numberOfBytes": "32",
						"value": "t_bool"
					},
					"t_mapping(t_address,t_mapping(t_address,t_uint256))": {
						"encoding": "mapping",
						"key": "t_address",
						"label": "mapping(address => mapping(address => uint256))",
						"numberOfBytes": "32",
						"value": "t_mapping(t_address,t_uint256)"
					},
					"t_mapping(t_address,t_uint256)": {
						"encoding": "mapping",
						"key": "t_address",
						"label": "mapping(address => uint256)",
						"numberOfBytes": "32",
						"value": "t_uint256"
					},
					"t_mapping(t_bytes32,t_struct(RoleData)21_storage)": {
						"encoding": "mapping",
						"key": "t_bytes32",
						"label": "mapping(bytes32 => struct AccessControl.RoleData)",
						"numberOfBytes": "32",
						"value": "t_struct(RoleData)21_storage"
					},
					"t_string_storage": {
						"encoding": "bytes",
						"label": "string",
						"numberOfBytes": "32"
					},
					"t_struct(RoleData)21_storage": {
						"encoding": "inplace",
						"label": "struct AccessControl.RoleData",
						"members": [
							{
								"astId": 18,
								"contract": "contracts/SampleCoffeeToken.sol:CoffeToken",
								"label": "hasRole",
								"offset": 0,
								"slot": "0",
								"type": "t_mapping(t_address,t_bool)"
							},
							{
								"astId": 20,
								"contract": "contracts/SampleCoffeeToken.sol:CoffeToken",
								"label": "adminRole",
								"offset": 0,
								"slot": "1",
								"type": "t_bytes32"
							}
						],
						"numberOfBytes": "64"
					},
					"t_uint256": {
						"encoding": "inplace",
						"label": "uint256",
						"numberOfBytes": "32"
					}
				}
			},
			"userdoc": {
				"kind": "user",
				"methods": {},
				"version": 1
			}
		}
	}
}