{
	"contracts/SmartContractWallet.sol": {
		"SmartContracWallet": {
			"abi": [
				{
					"inputs": [],
					"stateMutability": "nonpayable",
					"type": "constructor"
				},
				{
					"inputs": [
						{
							"internalType": "address",
							"name": "",
							"type": "address"
						}
					],
					"name": "allowance",
					"outputs": [
						{
							"internalType": "uint256",
							"name": "",
							"type": "uint256"
						}
					],
					"stateMutability": "view",
					"type": "function"
				},
				{
					"inputs": [
						{
							"internalType": "address",
							"name": "",
							"type": "address"
						}
					],
					"name": "isAllowedToSend",
					"outputs": [
						{
							"internalType": "bool",
							"name": "",
							"type": "bool"
						}
					],
					"stateMutability": "view",
					"type": "function"
				},
				{
					"inputs": [
						{
							"internalType": "address",
							"name": "_for",
							"type": "address"
						},
						{
							"internalType": "uint256",
							"name": "_amount",
							"type": "uint256"
						}
					],
					"name": "setAllowance",
					"outputs": [],
					"stateMutability": "nonpayable",
					"type": "function"
				},
				{
					"inputs": [
						{
							"internalType": "address payable",
							"name": "_to",
							"type": "address"
						},
						{
							"internalType": "uint256",
							"name": "_amount",
							"type": "uint256"
						},
						{
							"internalType": "bytes",
							"name": "_payload",
							"type": "bytes"
						}
					],
					"name": "transfer",
					"outputs": [
						{
							"internalType": "bytes",
							"name": "",
							"type": "bytes"
						}
					],
					"stateMutability": "nonpayable",
					"type": "function"
				},
				{
					"stateMutability": "payable",
					"type": "receive"
				}
			],
			"devdoc": {
				"kind": "dev",
				"methods": {},
				"version": 1
			},
			"evm": {
				"assembly": "    /* \"contracts/SmartContractWallet.sol\":60:1252  contract SmartContracWallet{... */\n  mstore(0x40, 0x80)\n    /* \"contracts/SmartContractWallet.sol\":215:268  constructor() {... */\n  callvalue\n  dup1\n  iszero\n  tag_1\n  jumpi\n  0x00\n  dup1\n  revert\ntag_1:\n  pop\n    /* \"contracts/SmartContractWallet.sol\":252:262  msg.sender */\n  caller\n    /* \"contracts/SmartContractWallet.sol\":236:241  owner */\n  0x00\n  dup1\n    /* \"contracts/SmartContractWallet.sol\":236:263  owner = payable(msg.sender) */\n  0x0100\n  exp\n  dup2\n  sload\n  dup2\n  0xffffffffffffffffffffffffffffffffffffffff\n  mul\n  not\n  and\n  swap1\n  dup4\n  0xffffffffffffffffffffffffffffffffffffffff\n  and\n  mul\n  or\n  swap1\n  sstore\n  pop\n    /* \"contracts/SmartContractWallet.sol\":60:1252  contract SmartContracWallet{... */\n  dataSize(sub_0)\n  dup1\n  dataOffset(sub_0)\n  0x00\n  codecopy\n  0x00\n  return\nstop\n\nsub_0: assembly {\n        /* \"contracts/SmartContractWallet.sol\":60:1252  contract SmartContracWallet{... */\n      mstore(0x40, 0x80)\n      jumpi(tag_1, lt(calldatasize, 0x04))\n      shr(0xe0, calldataload(0x00))\n      dup1\n      0x0bc605ad\n      eq\n      tag_3\n      jumpi\n      dup1\n      0x310ec4a7\n      eq\n      tag_4\n      jumpi\n      dup1\n      0x3e5beab9\n      eq\n      tag_5\n      jumpi\n      dup1\n      0xbe45fd62\n      eq\n      tag_6\n      jumpi\n      jump(tag_2)\n    tag_1:\n      jumpi(tag_2, calldatasize)\n      stop\n    tag_2:\n      0x00\n      dup1\n      revert\n        /* \"contracts/SmartContractWallet.sol\":161:209  mapping (address => bool) public isAllowedToSend */\n    tag_3:\n      callvalue\n      dup1\n      iszero\n      tag_9\n      jumpi\n      0x00\n      dup1\n      revert\n    tag_9:\n      pop\n      tag_10\n      0x04\n      dup1\n      calldatasize\n      sub\n      dup2\n      add\n      swap1\n      tag_11\n      swap2\n      swap1\n      tag_12\n      jump\t// in\n    tag_11:\n      tag_13\n      jump\t// in\n    tag_10:\n      mload(0x40)\n      tag_14\n      swap2\n      swap1\n      tag_15\n      jump\t// in\n    tag_14:\n      mload(0x40)\n      dup1\n      swap2\n      sub\n      swap1\n      return\n        /* \"contracts/SmartContractWallet.sol\":273:548  function setAllowance(address _for, uint _amount) public{... */\n    tag_4:\n      callvalue\n      dup1\n      iszero\n      tag_16\n      jumpi\n      0x00\n      dup1\n      revert\n    tag_16:\n      pop\n      tag_17\n      0x04\n      dup1\n      calldatasize\n      sub\n      dup2\n      add\n      swap1\n      tag_18\n      swap2\n      swap1\n      tag_19\n      jump\t// in\n    tag_18:\n      tag_20\n      jump\t// in\n    tag_17:\n      stop\n        /* \"contracts/SmartContractWallet.sol\":116:157  mapping(address => uint) public allowance */\n    tag_5:\n      callvalue\n      dup1\n      iszero\n      tag_21\n      jumpi\n      0x00\n      dup1\n      revert\n    tag_21:\n      pop\n      tag_22\n      0x04\n      dup1\n      calldatasize\n      sub\n      dup2\n      add\n      swap1\n      tag_23\n      swap2\n      swap1\n      tag_12\n      jump\t// in\n    tag_23:\n      tag_24\n      jump\t// in\n    tag_22:\n      mload(0x40)\n      tag_25\n      swap2\n      swap1\n      tag_26\n      jump\t// in\n    tag_25:\n      mload(0x40)\n      dup1\n      swap2\n      sub\n      swap1\n      return\n        /* \"contracts/SmartContractWallet.sol\":552:1214  function transfer(address payable _to, uint _amount, bytes memory _payload) public returns(bytes memory){... */\n    tag_6:\n      callvalue\n      dup1\n      iszero\n      tag_27\n      jumpi\n      0x00\n      dup1\n      revert\n    tag_27:\n      pop\n      tag_28\n      0x04\n      dup1\n      calldatasize\n      sub\n      dup2\n      add\n      swap1\n      tag_29\n      swap2\n      swap1\n      tag_30\n      jump\t// in\n    tag_29:\n      tag_31\n      jump\t// in\n    tag_28:\n      mload(0x40)\n      tag_32\n      swap2\n      swap1\n      tag_33\n      jump\t// in\n    tag_32:\n      mload(0x40)\n      dup1\n      swap2\n      sub\n      swap1\n      return\n        /* \"contracts/SmartContractWallet.sol\":161:209  mapping (address => bool) public isAllowedToSend */\n    tag_13:\n      mstore(0x20, 0x02)\n      dup1\n      0x00\n      mstore\n      keccak256(0x00, 0x40)\n      0x00\n      swap2\n      pop\n      sload\n      swap1\n      0x0100\n      exp\n      swap1\n      div\n      0xff\n      and\n      dup2\n      jump\t// out\n        /* \"contracts/SmartContractWallet.sol\":273:548  function setAllowance(address _for, uint _amount) public{... */\n    tag_20:\n        /* \"contracts/SmartContractWallet.sol\":356:361  owner */\n      0x00\n      dup1\n      sload\n      swap1\n      0x0100\n      exp\n      swap1\n      div\n      0xffffffffffffffffffffffffffffffffffffffff\n      and\n        /* \"contracts/SmartContractWallet.sol\":342:361  msg.sender == owner */\n      0xffffffffffffffffffffffffffffffffffffffff\n      and\n        /* \"contracts/SmartContractWallet.sol\":342:352  msg.sender */\n      caller\n        /* \"contracts/SmartContractWallet.sol\":342:361  msg.sender == owner */\n      0xffffffffffffffffffffffffffffffffffffffff\n      and\n      eq\n        /* \"contracts/SmartContractWallet.sol\":334:397  require(msg.sender == owner, \"You are not the owner, aborting\") */\n      tag_35\n      jumpi\n      mload(0x40)\n      0x08c379a000000000000000000000000000000000000000000000000000000000\n      dup2\n      mstore\n      0x04\n      add\n      tag_36\n      swap1\n      tag_37\n      jump\t// in\n    tag_36:\n      mload(0x40)\n      dup1\n      swap2\n      sub\n      swap1\n      revert\n    tag_35:\n        /* \"contracts/SmartContractWallet.sol\":426:433  _amount */\n      dup1\n        /* \"contracts/SmartContractWallet.sol\":402:411  allowance */\n      0x01\n        /* \"contracts/SmartContractWallet.sol\":402:423  allowance[msg.sender] */\n      0x00\n        /* \"contracts/SmartContractWallet.sol\":412:422  msg.sender */\n      caller\n        /* \"contracts/SmartContractWallet.sol\":402:423  allowance[msg.sender] */\n      0xffffffffffffffffffffffffffffffffffffffff\n      and\n      0xffffffffffffffffffffffffffffffffffffffff\n      and\n      dup2\n      mstore\n      0x20\n      add\n      swap1\n      dup2\n      mstore\n      0x20\n      add\n      0x00\n      keccak256\n        /* \"contracts/SmartContractWallet.sol\":402:433  allowance[msg.sender] = _amount */\n      dup2\n      swap1\n      sstore\n      pop\n        /* \"contracts/SmartContractWallet.sol\":453:454  0 */\n      0x00\n        /* \"contracts/SmartContractWallet.sol\":443:450  _amount */\n      dup2\n        /* \"contracts/SmartContractWallet.sol\":443:454  _amount > 0 */\n      gt\n        /* \"contracts/SmartContractWallet.sol\":440:540  if(_amount > 0){... */\n      iszero\n      tag_38\n      jumpi\n        /* \"contracts/SmartContractWallet.sol\":485:489  true */\n      0x01\n        /* \"contracts/SmartContractWallet.sol\":461:476  isAllowedToSend */\n      0x02\n        /* \"contracts/SmartContractWallet.sol\":461:482  isAllowedToSend[_for] */\n      0x00\n        /* \"contracts/SmartContractWallet.sol\":477:481  _for */\n      dup5\n        /* \"contracts/SmartContractWallet.sol\":461:482  isAllowedToSend[_for] */\n      0xffffffffffffffffffffffffffffffffffffffff\n      and\n      0xffffffffffffffffffffffffffffffffffffffff\n      and\n      dup2\n      mstore\n      0x20\n      add\n      swap1\n      dup2\n      mstore\n      0x20\n      add\n      0x00\n      keccak256\n      0x00\n        /* \"contracts/SmartContractWallet.sol\":461:489  isAllowedToSend[_for] = true */\n      0x0100\n      exp\n      dup2\n      sload\n      dup2\n      0xff\n      mul\n      not\n      and\n      swap1\n      dup4\n      iszero\n      iszero\n      mul\n      or\n      swap1\n      sstore\n      pop\n        /* \"contracts/SmartContractWallet.sol\":440:540  if(_amount > 0){... */\n      jump(tag_39)\n    tag_38:\n        /* \"contracts/SmartContractWallet.sol\":529:534  false */\n      0x00\n        /* \"contracts/SmartContractWallet.sol\":505:520  isAllowedToSend */\n      0x02\n        /* \"contracts/SmartContractWallet.sol\":505:526  isAllowedToSend[_for] */\n      0x00\n        /* \"contracts/SmartContractWallet.sol\":521:525  _for */\n      dup5\n        /* \"contracts/SmartContractWallet.sol\":505:526  isAllowedToSend[_for] */\n      0xffffffffffffffffffffffffffffffffffffffff\n      and\n      0xffffffffffffffffffffffffffffffffffffffff\n      and\n      dup2\n      mstore\n      0x20\n      add\n      swap1\n      dup2\n      mstore\n      0x20\n      add\n      0x00\n      keccak256\n      0x00\n        /* \"contracts/SmartContractWallet.sol\":505:534  isAllowedToSend[_for] = false */\n      0x0100\n      exp\n      dup2\n      sload\n      dup2\n      0xff\n      mul\n      not\n      and\n      swap1\n      dup4\n      iszero\n      iszero\n      mul\n      or\n      swap1\n      sstore\n      pop\n        /* \"contracts/SmartContractWallet.sol\":440:540  if(_amount > 0){... */\n    tag_39:\n        /* \"contracts/SmartContractWallet.sol\":273:548  function setAllowance(address _for, uint _amount) public{... */\n      pop\n      pop\n      jump\t// out\n        /* \"contracts/SmartContractWallet.sol\":116:157  mapping(address => uint) public allowance */\n    tag_24:\n      mstore(0x20, 0x01)\n      dup1\n      0x00\n      mstore\n      keccak256(0x00, 0x40)\n      0x00\n      swap2\n      pop\n      swap1\n      pop\n      sload\n      dup2\n      jump\t// out\n        /* \"contracts/SmartContractWallet.sol\":552:1214  function transfer(address payable _to, uint _amount, bytes memory _payload) public returns(bytes memory){... */\n    tag_31:\n        /* \"contracts/SmartContractWallet.sol\":643:655  bytes memory */\n      0x60\n        /* \"contracts/SmartContractWallet.sol\":685:690  owner */\n      0x00\n      dup1\n      sload\n      swap1\n      0x0100\n      exp\n      swap1\n      div\n      0xffffffffffffffffffffffffffffffffffffffff\n      and\n        /* \"contracts/SmartContractWallet.sol\":671:690  msg.sender == owner */\n      0xffffffffffffffffffffffffffffffffffffffff\n      and\n        /* \"contracts/SmartContractWallet.sol\":671:681  msg.sender */\n      caller\n        /* \"contracts/SmartContractWallet.sol\":671:690  msg.sender == owner */\n      0xffffffffffffffffffffffffffffffffffffffff\n      and\n      eq\n        /* \"contracts/SmartContractWallet.sol\":663:728  require(msg.sender == owner, \"You are not the owner, aborting!!\") */\n      tag_41\n      jumpi\n      mload(0x40)\n      0x08c379a000000000000000000000000000000000000000000000000000000000\n      dup2\n      mstore\n      0x04\n      add\n      tag_42\n      swap1\n      tag_43\n      jump\t// in\n    tag_42:\n      mload(0x40)\n      dup1\n      swap2\n      sub\n      swap1\n      revert\n    tag_41:\n        /* \"contracts/SmartContractWallet.sol\":752:757  owner */\n      0x00\n      dup1\n      sload\n      swap1\n      0x0100\n      exp\n      swap1\n      div\n      0xffffffffffffffffffffffffffffffffffffffff\n      and\n        /* \"contracts/SmartContractWallet.sol\":738:757  msg.sender != owner */\n      0xffffffffffffffffffffffffffffffffffffffff\n      and\n        /* \"contracts/SmartContractWallet.sol\":738:748  msg.sender */\n      caller\n        /* \"contracts/SmartContractWallet.sol\":738:757  msg.sender != owner */\n      0xffffffffffffffffffffffffffffffffffffffff\n      and\n      eq\n        /* \"contracts/SmartContractWallet.sol\":735:1044  if(msg.sender != owner){... */\n      tag_44\n      jumpi\n        /* \"contracts/SmartContractWallet.sol\":799:806  _amount */\n      dup3\n        /* \"contracts/SmartContractWallet.sol\":774:783  allowance */\n      0x01\n        /* \"contracts/SmartContractWallet.sol\":774:795  allowance[msg.sender] */\n      0x00\n        /* \"contracts/SmartContractWallet.sol\":784:794  msg.sender */\n      caller\n        /* \"contracts/SmartContractWallet.sol\":774:795  allowance[msg.sender] */\n      0xffffffffffffffffffffffffffffffffffffffff\n      and\n      0xffffffffffffffffffffffffffffffffffffffff\n      and\n      dup2\n      mstore\n      0x20\n      add\n      swap1\n      dup2\n      mstore\n      0x20\n      add\n      0x00\n      keccak256\n      sload\n        /* \"contracts/SmartContractWallet.sol\":774:806  allowance[msg.sender] >= _amount */\n      lt\n      iszero\n        /* \"contracts/SmartContractWallet.sol\":766:873  require(allowance[msg.sender] >= _amount,\"You are trying to send more than you are allowed to, aborting!!\") */\n      tag_45\n      jumpi\n      mload(0x40)\n      0x08c379a000000000000000000000000000000000000000000000000000000000\n      dup2\n      mstore\n      0x04\n      add\n      tag_46\n      swap1\n      tag_47\n      jump\t// in\n    tag_46:\n      mload(0x40)\n      dup1\n      swap2\n      sub\n      swap1\n      revert\n    tag_45:\n        /* \"contracts/SmartContractWallet.sol\":889:904  isAllowedToSend */\n      0x02\n        /* \"contracts/SmartContractWallet.sol\":889:916  isAllowedToSend[msg.sender] */\n      0x00\n        /* \"contracts/SmartContractWallet.sol\":905:915  msg.sender */\n      caller\n        /* \"contracts/SmartContractWallet.sol\":889:916  isAllowedToSend[msg.sender] */\n      0xffffffffffffffffffffffffffffffffffffffff\n      and\n      0xffffffffffffffffffffffffffffffffffffffff\n      and\n      dup2\n      mstore\n      0x20\n      add\n      swap1\n      dup2\n      mstore\n      0x20\n      add\n      0x00\n      keccak256\n      0x00\n      swap1\n      sload\n      swap1\n      0x0100\n      exp\n      swap1\n      div\n      0xff\n      and\n        /* \"contracts/SmartContractWallet.sol\":881:994  require(isAllowedToSend[msg.sender], \"You are not allowed to send anything from this smart contract, aborting!!\") */\n      tag_48\n      jumpi\n      mload(0x40)\n      0x08c379a000000000000000000000000000000000000000000000000000000000\n      dup2\n      mstore\n      0x04\n      add\n      tag_49\n      swap1\n      tag_50\n      jump\t// in\n    tag_49:\n      mload(0x40)\n      dup1\n      swap2\n      sub\n      swap1\n      revert\n    tag_48:\n        /* \"contracts/SmartContractWallet.sol\":1029:1036  _amount */\n      dup3\n        /* \"contracts/SmartContractWallet.sol\":1004:1013  allowance */\n      0x01\n        /* \"contracts/SmartContractWallet.sol\":1004:1025  allowance[msg.sender] */\n      0x00\n        /* \"contracts/SmartContractWallet.sol\":1014:1024  msg.sender */\n      caller\n        /* \"contracts/SmartContractWallet.sol\":1004:1025  allowance[msg.sender] */\n      0xffffffffffffffffffffffffffffffffffffffff\n      and\n      0xffffffffffffffffffffffffffffffffffffffff\n      and\n      dup2\n      mstore\n      0x20\n      add\n      swap1\n      dup2\n      mstore\n      0x20\n      add\n      0x00\n      keccak256\n      0x00\n        /* \"contracts/SmartContractWallet.sol\":1004:1036  allowance[msg.sender] -= _amount */\n      dup3\n      dup3\n      sload\n      tag_51\n      swap2\n      swap1\n      tag_52\n      jump\t// in\n    tag_51:\n      swap3\n      pop\n      pop\n      dup2\n      swap1\n      sstore\n      pop\n        /* \"contracts/SmartContractWallet.sol\":735:1044  if(msg.sender != owner){... */\n    tag_44:\n        /* \"contracts/SmartContractWallet.sol\":1052:1064  bool success */\n      0x00\n        /* \"contracts/SmartContractWallet.sol\":1066:1089  bytes memory returnData */\n      dup1\n        /* \"contracts/SmartContractWallet.sol\":1094:1097  _to */\n      dup6\n        /* \"contracts/SmartContractWallet.sol\":1094:1102  _to.call */\n      0xffffffffffffffffffffffffffffffffffffffff\n      and\n        /* \"contracts/SmartContractWallet.sol\":1110:1117  _amount */\n      dup6\n        /* \"contracts/SmartContractWallet.sol\":1119:1127  _payload */\n      dup6\n        /* \"contracts/SmartContractWallet.sol\":1094:1128  _to.call{value: _amount}(_payload) */\n      mload(0x40)\n      tag_53\n      swap2\n      swap1\n      tag_54\n      jump\t// in\n    tag_53:\n      0x00\n      mload(0x40)\n      dup1\n      dup4\n      sub\n      dup2\n      dup6\n      dup8\n      gas\n      call\n      swap3\n      pop\n      pop\n      pop\n      returndatasize\n      dup1\n      0x00\n      dup2\n      eq\n      tag_57\n      jumpi\n      mload(0x40)\n      swap2\n      pop\n      and(add(returndatasize, 0x3f), not(0x1f))\n      dup3\n      add\n      0x40\n      mstore\n      returndatasize\n      dup3\n      mstore\n      returndatasize\n      0x00\n      0x20\n      dup5\n      add\n      returndatacopy\n      jump(tag_56)\n    tag_57:\n      0x60\n      swap2\n      pop\n    tag_56:\n      pop\n        /* \"contracts/SmartContractWallet.sol\":1051:1128  (bool success, bytes memory returnData) =  _to.call{value: _amount}(_payload) */\n      swap2\n      pop\n      swap2\n      pop\n        /* \"contracts/SmartContractWallet.sol\":1142:1149  success */\n      dup2\n        /* \"contracts/SmartContractWallet.sol\":1134:1186  require(success,\"Aborting, call was not successful\") */\n      tag_58\n      jumpi\n      mload(0x40)\n      0x08c379a000000000000000000000000000000000000000000000000000000000\n      dup2\n      mstore\n      0x04\n      add\n      tag_59\n      swap1\n      tag_60\n      jump\t// in\n    tag_59:\n      mload(0x40)\n      dup1\n      swap2\n      sub\n      swap1\n      revert\n    tag_58:\n        /* \"contracts/SmartContractWallet.sol\":1200:1210  returnData */\n      dup1\n        /* \"contracts/SmartContractWallet.sol\":1192:1210  return  returnData */\n      swap3\n      pop\n      pop\n      pop\n        /* \"contracts/SmartContractWallet.sol\":552:1214  function transfer(address payable _to, uint _amount, bytes memory _payload) public returns(bytes memory){... */\n      swap4\n      swap3\n      pop\n      pop\n      pop\n      jump\t// out\n        /* \"#utility.yul\":7:82   */\n    tag_61:\n        /* \"#utility.yul\":40:46   */\n      0x00\n        /* \"#utility.yul\":73:75   */\n      0x40\n        /* \"#utility.yul\":67:76   */\n      mload\n        /* \"#utility.yul\":57:76   */\n      swap1\n      pop\n        /* \"#utility.yul\":7:82   */\n      swap1\n      jump\t// out\n        /* \"#utility.yul\":88:205   */\n    tag_62:\n        /* \"#utility.yul\":197:198   */\n      0x00\n        /* \"#utility.yul\":194:195   */\n      dup1\n        /* \"#utility.yul\":187:199   */\n      revert\n        /* \"#utility.yul\":211:328   */\n    tag_63:\n        /* \"#utility.yul\":320:321   */\n      0x00\n        /* \"#utility.yul\":317:318   */\n      dup1\n        /* \"#utility.yul\":310:322   */\n      revert\n        /* \"#utility.yul\":334:460   */\n    tag_64:\n        /* \"#utility.yul\":371:378   */\n      0x00\n        /* \"#utility.yul\":411:453   */\n      0xffffffffffffffffffffffffffffffffffffffff\n        /* \"#utility.yul\":404:409   */\n      dup3\n        /* \"#utility.yul\":400:454   */\n      and\n        /* \"#utility.yul\":389:454   */\n      swap1\n      pop\n        /* \"#utility.yul\":334:460   */\n      swap2\n      swap1\n      pop\n      jump\t// out\n        /* \"#utility.yul\":466:562   */\n    tag_65:\n        /* \"#utility.yul\":503:510   */\n      0x00\n        /* \"#utility.yul\":532:556   */\n      tag_111\n        /* \"#utility.yul\":550:555   */\n      dup3\n        /* \"#utility.yul\":532:556   */\n      tag_64\n      jump\t// in\n    tag_111:\n        /* \"#utility.yul\":521:556   */\n      swap1\n      pop\n        /* \"#utility.yul\":466:562   */\n      swap2\n      swap1\n      pop\n      jump\t// out\n        /* \"#utility.yul\":568:690   */\n    tag_66:\n        /* \"#utility.yul\":641:665   */\n      tag_113\n        /* \"#utility.yul\":659:664   */\n      dup2\n        /* \"#utility.yul\":641:665   */\n      tag_65\n      jump\t// in\n    tag_113:\n        /* \"#utility.yul\":634:639   */\n      dup2\n        /* \"#utility.yul\":631:666   */\n      eq\n        /* \"#utility.yul\":621:684   */\n      tag_114\n      jumpi\n        /* \"#utility.yul\":680:681   */\n      0x00\n        /* \"#utility.yul\":677:678   */\n      dup1\n        /* \"#utility.yul\":670:682   */\n      revert\n        /* \"#utility.yul\":621:684   */\n    tag_114:\n        /* \"#utility.yul\":568:690   */\n      pop\n      jump\t// out\n        /* \"#utility.yul\":696:835   */\n    tag_67:\n        /* \"#utility.yul\":742:747   */\n      0x00\n        /* \"#utility.yul\":780:786   */\n      dup2\n        /* \"#utility.yul\":767:787   */\n      calldataload\n        /* \"#utility.yul\":758:787   */\n      swap1\n      pop\n        /* \"#utility.yul\":796:829   */\n      tag_116\n        /* \"#utility.yul\":823:828   */\n      dup2\n        /* \"#utility.yul\":796:829   */\n      tag_66\n      jump\t// in\n    tag_116:\n        /* \"#utility.yul\":696:835   */\n      swap3\n      swap2\n      pop\n      pop\n      jump\t// out\n        /* \"#utility.yul\":841:1170   */\n    tag_12:\n        /* \"#utility.yul\":900:906   */\n      0x00\n        /* \"#utility.yul\":949:951   */\n      0x20\n        /* \"#utility.yul\":937:946   */\n      dup3\n        /* \"#utility.yul\":928:935   */\n      dup5\n        /* \"#utility.yul\":924:947   */\n      sub\n        /* \"#utility.yul\":920:952   */\n      slt\n        /* \"#utility.yul\":917:1036   */\n      iszero\n      tag_118\n      jumpi\n        /* \"#utility.yul\":955:1034   */\n      tag_119\n      tag_62\n      jump\t// in\n    tag_119:\n        /* \"#utility.yul\":917:1036   */\n    tag_118:\n        /* \"#utility.yul\":1075:1076   */\n      0x00\n        /* \"#utility.yul\":1100:1153   */\n      tag_120\n        /* \"#utility.yul\":1145:1152   */\n      dup5\n        /* \"#utility.yul\":1136:1142   */\n      dup3\n        /* \"#utility.yul\":1125:1134   */\n      dup6\n        /* \"#utility.yul\":1121:1143   */\n      add\n        /* \"#utility.yul\":1100:1153   */\n      tag_67\n      jump\t// in\n    tag_120:\n        /* \"#utility.yul\":1090:1153   */\n      swap2\n      pop\n        /* \"#utility.yul\":1046:1163   */\n      pop\n        /* \"#utility.yul\":841:1170   */\n      swap3\n      swap2\n      pop\n      pop\n      jump\t// out\n        /* \"#utility.yul\":1176:1266   */\n    tag_68:\n        /* \"#utility.yul\":1210:1217   */\n      0x00\n        /* \"#utility.yul\":1253:1258   */\n      dup2\n        /* \"#utility.yul\":1246:1259   */\n      iszero\n        /* \"#utility.yul\":1239:1260   */\n      iszero\n        /* \"#utility.yul\":1228:1260   */\n      swap1\n      pop\n        /* \"#utility.yul\":1176:1266   */\n      swap2\n      swap1\n      pop\n      jump\t// out\n        /* \"#utility.yul\":1272:1381   */\n    tag_69:\n        /* \"#utility.yul\":1353:1374   */\n      tag_123\n        /* \"#utility.yul\":1368:1373   */\n      dup2\n        /* \"#utility.yul\":1353:1374   */\n      tag_68\n      jump\t// in\n    tag_123:\n        /* \"#utility.yul\":1348:1351   */\n      dup3\n        /* \"#utility.yul\":1341:1375   */\n      mstore\n        /* \"#utility.yul\":1272:1381   */\n      pop\n      pop\n      jump\t// out\n        /* \"#utility.yul\":1387:1597   */\n    tag_15:\n        /* \"#utility.yul\":1474:1478   */\n      0x00\n        /* \"#utility.yul\":1512:1514   */\n      0x20\n        /* \"#utility.yul\":1501:1510   */\n      dup3\n        /* \"#utility.yul\":1497:1515   */\n      add\n        /* \"#utility.yul\":1489:1515   */\n      swap1\n      pop\n        /* \"#utility.yul\":1525:1590   */\n      tag_125\n        /* \"#utility.yul\":1587:1588   */\n      0x00\n        /* \"#utility.yul\":1576:1585   */\n      dup4\n        /* \"#utility.yul\":1572:1589   */\n      add\n        /* \"#utility.yul\":1563:1569   */\n      dup5\n        /* \"#utility.yul\":1525:1590   */\n      tag_69\n      jump\t// in\n    tag_125:\n        /* \"#utility.yul\":1387:1597   */\n      swap3\n      swap2\n      pop\n      pop\n      jump\t// out\n        /* \"#utility.yul\":1603:1680   */\n    tag_70:\n        /* \"#utility.yul\":1640:1647   */\n      0x00\n        /* \"#utility.yul\":1669:1674   */\n      dup2\n        /* \"#utility.yul\":1658:1674   */\n      swap1\n      pop\n        /* \"#utility.yul\":1603:1680   */\n      swap2\n      swap1\n      pop\n      jump\t// out\n        /* \"#utility.yul\":1686:1808   */\n    tag_71:\n        /* \"#utility.yul\":1759:1783   */\n      tag_128\n        /* \"#utility.yul\":1777:1782   */\n      dup2\n        /* \"#utility.yul\":1759:1783   */\n      tag_70\n      jump\t// in\n    tag_128:\n        /* \"#utility.yul\":1752:1757   */\n      dup2\n        /* \"#utility.yul\":1749:1784   */\n      eq\n        /* \"#utility.yul\":1739:1802   */\n      tag_129\n      jumpi\n        /* \"#utility.yul\":1798:1799   */\n      0x00\n        /* \"#utility.yul\":1795:1796   */\n      dup1\n        /* \"#utility.yul\":1788:1800   */\n      revert\n        /* \"#utility.yul\":1739:1802   */\n    tag_129:\n        /* \"#utility.yul\":1686:1808   */\n      pop\n      jump\t// out\n        /* \"#utility.yul\":1814:1953   */\n    tag_72:\n        /* \"#utility.yul\":1860:1865   */\n      0x00\n        /* \"#utility.yul\":1898:1904   */\n      dup2\n        /* \"#utility.yul\":1885:1905   */\n      calldataload\n        /* \"#utility.yul\":1876:1905   */\n      swap1\n      pop\n        /* \"#utility.yul\":1914:1947   */\n      tag_131\n        /* \"#utility.yul\":1941:1946   */\n      dup2\n        /* \"#utility.yul\":1914:1947   */\n      tag_71\n      jump\t// in\n    tag_131:\n        /* \"#utility.yul\":1814:1953   */\n      swap3\n      swap2\n      pop\n      pop\n      jump\t// out\n        /* \"#utility.yul\":1959:2433   */\n    tag_19:\n        /* \"#utility.yul\":2027:2033   */\n      0x00\n        /* \"#utility.yul\":2035:2041   */\n      dup1\n        /* \"#utility.yul\":2084:2086   */\n      0x40\n        /* \"#utility.yul\":2072:2081   */\n      dup4\n        /* \"#utility.yul\":2063:2070   */\n      dup6\n        /* \"#utility.yul\":2059:2082   */\n      sub\n        /* \"#utility.yul\":2055:2087   */\n      slt\n        /* \"#utility.yul\":2052:2171   */\n      iszero\n      tag_133\n      jumpi\n        /* \"#utility.yul\":2090:2169   */\n      tag_134\n      tag_62\n      jump\t// in\n    tag_134:\n        /* \"#utility.yul\":2052:2171   */\n    tag_133:\n        /* \"#utility.yul\":2210:2211   */\n      0x00\n        /* \"#utility.yul\":2235:2288   */\n      tag_135\n        /* \"#utility.yul\":2280:2287   */\n      dup6\n        /* \"#utility.yul\":2271:2277   */\n      dup3\n        /* \"#utility.yul\":2260:2269   */\n      dup7\n        /* \"#utility.yul\":2256:2278   */\n      add\n        /* \"#utility.yul\":2235:2288   */\n      tag_67\n      jump\t// in\n    tag_135:\n        /* \"#utility.yul\":2225:2288   */\n      swap3\n      pop\n        /* \"#utility.yul\":2181:2298   */\n      pop\n        /* \"#utility.yul\":2337:2339   */\n      0x20\n        /* \"#utility.yul\":2363:2416   */\n      tag_136\n        /* \"#utility.yul\":2408:2415   */\n      dup6\n        /* \"#utility.yul\":2399:2405   */\n      dup3\n        /* \"#utility.yul\":2388:2397   */\n      dup7\n        /* \"#utility.yul\":2384:2406   */\n      add\n        /* \"#utility.yul\":2363:2416   */\n      tag_72\n      jump\t// in\n    tag_136:\n        /* \"#utility.yul\":2353:2416   */\n      swap2\n      pop\n        /* \"#utility.yul\":2308:2426   */\n      pop\n        /* \"#utility.yul\":1959:2433   */\n      swap3\n      pop\n      swap3\n      swap1\n      pop\n      jump\t// out\n        /* \"#utility.yul\":2439:2557   */\n    tag_73:\n        /* \"#utility.yul\":2526:2550   */\n      tag_138\n        /* \"#utility.yul\":2544:2549   */\n      dup2\n        /* \"#utility.yul\":2526:2550   */\n      tag_70\n      jump\t// in\n    tag_138:\n        /* \"#utility.yul\":2521:2524   */\n      dup3\n        /* \"#utility.yul\":2514:2551   */\n      mstore\n        /* \"#utility.yul\":2439:2557   */\n      pop\n      pop\n      jump\t// out\n        /* \"#utility.yul\":2563:2785   */\n    tag_26:\n        /* \"#utility.yul\":2656:2660   */\n      0x00\n        /* \"#utility.yul\":2694:2696   */\n      0x20\n        /* \"#utility.yul\":2683:2692   */\n      dup3\n        /* \"#utility.yul\":2679:2697   */\n      add\n        /* \"#utility.yul\":2671:2697   */\n      swap1\n      pop\n        /* \"#utility.yul\":2707:2778   */\n      tag_140\n        /* \"#utility.yul\":2775:2776   */\n      0x00\n        /* \"#utility.yul\":2764:2773   */\n      dup4\n        /* \"#utility.yul\":2760:2777   */\n      add\n        /* \"#utility.yul\":2751:2757   */\n      dup5\n        /* \"#utility.yul\":2707:2778   */\n      tag_73\n      jump\t// in\n    tag_140:\n        /* \"#utility.yul\":2563:2785   */\n      swap3\n      swap2\n      pop\n      pop\n      jump\t// out\n        /* \"#utility.yul\":2791:2895   */\n    tag_74:\n        /* \"#utility.yul\":2836:2843   */\n      0x00\n        /* \"#utility.yul\":2865:2889   */\n      tag_142\n        /* \"#utility.yul\":2883:2888   */\n      dup3\n        /* \"#utility.yul\":2865:2889   */\n      tag_64\n      jump\t// in\n    tag_142:\n        /* \"#utility.yul\":2854:2889   */\n      swap1\n      pop\n        /* \"#utility.yul\":2791:2895   */\n      swap2\n      swap1\n      pop\n      jump\t// out\n        /* \"#utility.yul\":2901:3039   */\n    tag_75:\n        /* \"#utility.yul\":2982:3014   */\n      tag_144\n        /* \"#utility.yul\":3008:3013   */\n      dup2\n        /* \"#utility.yul\":2982:3014   */\n      tag_74\n      jump\t// in\n    tag_144:\n        /* \"#utility.yul\":2975:2980   */\n      dup2\n        /* \"#utility.yul\":2972:3015   */\n      eq\n        /* \"#utility.yul\":2962:3033   */\n      tag_145\n      jumpi\n        /* \"#utility.yul\":3029:3030   */\n      0x00\n        /* \"#utility.yul\":3026:3027   */\n      dup1\n        /* \"#utility.yul\":3019:3031   */\n      revert\n        /* \"#utility.yul\":2962:3033   */\n    tag_145:\n        /* \"#utility.yul\":2901:3039   */\n      pop\n      jump\t// out\n        /* \"#utility.yul\":3045:3200   */\n    tag_76:\n        /* \"#utility.yul\":3099:3104   */\n      0x00\n        /* \"#utility.yul\":3137:3143   */\n      dup2\n        /* \"#utility.yul\":3124:3144   */\n      calldataload\n        /* \"#utility.yul\":3115:3144   */\n      swap1\n      pop\n        /* \"#utility.yul\":3153:3194   */\n      tag_147\n        /* \"#utility.yul\":3188:3193   */\n      dup2\n        /* \"#utility.yul\":3153:3194   */\n      tag_75\n      jump\t// in\n    tag_147:\n        /* \"#utility.yul\":3045:3200   */\n      swap3\n      swap2\n      pop\n      pop\n      jump\t// out\n        /* \"#utility.yul\":3206:3323   */\n    tag_77:\n        /* \"#utility.yul\":3315:3316   */\n      0x00\n        /* \"#utility.yul\":3312:3313   */\n      dup1\n        /* \"#utility.yul\":3305:3317   */\n      revert\n        /* \"#utility.yul\":3329:3446   */\n    tag_78:\n        /* \"#utility.yul\":3438:3439   */\n      0x00\n        /* \"#utility.yul\":3435:3436   */\n      dup1\n        /* \"#utility.yul\":3428:3440   */\n      revert\n        /* \"#utility.yul\":3452:3554   */\n    tag_79:\n        /* \"#utility.yul\":3493:3499   */\n      0x00\n        /* \"#utility.yul\":3544:3546   */\n      0x1f\n        /* \"#utility.yul\":3540:3547   */\n      not\n        /* \"#utility.yul\":3535:3537   */\n      0x1f\n        /* \"#utility.yul\":3528:3533   */\n      dup4\n        /* \"#utility.yul\":3524:3538   */\n      add\n        /* \"#utility.yul\":3520:3548   */\n      and\n        /* \"#utility.yul\":3510:3548   */\n      swap1\n      pop\n        /* \"#utility.yul\":3452:3554   */\n      swap2\n      swap1\n      pop\n      jump\t// out\n        /* \"#utility.yul\":3560:3740   */\n    tag_80:\n        /* \"#utility.yul\":3608:3685   */\n      0x4e487b7100000000000000000000000000000000000000000000000000000000\n        /* \"#utility.yul\":3605:3606   */\n      0x00\n        /* \"#utility.yul\":3598:3686   */\n      mstore\n        /* \"#utility.yul\":3705:3709   */\n      0x41\n        /* \"#utility.yul\":3702:3703   */\n      0x04\n        /* \"#utility.yul\":3695:3710   */\n      mstore\n        /* \"#utility.yul\":3729:3733   */\n      0x24\n        /* \"#utility.yul\":3726:3727   */\n      0x00\n        /* \"#utility.yul\":3719:3734   */\n      revert\n        /* \"#utility.yul\":3746:4027   */\n    tag_81:\n        /* \"#utility.yul\":3829:3856   */\n      tag_153\n        /* \"#utility.yul\":3851:3855   */\n      dup3\n        /* \"#utility.yul\":3829:3856   */\n      tag_79\n      jump\t// in\n    tag_153:\n        /* \"#utility.yul\":3821:3827   */\n      dup2\n        /* \"#utility.yul\":3817:3857   */\n      add\n        /* \"#utility.yul\":3959:3965   */\n      dup2\n        /* \"#utility.yul\":3947:3957   */\n      dup2\n        /* \"#utility.yul\":3944:3966   */\n      lt\n        /* \"#utility.yul\":3923:3941   */\n      0xffffffffffffffff\n        /* \"#utility.yul\":3911:3921   */\n      dup3\n        /* \"#utility.yul\":3908:3942   */\n      gt\n        /* \"#utility.yul\":3905:3967   */\n      or\n        /* \"#utility.yul\":3902:3990   */\n      iszero\n      tag_154\n      jumpi\n        /* \"#utility.yul\":3970:3988   */\n      tag_155\n      tag_80\n      jump\t// in\n    tag_155:\n        /* \"#utility.yul\":3902:3990   */\n    tag_154:\n        /* \"#utility.yul\":4010:4020   */\n      dup1\n        /* \"#utility.yul\":4006:4008   */\n      0x40\n        /* \"#utility.yul\":3999:4021   */\n      mstore\n        /* \"#utility.yul\":3789:4027   */\n      pop\n        /* \"#utility.yul\":3746:4027   */\n      pop\n      pop\n      jump\t// out\n        /* \"#utility.yul\":4033:4162   */\n    tag_82:\n        /* \"#utility.yul\":4067:4073   */\n      0x00\n        /* \"#utility.yul\":4094:4114   */\n      tag_157\n      tag_61\n      jump\t// in\n    tag_157:\n        /* \"#utility.yul\":4084:4114   */\n      swap1\n      pop\n        /* \"#utility.yul\":4123:4156   */\n      tag_158\n        /* \"#utility.yul\":4151:4155   */\n      dup3\n        /* \"#utility.yul\":4143:4149   */\n      dup3\n        /* \"#utility.yul\":4123:4156   */\n      tag_81\n      jump\t// in\n    tag_158:\n        /* \"#utility.yul\":4033:4162   */\n      swap2\n      swap1\n      pop\n      jump\t// out\n        /* \"#utility.yul\":4168:4475   */\n    tag_83:\n        /* \"#utility.yul\":4229:4233   */\n      0x00\n        /* \"#utility.yul\":4319:4337   */\n      0xffffffffffffffff\n        /* \"#utility.yul\":4311:4317   */\n      dup3\n        /* \"#utility.yul\":4308:4338   */\n      gt\n        /* \"#utility.yul\":4305:4361   */\n      iszero\n      tag_160\n      jumpi\n        /* \"#utility.yul\":4341:4359   */\n      tag_161\n      tag_80\n      jump\t// in\n    tag_161:\n        /* \"#utility.yul\":4305:4361   */\n    tag_160:\n        /* \"#utility.yul\":4379:4408   */\n      tag_162\n        /* \"#utility.yul\":4401:4407   */\n      dup3\n        /* \"#utility.yul\":4379:4408   */\n      tag_79\n      jump\t// in\n    tag_162:\n        /* \"#utility.yul\":4371:4408   */\n      swap1\n      pop\n        /* \"#utility.yul\":4463:4467   */\n      0x20\n        /* \"#utility.yul\":4457:4461   */\n      dup2\n        /* \"#utility.yul\":4453:4468   */\n      add\n        /* \"#utility.yul\":4445:4468   */\n      swap1\n      pop\n        /* \"#utility.yul\":4168:4475   */\n      swap2\n      swap1\n      pop\n      jump\t// out\n        /* \"#utility.yul\":4481:4629   */\n    tag_84:\n        /* \"#utility.yul\":4579:4585   */\n      dup3\n        /* \"#utility.yul\":4574:4577   */\n      dup2\n        /* \"#utility.yul\":4569:4572   */\n      dup4\n        /* \"#utility.yul\":4556:4586   */\n      calldatacopy\n        /* \"#utility.yul\":4620:4621   */\n      0x00\n        /* \"#utility.yul\":4611:4617   */\n      dup4\n        /* \"#utility.yul\":4606:4609   */\n      dup4\n        /* \"#utility.yul\":4602:4618   */\n      add\n        /* \"#utility.yul\":4595:4622   */\n      mstore\n        /* \"#utility.yul\":4481:4629   */\n      pop\n      pop\n      pop\n      jump\t// out\n        /* \"#utility.yul\":4635:5058   */\n    tag_85:\n        /* \"#utility.yul\":4712:4717   */\n      0x00\n        /* \"#utility.yul\":4737:4802   */\n      tag_165\n        /* \"#utility.yul\":4753:4801   */\n      tag_166\n        /* \"#utility.yul\":4794:4800   */\n      dup5\n        /* \"#utility.yul\":4753:4801   */\n      tag_83\n      jump\t// in\n    tag_166:\n        /* \"#utility.yul\":4737:4802   */\n      tag_82\n      jump\t// in\n    tag_165:\n        /* \"#utility.yul\":4728:4802   */\n      swap1\n      pop\n        /* \"#utility.yul\":4825:4831   */\n      dup3\n        /* \"#utility.yul\":4818:4823   */\n      dup2\n        /* \"#utility.yul\":4811:4832   */\n      mstore\n        /* \"#utility.yul\":4863:4867   */\n      0x20\n        /* \"#utility.yul\":4856:4861   */\n      dup2\n        /* \"#utility.yul\":4852:4868   */\n      add\n        /* \"#utility.yul\":4901:4904   */\n      dup5\n        /* \"#utility.yul\":4892:4898   */\n      dup5\n        /* \"#utility.yul\":4887:4890   */\n      dup5\n        /* \"#utility.yul\":4883:4899   */\n      add\n        /* \"#utility.yul\":4880:4905   */\n      gt\n        /* \"#utility.yul\":4877:4989   */\n      iszero\n      tag_167\n      jumpi\n        /* \"#utility.yul\":4908:4987   */\n      tag_168\n      tag_78\n      jump\t// in\n    tag_168:\n        /* \"#utility.yul\":4877:4989   */\n    tag_167:\n        /* \"#utility.yul\":4998:5052   */\n      tag_169\n        /* \"#utility.yul\":5045:5051   */\n      dup5\n        /* \"#utility.yul\":5040:5043   */\n      dup3\n        /* \"#utility.yul\":5035:5038   */\n      dup6\n        /* \"#utility.yul\":4998:5052   */\n      tag_84\n      jump\t// in\n    tag_169:\n        /* \"#utility.yul\":4718:5058   */\n      pop\n        /* \"#utility.yul\":4635:5058   */\n      swap4\n      swap3\n      pop\n      pop\n      pop\n      jump\t// out\n        /* \"#utility.yul\":5077:5415   */\n    tag_86:\n        /* \"#utility.yul\":5132:5137   */\n      0x00\n        /* \"#utility.yul\":5181:5184   */\n      dup3\n        /* \"#utility.yul\":5174:5178   */\n      0x1f\n        /* \"#utility.yul\":5166:5172   */\n      dup4\n        /* \"#utility.yul\":5162:5179   */\n      add\n        /* \"#utility.yul\":5158:5185   */\n      slt\n        /* \"#utility.yul\":5148:5270   */\n      tag_171\n      jumpi\n        /* \"#utility.yul\":5189:5268   */\n      tag_172\n      tag_77\n      jump\t// in\n    tag_172:\n        /* \"#utility.yul\":5148:5270   */\n    tag_171:\n        /* \"#utility.yul\":5306:5312   */\n      dup2\n        /* \"#utility.yul\":5293:5313   */\n      calldataload\n        /* \"#utility.yul\":5331:5409   */\n      tag_173\n        /* \"#utility.yul\":5405:5408   */\n      dup5\n        /* \"#utility.yul\":5397:5403   */\n      dup3\n        /* \"#utility.yul\":5390:5394   */\n      0x20\n        /* \"#utility.yul\":5382:5388   */\n      dup7\n        /* \"#utility.yul\":5378:5395   */\n      add\n        /* \"#utility.yul\":5331:5409   */\n      tag_85\n      jump\t// in\n    tag_173:\n        /* \"#utility.yul\":5322:5409   */\n      swap2\n      pop\n        /* \"#utility.yul\":5138:5415   */\n      pop\n        /* \"#utility.yul\":5077:5415   */\n      swap3\n      swap2\n      pop\n      pop\n      jump\t// out\n        /* \"#utility.yul\":5421:6234   */\n    tag_30:\n        /* \"#utility.yul\":5515:5521   */\n      0x00\n        /* \"#utility.yul\":5523:5529   */\n      dup1\n        /* \"#utility.yul\":5531:5537   */\n      0x00\n        /* \"#utility.yul\":5580:5582   */\n      0x60\n        /* \"#utility.yul\":5568:5577   */\n      dup5\n        /* \"#utility.yul\":5559:5566   */\n      dup7\n        /* \"#utility.yul\":5555:5578   */\n      sub\n        /* \"#utility.yul\":5551:5583   */\n      slt\n        /* \"#utility.yul\":5548:5667   */\n      iszero\n      tag_175\n      jumpi\n        /* \"#utility.yul\":5586:5665   */\n      tag_176\n      tag_62\n      jump\t// in\n    tag_176:\n        /* \"#utility.yul\":5548:5667   */\n    tag_175:\n        /* \"#utility.yul\":5706:5707   */\n      0x00\n        /* \"#utility.yul\":5731:5792   */\n      tag_177\n        /* \"#utility.yul\":5784:5791   */\n      dup7\n        /* \"#utility.yul\":5775:5781   */\n      dup3\n        /* \"#utility.yul\":5764:5773   */\n      dup8\n        /* \"#utility.yul\":5760:5782   */\n      add\n        /* \"#utility.yul\":5731:5792   */\n      tag_76\n      jump\t// in\n    tag_177:\n        /* \"#utility.yul\":5721:5792   */\n      swap4\n      pop\n        /* \"#utility.yul\":5677:5802   */\n      pop\n        /* \"#utility.yul\":5841:5843   */\n      0x20\n        /* \"#utility.yul\":5867:5920   */\n      tag_178\n        /* \"#utility.yul\":5912:5919   */\n      dup7\n        /* \"#utility.yul\":5903:5909   */\n      dup3\n        /* \"#utility.yul\":5892:5901   */\n      dup8\n        /* \"#utility.yul\":5888:5910   */\n      add\n        /* \"#utility.yul\":5867:5920   */\n      tag_72\n      jump\t// in\n    tag_178:\n        /* \"#utility.yul\":5857:5920   */\n      swap3\n      pop\n        /* \"#utility.yul\":5812:5930   */\n      pop\n        /* \"#utility.yul\":5997:5999   */\n      0x40\n        /* \"#utility.yul\":5986:5995   */\n      dup5\n        /* \"#utility.yul\":5982:6000   */\n      add\n        /* \"#utility.yul\":5969:6001   */\n      calldataload\n        /* \"#utility.yul\":6028:6046   */\n      0xffffffffffffffff\n        /* \"#utility.yul\":6020:6026   */\n      dup2\n        /* \"#utility.yul\":6017:6047   */\n      gt\n        /* \"#utility.yul\":6014:6131   */\n      iszero\n      tag_179\n      jumpi\n        /* \"#utility.yul\":6050:6129   */\n      tag_180\n      tag_63\n      jump\t// in\n    tag_180:\n        /* \"#utility.yul\":6014:6131   */\n    tag_179:\n        /* \"#utility.yul\":6155:6217   */\n      tag_181\n        /* \"#utility.yul\":6209:6216   */\n      dup7\n        /* \"#utility.yul\":6200:6206   */\n      dup3\n        /* \"#utility.yul\":6189:6198   */\n      dup8\n        /* \"#utility.yul\":6185:6207   */\n      add\n        /* \"#utility.yul\":6155:6217   */\n      tag_86\n      jump\t// in\n    tag_181:\n        /* \"#utility.yul\":6145:6217   */\n      swap2\n      pop\n        /* \"#utility.yul\":5940:6227   */\n      pop\n        /* \"#utility.yul\":5421:6234   */\n      swap3\n      pop\n      swap3\n      pop\n      swap3\n      jump\t// out\n        /* \"#utility.yul\":6240:6338   */\n    tag_87:\n        /* \"#utility.yul\":6291:6297   */\n      0x00\n        /* \"#utility.yul\":6325:6330   */\n      dup2\n        /* \"#utility.yul\":6319:6331   */\n      mload\n        /* \"#utility.yul\":6309:6331   */\n      swap1\n      pop\n        /* \"#utility.yul\":6240:6338   */\n      swap2\n      swap1\n      pop\n      jump\t// out\n        /* \"#utility.yul\":6344:6512   */\n    tag_88:\n        /* \"#utility.yul\":6427:6438   */\n      0x00\n        /* \"#utility.yul\":6461:6467   */\n      dup3\n        /* \"#utility.yul\":6456:6459   */\n      dup3\n        /* \"#utility.yul\":6449:6468   */\n      mstore\n        /* \"#utility.yul\":6501:6505   */\n      0x20\n        /* \"#utility.yul\":6496:6499   */\n      dup3\n        /* \"#utility.yul\":6492:6506   */\n      add\n        /* \"#utility.yul\":6477:6506   */\n      swap1\n      pop\n        /* \"#utility.yul\":6344:6512   */\n      swap3\n      swap2\n      pop\n      pop\n      jump\t// out\n        /* \"#utility.yul\":6518:6657   */\n    tag_89:\n        /* \"#utility.yul\":6607:6613   */\n      dup3\n        /* \"#utility.yul\":6602:6605   */\n      dup2\n        /* \"#utility.yul\":6597:6600   */\n      dup4\n        /* \"#utility.yul\":6591:6614   */\n      mcopy\n        /* \"#utility.yul\":6648:6649   */\n      0x00\n        /* \"#utility.yul\":6639:6645   */\n      dup4\n        /* \"#utility.yul\":6634:6637   */\n      dup4\n        /* \"#utility.yul\":6630:6646   */\n      add\n        /* \"#utility.yul\":6623:6650   */\n      mstore\n        /* \"#utility.yul\":6518:6657   */\n      pop\n      pop\n      pop\n      jump\t// out\n        /* \"#utility.yul\":6663:7036   */\n    tag_90:\n        /* \"#utility.yul\":6749:6752   */\n      0x00\n        /* \"#utility.yul\":6777:6815   */\n      tag_186\n        /* \"#utility.yul\":6809:6814   */\n      dup3\n        /* \"#utility.yul\":6777:6815   */\n      tag_87\n      jump\t// in\n    tag_186:\n        /* \"#utility.yul\":6831:6901   */\n      tag_187\n        /* \"#utility.yul\":6894:6900   */\n      dup2\n        /* \"#utility.yul\":6889:6892   */\n      dup6\n        /* \"#utility.yul\":6831:6901   */\n      tag_88\n      jump\t// in\n    tag_187:\n        /* \"#utility.yul\":6824:6901   */\n      swap4\n      pop\n        /* \"#utility.yul\":6910:6975   */\n      tag_188\n        /* \"#utility.yul\":6968:6974   */\n      dup2\n        /* \"#utility.yul\":6963:6966   */\n      dup6\n        /* \"#utility.yul\":6956:6960   */\n      0x20\n        /* \"#utility.yul\":6949:6954   */\n      dup7\n        /* \"#utility.yul\":6945:6961   */\n      add\n        /* \"#utility.yul\":6910:6975   */\n      tag_89\n      jump\t// in\n    tag_188:\n        /* \"#utility.yul\":7000:7029   */\n      tag_189\n        /* \"#utility.yul\":7022:7028   */\n      dup2\n        /* \"#utility.yul\":7000:7029   */\n      tag_79\n      jump\t// in\n    tag_189:\n        /* \"#utility.yul\":6995:6998   */\n      dup5\n        /* \"#utility.yul\":6991:7030   */\n      add\n        /* \"#utility.yul\":6984:7030   */\n      swap2\n      pop\n        /* \"#utility.yul\":6753:7036   */\n      pop\n        /* \"#utility.yul\":6663:7036   */\n      swap3\n      swap2\n      pop\n      pop\n      jump\t// out\n        /* \"#utility.yul\":7042:7351   */\n    tag_33:\n        /* \"#utility.yul\":7153:7157   */\n      0x00\n        /* \"#utility.yul\":7191:7193   */\n      0x20\n        /* \"#utility.yul\":7180:7189   */\n      dup3\n        /* \"#utility.yul\":7176:7194   */\n      add\n        /* \"#utility.yul\":7168:7194   */\n      swap1\n      pop\n        /* \"#utility.yul\":7240:7249   */\n      dup2\n        /* \"#utility.yul\":7234:7238   */\n      dup2\n        /* \"#utility.yul\":7230:7250   */\n      sub\n        /* \"#utility.yul\":7226:7227   */\n      0x00\n        /* \"#utility.yul\":7215:7224   */\n      dup4\n        /* \"#utility.yul\":7211:7228   */\n      add\n        /* \"#utility.yul\":7204:7251   */\n      mstore\n        /* \"#utility.yul\":7268:7344   */\n      tag_191\n        /* \"#utility.yul\":7339:7343   */\n      dup2\n        /* \"#utility.yul\":7330:7336   */\n      dup5\n        /* \"#utility.yul\":7268:7344   */\n      tag_90\n      jump\t// in\n    tag_191:\n        /* \"#utility.yul\":7260:7344   */\n      swap1\n      pop\n        /* \"#utility.yul\":7042:7351   */\n      swap3\n      swap2\n      pop\n      pop\n      jump\t// out\n        /* \"#utility.yul\":7357:7526   */\n    tag_91:\n        /* \"#utility.yul\":7441:7452   */\n      0x00\n        /* \"#utility.yul\":7475:7481   */\n      dup3\n        /* \"#utility.yul\":7470:7473   */\n      dup3\n        /* \"#utility.yul\":7463:7482   */\n      mstore\n        /* \"#utility.yul\":7515:7519   */\n      0x20\n        /* \"#utility.yul\":7510:7513   */\n      dup3\n        /* \"#utility.yul\":7506:7520   */\n      add\n        /* \"#utility.yul\":7491:7520   */\n      swap1\n      pop\n        /* \"#utility.yul\":7357:7526   */\n      swap3\n      swap2\n      pop\n      pop\n      jump\t// out\n        /* \"#utility.yul\":7532:7713   */\n    tag_92:\n        /* \"#utility.yul\":7672:7705   */\n      0x596f7520617265206e6f7420746865206f776e65722c2061626f7274696e6700\n        /* \"#utility.yul\":7668:7669   */\n      0x00\n        /* \"#utility.yul\":7660:7666   */\n      dup3\n        /* \"#utility.yul\":7656:7670   */\n      add\n        /* \"#utility.yul\":7649:7706   */\n      mstore\n        /* \"#utility.yul\":7532:7713   */\n      pop\n      jump\t// out\n        /* \"#utility.yul\":7719:8085   */\n    tag_93:\n        /* \"#utility.yul\":7861:7864   */\n      0x00\n        /* \"#utility.yul\":7882:7949   */\n      tag_195\n        /* \"#utility.yul\":7946:7948   */\n      0x1f\n        /* \"#utility.yul\":7941:7944   */\n      dup4\n        /* \"#utility.yul\":7882:7949   */\n      tag_91\n      jump\t// in\n    tag_195:\n        /* \"#utility.yul\":7875:7949   */\n      swap2\n      pop\n        /* \"#utility.yul\":7958:8051   */\n      tag_196\n        /* \"#utility.yul\":8047:8050   */\n      dup3\n        /* \"#utility.yul\":7958:8051   */\n      tag_92\n      jump\t// in\n    tag_196:\n        /* \"#utility.yul\":8076:8078   */\n      0x20\n        /* \"#utility.yul\":8071:8074   */\n      dup3\n        /* \"#utility.yul\":8067:8079   */\n      add\n        /* \"#utility.yul\":8060:8079   */\n      swap1\n      pop\n        /* \"#utility.yul\":7719:8085   */\n      swap2\n      swap1\n      pop\n      jump\t// out\n        /* \"#utility.yul\":8091:8510   */\n    tag_37:\n        /* \"#utility.yul\":8257:8261   */\n      0x00\n        /* \"#utility.yul\":8295:8297   */\n      0x20\n        /* \"#utility.yul\":8284:8293   */\n      dup3\n        /* \"#utility.yul\":8280:8298   */\n      add\n        /* \"#utility.yul\":8272:8298   */\n      swap1\n      pop\n        /* \"#utility.yul\":8344:8353   */\n      dup2\n        /* \"#utility.yul\":8338:8342   */\n      dup2\n        /* \"#utility.yul\":8334:8354   */\n      sub\n        /* \"#utility.yul\":8330:8331   */\n      0x00\n        /* \"#utility.yul\":8319:8328   */\n      dup4\n        /* \"#utility.yul\":8315:8332   */\n      add\n        /* \"#utility.yul\":8308:8355   */\n      mstore\n        /* \"#utility.yul\":8372:8503   */\n      tag_198\n        /* \"#utility.yul\":8498:8502   */\n      dup2\n        /* \"#utility.yul\":8372:8503   */\n      tag_93\n      jump\t// in\n    tag_198:\n        /* \"#utility.yul\":8364:8503   */\n      swap1\n      pop\n        /* \"#utility.yul\":8091:8510   */\n      swap2\n      swap1\n      pop\n      jump\t// out\n        /* \"#utility.yul\":8516:8736   */\n    tag_94:\n        /* \"#utility.yul\":8656:8690   */\n      0x596f7520617265206e6f7420746865206f776e65722c2061626f7274696e6721\n        /* \"#utility.yul\":8652:8653   */\n      0x00\n        /* \"#utility.yul\":8644:8650   */\n      dup3\n        /* \"#utility.yul\":8640:8654   */\n      add\n        /* \"#utility.yul\":8633:8691   */\n      mstore\n        /* \"#utility.yul\":8725:8728   */\n      0x2100000000000000000000000000000000000000000000000000000000000000\n        /* \"#utility.yul\":8720:8722   */\n      0x20\n        /* \"#utility.yul\":8712:8718   */\n      dup3\n        /* \"#utility.yul\":8708:8723   */\n      add\n        /* \"#utility.yul\":8701:8729   */\n      mstore\n        /* \"#utility.yul\":8516:8736   */\n      pop\n      jump\t// out\n        /* \"#utility.yul\":8742:9108   */\n    tag_95:\n        /* \"#utility.yul\":8884:8887   */\n      0x00\n        /* \"#utility.yul\":8905:8972   */\n      tag_201\n        /* \"#utility.yul\":8969:8971   */\n      0x21\n        /* \"#utility.yul\":8964:8967   */\n      dup4\n        /* \"#utility.yul\":8905:8972   */\n      tag_91\n      jump\t// in\n    tag_201:\n        /* \"#utility.yul\":8898:8972   */\n      swap2\n      pop\n        /* \"#utility.yul\":8981:9074   */\n      tag_202\n        /* \"#utility.yul\":9070:9073   */\n      dup3\n        /* \"#utility.yul\":8981:9074   */\n      tag_94\n      jump\t// in\n    tag_202:\n        /* \"#utility.yul\":9099:9101   */\n      0x40\n        /* \"#utility.yul\":9094:9097   */\n      dup3\n        /* \"#utility.yul\":9090:9102   */\n      add\n        /* \"#utility.yul\":9083:9102   */\n      swap1\n      pop\n        /* \"#utility.yul\":8742:9108   */\n      swap2\n      swap1\n      pop\n      jump\t// out\n        /* \"#utility.yul\":9114:9533   */\n    tag_43:\n        /* \"#utility.yul\":9280:9284   */\n      0x00\n        /* \"#utility.yul\":9318:9320   */\n      0x20\n        /* \"#utility.yul\":9307:9316   */\n      dup3\n        /* \"#utility.yul\":9303:9321   */\n      add\n        /* \"#utility.yul\":9295:9321   */\n      swap1\n      pop\n        /* \"#utility.yul\":9367:9376   */\n      dup2\n        /* \"#utility.yul\":9361:9365   */\n      dup2\n        /* \"#utility.yul\":9357:9377   */\n      sub\n        /* \"#utility.yul\":9353:9354   */\n      0x00\n        /* \"#utility.yul\":9342:9351   */\n      dup4\n        /* \"#utility.yul\":9338:9355   */\n      add\n        /* \"#utility.yul\":9331:9378   */\n      mstore\n        /* \"#utility.yul\":9395:9526   */\n      tag_204\n        /* \"#utility.yul\":9521:9525   */\n      dup2\n        /* \"#utility.yul\":9395:9526   */\n      tag_95\n      jump\t// in\n    tag_204:\n        /* \"#utility.yul\":9387:9526   */\n      swap1\n      pop\n        /* \"#utility.yul\":9114:9533   */\n      swap2\n      swap1\n      pop\n      jump\t// out\n        /* \"#utility.yul\":9539:9789   */\n    tag_96:\n        /* \"#utility.yul\":9679:9713   */\n      0x596f752061726520747279696e6720746f2073656e64206d6f7265207468616e\n        /* \"#utility.yul\":9675:9676   */\n      0x00\n        /* \"#utility.yul\":9667:9673   */\n      dup3\n        /* \"#utility.yul\":9663:9677   */\n      add\n        /* \"#utility.yul\":9656:9714   */\n      mstore\n        /* \"#utility.yul\":9748:9781   */\n      0x20796f752061726520616c6c6f77656420746f2c2061626f7274696e67212100\n        /* \"#utility.yul\":9743:9745   */\n      0x20\n        /* \"#utility.yul\":9735:9741   */\n      dup3\n        /* \"#utility.yul\":9731:9746   */\n      add\n        /* \"#utility.yul\":9724:9782   */\n      mstore\n        /* \"#utility.yul\":9539:9789   */\n      pop\n      jump\t// out\n        /* \"#utility.yul\":9795:10161   */\n    tag_97:\n        /* \"#utility.yul\":9937:9940   */\n      0x00\n        /* \"#utility.yul\":9958:10025   */\n      tag_207\n        /* \"#utility.yul\":10022:10024   */\n      0x3f\n        /* \"#utility.yul\":10017:10020   */\n      dup4\n        /* \"#utility.yul\":9958:10025   */\n      tag_91\n      jump\t// in\n    tag_207:\n        /* \"#utility.yul\":9951:10025   */\n      swap2\n      pop\n        /* \"#utility.yul\":10034:10127   */\n      tag_208\n        /* \"#utility.yul\":10123:10126   */\n      dup3\n        /* \"#utility.yul\":10034:10127   */\n      tag_96\n      jump\t// in\n    tag_208:\n        /* \"#utility.yul\":10152:10154   */\n      0x40\n        /* \"#utility.yul\":10147:10150   */\n      dup3\n        /* \"#utility.yul\":10143:10155   */\n      add\n        /* \"#utility.yul\":10136:10155   */\n      swap1\n      pop\n        /* \"#utility.yul\":9795:10161   */\n      swap2\n      swap1\n      pop\n      jump\t// out\n        /* \"#utility.yul\":10167:10586   */\n    tag_47:\n        /* \"#utility.yul\":10333:10337   */\n      0x00\n        /* \"#utility.yul\":10371:10373   */\n      0x20\n        /* \"#utility.yul\":10360:10369   */\n      dup3\n        /* \"#utility.yul\":10356:10374   */\n      add\n        /* \"#utility.yul\":10348:10374   */\n      swap1\n      pop\n        /* \"#utility.yul\":10420:10429   */\n      dup2\n        /* \"#utility.yul\":10414:10418   */\n      dup2\n        /* \"#utility.yul\":10410:10430   */\n      sub\n        /* \"#utility.yul\":10406:10407   */\n      0x00\n        /* \"#utility.yul\":10395:10404   */\n      dup4\n        /* \"#utility.yul\":10391:10408   */\n      add\n        /* \"#utility.yul\":10384:10431   */\n      mstore\n        /* \"#utility.yul\":10448:10579   */\n      tag_210\n        /* \"#utility.yul\":10574:10578   */\n      dup2\n        /* \"#utility.yul\":10448:10579   */\n      tag_97\n      jump\t// in\n    tag_210:\n        /* \"#utility.yul\":10440:10579   */\n      swap1\n      pop\n        /* \"#utility.yul\":10167:10586   */\n      swap2\n      swap1\n      pop\n      jump\t// out\n        /* \"#utility.yul\":10592:10889   */\n    tag_98:\n        /* \"#utility.yul\":10732:10766   */\n      0x596f7520617265206e6f7420616c6c6f77656420746f2073656e6420616e7974\n        /* \"#utility.yul\":10728:10729   */\n      0x00\n        /* \"#utility.yul\":10720:10726   */\n      dup3\n        /* \"#utility.yul\":10716:10730   */\n      add\n        /* \"#utility.yul\":10709:10767   */\n      mstore\n        /* \"#utility.yul\":10801:10835   */\n      0x68696e672066726f6d207468697320736d61727420636f6e74726163742c2061\n        /* \"#utility.yul\":10796:10798   */\n      0x20\n        /* \"#utility.yul\":10788:10794   */\n      dup3\n        /* \"#utility.yul\":10784:10799   */\n      add\n        /* \"#utility.yul\":10777:10836   */\n      mstore\n        /* \"#utility.yul\":10870:10881   */\n      0x626f7274696e6721210000000000000000000000000000000000000000000000\n        /* \"#utility.yul\":10865:10867   */\n      0x40\n        /* \"#utility.yul\":10857:10863   */\n      dup3\n        /* \"#utility.yul\":10853:10868   */\n      add\n        /* \"#utility.yul\":10846:10882   */\n      mstore\n        /* \"#utility.yul\":10592:10889   */\n      pop\n      jump\t// out\n        /* \"#utility.yul\":10895:11261   */\n    tag_99:\n        /* \"#utility.yul\":11037:11040   */\n      0x00\n        /* \"#utility.yul\":11058:11125   */\n      tag_213\n        /* \"#utility.yul\":11122:11124   */\n      0x49\n        /* \"#utility.yul\":11117:11120   */\n      dup4\n        /* \"#utility.yul\":11058:11125   */\n      tag_91\n      jump\t// in\n    tag_213:\n        /* \"#utility.yul\":11051:11125   */\n      swap2\n      pop\n        /* \"#utility.yul\":11134:11227   */\n      tag_214\n        /* \"#utility.yul\":11223:11226   */\n      dup3\n        /* \"#utility.yul\":11134:11227   */\n      tag_98\n      jump\t// in\n    tag_214:\n        /* \"#utility.yul\":11252:11254   */\n      0x60\n        /* \"#utility.yul\":11247:11250   */\n      dup3\n        /* \"#utility.yul\":11243:11255   */\n      add\n        /* \"#utility.yul\":11236:11255   */\n      swap1\n      pop\n        /* \"#utility.yul\":10895:11261   */\n      swap2\n      swap1\n      pop\n      jump\t// out\n        /* \"#utility.yul\":11267:11686   */\n    tag_50:\n        /* \"#utility.yul\":11433:11437   */\n      0x00\n        /* \"#utility.yul\":11471:11473   */\n      0x20\n        /* \"#utility.yul\":11460:11469   */\n      dup3\n        /* \"#utility.yul\":11456:11474   */\n      add\n        /* \"#utility.yul\":11448:11474   */\n      swap1\n      pop\n        /* \"#utility.yul\":11520:11529   */\n      dup2\n        /* \"#utility.yul\":11514:11518   */\n      dup2\n        /* \"#utility.yul\":11510:11530   */\n      sub\n        /* \"#utility.yul\":11506:11507   */\n      0x00\n        /* \"#utility.yul\":11495:11504   */\n      dup4\n        /* \"#utility.yul\":11491:11508   */\n      add\n        /* \"#utility.yul\":11484:11531   */\n      mstore\n        /* \"#utility.yul\":11548:11679   */\n      tag_216\n        /* \"#utility.yul\":11674:11678   */\n      dup2\n        /* \"#utility.yul\":11548:11679   */\n      tag_99\n      jump\t// in\n    tag_216:\n        /* \"#utility.yul\":11540:11679   */\n      swap1\n      pop\n        /* \"#utility.yul\":11267:11686   */\n      swap2\n      swap1\n      pop\n      jump\t// out\n        /* \"#utility.yul\":11692:11872   */\n    tag_100:\n        /* \"#utility.yul\":11740:11817   */\n      0x4e487b7100000000000000000000000000000000000000000000000000000000\n        /* \"#utility.yul\":11737:11738   */\n      0x00\n        /* \"#utility.yul\":11730:11818   */\n      mstore\n        /* \"#utility.yul\":11837:11841   */\n      0x11\n        /* \"#utility.yul\":11834:11835   */\n      0x04\n        /* \"#utility.yul\":11827:11842   */\n      mstore\n        /* \"#utility.yul\":11861:11865   */\n      0x24\n        /* \"#utility.yul\":11858:11859   */\n      0x00\n        /* \"#utility.yul\":11851:11866   */\n      revert\n        /* \"#utility.yul\":11878:12072   */\n    tag_52:\n        /* \"#utility.yul\":11918:11922   */\n      0x00\n        /* \"#utility.yul\":11938:11958   */\n      tag_219\n        /* \"#utility.yul\":11956:11957   */\n      dup3\n        /* \"#utility.yul\":11938:11958   */\n      tag_70\n      jump\t// in\n    tag_219:\n        /* \"#utility.yul\":11933:11958   */\n      swap2\n      pop\n        /* \"#utility.yul\":11972:11992   */\n      tag_220\n        /* \"#utility.yul\":11990:11991   */\n      dup4\n        /* \"#utility.yul\":11972:11992   */\n      tag_70\n      jump\t// in\n    tag_220:\n        /* \"#utility.yul\":11967:11992   */\n      swap3\n      pop\n        /* \"#utility.yul\":12016:12017   */\n      dup3\n        /* \"#utility.yul\":12013:12014   */\n      dup3\n        /* \"#utility.yul\":12009:12018   */\n      sub\n        /* \"#utility.yul\":12001:12018   */\n      swap1\n      pop\n        /* \"#utility.yul\":12040:12041   */\n      dup2\n        /* \"#utility.yul\":12034:12038   */\n      dup2\n        /* \"#utility.yul\":12031:12042   */\n      gt\n        /* \"#utility.yul\":12028:12065   */\n      iszero\n      tag_221\n      jumpi\n        /* \"#utility.yul\":12045:12063   */\n      tag_222\n      tag_100\n      jump\t// in\n    tag_222:\n        /* \"#utility.yul\":12028:12065   */\n    tag_221:\n        /* \"#utility.yul\":11878:12072   */\n      swap3\n      swap2\n      pop\n      pop\n      jump\t// out\n        /* \"#utility.yul\":12078:12225   */\n    tag_101:\n        /* \"#utility.yul\":12179:12190   */\n      0x00\n        /* \"#utility.yul\":12216:12219   */\n      dup2\n        /* \"#utility.yul\":12201:12219   */\n      swap1\n      pop\n        /* \"#utility.yul\":12078:12225   */\n      swap3\n      swap2\n      pop\n      pop\n      jump\t// out\n        /* \"#utility.yul\":12231:12617   */\n    tag_102:\n        /* \"#utility.yul\":12335:12338   */\n      0x00\n        /* \"#utility.yul\":12363:12401   */\n      tag_225\n        /* \"#utility.yul\":12395:12400   */\n      dup3\n        /* \"#utility.yul\":12363:12401   */\n      tag_87\n      jump\t// in\n    tag_225:\n        /* \"#utility.yul\":12417:12505   */\n      tag_226\n        /* \"#utility.yul\":12498:12504   */\n      dup2\n        /* \"#utility.yul\":12493:12496   */\n      dup6\n        /* \"#utility.yul\":12417:12505   */\n      tag_101\n      jump\t// in\n    tag_226:\n        /* \"#utility.yul\":12410:12505   */\n      swap4\n      pop\n        /* \"#utility.yul\":12514:12579   */\n      tag_227\n        /* \"#utility.yul\":12572:12578   */\n      dup2\n        /* \"#utility.yul\":12567:12570   */\n      dup6\n        /* \"#utility.yul\":12560:12564   */\n      0x20\n        /* \"#utility.yul\":12553:12558   */\n      dup7\n        /* \"#utility.yul\":12549:12565   */\n      add\n        /* \"#utility.yul\":12514:12579   */\n      tag_89\n      jump\t// in\n    tag_227:\n        /* \"#utility.yul\":12604:12610   */\n      dup1\n        /* \"#utility.yul\":12599:12602   */\n      dup5\n        /* \"#utility.yul\":12595:12611   */\n      add\n        /* \"#utility.yul\":12588:12611   */\n      swap2\n      pop\n        /* \"#utility.yul\":12339:12617   */\n      pop\n        /* \"#utility.yul\":12231:12617   */\n      swap3\n      swap2\n      pop\n      pop\n      jump\t// out\n        /* \"#utility.yul\":12623:12894   */\n    tag_54:\n        /* \"#utility.yul\":12753:12756   */\n      0x00\n        /* \"#utility.yul\":12775:12868   */\n      tag_229\n        /* \"#utility.yul\":12864:12867   */\n      dup3\n        /* \"#utility.yul\":12855:12861   */\n      dup5\n        /* \"#utility.yul\":12775:12868   */\n      tag_102\n      jump\t// in\n    tag_229:\n        /* \"#utility.yul\":12768:12868   */\n      swap2\n      pop\n        /* \"#utility.yul\":12885:12888   */\n      dup2\n        /* \"#utility.yul\":12878:12888   */\n      swap1\n      pop\n        /* \"#utility.yul\":12623:12894   */\n      swap3\n      swap2\n      pop\n      pop\n      jump\t// out\n        /* \"#utility.yul\":12900:13120   */\n    tag_103:\n        /* \"#utility.yul\":13040:13074   */\n      0x41626f7274696e672c2063616c6c20776173206e6f7420737563636573736675\n        /* \"#utility.yul\":13036:13037   */\n      0x00\n        /* \"#utility.yul\":13028:13034   */\n      dup3\n        /* \"#utility.yul\":13024:13038   */\n      add\n        /* \"#utility.yul\":13017:13075   */\n      mstore\n        /* \"#utility.yul\":13109:13112   */\n      0x6c00000000000000000000000000000000000000000000000000000000000000\n        /* \"#utility.yul\":13104:13106   */\n      0x20\n        /* \"#utility.yul\":13096:13102   */\n      dup3\n        /* \"#utility.yul\":13092:13107   */\n      add\n        /* \"#utility.yul\":13085:13113   */\n      mstore\n        /* \"#utility.yul\":12900:13120   */\n      pop\n      jump\t// out\n        /* \"#utility.yul\":13126:13492   */\n    tag_104:\n        /* \"#utility.yul\":13268:13271   */\n      0x00\n        /* \"#utility.yul\":13289:13356   */\n      tag_232\n        /* \"#utility.yul\":13353:13355   */\n      0x21\n        /* \"#utility.yul\":13348:13351   */\n      dup4\n        /* \"#utility.yul\":13289:13356   */\n      tag_91\n      jump\t// in\n    tag_232:\n        /* \"#utility.yul\":13282:13356   */\n      swap2\n      pop\n        /* \"#utility.yul\":13365:13458   */\n      tag_233\n        /* \"#utility.yul\":13454:13457   */\n      dup3\n        /* \"#utility.yul\":13365:13458   */\n      tag_103\n      jump\t// in\n    tag_233:\n        /* \"#utility.yul\":13483:13485   */\n      0x40\n        /* \"#utility.yul\":13478:13481   */\n      dup3\n        /* \"#utility.yul\":13474:13486   */\n      add\n        /* \"#utility.yul\":13467:13486   */\n      swap1\n      pop\n        /* \"#utility.yul\":13126:13492   */\n      swap2\n      swap1\n      pop\n      jump\t// out\n        /* \"#utility.yul\":13498:13917   */\n    tag_60:\n        /* \"#utility.yul\":13664:13668   */\n      0x00\n        /* \"#utility.yul\":13702:13704   */\n      0x20\n        /* \"#utility.yul\":13691:13700   */\n      dup3\n        /* \"#utility.yul\":13687:13705   */\n      add\n        /* \"#utility.yul\":13679:13705   */\n      swap1\n      pop\n        /* \"#utility.yul\":13751:13760   */\n      dup2\n        /* \"#utility.yul\":13745:13749   */\n      dup2\n        /* \"#utility.yul\":13741:13761   */\n      sub\n        /* \"#utility.yul\":13737:13738   */\n      0x00\n        /* \"#utility.yul\":13726:13735   */\n      dup4\n        /* \"#utility.yul\":13722:13739   */\n      add\n        /* \"#utility.yul\":13715:13762   */\n      mstore\n        /* \"#utility.yul\":13779:13910   */\n      tag_235\n        /* \"#utility.yul\":13905:13909   */\n      dup2\n        /* \"#utility.yul\":13779:13910   */\n      tag_104\n      jump\t// in\n    tag_235:\n        /* \"#utility.yul\":13771:13910   */\n      swap1\n      pop\n        /* \"#utility.yul\":13498:13917   */\n      swap2\n      swap1\n      pop\n      jump\t// out\n\n    auxdata: 0xa2646970667358221220cae46ba46f2056345bc1d5a06ea345a07d4d2c4c67384c893aa9faabf7bcb1be64736f6c634300081a0033\n}\n",
				"bytecode": {
					"linkReferences": {},
					"object": "6080604052348015600e575f80fd5b50335f806101000a81548173ffffffffffffffffffffffffffffffffffffffff021916908373ffffffffffffffffffffffffffffffffffffffff160217905550610d5c8061005b5f395ff3fe608060405260043610610042575f3560e01c80630bc605ad1461004d578063310ec4a7146100895780633e5beab9146100b1578063be45fd62146100ed57610049565b3661004957005b5f80fd5b348015610058575f80fd5b50610073600480360381019061006e9190610646565b610129565b604051610080919061068b565b60405180910390f35b348015610094575f80fd5b506100af60048036038101906100aa91906106d7565b610146565b005b3480156100bc575f80fd5b506100d760048036038101906100d29190610646565b6102d0565b6040516100e49190610724565b60405180910390f35b3480156100f8575f80fd5b50610113600480360381019061010e91906108b4565b6102e5565b6040516101209190610980565b60405180910390f35b6002602052805f5260405f205f915054906101000a900460ff1681565b5f8054906101000a900473ffffffffffffffffffffffffffffffffffffffff1673ffffffffffffffffffffffffffffffffffffffff163373ffffffffffffffffffffffffffffffffffffffff16146101d3576040517f08c379a00000000000000000000000000000000000000000000000000000000081526004016101ca906109fa565b60405180910390fd5b8060015f3373ffffffffffffffffffffffffffffffffffffffff1673ffffffffffffffffffffffffffffffffffffffff1681526020019081526020015f20819055505f81111561027757600160025f8473ffffffffffffffffffffffffffffffffffffffff1673ffffffffffffffffffffffffffffffffffffffff1681526020019081526020015f205f6101000a81548160ff0219169083151502179055506102cc565b5f60025f8473ffffffffffffffffffffffffffffffffffffffff1673ffffffffffffffffffffffffffffffffffffffff1681526020019081526020015f205f6101000a81548160ff0219169083151502179055505b5050565b6001602052805f5260405f205f915090505481565b60605f8054906101000a900473ffffffffffffffffffffffffffffffffffffffff1673ffffffffffffffffffffffffffffffffffffffff163373ffffffffffffffffffffffffffffffffffffffff1614610374576040517f08c379a000000000000000000000000000000000000000000000000000000000815260040161036b90610a88565b60405180910390fd5b5f8054906101000a900473ffffffffffffffffffffffffffffffffffffffff1673ffffffffffffffffffffffffffffffffffffffff163373ffffffffffffffffffffffffffffffffffffffff1614610523578260015f3373ffffffffffffffffffffffffffffffffffffffff1673ffffffffffffffffffffffffffffffffffffffff1681526020019081526020015f20541015610446576040517f08c379a000000000000000000000000000000000000000000000000000000000815260040161043d90610b16565b60405180910390fd5b60025f3373ffffffffffffffffffffffffffffffffffffffff1673ffffffffffffffffffffffffffffffffffffffff1681526020019081526020015f205f9054906101000a900460ff166104cf576040517f08c379a00000000000000000000000000000000000000000000000000000000081526004016104c690610bca565b60405180910390fd5b8260015f3373ffffffffffffffffffffffffffffffffffffffff1673ffffffffffffffffffffffffffffffffffffffff1681526020019081526020015f205f82825461051b9190610c15565b925050819055505b5f808573ffffffffffffffffffffffffffffffffffffffff16858560405161054b9190610c82565b5f6040518083038185875af1925050503d805f8114610585576040519150601f19603f3d011682016040523d82523d5f602084013e61058a565b606091505b5091509150816105cf576040517f08c379a00000000000000000000000000000000000000000000000000000000081526004016105c690610d08565b60405180910390fd5b80925050509392505050565b5f604051905090565b5f80fd5b5f80fd5b5f73ffffffffffffffffffffffffffffffffffffffff82169050919050565b5f610615826105ec565b9050919050565b6106258161060b565b811461062f575f80fd5b50565b5f813590506106408161061c565b92915050565b5f6020828403121561065b5761065a6105e4565b5b5f61066884828501610632565b91505092915050565b5f8115159050919050565b61068581610671565b82525050565b5f60208201905061069e5f83018461067c565b92915050565b5f819050919050565b6106b6816106a4565b81146106c0575f80fd5b50565b5f813590506106d1816106ad565b92915050565b5f80604083850312156106ed576106ec6105e4565b5b5f6106fa85828601610632565b925050602061070b858286016106c3565b9150509250929050565b61071e816106a4565b82525050565b5f6020820190506107375f830184610715565b92915050565b5f610747826105ec565b9050919050565b6107578161073d565b8114610761575f80fd5b50565b5f813590506107728161074e565b92915050565b5f80fd5b5f80fd5b5f601f19601f8301169050919050565b7f4e487b71000000000000000000000000000000000000000000000000000000005f52604160045260245ffd5b6107c682610780565b810181811067ffffffffffffffff821117156107e5576107e4610790565b5b80604052505050565b5f6107f76105db565b905061080382826107bd565b919050565b5f67ffffffffffffffff82111561082257610821610790565b5b61082b82610780565b9050602081019050919050565b828183375f83830152505050565b5f61085861085384610808565b6107ee565b9050828152602081018484840111156108745761087361077c565b5b61087f848285610838565b509392505050565b5f82601f83011261089b5761089a610778565b5b81356108ab848260208601610846565b91505092915050565b5f805f606084860312156108cb576108ca6105e4565b5b5f6108d886828701610764565b93505060206108e9868287016106c3565b925050604084013567ffffffffffffffff81111561090a576109096105e8565b5b61091686828701610887565b9150509250925092565b5f81519050919050565b5f82825260208201905092915050565b8281835e5f83830152505050565b5f61095282610920565b61095c818561092a565b935061096c81856020860161093a565b61097581610780565b840191505092915050565b5f6020820190508181035f8301526109988184610948565b905092915050565b5f82825260208201905092915050565b7f596f7520617265206e6f7420746865206f776e65722c2061626f7274696e67005f82015250565b5f6109e4601f836109a0565b91506109ef826109b0565b602082019050919050565b5f6020820190508181035f830152610a11816109d8565b9050919050565b7f596f7520617265206e6f7420746865206f776e65722c2061626f7274696e67215f8201527f2100000000000000000000000000000000000000000000000000000000000000602082015250565b5f610a726021836109a0565b9150610a7d82610a18565b604082019050919050565b5f6020820190508181035f830152610a9f81610a66565b9050919050565b7f596f752061726520747279696e6720746f2073656e64206d6f7265207468616e5f8201527f20796f752061726520616c6c6f77656420746f2c2061626f7274696e67212100602082015250565b5f610b00603f836109a0565b9150610b0b82610aa6565b604082019050919050565b5f6020820190508181035f830152610b2d81610af4565b9050919050565b7f596f7520617265206e6f7420616c6c6f77656420746f2073656e6420616e79745f8201527f68696e672066726f6d207468697320736d61727420636f6e74726163742c206160208201527f626f7274696e6721210000000000000000000000000000000000000000000000604082015250565b5f610bb46049836109a0565b9150610bbf82610b34565b606082019050919050565b5f6020820190508181035f830152610be181610ba8565b9050919050565b7f4e487b71000000000000000000000000000000000000000000000000000000005f52601160045260245ffd5b5f610c1f826106a4565b9150610c2a836106a4565b9250828203905081811115610c4257610c41610be8565b5b92915050565b5f81905092915050565b5f610c5c82610920565b610c668185610c48565b9350610c7681856020860161093a565b80840191505092915050565b5f610c8d8284610c52565b915081905092915050565b7f41626f7274696e672c2063616c6c20776173206e6f74207375636365737366755f8201527f6c00000000000000000000000000000000000000000000000000000000000000602082015250565b5f610cf26021836109a0565b9150610cfd82610c98565b604082019050919050565b5f6020820190508181035f830152610d1f81610ce6565b905091905056fea2646970667358221220cae46ba46f2056345bc1d5a06ea345a07d4d2c4c67384c893aa9faabf7bcb1be64736f6c634300081a0033",
					"opcodes": "PUSH1 0x80 PUSH1 0x40 MSTORE CALLVALUE DUP1 ISZERO PUSH1 0xE JUMPI PUSH0 DUP1 REVERT JUMPDEST POP CALLER PUSH0 DUP1 PUSH2 0x100 EXP DUP2 SLOAD DUP2 PUSH20 0xFFFFFFFFFFFFFFFFFFFFFFFFFFFFFFFFFFFFFFFF MUL NOT AND SWAP1 DUP4 PUSH20 0xFFFFFFFFFFFFFFFFFFFFFFFFFFFFFFFFFFFFFFFF AND MUL OR SWAP1 SSTORE POP PUSH2 0xD5C DUP1 PUSH2 0x5B PUSH0 CODECOPY PUSH0 RETURN INVALID PUSH1 0x80 PUSH1 0x40 MSTORE PUSH1 0x4 CALLDATASIZE LT PUSH2 0x42 JUMPI PUSH0 CALLDATALOAD PUSH1 0xE0 SHR DUP1 PUSH4 0xBC605AD EQ PUSH2 0x4D JUMPI DUP1 PUSH4 0x310EC4A7 EQ PUSH2 0x89 JUMPI DUP1 PUSH4 0x3E5BEAB9 EQ PUSH2 0xB1 JUMPI DUP1 PUSH4 0xBE45FD62 EQ PUSH2 0xED JUMPI PUSH2 0x49 JUMP JUMPDEST CALLDATASIZE PUSH2 0x49 JUMPI STOP JUMPDEST PUSH0 DUP1 REVERT JUMPDEST CALLVALUE DUP1 ISZERO PUSH2 0x58 JUMPI PUSH0 DUP1 REVERT JUMPDEST POP PUSH2 0x73 PUSH1 0x4 DUP1 CALLDATASIZE SUB DUP2 ADD SWAP1 PUSH2 0x6E SWAP2 SWAP1 PUSH2 0x646 JUMP JUMPDEST PUSH2 0x129 JUMP JUMPDEST PUSH1 0x40 MLOAD PUSH2 0x80 SWAP2 SWAP1 PUSH2 0x68B JUMP JUMPDEST PUSH1 0x40 MLOAD DUP1 SWAP2 SUB SWAP1 RETURN JUMPDEST CALLVALUE DUP1 ISZERO PUSH2 0x94 JUMPI PUSH0 DUP1 REVERT JUMPDEST POP PUSH2 0xAF PUSH1 0x4 DUP1 CALLDATASIZE SUB DUP2 ADD SWAP1 PUSH2 0xAA SWAP2 SWAP1 PUSH2 0x6D7 JUMP JUMPDEST PUSH2 0x146 JUMP JUMPDEST STOP JUMPDEST CALLVALUE DUP1 ISZERO PUSH2 0xBC JUMPI PUSH0 DUP1 REVERT JUMPDEST POP PUSH2 0xD7 PUSH1 0x4 DUP1 CALLDATASIZE SUB DUP2 ADD SWAP1 PUSH2 0xD2 SWAP2 SWAP1 PUSH2 0x646 JUMP JUMPDEST PUSH2 0x2D0 JUMP JUMPDEST PUSH1 0x40 MLOAD PUSH2 0xE4 SWAP2 SWAP1 PUSH2 0x724 JUMP JUMPDEST PUSH1 0x40 MLOAD DUP1 SWAP2 SUB SWAP1 RETURN JUMPDEST CALLVALUE DUP1 ISZERO PUSH2 0xF8 JUMPI PUSH0 DUP1 REVERT JUMPDEST POP PUSH2 0x113 PUSH1 0x4 DUP1 CALLDATASIZE SUB DUP2 ADD SWAP1 PUSH2 0x10E SWAP2 SWAP1 PUSH2 0x8B4 JUMP JUMPDEST PUSH2 0x2E5 JUMP JUMPDEST PUSH1 0x40 MLOAD PUSH2 0x120 SWAP2 SWAP1 PUSH2 0x980 JUMP JUMPDEST PUSH1 0x40 MLOAD DUP1 SWAP2 SUB SWAP1 RETURN JUMPDEST PUSH1 0x2 PUSH1 0x20 MSTORE DUP1 PUSH0 MSTORE PUSH1 0x40 PUSH0 KECCAK256 PUSH0 SWAP2 POP SLOAD SWAP1 PUSH2 0x100 EXP SWAP1 DIV PUSH1 0xFF AND DUP2 JUMP JUMPDEST PUSH0 DUP1 SLOAD SWAP1 PUSH2 0x100 EXP SWAP1 DIV PUSH20 0xFFFFFFFFFFFFFFFFFFFFFFFFFFFFFFFFFFFFFFFF AND PUSH20 0xFFFFFFFFFFFFFFFFFFFFFFFFFFFFFFFFFFFFFFFF AND CALLER PUSH20 0xFFFFFFFFFFFFFFFFFFFFFFFFFFFFFFFFFFFFFFFF AND EQ PUSH2 0x1D3 JUMPI PUSH1 0x40 MLOAD PUSH32 0x8C379A000000000000000000000000000000000000000000000000000000000 DUP2 MSTORE PUSH1 0x4 ADD PUSH2 0x1CA SWAP1 PUSH2 0x9FA JUMP JUMPDEST PUSH1 0x40 MLOAD DUP1 SWAP2 SUB SWAP1 REVERT JUMPDEST DUP1 PUSH1 0x1 PUSH0 CALLER PUSH20 0xFFFFFFFFFFFFFFFFFFFFFFFFFFFFFFFFFFFFFFFF AND PUSH20 0xFFFFFFFFFFFFFFFFFFFFFFFFFFFFFFFFFFFFFFFF AND DUP2 MSTORE PUSH1 0x20 ADD SWAP1 DUP2 MSTORE PUSH1 0x20 ADD PUSH0 KECCAK256 DUP2 SWAP1 SSTORE POP PUSH0 DUP2 GT ISZERO PUSH2 0x277 JUMPI PUSH1 0x1 PUSH1 0x2 PUSH0 DUP5 PUSH20 0xFFFFFFFFFFFFFFFFFFFFFFFFFFFFFFFFFFFFFFFF AND PUSH20 0xFFFFFFFFFFFFFFFFFFFFFFFFFFFFFFFFFFFFFFFF AND DUP2 MSTORE PUSH1 0x20 ADD SWAP1 DUP2 MSTORE PUSH1 0x20 ADD PUSH0 KECCAK256 PUSH0 PUSH2 0x100 EXP DUP2 SLOAD DUP2 PUSH1 0xFF MUL NOT AND SWAP1 DUP4 ISZERO ISZERO MUL OR SWAP1 SSTORE POP PUSH2 0x2CC JUMP JUMPDEST PUSH0 PUSH1 0x2 PUSH0 DUP5 PUSH20 0xFFFFFFFFFFFFFFFFFFFFFFFFFFFFFFFFFFFFFFFF AND PUSH20 0xFFFFFFFFFFFFFFFFFFFFFFFFFFFFFFFFFFFFFFFF AND DUP2 MSTORE PUSH1 0x20 ADD SWAP1 DUP2 MSTORE PUSH1 0x20 ADD PUSH0 KECCAK256 PUSH0 PUSH2 0x100 EXP DUP2 SLOAD DUP2 PUSH1 0xFF MUL NOT AND SWAP1 DUP4 ISZERO ISZERO MUL OR SWAP1 SSTORE POP JUMPDEST POP POP JUMP JUMPDEST PUSH1 0x1 PUSH1 0x20 MSTORE DUP1 PUSH0 MSTORE PUSH1 0x40 PUSH0 KECCAK256 PUSH0 SWAP2 POP SWAP1 POP SLOAD DUP2 JUMP JUMPDEST PUSH1 0x60 PUSH0 DUP1 SLOAD SWAP1 PUSH2 0x100 EXP SWAP1 DIV PUSH20 0xFFFFFFFFFFFFFFFFFFFFFFFFFFFFFFFFFFFFFFFF AND PUSH20 0xFFFFFFFFFFFFFFFFFFFFFFFFFFFFFFFFFFFFFFFF AND CALLER PUSH20 0xFFFFFFFFFFFFFFFFFFFFFFFFFFFFFFFFFFFFFFFF AND EQ PUSH2 0x374 JUMPI PUSH1 0x40 MLOAD PUSH32 0x8C379A000000000000000000000000000000000000000000000000000000000 DUP2 MSTORE PUSH1 0x4 ADD PUSH2 0x36B SWAP1 PUSH2 0xA88 JUMP JUMPDEST PUSH1 0x40 MLOAD DUP1 SWAP2 SUB SWAP1 REVERT JUMPDEST PUSH0 DUP1 SLOAD SWAP1 PUSH2 0x100 EXP SWAP1 DIV PUSH20 0xFFFFFFFFFFFFFFFFFFFFFFFFFFFFFFFFFFFFFFFF AND PUSH20 0xFFFFFFFFFFFFFFFFFFFFFFFFFFFFFFFFFFFFFFFF AND CALLER PUSH20 0xFFFFFFFFFFFFFFFFFFFFFFFFFFFFFFFFFFFFFFFF AND EQ PUSH2 0x523 JUMPI DUP3 PUSH1 0x1 PUSH0 CALLER PUSH20 0xFFFFFFFFFFFFFFFFFFFFFFFFFFFFFFFFFFFFFFFF AND PUSH20 0xFFFFFFFFFFFFFFFFFFFFFFFFFFFFFFFFFFFFFFFF AND DUP2 MSTORE PUSH1 0x20 ADD SWAP1 DUP2 MSTORE PUSH1 0x20 ADD PUSH0 KECCAK256 SLOAD LT ISZERO PUSH2 0x446 JUMPI PUSH1 0x40 MLOAD PUSH32 0x8C379A000000000000000000000000000000000000000000000000000000000 DUP2 MSTORE PUSH1 0x4 ADD PUSH2 0x43D SWAP1 PUSH2 0xB16 JUMP JUMPDEST PUSH1 0x40 MLOAD DUP1 SWAP2 SUB SWAP1 REVERT JUMPDEST PUSH1 0x2 PUSH0 CALLER PUSH20 0xFFFFFFFFFFFFFFFFFFFFFFFFFFFFFFFFFFFFFFFF AND PUSH20 0xFFFFFFFFFFFFFFFFFFFFFFFFFFFFFFFFFFFFFFFF AND DUP2 MSTORE PUSH1 0x20 ADD SWAP1 DUP2 MSTORE PUSH1 0x20 ADD PUSH0 KECCAK256 PUSH0 SWAP1 SLOAD SWAP1 PUSH2 0x100 EXP SWAP1 DIV PUSH1 0xFF AND PUSH2 0x4CF JUMPI PUSH1 0x40 MLOAD PUSH32 0x8C379A000000000000000000000000000000000000000000000000000000000 DUP2 MSTORE PUSH1 0x4 ADD PUSH2 0x4C6 SWAP1 PUSH2 0xBCA JUMP JUMPDEST PUSH1 0x40 MLOAD DUP1 SWAP2 SUB SWAP1 REVERT JUMPDEST DUP3 PUSH1 0x1 PUSH0 CALLER PUSH20 0xFFFFFFFFFFFFFFFFFFFFFFFFFFFFFFFFFFFFFFFF AND PUSH20 0xFFFFFFFFFFFFFFFFFFFFFFFFFFFFFFFFFFFFFFFF AND DUP2 MSTORE PUSH1 0x20 ADD SWAP1 DUP2 MSTORE PUSH1 0x20 ADD PUSH0 KECCAK256 PUSH0 DUP3 DUP3 SLOAD PUSH2 0x51B SWAP2 SWAP1 PUSH2 0xC15 JUMP JUMPDEST SWAP3 POP POP DUP2 SWAP1 SSTORE POP JUMPDEST PUSH0 DUP1 DUP6 PUSH20 0xFFFFFFFFFFFFFFFFFFFFFFFFFFFFFFFFFFFFFFFF AND DUP6 DUP6 PUSH1 0x40 MLOAD PUSH2 0x54B SWAP2 SWAP1 PUSH2 0xC82 JUMP JUMPDEST PUSH0 PUSH1 0x40 MLOAD DUP1 DUP4 SUB DUP2 DUP6 DUP8 GAS CALL SWAP3 POP POP POP RETURNDATASIZE DUP1 PUSH0 DUP2 EQ PUSH2 0x585 JUMPI PUSH1 0x40 MLOAD SWAP2 POP PUSH1 0x1F NOT PUSH1 0x3F RETURNDATASIZE ADD AND DUP3 ADD PUSH1 0x40 MSTORE RETURNDATASIZE DUP3 MSTORE RETURNDATASIZE PUSH0 PUSH1 0x20 DUP5 ADD RETURNDATACOPY PUSH2 0x58A JUMP JUMPDEST PUSH1 0x60 SWAP2 POP JUMPDEST POP SWAP2 POP SWAP2 POP DUP2 PUSH2 0x5CF JUMPI PUSH1 0x40 MLOAD PUSH32 0x8C379A000000000000000000000000000000000000000000000000000000000 DUP2 MSTORE PUSH1 0x4 ADD PUSH2 0x5C6 SWAP1 PUSH2 0xD08 JUMP JUMPDEST PUSH1 0x40 MLOAD DUP1 SWAP2 SUB SWAP1 REVERT JUMPDEST DUP1 SWAP3 POP POP POP SWAP4 SWAP3 POP POP POP JUMP JUMPDEST PUSH0 PUSH1 0x40 MLOAD SWAP1 POP SWAP1 JUMP JUMPDEST PUSH0 DUP1 REVERT JUMPDEST PUSH0 DUP1 REVERT JUMPDEST PUSH0 PUSH20 0xFFFFFFFFFFFFFFFFFFFFFFFFFFFFFFFFFFFFFFFF DUP3 AND SWAP1 POP SWAP2 SWAP1 POP JUMP JUMPDEST PUSH0 PUSH2 0x615 DUP3 PUSH2 0x5EC JUMP JUMPDEST SWAP1 POP SWAP2 SWAP1 POP JUMP JUMPDEST PUSH2 0x625 DUP2 PUSH2 0x60B JUMP JUMPDEST DUP2 EQ PUSH2 0x62F JUMPI PUSH0 DUP1 REVERT JUMPDEST POP JUMP JUMPDEST PUSH0 DUP2 CALLDATALOAD SWAP1 POP PUSH2 0x640 DUP2 PUSH2 0x61C JUMP JUMPDEST SWAP3 SWAP2 POP POP JUMP JUMPDEST PUSH0 PUSH1 0x20 DUP3 DUP5 SUB SLT ISZERO PUSH2 0x65B JUMPI PUSH2 0x65A PUSH2 0x5E4 JUMP JUMPDEST JUMPDEST PUSH0 PUSH2 0x668 DUP5 DUP3 DUP6 ADD PUSH2 0x632 JUMP JUMPDEST SWAP2 POP POP SWAP3 SWAP2 POP POP JUMP JUMPDEST PUSH0 DUP2 ISZERO ISZERO SWAP1 POP SWAP2 SWAP1 POP JUMP JUMPDEST PUSH2 0x685 DUP2 PUSH2 0x671 JUMP JUMPDEST DUP3 MSTORE POP POP JUMP JUMPDEST PUSH0 PUSH1 0x20 DUP3 ADD SWAP1 POP PUSH2 0x69E PUSH0 DUP4 ADD DUP5 PUSH2 0x67C JUMP JUMPDEST SWAP3 SWAP2 POP POP JUMP JUMPDEST PUSH0 DUP2 SWAP1 POP SWAP2 SWAP1 POP JUMP JUMPDEST PUSH2 0x6B6 DUP2 PUSH2 0x6A4 JUMP JUMPDEST DUP2 EQ PUSH2 0x6C0 JUMPI PUSH0 DUP1 REVERT JUMPDEST POP JUMP JUMPDEST PUSH0 DUP2 CALLDATALOAD SWAP1 POP PUSH2 0x6D1 DUP2 PUSH2 0x6AD JUMP JUMPDEST SWAP3 SWAP2 POP POP JUMP JUMPDEST PUSH0 DUP1 PUSH1 0x40 DUP4 DUP6 SUB SLT ISZERO PUSH2 0x6ED JUMPI PUSH2 0x6EC PUSH2 0x5E4 JUMP JUMPDEST JUMPDEST PUSH0 PUSH2 0x6FA DUP6 DUP3 DUP7 ADD PUSH2 0x632 JUMP JUMPDEST SWAP3 POP POP PUSH1 0x20 PUSH2 0x70B DUP6 DUP3 DUP7 ADD PUSH2 0x6C3 JUMP JUMPDEST SWAP2 POP POP SWAP3 POP SWAP3 SWAP1 POP JUMP JUMPDEST PUSH2 0x71E DUP2 PUSH2 0x6A4 JUMP JUMPDEST DUP3 MSTORE POP POP JUMP JUMPDEST PUSH0 PUSH1 0x20 DUP3 ADD SWAP1 POP PUSH2 0x737 PUSH0 DUP4 ADD DUP5 PUSH2 0x715 JUMP JUMPDEST SWAP3 SWAP2 POP POP JUMP JUMPDEST PUSH0 PUSH2 0x747 DUP3 PUSH2 0x5EC JUMP JUMPDEST SWAP1 POP SWAP2 SWAP1 POP JUMP JUMPDEST PUSH2 0x757 DUP2 PUSH2 0x73D JUMP JUMPDEST DUP2 EQ PUSH2 0x761 JUMPI PUSH0 DUP1 REVERT JUMPDEST POP JUMP JUMPDEST PUSH0 DUP2 CALLDATALOAD SWAP1 POP PUSH2 0x772 DUP2 PUSH2 0x74E JUMP JUMPDEST SWAP3 SWAP2 POP POP JUMP JUMPDEST PUSH0 DUP1 REVERT JUMPDEST PUSH0 DUP1 REVERT JUMPDEST PUSH0 PUSH1 0x1F NOT PUSH1 0x1F DUP4 ADD AND SWAP1 POP SWAP2 SWAP1 POP JUMP JUMPDEST PUSH32 0x4E487B7100000000000000000000000000000000000000000000000000000000 PUSH0 MSTORE PUSH1 0x41 PUSH1 0x4 MSTORE PUSH1 0x24 PUSH0 REVERT JUMPDEST PUSH2 0x7C6 DUP3 PUSH2 0x780 JUMP JUMPDEST DUP2 ADD DUP2 DUP2 LT PUSH8 0xFFFFFFFFFFFFFFFF DUP3 GT OR ISZERO PUSH2 0x7E5 JUMPI PUSH2 0x7E4 PUSH2 0x790 JUMP JUMPDEST JUMPDEST DUP1 PUSH1 0x40 MSTORE POP POP POP JUMP JUMPDEST PUSH0 PUSH2 0x7F7 PUSH2 0x5DB JUMP JUMPDEST SWAP1 POP PUSH2 0x803 DUP3 DUP3 PUSH2 0x7BD JUMP JUMPDEST SWAP2 SWAP1 POP JUMP JUMPDEST PUSH0 PUSH8 0xFFFFFFFFFFFFFFFF DUP3 GT ISZERO PUSH2 0x822 JUMPI PUSH2 0x821 PUSH2 0x790 JUMP JUMPDEST JUMPDEST PUSH2 0x82B DUP3 PUSH2 0x780 JUMP JUMPDEST SWAP1 POP PUSH1 0x20 DUP2 ADD SWAP1 POP SWAP2 SWAP1 POP JUMP JUMPDEST DUP3 DUP2 DUP4 CALLDATACOPY PUSH0 DUP4 DUP4 ADD MSTORE POP POP POP JUMP JUMPDEST PUSH0 PUSH2 0x858 PUSH2 0x853 DUP5 PUSH2 0x808 JUMP JUMPDEST PUSH2 0x7EE JUMP JUMPDEST SWAP1 POP DUP3 DUP2 MSTORE PUSH1 0x20 DUP2 ADD DUP5 DUP5 DUP5 ADD GT ISZERO PUSH2 0x874 JUMPI PUSH2 0x873 PUSH2 0x77C JUMP JUMPDEST JUMPDEST PUSH2 0x87F DUP5 DUP3 DUP6 PUSH2 0x838 JUMP JUMPDEST POP SWAP4 SWAP3 POP POP POP JUMP JUMPDEST PUSH0 DUP3 PUSH1 0x1F DUP4 ADD SLT PUSH2 0x89B JUMPI PUSH2 0x89A PUSH2 0x778 JUMP JUMPDEST JUMPDEST DUP2 CALLDATALOAD PUSH2 0x8AB DUP5 DUP3 PUSH1 0x20 DUP7 ADD PUSH2 0x846 JUMP JUMPDEST SWAP2 POP POP SWAP3 SWAP2 POP POP JUMP JUMPDEST PUSH0 DUP1 PUSH0 PUSH1 0x60 DUP5 DUP7 SUB SLT ISZERO PUSH2 0x8CB JUMPI PUSH2 0x8CA PUSH2 0x5E4 JUMP JUMPDEST JUMPDEST PUSH0 PUSH2 0x8D8 DUP7 DUP3 DUP8 ADD PUSH2 0x764 JUMP JUMPDEST SWAP4 POP POP PUSH1 0x20 PUSH2 0x8E9 DUP7 DUP3 DUP8 ADD PUSH2 0x6C3 JUMP JUMPDEST SWAP3 POP POP PUSH1 0x40 DUP5 ADD CALLDATALOAD PUSH8 0xFFFFFFFFFFFFFFFF DUP2 GT ISZERO PUSH2 0x90A JUMPI PUSH2 0x909 PUSH2 0x5E8 JUMP JUMPDEST JUMPDEST PUSH2 0x916 DUP7 DUP3 DUP8 ADD PUSH2 0x887 JUMP JUMPDEST SWAP2 POP POP SWAP3 POP SWAP3 POP SWAP3 JUMP JUMPDEST PUSH0 DUP2 MLOAD SWAP1 POP SWAP2 SWAP1 POP JUMP JUMPDEST PUSH0 DUP3 DUP3 MSTORE PUSH1 0x20 DUP3 ADD SWAP1 POP SWAP3 SWAP2 POP POP JUMP JUMPDEST DUP3 DUP2 DUP4 MCOPY PUSH0 DUP4 DUP4 ADD MSTORE POP POP POP JUMP JUMPDEST PUSH0 PUSH2 0x952 DUP3 PUSH2 0x920 JUMP JUMPDEST PUSH2 0x95C DUP2 DUP6 PUSH2 0x92A JUMP JUMPDEST SWAP4 POP PUSH2 0x96C DUP2 DUP6 PUSH1 0x20 DUP7 ADD PUSH2 0x93A JUMP JUMPDEST PUSH2 0x975 DUP2 PUSH2 0x780 JUMP JUMPDEST DUP5 ADD SWAP2 POP POP SWAP3 SWAP2 POP POP JUMP JUMPDEST PUSH0 PUSH1 0x20 DUP3 ADD SWAP1 POP DUP2 DUP2 SUB PUSH0 DUP4 ADD MSTORE PUSH2 0x998 DUP2 DUP5 PUSH2 0x948 JUMP JUMPDEST SWAP1 POP SWAP3 SWAP2 POP POP JUMP JUMPDEST PUSH0 DUP3 DUP3 MSTORE PUSH1 0x20 DUP3 ADD SWAP1 POP SWAP3 SWAP2 POP POP JUMP JUMPDEST PUSH32 0x596F7520617265206E6F7420746865206F776E65722C2061626F7274696E6700 PUSH0 DUP3 ADD MSTORE POP JUMP JUMPDEST PUSH0 PUSH2 0x9E4 PUSH1 0x1F DUP4 PUSH2 0x9A0 JUMP JUMPDEST SWAP2 POP PUSH2 0x9EF DUP3 PUSH2 0x9B0 JUMP JUMPDEST PUSH1 0x20 DUP3 ADD SWAP1 POP SWAP2 SWAP1 POP JUMP JUMPDEST PUSH0 PUSH1 0x20 DUP3 ADD SWAP1 POP DUP2 DUP2 SUB PUSH0 DUP4 ADD MSTORE PUSH2 0xA11 DUP2 PUSH2 0x9D8 JUMP JUMPDEST SWAP1 POP SWAP2 SWAP1 POP JUMP JUMPDEST PUSH32 0x596F7520617265206E6F7420746865206F776E65722C2061626F7274696E6721 PUSH0 DUP3 ADD MSTORE PUSH32 0x2100000000000000000000000000000000000000000000000000000000000000 PUSH1 0x20 DUP3 ADD MSTORE POP JUMP JUMPDEST PUSH0 PUSH2 0xA72 PUSH1 0x21 DUP4 PUSH2 0x9A0 JUMP JUMPDEST SWAP2 POP PUSH2 0xA7D DUP3 PUSH2 0xA18 JUMP JUMPDEST PUSH1 0x40 DUP3 ADD SWAP1 POP SWAP2 SWAP1 POP JUMP JUMPDEST PUSH0 PUSH1 0x20 DUP3 ADD SWAP1 POP DUP2 DUP2 SUB PUSH0 DUP4 ADD MSTORE PUSH2 0xA9F DUP2 PUSH2 0xA66 JUMP JUMPDEST SWAP1 POP SWAP2 SWAP1 POP JUMP JUMPDEST PUSH32 0x596F752061726520747279696E6720746F2073656E64206D6F7265207468616E PUSH0 DUP3 ADD MSTORE PUSH32 0x20796F752061726520616C6C6F77656420746F2C2061626F7274696E67212100 PUSH1 0x20 DUP3 ADD MSTORE POP JUMP JUMPDEST PUSH0 PUSH2 0xB00 PUSH1 0x3F DUP4 PUSH2 0x9A0 JUMP JUMPDEST SWAP2 POP PUSH2 0xB0B DUP3 PUSH2 0xAA6 JUMP JUMPDEST PUSH1 0x40 DUP3 ADD SWAP1 POP SWAP2 SWAP1 POP JUMP JUMPDEST PUSH0 PUSH1 0x20 DUP3 ADD SWAP1 POP DUP2 DUP2 SUB PUSH0 DUP4 ADD MSTORE PUSH2 0xB2D DUP2 PUSH2 0xAF4 JUMP JUMPDEST SWAP1 POP SWAP2 SWAP1 POP JUMP JUMPDEST PUSH32 0x596F7520617265206E6F7420616C6C6F77656420746F2073656E6420616E7974 PUSH0 DUP3 ADD MSTORE PUSH32 0x68696E672066726F6D207468697320736D61727420636F6E74726163742C2061 PUSH1 0x20 DUP3 ADD MSTORE PUSH32 0x626F7274696E6721210000000000000000000000000000000000000000000000 PUSH1 0x40 DUP3 ADD MSTORE POP JUMP JUMPDEST PUSH0 PUSH2 0xBB4 PUSH1 0x49 DUP4 PUSH2 0x9A0 JUMP JUMPDEST SWAP2 POP PUSH2 0xBBF DUP3 PUSH2 0xB34 JUMP JUMPDEST PUSH1 0x60 DUP3 ADD SWAP1 POP SWAP2 SWAP1 POP JUMP JUMPDEST PUSH0 PUSH1 0x20 DUP3 ADD SWAP1 POP DUP2 DUP2 SUB PUSH0 DUP4 ADD MSTORE PUSH2 0xBE1 DUP2 PUSH2 0xBA8 JUMP JUMPDEST SWAP1 POP SWAP2 SWAP1 POP JUMP JUMPDEST PUSH32 0x4E487B7100000000000000000000000000000000000000000000000000000000 PUSH0 MSTORE PUSH1 0x11 PUSH1 0x4 MSTORE PUSH1 0x24 PUSH0 REVERT JUMPDEST PUSH0 PUSH2 0xC1F DUP3 PUSH2 0x6A4 JUMP JUMPDEST SWAP2 POP PUSH2 0xC2A DUP4 PUSH2 0x6A4 JUMP JUMPDEST SWAP3 POP DUP3 DUP3 SUB SWAP1 POP DUP2 DUP2 GT ISZERO PUSH2 0xC42 JUMPI PUSH2 0xC41 PUSH2 0xBE8 JUMP JUMPDEST JUMPDEST SWAP3 SWAP2 POP POP JUMP JUMPDEST PUSH0 DUP2 SWAP1 POP SWAP3 SWAP2 POP POP JUMP JUMPDEST PUSH0 PUSH2 0xC5C DUP3 PUSH2 0x920 JUMP JUMPDEST PUSH2 0xC66 DUP2 DUP6 PUSH2 0xC48 JUMP JUMPDEST SWAP4 POP PUSH2 0xC76 DUP2 DUP6 PUSH1 0x20 DUP7 ADD PUSH2 0x93A JUMP JUMPDEST DUP1 DUP5 ADD SWAP2 POP POP SWAP3 SWAP2 POP POP JUMP JUMPDEST PUSH0 PUSH2 0xC8D DUP3 DUP5 PUSH2 0xC52 JUMP JUMPDEST SWAP2 POP DUP2 SWAP1 POP SWAP3 SWAP2 POP POP JUMP JUMPDEST PUSH32 0x41626F7274696E672C2063616C6C20776173206E6F7420737563636573736675 PUSH0 DUP3 ADD MSTORE PUSH32 0x6C00000000000000000000000000000000000000000000000000000000000000 PUSH1 0x20 DUP3 ADD MSTORE POP JUMP JUMPDEST PUSH0 PUSH2 0xCF2 PUSH1 0x21 DUP4 PUSH2 0x9A0 JUMP JUMPDEST SWAP2 POP PUSH2 0xCFD DUP3 PUSH2 0xC98 JUMP JUMPDEST PUSH1 0x40 DUP3 ADD SWAP1 POP SWAP2 SWAP1 POP JUMP JUMPDEST PUSH0 PUSH1 0x20 DUP3 ADD SWAP1 POP DUP2 DUP2 SUB PUSH0 DUP4 ADD MSTORE PUSH2 0xD1F DUP2 PUSH2 0xCE6 JUMP JUMPDEST SWAP1 POP SWAP2 SWAP1 POP JUMP INVALID LOG2 PUSH5 0x6970667358 0x22 SLT KECCAK256 0xCA 0xE4 PUSH12 0xA46F2056345BC1D5A06EA345 LOG0 PUSH30 0x4D2C4C67384C893AA9FAABF7BCB1BE64736F6C634300081A003300000000 "
				},
				"gasEstimates": {
					"creation": {
						"codeDepositCost": "684000",
						"executionCost": "24978",
						"totalCost": "708978"
					},
					"external": {
						"allowance(address)": "2824",
						"isAllowedToSend(address)": "2811",
						"setAllowance(address,uint256)": "49377",
						"transfer(address,uint256,bytes)": "infinite"
					}
				},
				"methodIdentifiers": {
					"allowance(address)": "3e5beab9",
					"isAllowedToSend(address)": "0bc605ad",
					"setAllowance(address,uint256)": "310ec4a7",
					"transfer(address,uint256,bytes)": "be45fd62"
				}
			},
			"storageLayout": {
				"storage": [
					{
						"astId": 3,
						"contract": "contracts/SmartContractWallet.sol:SmartContracWallet",
						"label": "owner",
						"offset": 0,
						"slot": "0",
						"type": "t_address_payable"
					},
					{
						"astId": 7,
						"contract": "contracts/SmartContractWallet.sol:SmartContracWallet",
						"label": "allowance",
						"offset": 0,
						"slot": "1",
						"type": "t_mapping(t_address,t_uint256)"
					},
					{
						"astId": 11,
						"contract": "contracts/SmartContractWallet.sol:SmartContracWallet",
						"label": "isAllowedToSend",
						"offset": 0,
						"slot": "2",
						"type": "t_mapping(t_address,t_bool)"
					}
				],
				"types": {
					"t_address": {
						"encoding": "inplace",
						"label": "address",
						"numberOfBytes": "20"
					},
					"t_address_payable": {
						"encoding": "inplace",
						"label": "address payable",
						"numberOfBytes": "20"
					},
					"t_bool": {
						"encoding": "inplace",
						"label": "bool",
						"numberOfBytes": "1"
					},
					"t_mapping(t_address,t_bool)": {
						"encoding": "mapping",
						"key": "t_address",
						"label": "mapping(address => bool)",
						"numberOfBytes": "32",
						"value": "t_bool"
					},
					"t_mapping(t_address,t_uint256)": {
						"encoding": "mapping",
						"key": "t_address",
						"label": "mapping(address => uint256)",
						"numberOfBytes": "32",
						"value": "t_uint256"
					},
					"t_uint256": {
						"encoding": "inplace",
						"label": "uint256",
						"numberOfBytes": "32"
					}
				}
			},
			"userdoc": {
				"kind": "user",
				"methods": {},
				"version": 1
			}
		}
	}
}