{
	"contracts/ExampleMappingStruct.sol": {
		"Wallet": {
			"abi": [
				{
					"inputs": [
						{
							"internalType": "address",
							"name": "",
							"type": "address"
						}
					],
					"name": "balances",
					"outputs": [
						{
							"internalType": "uint256",
							"name": "totalBalance",
							"type": "uint256"
						},
						{
							"internalType": "uint256",
							"name": "numDeposit",
							"type": "uint256"
						},
						{
							"internalType": "uint256",
							"name": "numWithdrawals",
							"type": "uint256"
						}
					],
					"stateMutability": "view",
					"type": "function"
				},
				{
					"inputs": [],
					"name": "depositMoney",
					"outputs": [],
					"stateMutability": "payable",
					"type": "function"
				},
				{
					"inputs": [
						{
							"internalType": "address payable",
							"name": "_to",
							"type": "address"
						},
						{
							"internalType": "uint256",
							"name": "_amount",
							"type": "uint256"
						}
					],
					"name": "withdrawMoney",
					"outputs": [],
					"stateMutability": "nonpayable",
					"type": "function"
				}
			],
			"devdoc": {
				"kind": "dev",
				"methods": {},
				"version": 1
			},
			"evm": {
				"assembly": "    /* \"contracts/ExampleMappingStruct.sol\":60:922  contract Wallet{... */\n  mstore(0x40, 0x80)\n  callvalue\n  dup1\n  iszero\n  tag_1\n  jumpi\n  0x00\n  dup1\n  revert\ntag_1:\n  pop\n  dataSize(sub_0)\n  dup1\n  dataOffset(sub_0)\n  0x00\n  codecopy\n  0x00\n  return\nstop\n\nsub_0: assembly {\n        /* \"contracts/ExampleMappingStruct.sol\":60:922  contract Wallet{... */\n      mstore(0x40, 0x80)\n      jumpi(tag_1, lt(calldatasize, 0x04))\n      shr(0xe0, calldataload(0x00))\n      dup1\n      0x16c05aa2\n      eq\n      tag_2\n      jumpi\n      dup1\n      0x27e235e3\n      eq\n      tag_3\n      jumpi\n      dup1\n      0xf274c897\n      eq\n      tag_4\n      jumpi\n    tag_1:\n      0x00\n      dup1\n      revert\n        /* \"contracts/ExampleMappingStruct.sol\":434:751  function depositMoney () public  payable {... */\n    tag_2:\n      tag_5\n      tag_6\n      jump\t// in\n    tag_5:\n      stop\n        /* \"contracts/ExampleMappingStruct.sol\":382:425  mapping(address => Balance) public balances */\n    tag_3:\n      callvalue\n      dup1\n      iszero\n      tag_7\n      jumpi\n      0x00\n      dup1\n      revert\n    tag_7:\n      pop\n      tag_8\n      0x04\n      dup1\n      calldatasize\n      sub\n      dup2\n      add\n      swap1\n      tag_9\n      swap2\n      swap1\n      tag_10\n      jump\t// in\n    tag_9:\n      tag_11\n      jump\t// in\n    tag_8:\n      mload(0x40)\n      tag_12\n      swap4\n      swap3\n      swap2\n      swap1\n      tag_13\n      jump\t// in\n    tag_12:\n      mload(0x40)\n      dup1\n      swap2\n      sub\n      swap1\n      return\n        /* \"contracts/ExampleMappingStruct.sol\":759:919  function withdrawMoney (address payable  _to, uint _amount) public{... */\n    tag_4:\n      callvalue\n      dup1\n      iszero\n      tag_14\n      jumpi\n      0x00\n      dup1\n      revert\n    tag_14:\n      pop\n      tag_15\n      0x04\n      dup1\n      calldatasize\n      sub\n      dup2\n      add\n      swap1\n      tag_16\n      swap2\n      swap1\n      tag_17\n      jump\t// in\n    tag_16:\n      tag_18\n      jump\t// in\n    tag_15:\n      stop\n        /* \"contracts/ExampleMappingStruct.sol\":434:751  function depositMoney () public  payable {... */\n    tag_6:\n        /* \"contracts/ExampleMappingStruct.sol\":524:533  msg.value */\n      callvalue\n        /* \"contracts/ExampleMappingStruct.sol\":486:494  balances */\n      0x00\n        /* \"contracts/ExampleMappingStruct.sol\":486:506  balances[msg.sender] */\n      dup1\n        /* \"contracts/ExampleMappingStruct.sol\":495:505  msg.sender */\n      caller\n        /* \"contracts/ExampleMappingStruct.sol\":486:506  balances[msg.sender] */\n      0xffffffffffffffffffffffffffffffffffffffff\n      and\n      0xffffffffffffffffffffffffffffffffffffffff\n      and\n      dup2\n      mstore\n      0x20\n      add\n      swap1\n      dup2\n      mstore\n      0x20\n      add\n      0x00\n      keccak256\n        /* \"contracts/ExampleMappingStruct.sol\":486:519  balances[msg.sender].totalBalance */\n      0x00\n      add\n      0x00\n        /* \"contracts/ExampleMappingStruct.sol\":486:533  balances[msg.sender].totalBalance  += msg.value */\n      dup3\n      dup3\n      sload\n      tag_20\n      swap2\n      swap1\n      tag_21\n      jump\t// in\n    tag_20:\n      swap3\n      pop\n      pop\n      dup2\n      swap1\n      sstore\n      pop\n        /* \"contracts/ExampleMappingStruct.sol\":544:570  Transaction memory deposit */\n      0x00\n        /* \"contracts/ExampleMappingStruct.sol\":573:612  Transaction(msg.value, block.timestamp) */\n      mload(0x40)\n      dup1\n      0x40\n      add\n      0x40\n      mstore\n      dup1\n        /* \"contracts/ExampleMappingStruct.sol\":585:594  msg.value */\n      callvalue\n        /* \"contracts/ExampleMappingStruct.sol\":573:612  Transaction(msg.value, block.timestamp) */\n      dup2\n      mstore\n      0x20\n      add\n        /* \"contracts/ExampleMappingStruct.sol\":596:611  block.timestamp */\n      timestamp\n        /* \"contracts/ExampleMappingStruct.sol\":573:612  Transaction(msg.value, block.timestamp) */\n      dup2\n      mstore\n      pop\n        /* \"contracts/ExampleMappingStruct.sol\":544:612  Transaction memory deposit = Transaction(msg.value, block.timestamp) */\n      swap1\n      pop\n        /* \"contracts/ExampleMappingStruct.sol\":690:697  deposit */\n      dup1\n        /* \"contracts/ExampleMappingStruct.sol\":625:633  balances */\n      0x00\n        /* \"contracts/ExampleMappingStruct.sol\":625:645  balances[msg.sender] */\n      dup1\n        /* \"contracts/ExampleMappingStruct.sol\":634:644  msg.sender */\n      caller\n        /* \"contracts/ExampleMappingStruct.sol\":625:645  balances[msg.sender] */\n      0xffffffffffffffffffffffffffffffffffffffff\n      and\n      0xffffffffffffffffffffffffffffffffffffffff\n      and\n      dup2\n      mstore\n      0x20\n      add\n      swap1\n      dup2\n      mstore\n      0x20\n      add\n      0x00\n      keccak256\n        /* \"contracts/ExampleMappingStruct.sol\":625:654  balances[msg.sender].deposits */\n      0x02\n      add\n        /* \"contracts/ExampleMappingStruct.sol\":625:687  balances[msg.sender].deposits[balances[msg.sender].numDeposit] */\n      0x00\n        /* \"contracts/ExampleMappingStruct.sol\":655:663  balances */\n      dup1\n        /* \"contracts/ExampleMappingStruct.sol\":655:675  balances[msg.sender] */\n      0x00\n        /* \"contracts/ExampleMappingStruct.sol\":664:674  msg.sender */\n      caller\n        /* \"contracts/ExampleMappingStruct.sol\":655:675  balances[msg.sender] */\n      0xffffffffffffffffffffffffffffffffffffffff\n      and\n      0xffffffffffffffffffffffffffffffffffffffff\n      and\n      dup2\n      mstore\n      0x20\n      add\n      swap1\n      dup2\n      mstore\n      0x20\n      add\n      0x00\n      keccak256\n        /* \"contracts/ExampleMappingStruct.sol\":655:686  balances[msg.sender].numDeposit */\n      0x01\n      add\n      sload\n        /* \"contracts/ExampleMappingStruct.sol\":625:687  balances[msg.sender].deposits[balances[msg.sender].numDeposit] */\n      dup2\n      mstore\n      0x20\n      add\n      swap1\n      dup2\n      mstore\n      0x20\n      add\n      0x00\n      keccak256\n        /* \"contracts/ExampleMappingStruct.sol\":625:697  balances[msg.sender].deposits[balances[msg.sender].numDeposit] = deposit */\n      0x00\n      dup3\n      add\n      mload\n      dup2\n      0x00\n      add\n      sstore\n      0x20\n      dup3\n      add\n      mload\n      dup2\n      0x01\n      add\n      sstore\n      swap1\n      pop\n      pop\n        /* \"contracts/ExampleMappingStruct.sol\":708:716  balances */\n      0x00\n        /* \"contracts/ExampleMappingStruct.sol\":708:728  balances[msg.sender] */\n      dup1\n        /* \"contracts/ExampleMappingStruct.sol\":717:727  msg.sender */\n      caller\n        /* \"contracts/ExampleMappingStruct.sol\":708:728  balances[msg.sender] */\n      0xffffffffffffffffffffffffffffffffffffffff\n      and\n      0xffffffffffffffffffffffffffffffffffffffff\n      and\n      dup2\n      mstore\n      0x20\n      add\n      swap1\n      dup2\n      mstore\n      0x20\n      add\n      0x00\n      keccak256\n        /* \"contracts/ExampleMappingStruct.sol\":708:739  balances[msg.sender].numDeposit */\n      0x01\n      add\n      0x00\n        /* \"contracts/ExampleMappingStruct.sol\":708:741  balances[msg.sender].numDeposit++ */\n      dup2\n      sload\n      dup1\n      swap3\n      swap2\n      swap1\n      tag_22\n      swap1\n      tag_23\n      jump\t// in\n    tag_22:\n      swap2\n      swap1\n      pop\n      sstore\n      pop\n        /* \"contracts/ExampleMappingStruct.sol\":475:751  {... */\n      pop\n        /* \"contracts/ExampleMappingStruct.sol\":434:751  function depositMoney () public  payable {... */\n      jump\t// out\n        /* \"contracts/ExampleMappingStruct.sol\":382:425  mapping(address => Balance) public balances */\n    tag_11:\n      mstore(0x20, 0x00)\n      dup1\n      0x00\n      mstore\n      keccak256(0x00, 0x40)\n      0x00\n      swap2\n      pop\n      swap1\n      pop\n      dup1\n      0x00\n      add\n      sload\n      swap1\n      dup1\n      0x01\n      add\n      sload\n      swap1\n      dup1\n      0x03\n      add\n      sload\n      swap1\n      pop\n      dup4\n      jump\t// out\n        /* \"contracts/ExampleMappingStruct.sol\":759:919  function withdrawMoney (address payable  _to, uint _amount) public{... */\n    tag_18:\n        /* \"contracts/ExampleMappingStruct.sol\":877:878  1 */\n      0x01\n        /* \"contracts/ExampleMappingStruct.sol\":837:845  balances */\n      0x00\n        /* \"contracts/ExampleMappingStruct.sol\":837:857  balances[msg.sender] */\n      dup1\n        /* \"contracts/ExampleMappingStruct.sol\":846:856  msg.sender */\n      caller\n        /* \"contracts/ExampleMappingStruct.sol\":837:857  balances[msg.sender] */\n      0xffffffffffffffffffffffffffffffffffffffff\n      and\n      0xffffffffffffffffffffffffffffffffffffffff\n      and\n      dup2\n      mstore\n      0x20\n      add\n      swap1\n      dup2\n      mstore\n      0x20\n      add\n      0x00\n      keccak256\n        /* \"contracts/ExampleMappingStruct.sol\":837:872  balances[msg.sender].numWithdrawals */\n      0x03\n      add\n      0x00\n        /* \"contracts/ExampleMappingStruct.sol\":837:878  balances[msg.sender].numWithdrawals  += 1 */\n      dup3\n      dup3\n      sload\n      tag_25\n      swap2\n      swap1\n      tag_21\n      jump\t// in\n    tag_25:\n      swap3\n      pop\n      pop\n      dup2\n      swap1\n      sstore\n      pop\n        /* \"contracts/ExampleMappingStruct.sol\":890:893  _to */\n      dup2\n        /* \"contracts/ExampleMappingStruct.sol\":890:902  _to.transfer */\n      0xffffffffffffffffffffffffffffffffffffffff\n      and\n        /* \"contracts/ExampleMappingStruct.sol\":890:911  _to.transfer(_amount) */\n      0x08fc\n        /* \"contracts/ExampleMappingStruct.sol\":903:910  _amount */\n      dup3\n        /* \"contracts/ExampleMappingStruct.sol\":890:911  _to.transfer(_amount) */\n      swap1\n      dup2\n      iszero\n      mul\n      swap1\n      mload(0x40)\n      0x00\n      mload(0x40)\n      dup1\n      dup4\n      sub\n      dup2\n      dup6\n      dup9\n      dup9\n      call\n      swap4\n      pop\n      pop\n      pop\n      pop\n      iszero\n      dup1\n      iszero\n      tag_27\n      jumpi\n      returndatasize\n      0x00\n      dup1\n      returndatacopy\n      revert(0x00, returndatasize)\n    tag_27:\n      pop\n        /* \"contracts/ExampleMappingStruct.sol\":759:919  function withdrawMoney (address payable  _to, uint _amount) public{... */\n      pop\n      pop\n      jump\t// out\n        /* \"#utility.yul\":88:205   */\n    tag_29:\n        /* \"#utility.yul\":197:198   */\n      0x00\n        /* \"#utility.yul\":194:195   */\n      dup1\n        /* \"#utility.yul\":187:199   */\n      revert\n        /* \"#utility.yul\":334:460   */\n    tag_31:\n        /* \"#utility.yul\":371:378   */\n      0x00\n        /* \"#utility.yul\":411:453   */\n      0xffffffffffffffffffffffffffffffffffffffff\n        /* \"#utility.yul\":404:409   */\n      dup3\n        /* \"#utility.yul\":400:454   */\n      and\n        /* \"#utility.yul\":389:454   */\n      swap1\n      pop\n        /* \"#utility.yul\":334:460   */\n      swap2\n      swap1\n      pop\n      jump\t// out\n        /* \"#utility.yul\":466:562   */\n    tag_32:\n        /* \"#utility.yul\":503:510   */\n      0x00\n        /* \"#utility.yul\":532:556   */\n      tag_49\n        /* \"#utility.yul\":550:555   */\n      dup3\n        /* \"#utility.yul\":532:556   */\n      tag_31\n      jump\t// in\n    tag_49:\n        /* \"#utility.yul\":521:556   */\n      swap1\n      pop\n        /* \"#utility.yul\":466:562   */\n      swap2\n      swap1\n      pop\n      jump\t// out\n        /* \"#utility.yul\":568:690   */\n    tag_33:\n        /* \"#utility.yul\":641:665   */\n      tag_51\n        /* \"#utility.yul\":659:664   */\n      dup2\n        /* \"#utility.yul\":641:665   */\n      tag_32\n      jump\t// in\n    tag_51:\n        /* \"#utility.yul\":634:639   */\n      dup2\n        /* \"#utility.yul\":631:666   */\n      eq\n        /* \"#utility.yul\":621:684   */\n      tag_52\n      jumpi\n        /* \"#utility.yul\":680:681   */\n      0x00\n        /* \"#utility.yul\":677:678   */\n      dup1\n        /* \"#utility.yul\":670:682   */\n      revert\n        /* \"#utility.yul\":621:684   */\n    tag_52:\n        /* \"#utility.yul\":568:690   */\n      pop\n      jump\t// out\n        /* \"#utility.yul\":696:835   */\n    tag_34:\n        /* \"#utility.yul\":742:747   */\n      0x00\n        /* \"#utility.yul\":780:786   */\n      dup2\n        /* \"#utility.yul\":767:787   */\n      calldataload\n        /* \"#utility.yul\":758:787   */\n      swap1\n      pop\n        /* \"#utility.yul\":796:829   */\n      tag_54\n        /* \"#utility.yul\":823:828   */\n      dup2\n        /* \"#utility.yul\":796:829   */\n      tag_33\n      jump\t// in\n    tag_54:\n        /* \"#utility.yul\":696:835   */\n      swap3\n      swap2\n      pop\n      pop\n      jump\t// out\n        /* \"#utility.yul\":841:1170   */\n    tag_10:\n        /* \"#utility.yul\":900:906   */\n      0x00\n        /* \"#utility.yul\":949:951   */\n      0x20\n        /* \"#utility.yul\":937:946   */\n      dup3\n        /* \"#utility.yul\":928:935   */\n      dup5\n        /* \"#utility.yul\":924:947   */\n      sub\n        /* \"#utility.yul\":920:952   */\n      slt\n        /* \"#utility.yul\":917:1036   */\n      iszero\n      tag_56\n      jumpi\n        /* \"#utility.yul\":955:1034   */\n      tag_57\n      tag_29\n      jump\t// in\n    tag_57:\n        /* \"#utility.yul\":917:1036   */\n    tag_56:\n        /* \"#utility.yul\":1075:1076   */\n      0x00\n        /* \"#utility.yul\":1100:1153   */\n      tag_58\n        /* \"#utility.yul\":1145:1152   */\n      dup5\n        /* \"#utility.yul\":1136:1142   */\n      dup3\n        /* \"#utility.yul\":1125:1134   */\n      dup6\n        /* \"#utility.yul\":1121:1143   */\n      add\n        /* \"#utility.yul\":1100:1153   */\n      tag_34\n      jump\t// in\n    tag_58:\n        /* \"#utility.yul\":1090:1153   */\n      swap2\n      pop\n        /* \"#utility.yul\":1046:1163   */\n      pop\n        /* \"#utility.yul\":841:1170   */\n      swap3\n      swap2\n      pop\n      pop\n      jump\t// out\n        /* \"#utility.yul\":1176:1253   */\n    tag_35:\n        /* \"#utility.yul\":1213:1220   */\n      0x00\n        /* \"#utility.yul\":1242:1247   */\n      dup2\n        /* \"#utility.yul\":1231:1247   */\n      swap1\n      pop\n        /* \"#utility.yul\":1176:1253   */\n      swap2\n      swap1\n      pop\n      jump\t// out\n        /* \"#utility.yul\":1259:1377   */\n    tag_36:\n        /* \"#utility.yul\":1346:1370   */\n      tag_61\n        /* \"#utility.yul\":1364:1369   */\n      dup2\n        /* \"#utility.yul\":1346:1370   */\n      tag_35\n      jump\t// in\n    tag_61:\n        /* \"#utility.yul\":1341:1344   */\n      dup3\n        /* \"#utility.yul\":1334:1371   */\n      mstore\n        /* \"#utility.yul\":1259:1377   */\n      pop\n      pop\n      jump\t// out\n        /* \"#utility.yul\":1383:1825   */\n    tag_13:\n        /* \"#utility.yul\":1532:1536   */\n      0x00\n        /* \"#utility.yul\":1570:1572   */\n      0x60\n        /* \"#utility.yul\":1559:1568   */\n      dup3\n        /* \"#utility.yul\":1555:1573   */\n      add\n        /* \"#utility.yul\":1547:1573   */\n      swap1\n      pop\n        /* \"#utility.yul\":1583:1654   */\n      tag_63\n        /* \"#utility.yul\":1651:1652   */\n      0x00\n        /* \"#utility.yul\":1640:1649   */\n      dup4\n        /* \"#utility.yul\":1636:1653   */\n      add\n        /* \"#utility.yul\":1627:1633   */\n      dup7\n        /* \"#utility.yul\":1583:1654   */\n      tag_36\n      jump\t// in\n    tag_63:\n        /* \"#utility.yul\":1664:1736   */\n      tag_64\n        /* \"#utility.yul\":1732:1734   */\n      0x20\n        /* \"#utility.yul\":1721:1730   */\n      dup4\n        /* \"#utility.yul\":1717:1735   */\n      add\n        /* \"#utility.yul\":1708:1714   */\n      dup6\n        /* \"#utility.yul\":1664:1736   */\n      tag_36\n      jump\t// in\n    tag_64:\n        /* \"#utility.yul\":1746:1818   */\n      tag_65\n        /* \"#utility.yul\":1814:1816   */\n      0x40\n        /* \"#utility.yul\":1803:1812   */\n      dup4\n        /* \"#utility.yul\":1799:1817   */\n      add\n        /* \"#utility.yul\":1790:1796   */\n      dup5\n        /* \"#utility.yul\":1746:1818   */\n      tag_36\n      jump\t// in\n    tag_65:\n        /* \"#utility.yul\":1383:1825   */\n      swap5\n      swap4\n      pop\n      pop\n      pop\n      pop\n      jump\t// out\n        /* \"#utility.yul\":1831:1935   */\n    tag_37:\n        /* \"#utility.yul\":1876:1883   */\n      0x00\n        /* \"#utility.yul\":1905:1929   */\n      tag_67\n        /* \"#utility.yul\":1923:1928   */\n      dup3\n        /* \"#utility.yul\":1905:1929   */\n      tag_31\n      jump\t// in\n    tag_67:\n        /* \"#utility.yul\":1894:1929   */\n      swap1\n      pop\n        /* \"#utility.yul\":1831:1935   */\n      swap2\n      swap1\n      pop\n      jump\t// out\n        /* \"#utility.yul\":1941:2079   */\n    tag_38:\n        /* \"#utility.yul\":2022:2054   */\n      tag_69\n        /* \"#utility.yul\":2048:2053   */\n      dup2\n        /* \"#utility.yul\":2022:2054   */\n      tag_37\n      jump\t// in\n    tag_69:\n        /* \"#utility.yul\":2015:2020   */\n      dup2\n        /* \"#utility.yul\":2012:2055   */\n      eq\n        /* \"#utility.yul\":2002:2073   */\n      tag_70\n      jumpi\n        /* \"#utility.yul\":2069:2070   */\n      0x00\n        /* \"#utility.yul\":2066:2067   */\n      dup1\n        /* \"#utility.yul\":2059:2071   */\n      revert\n        /* \"#utility.yul\":2002:2073   */\n    tag_70:\n        /* \"#utility.yul\":1941:2079   */\n      pop\n      jump\t// out\n        /* \"#utility.yul\":2085:2240   */\n    tag_39:\n        /* \"#utility.yul\":2139:2144   */\n      0x00\n        /* \"#utility.yul\":2177:2183   */\n      dup2\n        /* \"#utility.yul\":2164:2184   */\n      calldataload\n        /* \"#utility.yul\":2155:2184   */\n      swap1\n      pop\n        /* \"#utility.yul\":2193:2234   */\n      tag_72\n        /* \"#utility.yul\":2228:2233   */\n      dup2\n        /* \"#utility.yul\":2193:2234   */\n      tag_38\n      jump\t// in\n    tag_72:\n        /* \"#utility.yul\":2085:2240   */\n      swap3\n      swap2\n      pop\n      pop\n      jump\t// out\n        /* \"#utility.yul\":2246:2368   */\n    tag_40:\n        /* \"#utility.yul\":2319:2343   */\n      tag_74\n        /* \"#utility.yul\":2337:2342   */\n      dup2\n        /* \"#utility.yul\":2319:2343   */\n      tag_35\n      jump\t// in\n    tag_74:\n        /* \"#utility.yul\":2312:2317   */\n      dup2\n        /* \"#utility.yul\":2309:2344   */\n      eq\n        /* \"#utility.yul\":2299:2362   */\n      tag_75\n      jumpi\n        /* \"#utility.yul\":2358:2359   */\n      0x00\n        /* \"#utility.yul\":2355:2356   */\n      dup1\n        /* \"#utility.yul\":2348:2360   */\n      revert\n        /* \"#utility.yul\":2299:2362   */\n    tag_75:\n        /* \"#utility.yul\":2246:2368   */\n      pop\n      jump\t// out\n        /* \"#utility.yul\":2374:2513   */\n    tag_41:\n        /* \"#utility.yul\":2420:2425   */\n      0x00\n        /* \"#utility.yul\":2458:2464   */\n      dup2\n        /* \"#utility.yul\":2445:2465   */\n      calldataload\n        /* \"#utility.yul\":2436:2465   */\n      swap1\n      pop\n        /* \"#utility.yul\":2474:2507   */\n      tag_77\n        /* \"#utility.yul\":2501:2506   */\n      dup2\n        /* \"#utility.yul\":2474:2507   */\n      tag_40\n      jump\t// in\n    tag_77:\n        /* \"#utility.yul\":2374:2513   */\n      swap3\n      swap2\n      pop\n      pop\n      jump\t// out\n        /* \"#utility.yul\":2519:3009   */\n    tag_17:\n        /* \"#utility.yul\":2595:2601   */\n      0x00\n        /* \"#utility.yul\":2603:2609   */\n      dup1\n        /* \"#utility.yul\":2652:2654   */\n      0x40\n        /* \"#utility.yul\":2640:2649   */\n      dup4\n        /* \"#utility.yul\":2631:2638   */\n      dup6\n        /* \"#utility.yul\":2627:2650   */\n      sub\n        /* \"#utility.yul\":2623:2655   */\n      slt\n        /* \"#utility.yul\":2620:2739   */\n      iszero\n      tag_79\n      jumpi\n        /* \"#utility.yul\":2658:2737   */\n      tag_80\n      tag_29\n      jump\t// in\n    tag_80:\n        /* \"#utility.yul\":2620:2739   */\n    tag_79:\n        /* \"#utility.yul\":2778:2779   */\n      0x00\n        /* \"#utility.yul\":2803:2864   */\n      tag_81\n        /* \"#utility.yul\":2856:2863   */\n      dup6\n        /* \"#utility.yul\":2847:2853   */\n      dup3\n        /* \"#utility.yul\":2836:2845   */\n      dup7\n        /* \"#utility.yul\":2832:2854   */\n      add\n        /* \"#utility.yul\":2803:2864   */\n      tag_39\n      jump\t// in\n    tag_81:\n        /* \"#utility.yul\":2793:2864   */\n      swap3\n      pop\n        /* \"#utility.yul\":2749:2874   */\n      pop\n        /* \"#utility.yul\":2913:2915   */\n      0x20\n        /* \"#utility.yul\":2939:2992   */\n      tag_82\n        /* \"#utility.yul\":2984:2991   */\n      dup6\n        /* \"#utility.yul\":2975:2981   */\n      dup3\n        /* \"#utility.yul\":2964:2973   */\n      dup7\n        /* \"#utility.yul\":2960:2982   */\n      add\n        /* \"#utility.yul\":2939:2992   */\n      tag_41\n      jump\t// in\n    tag_82:\n        /* \"#utility.yul\":2929:2992   */\n      swap2\n      pop\n        /* \"#utility.yul\":2884:3002   */\n      pop\n        /* \"#utility.yul\":2519:3009   */\n      swap3\n      pop\n      swap3\n      swap1\n      pop\n      jump\t// out\n        /* \"#utility.yul\":3015:3195   */\n    tag_42:\n        /* \"#utility.yul\":3063:3140   */\n      0x4e487b7100000000000000000000000000000000000000000000000000000000\n        /* \"#utility.yul\":3060:3061   */\n      0x00\n        /* \"#utility.yul\":3053:3141   */\n      mstore\n        /* \"#utility.yul\":3160:3164   */\n      0x11\n        /* \"#utility.yul\":3157:3158   */\n      0x04\n        /* \"#utility.yul\":3150:3165   */\n      mstore\n        /* \"#utility.yul\":3184:3188   */\n      0x24\n        /* \"#utility.yul\":3181:3182   */\n      0x00\n        /* \"#utility.yul\":3174:3189   */\n      revert\n        /* \"#utility.yul\":3201:3392   */\n    tag_21:\n        /* \"#utility.yul\":3241:3244   */\n      0x00\n        /* \"#utility.yul\":3260:3280   */\n      tag_85\n        /* \"#utility.yul\":3278:3279   */\n      dup3\n        /* \"#utility.yul\":3260:3280   */\n      tag_35\n      jump\t// in\n    tag_85:\n        /* \"#utility.yul\":3255:3280   */\n      swap2\n      pop\n        /* \"#utility.yul\":3294:3314   */\n      tag_86\n        /* \"#utility.yul\":3312:3313   */\n      dup4\n        /* \"#utility.yul\":3294:3314   */\n      tag_35\n      jump\t// in\n    tag_86:\n        /* \"#utility.yul\":3289:3314   */\n      swap3\n      pop\n        /* \"#utility.yul\":3337:3338   */\n      dup3\n        /* \"#utility.yul\":3334:3335   */\n      dup3\n        /* \"#utility.yul\":3330:3339   */\n      add\n        /* \"#utility.yul\":3323:3339   */\n      swap1\n      pop\n        /* \"#utility.yul\":3358:3361   */\n      dup1\n        /* \"#utility.yul\":3355:3356   */\n      dup3\n        /* \"#utility.yul\":3352:3362   */\n      gt\n        /* \"#utility.yul\":3349:3385   */\n      iszero\n      tag_87\n      jumpi\n        /* \"#utility.yul\":3365:3383   */\n      tag_88\n      tag_42\n      jump\t// in\n    tag_88:\n        /* \"#utility.yul\":3349:3385   */\n    tag_87:\n        /* \"#utility.yul\":3201:3392   */\n      swap3\n      swap2\n      pop\n      pop\n      jump\t// out\n        /* \"#utility.yul\":3398:3631   */\n    tag_23:\n        /* \"#utility.yul\":3437:3440   */\n      0x00\n        /* \"#utility.yul\":3460:3484   */\n      tag_90\n        /* \"#utility.yul\":3478:3483   */\n      dup3\n        /* \"#utility.yul\":3460:3484   */\n      tag_35\n      jump\t// in\n    tag_90:\n        /* \"#utility.yul\":3451:3484   */\n      swap2\n      pop\n        /* \"#utility.yul\":3506:3572   */\n      0xffffffffffffffffffffffffffffffffffffffffffffffffffffffffffffffff\n        /* \"#utility.yul\":3499:3504   */\n      dup3\n        /* \"#utility.yul\":3496:3573   */\n      sub\n        /* \"#utility.yul\":3493:3596   */\n      tag_91\n      jumpi\n        /* \"#utility.yul\":3576:3594   */\n      tag_92\n      tag_42\n      jump\t// in\n    tag_92:\n        /* \"#utility.yul\":3493:3596   */\n    tag_91:\n        /* \"#utility.yul\":3623:3624   */\n      0x01\n        /* \"#utility.yul\":3616:3621   */\n      dup3\n        /* \"#utility.yul\":3612:3625   */\n      add\n        /* \"#utility.yul\":3605:3625   */\n      swap1\n      pop\n        /* \"#utility.yul\":3398:3631   */\n      swap2\n      swap1\n      pop\n      jump\t// out\n\n    auxdata: 0xa264697066735822122027c6c80c32320d86bfcddeceb5a34806cad3781d72609d6fd9e9c46da491682f64736f6c634300081a0033\n}\n",
				"bytecode": {
					"linkReferences": {},
					"object": "6080604052348015600e575f80fd5b506105268061001c5f395ff3fe608060405260043610610033575f3560e01c806316c05aa21461003757806327e235e314610041578063f274c8971461007f575b5f80fd5b61003f6100a7565b005b34801561004c575f80fd5b506100676004803603810190610062919061032e565b61020d565b60405161007693929190610371565b60405180910390f35b34801561008a575f80fd5b506100a560048036038101906100a0919061040b565b610232565b005b345f803373ffffffffffffffffffffffffffffffffffffffff1673ffffffffffffffffffffffffffffffffffffffff1681526020019081526020015f205f015f8282546100f49190610476565b925050819055505f6040518060400160405280348152602001428152509050805f803373ffffffffffffffffffffffffffffffffffffffff1673ffffffffffffffffffffffffffffffffffffffff1681526020019081526020015f206002015f805f3373ffffffffffffffffffffffffffffffffffffffff1673ffffffffffffffffffffffffffffffffffffffff1681526020019081526020015f206001015481526020019081526020015f205f820151815f0155602082015181600101559050505f803373ffffffffffffffffffffffffffffffffffffffff1673ffffffffffffffffffffffffffffffffffffffff1681526020019081526020015f206001015f815480929190610205906104a9565b919050555050565b5f602052805f5260405f205f91509050805f0154908060010154908060030154905083565b60015f803373ffffffffffffffffffffffffffffffffffffffff1673ffffffffffffffffffffffffffffffffffffffff1681526020019081526020015f206003015f8282546102819190610476565b925050819055508173ffffffffffffffffffffffffffffffffffffffff166108fc8290811502906040515f60405180830381858888f193505050501580156102cb573d5f803e3d5ffd5b505050565b5f80fd5b5f73ffffffffffffffffffffffffffffffffffffffff82169050919050565b5f6102fd826102d4565b9050919050565b61030d816102f3565b8114610317575f80fd5b50565b5f8135905061032881610304565b92915050565b5f60208284031215610343576103426102d0565b5b5f6103508482850161031a565b91505092915050565b5f819050919050565b61036b81610359565b82525050565b5f6060820190506103845f830186610362565b6103916020830185610362565b61039e6040830184610362565b949350505050565b5f6103b0826102d4565b9050919050565b6103c0816103a6565b81146103ca575f80fd5b50565b5f813590506103db816103b7565b92915050565b6103ea81610359565b81146103f4575f80fd5b50565b5f81359050610405816103e1565b92915050565b5f8060408385031215610421576104206102d0565b5b5f61042e858286016103cd565b925050602061043f858286016103f7565b9150509250929050565b7f4e487b71000000000000000000000000000000000000000000000000000000005f52601160045260245ffd5b5f61048082610359565b915061048b83610359565b92508282019050808211156104a3576104a2610449565b5b92915050565b5f6104b382610359565b91507fffffffffffffffffffffffffffffffffffffffffffffffffffffffffffffffff82036104e5576104e4610449565b5b60018201905091905056fea264697066735822122027c6c80c32320d86bfcddeceb5a34806cad3781d72609d6fd9e9c46da491682f64736f6c634300081a0033",
					"opcodes": "PUSH1 0x80 PUSH1 0x40 MSTORE CALLVALUE DUP1 ISZERO PUSH1 0xE JUMPI PUSH0 DUP1 REVERT JUMPDEST POP PUSH2 0x526 DUP1 PUSH2 0x1C PUSH0 CODECOPY PUSH0 RETURN INVALID PUSH1 0x80 PUSH1 0x40 MSTORE PUSH1 0x4 CALLDATASIZE LT PUSH2 0x33 JUMPI PUSH0 CALLDATALOAD PUSH1 0xE0 SHR DUP1 PUSH4 0x16C05AA2 EQ PUSH2 0x37 JUMPI DUP1 PUSH4 0x27E235E3 EQ PUSH2 0x41 JUMPI DUP1 PUSH4 0xF274C897 EQ PUSH2 0x7F JUMPI JUMPDEST PUSH0 DUP1 REVERT JUMPDEST PUSH2 0x3F PUSH2 0xA7 JUMP JUMPDEST STOP JUMPDEST CALLVALUE DUP1 ISZERO PUSH2 0x4C JUMPI PUSH0 DUP1 REVERT JUMPDEST POP PUSH2 0x67 PUSH1 0x4 DUP1 CALLDATASIZE SUB DUP2 ADD SWAP1 PUSH2 0x62 SWAP2 SWAP1 PUSH2 0x32E JUMP JUMPDEST PUSH2 0x20D JUMP JUMPDEST PUSH1 0x40 MLOAD PUSH2 0x76 SWAP4 SWAP3 SWAP2 SWAP1 PUSH2 0x371 JUMP JUMPDEST PUSH1 0x40 MLOAD DUP1 SWAP2 SUB SWAP1 RETURN JUMPDEST CALLVALUE DUP1 ISZERO PUSH2 0x8A JUMPI PUSH0 DUP1 REVERT JUMPDEST POP PUSH2 0xA5 PUSH1 0x4 DUP1 CALLDATASIZE SUB DUP2 ADD SWAP1 PUSH2 0xA0 SWAP2 SWAP1 PUSH2 0x40B JUMP JUMPDEST PUSH2 0x232 JUMP JUMPDEST STOP JUMPDEST CALLVALUE PUSH0 DUP1 CALLER PUSH20 0xFFFFFFFFFFFFFFFFFFFFFFFFFFFFFFFFFFFFFFFF AND PUSH20 0xFFFFFFFFFFFFFFFFFFFFFFFFFFFFFFFFFFFFFFFF AND DUP2 MSTORE PUSH1 0x20 ADD SWAP1 DUP2 MSTORE PUSH1 0x20 ADD PUSH0 KECCAK256 PUSH0 ADD PUSH0 DUP3 DUP3 SLOAD PUSH2 0xF4 SWAP2 SWAP1 PUSH2 0x476 JUMP JUMPDEST SWAP3 POP POP DUP2 SWAP1 SSTORE POP PUSH0 PUSH1 0x40 MLOAD DUP1 PUSH1 0x40 ADD PUSH1 0x40 MSTORE DUP1 CALLVALUE DUP2 MSTORE PUSH1 0x20 ADD TIMESTAMP DUP2 MSTORE POP SWAP1 POP DUP1 PUSH0 DUP1 CALLER PUSH20 0xFFFFFFFFFFFFFFFFFFFFFFFFFFFFFFFFFFFFFFFF AND PUSH20 0xFFFFFFFFFFFFFFFFFFFFFFFFFFFFFFFFFFFFFFFF AND DUP2 MSTORE PUSH1 0x20 ADD SWAP1 DUP2 MSTORE PUSH1 0x20 ADD PUSH0 KECCAK256 PUSH1 0x2 ADD PUSH0 DUP1 PUSH0 CALLER PUSH20 0xFFFFFFFFFFFFFFFFFFFFFFFFFFFFFFFFFFFFFFFF AND PUSH20 0xFFFFFFFFFFFFFFFFFFFFFFFFFFFFFFFFFFFFFFFF AND DUP2 MSTORE PUSH1 0x20 ADD SWAP1 DUP2 MSTORE PUSH1 0x20 ADD PUSH0 KECCAK256 PUSH1 0x1 ADD SLOAD DUP2 MSTORE PUSH1 0x20 ADD SWAP1 DUP2 MSTORE PUSH1 0x20 ADD PUSH0 KECCAK256 PUSH0 DUP3 ADD MLOAD DUP2 PUSH0 ADD SSTORE PUSH1 0x20 DUP3 ADD MLOAD DUP2 PUSH1 0x1 ADD SSTORE SWAP1 POP POP PUSH0 DUP1 CALLER PUSH20 0xFFFFFFFFFFFFFFFFFFFFFFFFFFFFFFFFFFFFFFFF AND PUSH20 0xFFFFFFFFFFFFFFFFFFFFFFFFFFFFFFFFFFFFFFFF AND DUP2 MSTORE PUSH1 0x20 ADD SWAP1 DUP2 MSTORE PUSH1 0x20 ADD PUSH0 KECCAK256 PUSH1 0x1 ADD PUSH0 DUP2 SLOAD DUP1 SWAP3 SWAP2 SWAP1 PUSH2 0x205 SWAP1 PUSH2 0x4A9 JUMP JUMPDEST SWAP2 SWAP1 POP SSTORE POP POP JUMP JUMPDEST PUSH0 PUSH1 0x20 MSTORE DUP1 PUSH0 MSTORE PUSH1 0x40 PUSH0 KECCAK256 PUSH0 SWAP2 POP SWAP1 POP DUP1 PUSH0 ADD SLOAD SWAP1 DUP1 PUSH1 0x1 ADD SLOAD SWAP1 DUP1 PUSH1 0x3 ADD SLOAD SWAP1 POP DUP4 JUMP JUMPDEST PUSH1 0x1 PUSH0 DUP1 CALLER PUSH20 0xFFFFFFFFFFFFFFFFFFFFFFFFFFFFFFFFFFFFFFFF AND PUSH20 0xFFFFFFFFFFFFFFFFFFFFFFFFFFFFFFFFFFFFFFFF AND DUP2 MSTORE PUSH1 0x20 ADD SWAP1 DUP2 MSTORE PUSH1 0x20 ADD PUSH0 KECCAK256 PUSH1 0x3 ADD PUSH0 DUP3 DUP3 SLOAD PUSH2 0x281 SWAP2 SWAP1 PUSH2 0x476 JUMP JUMPDEST SWAP3 POP POP DUP2 SWAP1 SSTORE POP DUP2 PUSH20 0xFFFFFFFFFFFFFFFFFFFFFFFFFFFFFFFFFFFFFFFF AND PUSH2 0x8FC DUP3 SWAP1 DUP2 ISZERO MUL SWAP1 PUSH1 0x40 MLOAD PUSH0 PUSH1 0x40 MLOAD DUP1 DUP4 SUB DUP2 DUP6 DUP9 DUP9 CALL SWAP4 POP POP POP POP ISZERO DUP1 ISZERO PUSH2 0x2CB JUMPI RETURNDATASIZE PUSH0 DUP1 RETURNDATACOPY RETURNDATASIZE PUSH0 REVERT JUMPDEST POP POP POP JUMP JUMPDEST PUSH0 DUP1 REVERT JUMPDEST PUSH0 PUSH20 0xFFFFFFFFFFFFFFFFFFFFFFFFFFFFFFFFFFFFFFFF DUP3 AND SWAP1 POP SWAP2 SWAP1 POP JUMP JUMPDEST PUSH0 PUSH2 0x2FD DUP3 PUSH2 0x2D4 JUMP JUMPDEST SWAP1 POP SWAP2 SWAP1 POP JUMP JUMPDEST PUSH2 0x30D DUP2 PUSH2 0x2F3 JUMP JUMPDEST DUP2 EQ PUSH2 0x317 JUMPI PUSH0 DUP1 REVERT JUMPDEST POP JUMP JUMPDEST PUSH0 DUP2 CALLDATALOAD SWAP1 POP PUSH2 0x328 DUP2 PUSH2 0x304 JUMP JUMPDEST SWAP3 SWAP2 POP POP JUMP JUMPDEST PUSH0 PUSH1 0x20 DUP3 DUP5 SUB SLT ISZERO PUSH2 0x343 JUMPI PUSH2 0x342 PUSH2 0x2D0 JUMP JUMPDEST JUMPDEST PUSH0 PUSH2 0x350 DUP5 DUP3 DUP6 ADD PUSH2 0x31A JUMP JUMPDEST SWAP2 POP POP SWAP3 SWAP2 POP POP JUMP JUMPDEST PUSH0 DUP2 SWAP1 POP SWAP2 SWAP1 POP JUMP JUMPDEST PUSH2 0x36B DUP2 PUSH2 0x359 JUMP JUMPDEST DUP3 MSTORE POP POP JUMP JUMPDEST PUSH0 PUSH1 0x60 DUP3 ADD SWAP1 POP PUSH2 0x384 PUSH0 DUP4 ADD DUP7 PUSH2 0x362 JUMP JUMPDEST PUSH2 0x391 PUSH1 0x20 DUP4 ADD DUP6 PUSH2 0x362 JUMP JUMPDEST PUSH2 0x39E PUSH1 0x40 DUP4 ADD DUP5 PUSH2 0x362 JUMP JUMPDEST SWAP5 SWAP4 POP POP POP POP JUMP JUMPDEST PUSH0 PUSH2 0x3B0 DUP3 PUSH2 0x2D4 JUMP JUMPDEST SWAP1 POP SWAP2 SWAP1 POP JUMP JUMPDEST PUSH2 0x3C0 DUP2 PUSH2 0x3A6 JUMP JUMPDEST DUP2 EQ PUSH2 0x3CA JUMPI PUSH0 DUP1 REVERT JUMPDEST POP JUMP JUMPDEST PUSH0 DUP2 CALLDATALOAD SWAP1 POP PUSH2 0x3DB DUP2 PUSH2 0x3B7 JUMP JUMPDEST SWAP3 SWAP2 POP POP JUMP JUMPDEST PUSH2 0x3EA DUP2 PUSH2 0x359 JUMP JUMPDEST DUP2 EQ PUSH2 0x3F4 JUMPI PUSH0 DUP1 REVERT JUMPDEST POP JUMP JUMPDEST PUSH0 DUP2 CALLDATALOAD SWAP1 POP PUSH2 0x405 DUP2 PUSH2 0x3E1 JUMP JUMPDEST SWAP3 SWAP2 POP POP JUMP JUMPDEST PUSH0 DUP1 PUSH1 0x40 DUP4 DUP6 SUB SLT ISZERO PUSH2 0x421 JUMPI PUSH2 0x420 PUSH2 0x2D0 JUMP JUMPDEST JUMPDEST PUSH0 PUSH2 0x42E DUP6 DUP3 DUP7 ADD PUSH2 0x3CD JUMP JUMPDEST SWAP3 POP POP PUSH1 0x20 PUSH2 0x43F DUP6 DUP3 DUP7 ADD PUSH2 0x3F7 JUMP JUMPDEST SWAP2 POP POP SWAP3 POP SWAP3 SWAP1 POP JUMP JUMPDEST PUSH32 0x4E487B7100000000000000000000000000000000000000000000000000000000 PUSH0 MSTORE PUSH1 0x11 PUSH1 0x4 MSTORE PUSH1 0x24 PUSH0 REVERT JUMPDEST PUSH0 PUSH2 0x480 DUP3 PUSH2 0x359 JUMP JUMPDEST SWAP2 POP PUSH2 0x48B DUP4 PUSH2 0x359 JUMP JUMPDEST SWAP3 POP DUP3 DUP3 ADD SWAP1 POP DUP1 DUP3 GT ISZERO PUSH2 0x4A3 JUMPI PUSH2 0x4A2 PUSH2 0x449 JUMP JUMPDEST JUMPDEST SWAP3 SWAP2 POP POP JUMP JUMPDEST PUSH0 PUSH2 0x4B3 DUP3 PUSH2 0x359 JUMP JUMPDEST SWAP2 POP PUSH32 0xFFFFFFFFFFFFFFFFFFFFFFFFFFFFFFFFFFFFFFFFFFFFFFFFFFFFFFFFFFFFFFFF DUP3 SUB PUSH2 0x4E5 JUMPI PUSH2 0x4E4 PUSH2 0x449 JUMP JUMPDEST JUMPDEST PUSH1 0x1 DUP3 ADD SWAP1 POP SWAP2 SWAP1 POP JUMP INVALID LOG2 PUSH5 0x6970667358 0x22 SLT KECCAK256 0x27 0xC6 0xC8 0xC ORIGIN ORIGIN 0xD DUP7 0xBF 0xCD 0xDE 0xCE 0xB5 LOG3 BASEFEE MOD 0xCA 0xD3 PUSH25 0x1D72609D6FD9E9C46DA491682F64736F6C634300081A003300 "
				},
				"gasEstimates": {
					"creation": {
						"codeDepositCost": "263600",
						"executionCost": "304",
						"totalCost": "263904"
					},
					"external": {
						"balances(address)": "infinite",
						"depositMoney()": "infinite",
						"withdrawMoney(address,uint256)": "infinite"
					}
				},
				"methodIdentifiers": {
					"balances(address)": "27e235e3",
					"depositMoney()": "16c05aa2",
					"withdrawMoney(address,uint256)": "f274c897"
				}
			},
			"storageLayout": {
				"storage": [
					{
						"astId": 28,
						"contract": "contracts/ExampleMappingStruct.sol:Wallet",
						"label": "balances",
						"offset": 0,
						"slot": "0",
						"type": "t_mapping(t_address,t_struct(Balance)23_storage)"
					}
				],
				"types": {
					"t_address": {
						"encoding": "inplace",
						"label": "address",
						"numberOfBytes": "20"
					},
					"t_mapping(t_address,t_struct(Balance)23_storage)": {
						"encoding": "mapping",
						"key": "t_address",
						"label": "mapping(address => struct Wallet.Balance)",
						"numberOfBytes": "32",
						"value": "t_struct(Balance)23_storage"
					},
					"t_mapping(t_uint256,t_struct(Transaction)6_storage)": {
						"encoding": "mapping",
						"key": "t_uint256",
						"label": "mapping(uint256 => struct Wallet.Transaction)",
						"numberOfBytes": "32",
						"value": "t_struct(Transaction)6_storage"
					},
					"t_struct(Balance)23_storage": {
						"encoding": "inplace",
						"label": "struct Wallet.Balance",
						"members": [
							{
								"astId": 8,
								"contract": "contracts/ExampleMappingStruct.sol:Wallet",
								"label": "totalBalance",
								"offset": 0,
								"slot": "0",
								"type": "t_uint256"
							},
							{
								"astId": 10,
								"contract": "contracts/ExampleMappingStruct.sol:Wallet",
								"label": "numDeposit",
								"offset": 0,
								"slot": "1",
								"type": "t_uint256"
							},
							{
								"astId": 15,
								"contract": "contracts/ExampleMappingStruct.sol:Wallet",
								"label": "deposits",
								"offset": 0,
								"slot": "2",
								"type": "t_mapping(t_uint256,t_struct(Transaction)6_storage)"
							},
							{
								"astId": 17,
								"contract": "contracts/ExampleMappingStruct.sol:Wallet",
								"label": "numWithdrawals",
								"offset": 0,
								"slot": "3",
								"type": "t_uint256"
							},
							{
								"astId": 22,
								"contract": "contracts/ExampleMappingStruct.sol:Wallet",
								"label": "withdrawals",
								"offset": 0,
								"slot": "4",
								"type": "t_mapping(t_uint256,t_struct(Transaction)6_storage)"
							}
						],
						"numberOfBytes": "160"
					},
					"t_struct(Transaction)6_storage": {
						"encoding": "inplace",
						"label": "struct Wallet.Transaction",
						"members": [
							{
								"astId": 3,
								"contract": "contracts/ExampleMappingStruct.sol:Wallet",
								"label": "amount",
								"offset": 0,
								"slot": "0",
								"type": "t_uint256"
							},
							{
								"astId": 5,
								"contract": "contracts/ExampleMappingStruct.sol:Wallet",
								"label": "timestamp",
								"offset": 0,
								"slot": "1",
								"type": "t_uint256"
							}
						],
						"numberOfBytes": "64"
					},
					"t_uint256": {
						"encoding": "inplace",
						"label": "uint256",
						"numberOfBytes": "32"
					}
				}
			},
			"userdoc": {
				"kind": "user",
				"methods": {},
				"version": 1
			}
		}
	}
}