{
	"contracts/SmartContractWallet.sol": {
		"SmartContracWallet": {
			"abi": [
				{
					"inputs": [],
					"stateMutability": "nonpayable",
					"type": "constructor"
				},
				{
					"inputs": [
						{
							"internalType": "address",
							"name": "",
							"type": "address"
						}
					],
					"name": "allowance",
					"outputs": [
						{
							"internalType": "uint256",
							"name": "",
							"type": "uint256"
						}
					],
					"stateMutability": "view",
					"type": "function"
				},
				{
					"inputs": [],
					"name": "confirmationsFromGuardiansForReset",
					"outputs": [
						{
							"internalType": "uint256",
							"name": "",
							"type": "uint256"
						}
					],
					"stateMutability": "view",
					"type": "function"
				},
				{
					"inputs": [
						{
							"internalType": "address",
							"name": "",
							"type": "address"
						}
					],
					"name": "guardians",
					"outputs": [
						{
							"internalType": "bool",
							"name": "",
							"type": "bool"
						}
					],
					"stateMutability": "view",
					"type": "function"
				},
				{
					"inputs": [
						{
							"internalType": "address",
							"name": "",
							"type": "address"
						}
					],
					"name": "isAllowedToSend",
					"outputs": [
						{
							"internalType": "bool",
							"name": "",
							"type": "bool"
						}
					],
					"stateMutability": "view",
					"type": "function"
				},
				{
					"inputs": [
						{
							"internalType": "address",
							"name": "",
							"type": "address"
						},
						{
							"internalType": "address",
							"name": "",
							"type": "address"
						}
					],
					"name": "nextOwnerGuardianVotedBool",
					"outputs": [
						{
							"internalType": "bool",
							"name": "",
							"type": "bool"
						}
					],
					"stateMutability": "view",
					"type": "function"
				},
				{
					"inputs": [],
					"name": "owner",
					"outputs": [
						{
							"internalType": "address payable",
							"name": "",
							"type": "address"
						}
					],
					"stateMutability": "view",
					"type": "function"
				},
				{
					"inputs": [
						{
							"internalType": "address payable",
							"name": "_newOwner",
							"type": "address"
						}
					],
					"name": "proposeNewOwner",
					"outputs": [],
					"stateMutability": "nonpayable",
					"type": "function"
				},
				{
					"inputs": [
						{
							"internalType": "address",
							"name": "_for",
							"type": "address"
						},
						{
							"internalType": "uint256",
							"name": "_amount",
							"type": "uint256"
						}
					],
					"name": "setAllowance",
					"outputs": [],
					"stateMutability": "nonpayable",
					"type": "function"
				},
				{
					"inputs": [
						{
							"internalType": "address",
							"name": "_guardian",
							"type": "address"
						},
						{
							"internalType": "bool",
							"name": "_isGuardian",
							"type": "bool"
						}
					],
					"name": "setGuardian",
					"outputs": [],
					"stateMutability": "nonpayable",
					"type": "function"
				},
				{
					"inputs": [
						{
							"internalType": "address payable",
							"name": "_to",
							"type": "address"
						},
						{
							"internalType": "uint256",
							"name": "_amount",
							"type": "uint256"
						},
						{
							"internalType": "bytes",
							"name": "_payload",
							"type": "bytes"
						}
					],
					"name": "transfer",
					"outputs": [
						{
							"internalType": "bytes",
							"name": "",
							"type": "bytes"
						}
					],
					"stateMutability": "nonpayable",
					"type": "function"
				},
				{
					"stateMutability": "payable",
					"type": "receive"
				}
			],
			"devdoc": {
				"kind": "dev",
				"methods": {},
				"version": 1
			},
			"evm": {
				"assembly": "    /* \"contracts/SmartContractWallet.sol\":231:2572  contract SmartContracWallet{... */\n  mstore(0x40, 0x80)\n    /* \"contracts/SmartContractWallet.sol\":645:698  constructor() {... */\n  callvalue\n  dup1\n  iszero\n  tag_1\n  jumpi\n  0x00\n  dup1\n  revert\ntag_1:\n  pop\n    /* \"contracts/SmartContractWallet.sol\":682:692  msg.sender */\n  caller\n    /* \"contracts/SmartContractWallet.sol\":666:671  owner */\n  0x00\n  dup1\n    /* \"contracts/SmartContractWallet.sol\":666:693  owner = payable(msg.sender) */\n  0x0100\n  exp\n  dup2\n  sload\n  dup2\n  0xffffffffffffffffffffffffffffffffffffffff\n  mul\n  not\n  and\n  swap1\n  dup4\n  0xffffffffffffffffffffffffffffffffffffffff\n  and\n  mul\n  or\n  swap1\n  sstore\n  pop\n    /* \"contracts/SmartContractWallet.sol\":231:2572  contract SmartContracWallet{... */\n  dataSize(sub_0)\n  dup1\n  dataOffset(sub_0)\n  0x00\n  codecopy\n  0x00\n  return\nstop\n\nsub_0: assembly {\n        /* \"contracts/SmartContractWallet.sol\":231:2572  contract SmartContracWallet{... */\n      mstore(0x40, 0x80)\n      jumpi(tag_1, lt(calldatasize, 0x04))\n      shr(0xe0, calldataload(0x00))\n      dup1\n      0x48d40687\n      gt\n      tag_13\n      jumpi\n      dup1\n      0x48d40687\n      eq\n      tag_8\n      jumpi\n      dup1\n      0x83012be1\n      eq\n      tag_9\n      jumpi\n      dup1\n      0x8da5cb5b\n      eq\n      tag_10\n      jumpi\n      dup1\n      0xb1f8100d\n      eq\n      tag_11\n      jumpi\n      dup1\n      0xbe45fd62\n      eq\n      tag_12\n      jumpi\n      jump(tag_2)\n    tag_13:\n      dup1\n      0x0633b14a\n      eq\n      tag_3\n      jumpi\n      dup1\n      0x0bc605ad\n      eq\n      tag_4\n      jumpi\n      dup1\n      0x2b8a1c5a\n      eq\n      tag_5\n      jumpi\n      dup1\n      0x310ec4a7\n      eq\n      tag_6\n      jumpi\n      dup1\n      0x3e5beab9\n      eq\n      tag_7\n      jumpi\n      jump(tag_2)\n    tag_1:\n      jumpi(tag_2, calldatasize)\n      stop\n    tag_2:\n      0x00\n      dup1\n      revert\n        /* \"contracts/SmartContractWallet.sol\":392:433  mapping(address => bool) public guardians */\n    tag_3:\n      callvalue\n      dup1\n      iszero\n      tag_16\n      jumpi\n      0x00\n      dup1\n      revert\n    tag_16:\n      pop\n      tag_17\n      0x04\n      dup1\n      calldatasize\n      sub\n      dup2\n      add\n      swap1\n      tag_18\n      swap2\n      swap1\n      tag_19\n      jump\t// in\n    tag_18:\n      tag_20\n      jump\t// in\n    tag_17:\n      mload(0x40)\n      tag_21\n      swap2\n      swap1\n      tag_22\n      jump\t// in\n    tag_21:\n      mload(0x40)\n      dup1\n      swap2\n      sub\n      swap1\n      return\n        /* \"contracts/SmartContractWallet.sol\":340:388  mapping (address => bool) public isAllowedToSend */\n    tag_4:\n      callvalue\n      dup1\n      iszero\n      tag_23\n      jumpi\n      0x00\n      dup1\n      revert\n    tag_23:\n      pop\n      tag_24\n      0x04\n      dup1\n      calldatasize\n      sub\n      dup2\n      add\n      swap1\n      tag_25\n      swap2\n      swap1\n      tag_19\n      jump\t// in\n    tag_25:\n      tag_26\n      jump\t// in\n    tag_24:\n      mload(0x40)\n      tag_27\n      swap2\n      swap1\n      tag_22\n      jump\t// in\n    tag_27:\n      mload(0x40)\n      dup1\n      swap2\n      sub\n      swap1\n      return\n        /* \"contracts/SmartContractWallet.sol\":703:882  function setGuardian(address _guardian, bool _isGuardian) public {... */\n    tag_5:\n      callvalue\n      dup1\n      iszero\n      tag_28\n      jumpi\n      0x00\n      dup1\n      revert\n    tag_28:\n      pop\n      tag_29\n      0x04\n      dup1\n      calldatasize\n      sub\n      dup2\n      add\n      swap1\n      tag_30\n      swap2\n      swap1\n      tag_31\n      jump\t// in\n    tag_30:\n      tag_32\n      jump\t// in\n    tag_29:\n      stop\n        /* \"contracts/SmartContractWallet.sol\":1404:1673  function setAllowance(address _for, uint _amount) public{... */\n    tag_6:\n      callvalue\n      dup1\n      iszero\n      tag_33\n      jumpi\n      0x00\n      dup1\n      revert\n    tag_33:\n      pop\n      tag_34\n      0x04\n      dup1\n      calldatasize\n      sub\n      dup2\n      add\n      swap1\n      tag_35\n      swap2\n      swap1\n      tag_36\n      jump\t// in\n    tag_35:\n      tag_37\n      jump\t// in\n    tag_34:\n      stop\n        /* \"contracts/SmartContractWallet.sol\":295:336  mapping(address => uint) public allowance */\n    tag_7:\n      callvalue\n      dup1\n      iszero\n      tag_38\n      jumpi\n      0x00\n      dup1\n      revert\n    tag_38:\n      pop\n      tag_39\n      0x04\n      dup1\n      calldatasize\n      sub\n      dup2\n      add\n      swap1\n      tag_40\n      swap2\n      swap1\n      tag_19\n      jump\t// in\n    tag_40:\n      tag_41\n      jump\t// in\n    tag_39:\n      mload(0x40)\n      tag_42\n      swap2\n      swap1\n      tag_43\n      jump\t// in\n    tag_42:\n      mload(0x40)\n      dup1\n      swap2\n      sub\n      swap1\n      return\n        /* \"contracts/SmartContractWallet.sol\":466:544  mapping(address => mapping(address => bool)) public nextOwnerGuardianVotedBool */\n    tag_8:\n      callvalue\n      dup1\n      iszero\n      tag_44\n      jumpi\n      0x00\n      dup1\n      revert\n    tag_44:\n      pop\n      tag_45\n      0x04\n      dup1\n      calldatasize\n      sub\n      dup2\n      add\n      swap1\n      tag_46\n      swap2\n      swap1\n      tag_47\n      jump\t// in\n    tag_46:\n      tag_48\n      jump\t// in\n    tag_45:\n      mload(0x40)\n      tag_49\n      swap2\n      swap1\n      tag_22\n      jump\t// in\n    tag_49:\n      mload(0x40)\n      dup1\n      swap2\n      sub\n      swap1\n      return\n        /* \"contracts/SmartContractWallet.sol\":576:635  uint public constant confirmationsFromGuardiansForReset = 3 */\n    tag_9:\n      callvalue\n      dup1\n      iszero\n      tag_50\n      jumpi\n      0x00\n      dup1\n      revert\n    tag_50:\n      pop\n      tag_51\n      tag_52\n      jump\t// in\n    tag_51:\n      mload(0x40)\n      tag_53\n      swap2\n      swap1\n      tag_43\n      jump\t// in\n    tag_53:\n      mload(0x40)\n      dup1\n      swap2\n      sub\n      swap1\n      return\n        /* \"contracts/SmartContractWallet.sol\":262:291  address payable public  owner */\n    tag_10:\n      callvalue\n      dup1\n      iszero\n      tag_54\n      jumpi\n      0x00\n      dup1\n      revert\n    tag_54:\n      pop\n      tag_55\n      tag_56\n      jump\t// in\n    tag_55:\n      mload(0x40)\n      tag_57\n      swap2\n      swap1\n      tag_58\n      jump\t// in\n    tag_57:\n      mload(0x40)\n      dup1\n      swap2\n      sub\n      swap1\n      return\n        /* \"contracts/SmartContractWallet.sol\":889:1397  function proposeNewOwner(address payable _newOwner) public{... */\n    tag_11:\n      callvalue\n      dup1\n      iszero\n      tag_59\n      jumpi\n      0x00\n      dup1\n      revert\n    tag_59:\n      pop\n      tag_60\n      0x04\n      dup1\n      calldatasize\n      sub\n      dup2\n      add\n      swap1\n      tag_61\n      swap2\n      swap1\n      tag_62\n      jump\t// in\n    tag_61:\n      tag_63\n      jump\t// in\n    tag_60:\n      stop\n        /* \"contracts/SmartContractWallet.sol\":1872:2534  function transfer(address payable _to, uint _amount, bytes memory _payload) public returns(bytes memory){... */\n    tag_12:\n      callvalue\n      dup1\n      iszero\n      tag_64\n      jumpi\n      0x00\n      dup1\n      revert\n    tag_64:\n      pop\n      tag_65\n      0x04\n      dup1\n      calldatasize\n      sub\n      dup2\n      add\n      swap1\n      tag_66\n      swap2\n      swap1\n      tag_67\n      jump\t// in\n    tag_66:\n      tag_68\n      jump\t// in\n    tag_65:\n      mload(0x40)\n      tag_69\n      swap2\n      swap1\n      tag_70\n      jump\t// in\n    tag_69:\n      mload(0x40)\n      dup1\n      swap2\n      sub\n      swap1\n      return\n        /* \"contracts/SmartContractWallet.sol\":392:433  mapping(address => bool) public guardians */\n    tag_20:\n      mstore(0x20, 0x03)\n      dup1\n      0x00\n      mstore\n      keccak256(0x00, 0x40)\n      0x00\n      swap2\n      pop\n      sload\n      swap1\n      0x0100\n      exp\n      swap1\n      div\n      0xff\n      and\n      dup2\n      jump\t// out\n        /* \"contracts/SmartContractWallet.sol\":340:388  mapping (address => bool) public isAllowedToSend */\n    tag_26:\n      mstore(0x20, 0x02)\n      dup1\n      0x00\n      mstore\n      keccak256(0x00, 0x40)\n      0x00\n      swap2\n      pop\n      sload\n      swap1\n      0x0100\n      exp\n      swap1\n      div\n      0xff\n      and\n      dup2\n      jump\t// out\n        /* \"contracts/SmartContractWallet.sol\":703:882  function setGuardian(address _guardian, bool _isGuardian) public {... */\n    tag_32:\n        /* \"contracts/SmartContractWallet.sol\":796:801  owner */\n      0x00\n      dup1\n      sload\n      swap1\n      0x0100\n      exp\n      swap1\n      div\n      0xffffffffffffffffffffffffffffffffffffffff\n      and\n        /* \"contracts/SmartContractWallet.sol\":782:801  msg.sender == owner */\n      0xffffffffffffffffffffffffffffffffffffffff\n      and\n        /* \"contracts/SmartContractWallet.sol\":782:792  msg.sender */\n      caller\n        /* \"contracts/SmartContractWallet.sol\":782:801  msg.sender == owner */\n      0xffffffffffffffffffffffffffffffffffffffff\n      and\n      eq\n        /* \"contracts/SmartContractWallet.sol\":774:837  require(msg.sender == owner, \"You are not the owner, aborting\") */\n      tag_72\n      jumpi\n      mload(0x40)\n      0x08c379a000000000000000000000000000000000000000000000000000000000\n      dup2\n      mstore\n      0x04\n      add\n      tag_73\n      swap1\n      tag_74\n      jump\t// in\n    tag_73:\n      mload(0x40)\n      dup1\n      swap2\n      sub\n      swap1\n      revert\n    tag_72:\n        /* \"contracts/SmartContractWallet.sol\":866:877  _isGuardian */\n      dup1\n        /* \"contracts/SmartContractWallet.sol\":843:852  guardians */\n      0x03\n        /* \"contracts/SmartContractWallet.sol\":843:863  guardians[_guardian] */\n      0x00\n        /* \"contracts/SmartContractWallet.sol\":853:862  _guardian */\n      dup5\n        /* \"contracts/SmartContractWallet.sol\":843:863  guardians[_guardian] */\n      0xffffffffffffffffffffffffffffffffffffffff\n      and\n      0xffffffffffffffffffffffffffffffffffffffff\n      and\n      dup2\n      mstore\n      0x20\n      add\n      swap1\n      dup2\n      mstore\n      0x20\n      add\n      0x00\n      keccak256\n      0x00\n        /* \"contracts/SmartContractWallet.sol\":843:877  guardians[_guardian] = _isGuardian */\n      0x0100\n      exp\n      dup2\n      sload\n      dup2\n      0xff\n      mul\n      not\n      and\n      swap1\n      dup4\n      iszero\n      iszero\n      mul\n      or\n      swap1\n      sstore\n      pop\n        /* \"contracts/SmartContractWallet.sol\":703:882  function setGuardian(address _guardian, bool _isGuardian) public {... */\n      pop\n      pop\n      jump\t// out\n        /* \"contracts/SmartContractWallet.sol\":1404:1673  function setAllowance(address _for, uint _amount) public{... */\n    tag_37:\n        /* \"contracts/SmartContractWallet.sol\":1487:1492  owner */\n      0x00\n      dup1\n      sload\n      swap1\n      0x0100\n      exp\n      swap1\n      div\n      0xffffffffffffffffffffffffffffffffffffffff\n      and\n        /* \"contracts/SmartContractWallet.sol\":1473:1492  msg.sender == owner */\n      0xffffffffffffffffffffffffffffffffffffffff\n      and\n        /* \"contracts/SmartContractWallet.sol\":1473:1483  msg.sender */\n      caller\n        /* \"contracts/SmartContractWallet.sol\":1473:1492  msg.sender == owner */\n      0xffffffffffffffffffffffffffffffffffffffff\n      and\n      eq\n        /* \"contracts/SmartContractWallet.sol\":1465:1528  require(msg.sender == owner, \"You are not the owner, aborting\") */\n      tag_76\n      jumpi\n      mload(0x40)\n      0x08c379a000000000000000000000000000000000000000000000000000000000\n      dup2\n      mstore\n      0x04\n      add\n      tag_77\n      swap1\n      tag_74\n      jump\t// in\n    tag_77:\n      mload(0x40)\n      dup1\n      swap2\n      sub\n      swap1\n      revert\n    tag_76:\n        /* \"contracts/SmartContractWallet.sol\":1551:1558  _amount */\n      dup1\n        /* \"contracts/SmartContractWallet.sol\":1533:1542  allowance */\n      0x01\n        /* \"contracts/SmartContractWallet.sol\":1533:1548  allowance[_for] */\n      0x00\n        /* \"contracts/SmartContractWallet.sol\":1543:1547  _for */\n      dup5\n        /* \"contracts/SmartContractWallet.sol\":1533:1548  allowance[_for] */\n      0xffffffffffffffffffffffffffffffffffffffff\n      and\n      0xffffffffffffffffffffffffffffffffffffffff\n      and\n      dup2\n      mstore\n      0x20\n      add\n      swap1\n      dup2\n      mstore\n      0x20\n      add\n      0x00\n      keccak256\n        /* \"contracts/SmartContractWallet.sol\":1533:1558  allowance[_for] = _amount */\n      dup2\n      swap1\n      sstore\n      pop\n        /* \"contracts/SmartContractWallet.sol\":1578:1579  0 */\n      0x00\n        /* \"contracts/SmartContractWallet.sol\":1568:1575  _amount */\n      dup2\n        /* \"contracts/SmartContractWallet.sol\":1568:1579  _amount > 0 */\n      gt\n        /* \"contracts/SmartContractWallet.sol\":1565:1665  if(_amount > 0){... */\n      iszero\n      tag_78\n      jumpi\n        /* \"contracts/SmartContractWallet.sol\":1610:1614  true */\n      0x01\n        /* \"contracts/SmartContractWallet.sol\":1586:1601  isAllowedToSend */\n      0x02\n        /* \"contracts/SmartContractWallet.sol\":1586:1607  isAllowedToSend[_for] */\n      0x00\n        /* \"contracts/SmartContractWallet.sol\":1602:1606  _for */\n      dup5\n        /* \"contracts/SmartContractWallet.sol\":1586:1607  isAllowedToSend[_for] */\n      0xffffffffffffffffffffffffffffffffffffffff\n      and\n      0xffffffffffffffffffffffffffffffffffffffff\n      and\n      dup2\n      mstore\n      0x20\n      add\n      swap1\n      dup2\n      mstore\n      0x20\n      add\n      0x00\n      keccak256\n      0x00\n        /* \"contracts/SmartContractWallet.sol\":1586:1614  isAllowedToSend[_for] = true */\n      0x0100\n      exp\n      dup2\n      sload\n      dup2\n      0xff\n      mul\n      not\n      and\n      swap1\n      dup4\n      iszero\n      iszero\n      mul\n      or\n      swap1\n      sstore\n      pop\n        /* \"contracts/SmartContractWallet.sol\":1565:1665  if(_amount > 0){... */\n      jump(tag_79)\n    tag_78:\n        /* \"contracts/SmartContractWallet.sol\":1654:1659  false */\n      0x00\n        /* \"contracts/SmartContractWallet.sol\":1630:1645  isAllowedToSend */\n      0x02\n        /* \"contracts/SmartContractWallet.sol\":1630:1651  isAllowedToSend[_for] */\n      0x00\n        /* \"contracts/SmartContractWallet.sol\":1646:1650  _for */\n      dup5\n        /* \"contracts/SmartContractWallet.sol\":1630:1651  isAllowedToSend[_for] */\n      0xffffffffffffffffffffffffffffffffffffffff\n      and\n      0xffffffffffffffffffffffffffffffffffffffff\n      and\n      dup2\n      mstore\n      0x20\n      add\n      swap1\n      dup2\n      mstore\n      0x20\n      add\n      0x00\n      keccak256\n      0x00\n        /* \"contracts/SmartContractWallet.sol\":1630:1659  isAllowedToSend[_for] = false */\n      0x0100\n      exp\n      dup2\n      sload\n      dup2\n      0xff\n      mul\n      not\n      and\n      swap1\n      dup4\n      iszero\n      iszero\n      mul\n      or\n      swap1\n      sstore\n      pop\n        /* \"contracts/SmartContractWallet.sol\":1565:1665  if(_amount > 0){... */\n    tag_79:\n        /* \"contracts/SmartContractWallet.sol\":1404:1673  function setAllowance(address _for, uint _amount) public{... */\n      pop\n      pop\n      jump\t// out\n        /* \"contracts/SmartContractWallet.sol\":295:336  mapping(address => uint) public allowance */\n    tag_41:\n      mstore(0x20, 0x01)\n      dup1\n      0x00\n      mstore\n      keccak256(0x00, 0x40)\n      0x00\n      swap2\n      pop\n      swap1\n      pop\n      sload\n      dup2\n      jump\t// out\n        /* \"contracts/SmartContractWallet.sol\":466:544  mapping(address => mapping(address => bool)) public nextOwnerGuardianVotedBool */\n    tag_48:\n      mstore(0x20, 0x05)\n      dup2\n      0x00\n      mstore\n      mstore(0x20, keccak256(0x00, 0x40))\n      dup1\n      0x00\n      mstore\n      keccak256(0x00, 0x40)\n      0x00\n      swap2\n      pop\n      swap2\n      pop\n      swap1\n      sload\n      swap1\n      0x0100\n      exp\n      swap1\n      div\n      0xff\n      and\n      dup2\n      jump\t// out\n        /* \"contracts/SmartContractWallet.sol\":576:635  uint public constant confirmationsFromGuardiansForReset = 3 */\n    tag_52:\n        /* \"contracts/SmartContractWallet.sol\":634:635  3 */\n      0x03\n        /* \"contracts/SmartContractWallet.sol\":576:635  uint public constant confirmationsFromGuardiansForReset = 3 */\n      dup2\n      jump\t// out\n        /* \"contracts/SmartContractWallet.sol\":262:291  address payable public  owner */\n    tag_56:\n      0x00\n      dup1\n      sload\n      swap1\n      0x0100\n      exp\n      swap1\n      div\n      0xffffffffffffffffffffffffffffffffffffffff\n      and\n      dup2\n      jump\t// out\n        /* \"contracts/SmartContractWallet.sol\":889:1397  function proposeNewOwner(address payable _newOwner) public{... */\n    tag_63:\n        /* \"contracts/SmartContractWallet.sol\":960:969  guardians */\n      0x03\n        /* \"contracts/SmartContractWallet.sol\":960:981  guardians[msg.sender] */\n      0x00\n        /* \"contracts/SmartContractWallet.sol\":970:980  msg.sender */\n      caller\n        /* \"contracts/SmartContractWallet.sol\":960:981  guardians[msg.sender] */\n      0xffffffffffffffffffffffffffffffffffffffff\n      and\n      0xffffffffffffffffffffffffffffffffffffffff\n      and\n      dup2\n      mstore\n      0x20\n      add\n      swap1\n      dup2\n      mstore\n      0x20\n      add\n      0x00\n      keccak256\n      0x00\n      swap1\n      sload\n      swap1\n      0x0100\n      exp\n      swap1\n      div\n      0xff\n      and\n        /* \"contracts/SmartContractWallet.sol\":952:1032  require(guardians[msg.sender],\"You are not guardian of this wallet, aborting!!\") */\n      tag_81\n      jumpi\n      mload(0x40)\n      0x08c379a000000000000000000000000000000000000000000000000000000000\n      dup2\n      mstore\n      0x04\n      add\n      tag_82\n      swap1\n      tag_83\n      jump\t// in\n    tag_82:\n      mload(0x40)\n      dup1\n      swap2\n      sub\n      swap1\n      revert\n    tag_81:\n        /* \"contracts/SmartContractWallet.sol\":1098:1103  false */\n      0x00\n        /* \"contracts/SmartContractWallet.sol\":1045:1103  nextOwnerGuardianVotedBool[_newOwner][msg.sender] == false */\n      iszero\n      iszero\n        /* \"contracts/SmartContractWallet.sol\":1045:1071  nextOwnerGuardianVotedBool */\n      0x05\n        /* \"contracts/SmartContractWallet.sol\":1045:1082  nextOwnerGuardianVotedBool[_newOwner] */\n      0x00\n        /* \"contracts/SmartContractWallet.sol\":1072:1081  _newOwner */\n      dup4\n        /* \"contracts/SmartContractWallet.sol\":1045:1082  nextOwnerGuardianVotedBool[_newOwner] */\n      0xffffffffffffffffffffffffffffffffffffffff\n      and\n      0xffffffffffffffffffffffffffffffffffffffff\n      and\n      dup2\n      mstore\n      0x20\n      add\n      swap1\n      dup2\n      mstore\n      0x20\n      add\n      0x00\n      keccak256\n        /* \"contracts/SmartContractWallet.sol\":1045:1094  nextOwnerGuardianVotedBool[_newOwner][msg.sender] */\n      0x00\n        /* \"contracts/SmartContractWallet.sol\":1083:1093  msg.sender */\n      caller\n        /* \"contracts/SmartContractWallet.sol\":1045:1094  nextOwnerGuardianVotedBool[_newOwner][msg.sender] */\n      0xffffffffffffffffffffffffffffffffffffffff\n      and\n      0xffffffffffffffffffffffffffffffffffffffff\n      and\n      dup2\n      mstore\n      0x20\n      add\n      swap1\n      dup2\n      mstore\n      0x20\n      add\n      0x00\n      keccak256\n      0x00\n      swap1\n      sload\n      swap1\n      0x0100\n      exp\n      swap1\n      div\n      0xff\n      and\n        /* \"contracts/SmartContractWallet.sol\":1045:1103  nextOwnerGuardianVotedBool[_newOwner][msg.sender] == false */\n      iszero\n      iszero\n      eq\n        /* \"contracts/SmartContractWallet.sol\":1037:1135  require(nextOwnerGuardianVotedBool[_newOwner][msg.sender] == false, \"You already voted, aborting\") */\n      tag_84\n      jumpi\n      mload(0x40)\n      0x08c379a000000000000000000000000000000000000000000000000000000000\n      dup2\n      mstore\n      0x04\n      add\n      tag_85\n      swap1\n      tag_86\n      jump\t// in\n    tag_85:\n      mload(0x40)\n      dup1\n      swap2\n      sub\n      swap1\n      revert\n    tag_84:\n        /* \"contracts/SmartContractWallet.sol\":1156:1161  owner */\n      0x00\n      dup1\n      sload\n      swap1\n      0x0100\n      exp\n      swap1\n      div\n      0xffffffffffffffffffffffffffffffffffffffff\n      and\n        /* \"contracts/SmartContractWallet.sol\":1143:1161  _newOwner != owner */\n      0xffffffffffffffffffffffffffffffffffffffff\n      and\n        /* \"contracts/SmartContractWallet.sol\":1143:1152  _newOwner */\n      dup2\n        /* \"contracts/SmartContractWallet.sol\":1143:1161  _newOwner != owner */\n      0xffffffffffffffffffffffffffffffffffffffff\n      and\n      eq\n        /* \"contracts/SmartContractWallet.sol\":1140:1224  if(_newOwner != owner){... */\n      tag_87\n      jumpi\n        /* \"contracts/SmartContractWallet.sol\":1180:1189  _newOwner */\n      dup1\n        /* \"contracts/SmartContractWallet.sol\":1168:1177  nextOwner */\n      0x04\n      0x00\n        /* \"contracts/SmartContractWallet.sol\":1168:1189  nextOwner = _newOwner */\n      0x0100\n      exp\n      dup2\n      sload\n      dup2\n      0xffffffffffffffffffffffffffffffffffffffff\n      mul\n      not\n      and\n      swap1\n      dup4\n      0xffffffffffffffffffffffffffffffffffffffff\n      and\n      mul\n      or\n      swap1\n      sstore\n      pop\n        /* \"contracts/SmartContractWallet.sol\":1217:1218  0 */\n      0x00\n        /* \"contracts/SmartContractWallet.sol\":1195:1214  guardiansResetCount */\n      0x06\n        /* \"contracts/SmartContractWallet.sol\":1195:1218  guardiansResetCount = 0 */\n      dup2\n      swap1\n      sstore\n      pop\n        /* \"contracts/SmartContractWallet.sol\":1140:1224  if(_newOwner != owner){... */\n    tag_87:\n        /* \"contracts/SmartContractWallet.sol\":1229:1248  guardiansResetCount */\n      0x06\n      0x00\n        /* \"contracts/SmartContractWallet.sol\":1229:1250  guardiansResetCount++ */\n      dup2\n      sload\n      dup1\n      swap3\n      swap2\n      swap1\n      tag_88\n      swap1\n      tag_89\n      jump\t// in\n    tag_88:\n      swap2\n      swap1\n      pop\n      sstore\n      pop\n        /* \"contracts/SmartContractWallet.sol\":634:635  3 */\n      0x03\n        /* \"contracts/SmartContractWallet.sol\":1261:1280  guardiansResetCount */\n      sload(0x06)\n        /* \"contracts/SmartContractWallet.sol\":1261:1319  guardiansResetCount >=  confirmationsFromGuardiansForReset */\n      lt\n        /* \"contracts/SmartContractWallet.sol\":1258:1393  if(guardiansResetCount >=  confirmationsFromGuardiansForReset){... */\n      tag_90\n      jumpi\n        /* \"contracts/SmartContractWallet.sol\":1337:1346  nextOwner */\n      0x04\n      0x00\n      swap1\n      sload\n      swap1\n      0x0100\n      exp\n      swap1\n      div\n      0xffffffffffffffffffffffffffffffffffffffff\n      and\n        /* \"contracts/SmartContractWallet.sol\":1329:1334  owner */\n      0x00\n      dup1\n        /* \"contracts/SmartContractWallet.sol\":1329:1346  owner = nextOwner */\n      0x0100\n      exp\n      dup2\n      sload\n      dup2\n      0xffffffffffffffffffffffffffffffffffffffff\n      mul\n      not\n      and\n      swap1\n      dup4\n      0xffffffffffffffffffffffffffffffffffffffff\n      and\n      mul\n      or\n      swap1\n      sstore\n      pop\n        /* \"contracts/SmartContractWallet.sol\":1383:1384  0 */\n      0x00\n        /* \"contracts/SmartContractWallet.sol\":1355:1364  nextOwner */\n      0x04\n      0x00\n        /* \"contracts/SmartContractWallet.sol\":1355:1386  nextOwner = payable(address(0)) */\n      0x0100\n      exp\n      dup2\n      sload\n      dup2\n      0xffffffffffffffffffffffffffffffffffffffff\n      mul\n      not\n      and\n      swap1\n      dup4\n      0xffffffffffffffffffffffffffffffffffffffff\n      and\n      mul\n      or\n      swap1\n      sstore\n      pop\n        /* \"contracts/SmartContractWallet.sol\":1258:1393  if(guardiansResetCount >=  confirmationsFromGuardiansForReset){... */\n    tag_90:\n        /* \"contracts/SmartContractWallet.sol\":889:1397  function proposeNewOwner(address payable _newOwner) public{... */\n      pop\n      jump\t// out\n        /* \"contracts/SmartContractWallet.sol\":1872:2534  function transfer(address payable _to, uint _amount, bytes memory _payload) public returns(bytes memory){... */\n    tag_68:\n        /* \"contracts/SmartContractWallet.sol\":1963:1975  bytes memory */\n      0x60\n        /* \"contracts/SmartContractWallet.sol\":2005:2010  owner */\n      0x00\n      dup1\n      sload\n      swap1\n      0x0100\n      exp\n      swap1\n      div\n      0xffffffffffffffffffffffffffffffffffffffff\n      and\n        /* \"contracts/SmartContractWallet.sol\":1991:2010  msg.sender == owner */\n      0xffffffffffffffffffffffffffffffffffffffff\n      and\n        /* \"contracts/SmartContractWallet.sol\":1991:2001  msg.sender */\n      caller\n        /* \"contracts/SmartContractWallet.sol\":1991:2010  msg.sender == owner */\n      0xffffffffffffffffffffffffffffffffffffffff\n      and\n      eq\n        /* \"contracts/SmartContractWallet.sol\":1983:2048  require(msg.sender == owner, \"You are not the owner, aborting!!\") */\n      tag_92\n      jumpi\n      mload(0x40)\n      0x08c379a000000000000000000000000000000000000000000000000000000000\n      dup2\n      mstore\n      0x04\n      add\n      tag_93\n      swap1\n      tag_94\n      jump\t// in\n    tag_93:\n      mload(0x40)\n      dup1\n      swap2\n      sub\n      swap1\n      revert\n    tag_92:\n        /* \"contracts/SmartContractWallet.sol\":2072:2077  owner */\n      0x00\n      dup1\n      sload\n      swap1\n      0x0100\n      exp\n      swap1\n      div\n      0xffffffffffffffffffffffffffffffffffffffff\n      and\n        /* \"contracts/SmartContractWallet.sol\":2058:2077  msg.sender != owner */\n      0xffffffffffffffffffffffffffffffffffffffff\n      and\n        /* \"contracts/SmartContractWallet.sol\":2058:2068  msg.sender */\n      caller\n        /* \"contracts/SmartContractWallet.sol\":2058:2077  msg.sender != owner */\n      0xffffffffffffffffffffffffffffffffffffffff\n      and\n      eq\n        /* \"contracts/SmartContractWallet.sol\":2055:2364  if(msg.sender != owner){... */\n      tag_95\n      jumpi\n        /* \"contracts/SmartContractWallet.sol\":2119:2126  _amount */\n      dup3\n        /* \"contracts/SmartContractWallet.sol\":2094:2103  allowance */\n      0x01\n        /* \"contracts/SmartContractWallet.sol\":2094:2115  allowance[msg.sender] */\n      0x00\n        /* \"contracts/SmartContractWallet.sol\":2104:2114  msg.sender */\n      caller\n        /* \"contracts/SmartContractWallet.sol\":2094:2115  allowance[msg.sender] */\n      0xffffffffffffffffffffffffffffffffffffffff\n      and\n      0xffffffffffffffffffffffffffffffffffffffff\n      and\n      dup2\n      mstore\n      0x20\n      add\n      swap1\n      dup2\n      mstore\n      0x20\n      add\n      0x00\n      keccak256\n      sload\n        /* \"contracts/SmartContractWallet.sol\":2094:2126  allowance[msg.sender] >= _amount */\n      lt\n      iszero\n        /* \"contracts/SmartContractWallet.sol\":2086:2193  require(allowance[msg.sender] >= _amount,\"You are trying to send more than you are allowed to, aborting!!\") */\n      tag_96\n      jumpi\n      mload(0x40)\n      0x08c379a000000000000000000000000000000000000000000000000000000000\n      dup2\n      mstore\n      0x04\n      add\n      tag_97\n      swap1\n      tag_98\n      jump\t// in\n    tag_97:\n      mload(0x40)\n      dup1\n      swap2\n      sub\n      swap1\n      revert\n    tag_96:\n        /* \"contracts/SmartContractWallet.sol\":2209:2224  isAllowedToSend */\n      0x02\n        /* \"contracts/SmartContractWallet.sol\":2209:2236  isAllowedToSend[msg.sender] */\n      0x00\n        /* \"contracts/SmartContractWallet.sol\":2225:2235  msg.sender */\n      caller\n        /* \"contracts/SmartContractWallet.sol\":2209:2236  isAllowedToSend[msg.sender] */\n      0xffffffffffffffffffffffffffffffffffffffff\n      and\n      0xffffffffffffffffffffffffffffffffffffffff\n      and\n      dup2\n      mstore\n      0x20\n      add\n      swap1\n      dup2\n      mstore\n      0x20\n      add\n      0x00\n      keccak256\n      0x00\n      swap1\n      sload\n      swap1\n      0x0100\n      exp\n      swap1\n      div\n      0xff\n      and\n        /* \"contracts/SmartContractWallet.sol\":2201:2314  require(isAllowedToSend[msg.sender], \"You are not allowed to send anything from this smart contract, aborting!!\") */\n      tag_99\n      jumpi\n      mload(0x40)\n      0x08c379a000000000000000000000000000000000000000000000000000000000\n      dup2\n      mstore\n      0x04\n      add\n      tag_100\n      swap1\n      tag_101\n      jump\t// in\n    tag_100:\n      mload(0x40)\n      dup1\n      swap2\n      sub\n      swap1\n      revert\n    tag_99:\n        /* \"contracts/SmartContractWallet.sol\":2349:2356  _amount */\n      dup3\n        /* \"contracts/SmartContractWallet.sol\":2324:2333  allowance */\n      0x01\n        /* \"contracts/SmartContractWallet.sol\":2324:2345  allowance[msg.sender] */\n      0x00\n        /* \"contracts/SmartContractWallet.sol\":2334:2344  msg.sender */\n      caller\n        /* \"contracts/SmartContractWallet.sol\":2324:2345  allowance[msg.sender] */\n      0xffffffffffffffffffffffffffffffffffffffff\n      and\n      0xffffffffffffffffffffffffffffffffffffffff\n      and\n      dup2\n      mstore\n      0x20\n      add\n      swap1\n      dup2\n      mstore\n      0x20\n      add\n      0x00\n      keccak256\n      0x00\n        /* \"contracts/SmartContractWallet.sol\":2324:2356  allowance[msg.sender] -= _amount */\n      dup3\n      dup3\n      sload\n      tag_102\n      swap2\n      swap1\n      tag_103\n      jump\t// in\n    tag_102:\n      swap3\n      pop\n      pop\n      dup2\n      swap1\n      sstore\n      pop\n        /* \"contracts/SmartContractWallet.sol\":2055:2364  if(msg.sender != owner){... */\n    tag_95:\n        /* \"contracts/SmartContractWallet.sol\":2372:2384  bool success */\n      0x00\n        /* \"contracts/SmartContractWallet.sol\":2386:2409  bytes memory returnData */\n      dup1\n        /* \"contracts/SmartContractWallet.sol\":2414:2417  _to */\n      dup6\n        /* \"contracts/SmartContractWallet.sol\":2414:2422  _to.call */\n      0xffffffffffffffffffffffffffffffffffffffff\n      and\n        /* \"contracts/SmartContractWallet.sol\":2430:2437  _amount */\n      dup6\n        /* \"contracts/SmartContractWallet.sol\":2439:2447  _payload */\n      dup6\n        /* \"contracts/SmartContractWallet.sol\":2414:2448  _to.call{value: _amount}(_payload) */\n      mload(0x40)\n      tag_104\n      swap2\n      swap1\n      tag_105\n      jump\t// in\n    tag_104:\n      0x00\n      mload(0x40)\n      dup1\n      dup4\n      sub\n      dup2\n      dup6\n      dup8\n      gas\n      call\n      swap3\n      pop\n      pop\n      pop\n      returndatasize\n      dup1\n      0x00\n      dup2\n      eq\n      tag_108\n      jumpi\n      mload(0x40)\n      swap2\n      pop\n      and(add(returndatasize, 0x3f), not(0x1f))\n      dup3\n      add\n      0x40\n      mstore\n      returndatasize\n      dup3\n      mstore\n      returndatasize\n      0x00\n      0x20\n      dup5\n      add\n      returndatacopy\n      jump(tag_107)\n    tag_108:\n      0x60\n      swap2\n      pop\n    tag_107:\n      pop\n        /* \"contracts/SmartContractWallet.sol\":2371:2448  (bool success, bytes memory returnData) =  _to.call{value: _amount}(_payload) */\n      swap2\n      pop\n      swap2\n      pop\n        /* \"contracts/SmartContractWallet.sol\":2462:2469  success */\n      dup2\n        /* \"contracts/SmartContractWallet.sol\":2454:2506  require(success,\"Aborting, call was not successful\") */\n      tag_109\n      jumpi\n      mload(0x40)\n      0x08c379a000000000000000000000000000000000000000000000000000000000\n      dup2\n      mstore\n      0x04\n      add\n      tag_110\n      swap1\n      tag_111\n      jump\t// in\n    tag_110:\n      mload(0x40)\n      dup1\n      swap2\n      sub\n      swap1\n      revert\n    tag_109:\n        /* \"contracts/SmartContractWallet.sol\":2520:2530  returnData */\n      dup1\n        /* \"contracts/SmartContractWallet.sol\":2512:2530  return  returnData */\n      swap3\n      pop\n      pop\n      pop\n        /* \"contracts/SmartContractWallet.sol\":1872:2534  function transfer(address payable _to, uint _amount, bytes memory _payload) public returns(bytes memory){... */\n      swap4\n      swap3\n      pop\n      pop\n      pop\n      jump\t// out\n        /* \"#utility.yul\":7:82   */\n    tag_112:\n        /* \"#utility.yul\":40:46   */\n      0x00\n        /* \"#utility.yul\":73:75   */\n      0x40\n        /* \"#utility.yul\":67:76   */\n      mload\n        /* \"#utility.yul\":57:76   */\n      swap1\n      pop\n        /* \"#utility.yul\":7:82   */\n      swap1\n      jump\t// out\n        /* \"#utility.yul\":88:205   */\n    tag_113:\n        /* \"#utility.yul\":197:198   */\n      0x00\n        /* \"#utility.yul\":194:195   */\n      dup1\n        /* \"#utility.yul\":187:199   */\n      revert\n        /* \"#utility.yul\":211:328   */\n    tag_114:\n        /* \"#utility.yul\":320:321   */\n      0x00\n        /* \"#utility.yul\":317:318   */\n      dup1\n        /* \"#utility.yul\":310:322   */\n      revert\n        /* \"#utility.yul\":334:460   */\n    tag_115:\n        /* \"#utility.yul\":371:378   */\n      0x00\n        /* \"#utility.yul\":411:453   */\n      0xffffffffffffffffffffffffffffffffffffffff\n        /* \"#utility.yul\":404:409   */\n      dup3\n        /* \"#utility.yul\":400:454   */\n      and\n        /* \"#utility.yul\":389:454   */\n      swap1\n      pop\n        /* \"#utility.yul\":334:460   */\n      swap2\n      swap1\n      pop\n      jump\t// out\n        /* \"#utility.yul\":466:562   */\n    tag_116:\n        /* \"#utility.yul\":503:510   */\n      0x00\n        /* \"#utility.yul\":532:556   */\n      tag_169\n        /* \"#utility.yul\":550:555   */\n      dup3\n        /* \"#utility.yul\":532:556   */\n      tag_115\n      jump\t// in\n    tag_169:\n        /* \"#utility.yul\":521:556   */\n      swap1\n      pop\n        /* \"#utility.yul\":466:562   */\n      swap2\n      swap1\n      pop\n      jump\t// out\n        /* \"#utility.yul\":568:690   */\n    tag_117:\n        /* \"#utility.yul\":641:665   */\n      tag_171\n        /* \"#utility.yul\":659:664   */\n      dup2\n        /* \"#utility.yul\":641:665   */\n      tag_116\n      jump\t// in\n    tag_171:\n        /* \"#utility.yul\":634:639   */\n      dup2\n        /* \"#utility.yul\":631:666   */\n      eq\n        /* \"#utility.yul\":621:684   */\n      tag_172\n      jumpi\n        /* \"#utility.yul\":680:681   */\n      0x00\n        /* \"#utility.yul\":677:678   */\n      dup1\n        /* \"#utility.yul\":670:682   */\n      revert\n        /* \"#utility.yul\":621:684   */\n    tag_172:\n        /* \"#utility.yul\":568:690   */\n      pop\n      jump\t// out\n        /* \"#utility.yul\":696:835   */\n    tag_118:\n        /* \"#utility.yul\":742:747   */\n      0x00\n        /* \"#utility.yul\":780:786   */\n      dup2\n        /* \"#utility.yul\":767:787   */\n      calldataload\n        /* \"#utility.yul\":758:787   */\n      swap1\n      pop\n        /* \"#utility.yul\":796:829   */\n      tag_174\n        /* \"#utility.yul\":823:828   */\n      dup2\n        /* \"#utility.yul\":796:829   */\n      tag_117\n      jump\t// in\n    tag_174:\n        /* \"#utility.yul\":696:835   */\n      swap3\n      swap2\n      pop\n      pop\n      jump\t// out\n        /* \"#utility.yul\":841:1170   */\n    tag_19:\n        /* \"#utility.yul\":900:906   */\n      0x00\n        /* \"#utility.yul\":949:951   */\n      0x20\n        /* \"#utility.yul\":937:946   */\n      dup3\n        /* \"#utility.yul\":928:935   */\n      dup5\n        /* \"#utility.yul\":924:947   */\n      sub\n        /* \"#utility.yul\":920:952   */\n      slt\n        /* \"#utility.yul\":917:1036   */\n      iszero\n      tag_176\n      jumpi\n        /* \"#utility.yul\":955:1034   */\n      tag_177\n      tag_113\n      jump\t// in\n    tag_177:\n        /* \"#utility.yul\":917:1036   */\n    tag_176:\n        /* \"#utility.yul\":1075:1076   */\n      0x00\n        /* \"#utility.yul\":1100:1153   */\n      tag_178\n        /* \"#utility.yul\":1145:1152   */\n      dup5\n        /* \"#utility.yul\":1136:1142   */\n      dup3\n        /* \"#utility.yul\":1125:1134   */\n      dup6\n        /* \"#utility.yul\":1121:1143   */\n      add\n        /* \"#utility.yul\":1100:1153   */\n      tag_118\n      jump\t// in\n    tag_178:\n        /* \"#utility.yul\":1090:1153   */\n      swap2\n      pop\n        /* \"#utility.yul\":1046:1163   */\n      pop\n        /* \"#utility.yul\":841:1170   */\n      swap3\n      swap2\n      pop\n      pop\n      jump\t// out\n        /* \"#utility.yul\":1176:1266   */\n    tag_119:\n        /* \"#utility.yul\":1210:1217   */\n      0x00\n        /* \"#utility.yul\":1253:1258   */\n      dup2\n        /* \"#utility.yul\":1246:1259   */\n      iszero\n        /* \"#utility.yul\":1239:1260   */\n      iszero\n        /* \"#utility.yul\":1228:1260   */\n      swap1\n      pop\n        /* \"#utility.yul\":1176:1266   */\n      swap2\n      swap1\n      pop\n      jump\t// out\n        /* \"#utility.yul\":1272:1381   */\n    tag_120:\n        /* \"#utility.yul\":1353:1374   */\n      tag_181\n        /* \"#utility.yul\":1368:1373   */\n      dup2\n        /* \"#utility.yul\":1353:1374   */\n      tag_119\n      jump\t// in\n    tag_181:\n        /* \"#utility.yul\":1348:1351   */\n      dup3\n        /* \"#utility.yul\":1341:1375   */\n      mstore\n        /* \"#utility.yul\":1272:1381   */\n      pop\n      pop\n      jump\t// out\n        /* \"#utility.yul\":1387:1597   */\n    tag_22:\n        /* \"#utility.yul\":1474:1478   */\n      0x00\n        /* \"#utility.yul\":1512:1514   */\n      0x20\n        /* \"#utility.yul\":1501:1510   */\n      dup3\n        /* \"#utility.yul\":1497:1515   */\n      add\n        /* \"#utility.yul\":1489:1515   */\n      swap1\n      pop\n        /* \"#utility.yul\":1525:1590   */\n      tag_183\n        /* \"#utility.yul\":1587:1588   */\n      0x00\n        /* \"#utility.yul\":1576:1585   */\n      dup4\n        /* \"#utility.yul\":1572:1589   */\n      add\n        /* \"#utility.yul\":1563:1569   */\n      dup5\n        /* \"#utility.yul\":1525:1590   */\n      tag_120\n      jump\t// in\n    tag_183:\n        /* \"#utility.yul\":1387:1597   */\n      swap3\n      swap2\n      pop\n      pop\n      jump\t// out\n        /* \"#utility.yul\":1603:1719   */\n    tag_121:\n        /* \"#utility.yul\":1673:1694   */\n      tag_185\n        /* \"#utility.yul\":1688:1693   */\n      dup2\n        /* \"#utility.yul\":1673:1694   */\n      tag_119\n      jump\t// in\n    tag_185:\n        /* \"#utility.yul\":1666:1671   */\n      dup2\n        /* \"#utility.yul\":1663:1695   */\n      eq\n        /* \"#utility.yul\":1653:1713   */\n      tag_186\n      jumpi\n        /* \"#utility.yul\":1709:1710   */\n      0x00\n        /* \"#utility.yul\":1706:1707   */\n      dup1\n        /* \"#utility.yul\":1699:1711   */\n      revert\n        /* \"#utility.yul\":1653:1713   */\n    tag_186:\n        /* \"#utility.yul\":1603:1719   */\n      pop\n      jump\t// out\n        /* \"#utility.yul\":1725:1858   */\n    tag_122:\n        /* \"#utility.yul\":1768:1773   */\n      0x00\n        /* \"#utility.yul\":1806:1812   */\n      dup2\n        /* \"#utility.yul\":1793:1813   */\n      calldataload\n        /* \"#utility.yul\":1784:1813   */\n      swap1\n      pop\n        /* \"#utility.yul\":1822:1852   */\n      tag_188\n        /* \"#utility.yul\":1846:1851   */\n      dup2\n        /* \"#utility.yul\":1822:1852   */\n      tag_121\n      jump\t// in\n    tag_188:\n        /* \"#utility.yul\":1725:1858   */\n      swap3\n      swap2\n      pop\n      pop\n      jump\t// out\n        /* \"#utility.yul\":1864:2332   */\n    tag_31:\n        /* \"#utility.yul\":1929:1935   */\n      0x00\n        /* \"#utility.yul\":1937:1943   */\n      dup1\n        /* \"#utility.yul\":1986:1988   */\n      0x40\n        /* \"#utility.yul\":1974:1983   */\n      dup4\n        /* \"#utility.yul\":1965:1972   */\n      dup6\n        /* \"#utility.yul\":1961:1984   */\n      sub\n        /* \"#utility.yul\":1957:1989   */\n      slt\n        /* \"#utility.yul\":1954:2073   */\n      iszero\n      tag_190\n      jumpi\n        /* \"#utility.yul\":1992:2071   */\n      tag_191\n      tag_113\n      jump\t// in\n    tag_191:\n        /* \"#utility.yul\":1954:2073   */\n    tag_190:\n        /* \"#utility.yul\":2112:2113   */\n      0x00\n        /* \"#utility.yul\":2137:2190   */\n      tag_192\n        /* \"#utility.yul\":2182:2189   */\n      dup6\n        /* \"#utility.yul\":2173:2179   */\n      dup3\n        /* \"#utility.yul\":2162:2171   */\n      dup7\n        /* \"#utility.yul\":2158:2180   */\n      add\n        /* \"#utility.yul\":2137:2190   */\n      tag_118\n      jump\t// in\n    tag_192:\n        /* \"#utility.yul\":2127:2190   */\n      swap3\n      pop\n        /* \"#utility.yul\":2083:2200   */\n      pop\n        /* \"#utility.yul\":2239:2241   */\n      0x20\n        /* \"#utility.yul\":2265:2315   */\n      tag_193\n        /* \"#utility.yul\":2307:2314   */\n      dup6\n        /* \"#utility.yul\":2298:2304   */\n      dup3\n        /* \"#utility.yul\":2287:2296   */\n      dup7\n        /* \"#utility.yul\":2283:2305   */\n      add\n        /* \"#utility.yul\":2265:2315   */\n      tag_122\n      jump\t// in\n    tag_193:\n        /* \"#utility.yul\":2255:2315   */\n      swap2\n      pop\n        /* \"#utility.yul\":2210:2325   */\n      pop\n        /* \"#utility.yul\":1864:2332   */\n      swap3\n      pop\n      swap3\n      swap1\n      pop\n      jump\t// out\n        /* \"#utility.yul\":2338:2415   */\n    tag_123:\n        /* \"#utility.yul\":2375:2382   */\n      0x00\n        /* \"#utility.yul\":2404:2409   */\n      dup2\n        /* \"#utility.yul\":2393:2409   */\n      swap1\n      pop\n        /* \"#utility.yul\":2338:2415   */\n      swap2\n      swap1\n      pop\n      jump\t// out\n        /* \"#utility.yul\":2421:2543   */\n    tag_124:\n        /* \"#utility.yul\":2494:2518   */\n      tag_196\n        /* \"#utility.yul\":2512:2517   */\n      dup2\n        /* \"#utility.yul\":2494:2518   */\n      tag_123\n      jump\t// in\n    tag_196:\n        /* \"#utility.yul\":2487:2492   */\n      dup2\n        /* \"#utility.yul\":2484:2519   */\n      eq\n        /* \"#utility.yul\":2474:2537   */\n      tag_197\n      jumpi\n        /* \"#utility.yul\":2533:2534   */\n      0x00\n        /* \"#utility.yul\":2530:2531   */\n      dup1\n        /* \"#utility.yul\":2523:2535   */\n      revert\n        /* \"#utility.yul\":2474:2537   */\n    tag_197:\n        /* \"#utility.yul\":2421:2543   */\n      pop\n      jump\t// out\n        /* \"#utility.yul\":2549:2688   */\n    tag_125:\n        /* \"#utility.yul\":2595:2600   */\n      0x00\n        /* \"#utility.yul\":2633:2639   */\n      dup2\n        /* \"#utility.yul\":2620:2640   */\n      calldataload\n        /* \"#utility.yul\":2611:2640   */\n      swap1\n      pop\n        /* \"#utility.yul\":2649:2682   */\n      tag_199\n        /* \"#utility.yul\":2676:2681   */\n      dup2\n        /* \"#utility.yul\":2649:2682   */\n      tag_124\n      jump\t// in\n    tag_199:\n        /* \"#utility.yul\":2549:2688   */\n      swap3\n      swap2\n      pop\n      pop\n      jump\t// out\n        /* \"#utility.yul\":2694:3168   */\n    tag_36:\n        /* \"#utility.yul\":2762:2768   */\n      0x00\n        /* \"#utility.yul\":2770:2776   */\n      dup1\n        /* \"#utility.yul\":2819:2821   */\n      0x40\n        /* \"#utility.yul\":2807:2816   */\n      dup4\n        /* \"#utility.yul\":2798:2805   */\n      dup6\n        /* \"#utility.yul\":2794:2817   */\n      sub\n        /* \"#utility.yul\":2790:2822   */\n      slt\n        /* \"#utility.yul\":2787:2906   */\n      iszero\n      tag_201\n      jumpi\n        /* \"#utility.yul\":2825:2904   */\n      tag_202\n      tag_113\n      jump\t// in\n    tag_202:\n        /* \"#utility.yul\":2787:2906   */\n    tag_201:\n        /* \"#utility.yul\":2945:2946   */\n      0x00\n        /* \"#utility.yul\":2970:3023   */\n      tag_203\n        /* \"#utility.yul\":3015:3022   */\n      dup6\n        /* \"#utility.yul\":3006:3012   */\n      dup3\n        /* \"#utility.yul\":2995:3004   */\n      dup7\n        /* \"#utility.yul\":2991:3013   */\n      add\n        /* \"#utility.yul\":2970:3023   */\n      tag_118\n      jump\t// in\n    tag_203:\n        /* \"#utility.yul\":2960:3023   */\n      swap3\n      pop\n        /* \"#utility.yul\":2916:3033   */\n      pop\n        /* \"#utility.yul\":3072:3074   */\n      0x20\n        /* \"#utility.yul\":3098:3151   */\n      tag_204\n        /* \"#utility.yul\":3143:3150   */\n      dup6\n        /* \"#utility.yul\":3134:3140   */\n      dup3\n        /* \"#utility.yul\":3123:3132   */\n      dup7\n        /* \"#utility.yul\":3119:3141   */\n      add\n        /* \"#utility.yul\":3098:3151   */\n      tag_125\n      jump\t// in\n    tag_204:\n        /* \"#utility.yul\":3088:3151   */\n      swap2\n      pop\n        /* \"#utility.yul\":3043:3161   */\n      pop\n        /* \"#utility.yul\":2694:3168   */\n      swap3\n      pop\n      swap3\n      swap1\n      pop\n      jump\t// out\n        /* \"#utility.yul\":3174:3292   */\n    tag_126:\n        /* \"#utility.yul\":3261:3285   */\n      tag_206\n        /* \"#utility.yul\":3279:3284   */\n      dup2\n        /* \"#utility.yul\":3261:3285   */\n      tag_123\n      jump\t// in\n    tag_206:\n        /* \"#utility.yul\":3256:3259   */\n      dup3\n        /* \"#utility.yul\":3249:3286   */\n      mstore\n        /* \"#utility.yul\":3174:3292   */\n      pop\n      pop\n      jump\t// out\n        /* \"#utility.yul\":3298:3520   */\n    tag_43:\n        /* \"#utility.yul\":3391:3395   */\n      0x00\n        /* \"#utility.yul\":3429:3431   */\n      0x20\n        /* \"#utility.yul\":3418:3427   */\n      dup3\n        /* \"#utility.yul\":3414:3432   */\n      add\n        /* \"#utility.yul\":3406:3432   */\n      swap1\n      pop\n        /* \"#utility.yul\":3442:3513   */\n      tag_208\n        /* \"#utility.yul\":3510:3511   */\n      0x00\n        /* \"#utility.yul\":3499:3508   */\n      dup4\n        /* \"#utility.yul\":3495:3512   */\n      add\n        /* \"#utility.yul\":3486:3492   */\n      dup5\n        /* \"#utility.yul\":3442:3513   */\n      tag_126\n      jump\t// in\n    tag_208:\n        /* \"#utility.yul\":3298:3520   */\n      swap3\n      swap2\n      pop\n      pop\n      jump\t// out\n        /* \"#utility.yul\":3526:4000   */\n    tag_47:\n        /* \"#utility.yul\":3594:3600   */\n      0x00\n        /* \"#utility.yul\":3602:3608   */\n      dup1\n        /* \"#utility.yul\":3651:3653   */\n      0x40\n        /* \"#utility.yul\":3639:3648   */\n      dup4\n        /* \"#utility.yul\":3630:3637   */\n      dup6\n        /* \"#utility.yul\":3626:3649   */\n      sub\n        /* \"#utility.yul\":3622:3654   */\n      slt\n        /* \"#utility.yul\":3619:3738   */\n      iszero\n      tag_210\n      jumpi\n        /* \"#utility.yul\":3657:3736   */\n      tag_211\n      tag_113\n      jump\t// in\n    tag_211:\n        /* \"#utility.yul\":3619:3738   */\n    tag_210:\n        /* \"#utility.yul\":3777:3778   */\n      0x00\n        /* \"#utility.yul\":3802:3855   */\n      tag_212\n        /* \"#utility.yul\":3847:3854   */\n      dup6\n        /* \"#utility.yul\":3838:3844   */\n      dup3\n        /* \"#utility.yul\":3827:3836   */\n      dup7\n        /* \"#utility.yul\":3823:3845   */\n      add\n        /* \"#utility.yul\":3802:3855   */\n      tag_118\n      jump\t// in\n    tag_212:\n        /* \"#utility.yul\":3792:3855   */\n      swap3\n      pop\n        /* \"#utility.yul\":3748:3865   */\n      pop\n        /* \"#utility.yul\":3904:3906   */\n      0x20\n        /* \"#utility.yul\":3930:3983   */\n      tag_213\n        /* \"#utility.yul\":3975:3982   */\n      dup6\n        /* \"#utility.yul\":3966:3972   */\n      dup3\n        /* \"#utility.yul\":3955:3964   */\n      dup7\n        /* \"#utility.yul\":3951:3973   */\n      add\n        /* \"#utility.yul\":3930:3983   */\n      tag_118\n      jump\t// in\n    tag_213:\n        /* \"#utility.yul\":3920:3983   */\n      swap2\n      pop\n        /* \"#utility.yul\":3875:3993   */\n      pop\n        /* \"#utility.yul\":3526:4000   */\n      swap3\n      pop\n      swap3\n      swap1\n      pop\n      jump\t// out\n        /* \"#utility.yul\":4006:4110   */\n    tag_127:\n        /* \"#utility.yul\":4051:4058   */\n      0x00\n        /* \"#utility.yul\":4080:4104   */\n      tag_215\n        /* \"#utility.yul\":4098:4103   */\n      dup3\n        /* \"#utility.yul\":4080:4104   */\n      tag_115\n      jump\t// in\n    tag_215:\n        /* \"#utility.yul\":4069:4104   */\n      swap1\n      pop\n        /* \"#utility.yul\":4006:4110   */\n      swap2\n      swap1\n      pop\n      jump\t// out\n        /* \"#utility.yul\":4116:4258   */\n    tag_128:\n        /* \"#utility.yul\":4219:4251   */\n      tag_217\n        /* \"#utility.yul\":4245:4250   */\n      dup2\n        /* \"#utility.yul\":4219:4251   */\n      tag_127\n      jump\t// in\n    tag_217:\n        /* \"#utility.yul\":4214:4217   */\n      dup3\n        /* \"#utility.yul\":4207:4252   */\n      mstore\n        /* \"#utility.yul\":4116:4258   */\n      pop\n      pop\n      jump\t// out\n        /* \"#utility.yul\":4264:4518   */\n    tag_58:\n        /* \"#utility.yul\":4373:4377   */\n      0x00\n        /* \"#utility.yul\":4411:4413   */\n      0x20\n        /* \"#utility.yul\":4400:4409   */\n      dup3\n        /* \"#utility.yul\":4396:4414   */\n      add\n        /* \"#utility.yul\":4388:4414   */\n      swap1\n      pop\n        /* \"#utility.yul\":4424:4511   */\n      tag_219\n        /* \"#utility.yul\":4508:4509   */\n      0x00\n        /* \"#utility.yul\":4497:4506   */\n      dup4\n        /* \"#utility.yul\":4493:4510   */\n      add\n        /* \"#utility.yul\":4484:4490   */\n      dup5\n        /* \"#utility.yul\":4424:4511   */\n      tag_128\n      jump\t// in\n    tag_219:\n        /* \"#utility.yul\":4264:4518   */\n      swap3\n      swap2\n      pop\n      pop\n      jump\t// out\n        /* \"#utility.yul\":4524:4662   */\n    tag_129:\n        /* \"#utility.yul\":4605:4637   */\n      tag_221\n        /* \"#utility.yul\":4631:4636   */\n      dup2\n        /* \"#utility.yul\":4605:4637   */\n      tag_127\n      jump\t// in\n    tag_221:\n        /* \"#utility.yul\":4598:4603   */\n      dup2\n        /* \"#utility.yul\":4595:4638   */\n      eq\n        /* \"#utility.yul\":4585:4656   */\n      tag_222\n      jumpi\n        /* \"#utility.yul\":4652:4653   */\n      0x00\n        /* \"#utility.yul\":4649:4650   */\n      dup1\n        /* \"#utility.yul\":4642:4654   */\n      revert\n        /* \"#utility.yul\":4585:4656   */\n    tag_222:\n        /* \"#utility.yul\":4524:4662   */\n      pop\n      jump\t// out\n        /* \"#utility.yul\":4668:4823   */\n    tag_130:\n        /* \"#utility.yul\":4722:4727   */\n      0x00\n        /* \"#utility.yul\":4760:4766   */\n      dup2\n        /* \"#utility.yul\":4747:4767   */\n      calldataload\n        /* \"#utility.yul\":4738:4767   */\n      swap1\n      pop\n        /* \"#utility.yul\":4776:4817   */\n      tag_224\n        /* \"#utility.yul\":4811:4816   */\n      dup2\n        /* \"#utility.yul\":4776:4817   */\n      tag_129\n      jump\t// in\n    tag_224:\n        /* \"#utility.yul\":4668:4823   */\n      swap3\n      swap2\n      pop\n      pop\n      jump\t// out\n        /* \"#utility.yul\":4829:5174   */\n    tag_62:\n        /* \"#utility.yul\":4896:4902   */\n      0x00\n        /* \"#utility.yul\":4945:4947   */\n      0x20\n        /* \"#utility.yul\":4933:4942   */\n      dup3\n        /* \"#utility.yul\":4924:4931   */\n      dup5\n        /* \"#utility.yul\":4920:4943   */\n      sub\n        /* \"#utility.yul\":4916:4948   */\n      slt\n        /* \"#utility.yul\":4913:5032   */\n      iszero\n      tag_226\n      jumpi\n        /* \"#utility.yul\":4951:5030   */\n      tag_227\n      tag_113\n      jump\t// in\n    tag_227:\n        /* \"#utility.yul\":4913:5032   */\n    tag_226:\n        /* \"#utility.yul\":5071:5072   */\n      0x00\n        /* \"#utility.yul\":5096:5157   */\n      tag_228\n        /* \"#utility.yul\":5149:5156   */\n      dup5\n        /* \"#utility.yul\":5140:5146   */\n      dup3\n        /* \"#utility.yul\":5129:5138   */\n      dup6\n        /* \"#utility.yul\":5125:5147   */\n      add\n        /* \"#utility.yul\":5096:5157   */\n      tag_130\n      jump\t// in\n    tag_228:\n        /* \"#utility.yul\":5086:5157   */\n      swap2\n      pop\n        /* \"#utility.yul\":5042:5167   */\n      pop\n        /* \"#utility.yul\":4829:5174   */\n      swap3\n      swap2\n      pop\n      pop\n      jump\t// out\n        /* \"#utility.yul\":5180:5297   */\n    tag_131:\n        /* \"#utility.yul\":5289:5290   */\n      0x00\n        /* \"#utility.yul\":5286:5287   */\n      dup1\n        /* \"#utility.yul\":5279:5291   */\n      revert\n        /* \"#utility.yul\":5303:5420   */\n    tag_132:\n        /* \"#utility.yul\":5412:5413   */\n      0x00\n        /* \"#utility.yul\":5409:5410   */\n      dup1\n        /* \"#utility.yul\":5402:5414   */\n      revert\n        /* \"#utility.yul\":5426:5528   */\n    tag_133:\n        /* \"#utility.yul\":5467:5473   */\n      0x00\n        /* \"#utility.yul\":5518:5520   */\n      0x1f\n        /* \"#utility.yul\":5514:5521   */\n      not\n        /* \"#utility.yul\":5509:5511   */\n      0x1f\n        /* \"#utility.yul\":5502:5507   */\n      dup4\n        /* \"#utility.yul\":5498:5512   */\n      add\n        /* \"#utility.yul\":5494:5522   */\n      and\n        /* \"#utility.yul\":5484:5522   */\n      swap1\n      pop\n        /* \"#utility.yul\":5426:5528   */\n      swap2\n      swap1\n      pop\n      jump\t// out\n        /* \"#utility.yul\":5534:5714   */\n    tag_134:\n        /* \"#utility.yul\":5582:5659   */\n      0x4e487b7100000000000000000000000000000000000000000000000000000000\n        /* \"#utility.yul\":5579:5580   */\n      0x00\n        /* \"#utility.yul\":5572:5660   */\n      mstore\n        /* \"#utility.yul\":5679:5683   */\n      0x41\n        /* \"#utility.yul\":5676:5677   */\n      0x04\n        /* \"#utility.yul\":5669:5684   */\n      mstore\n        /* \"#utility.yul\":5703:5707   */\n      0x24\n        /* \"#utility.yul\":5700:5701   */\n      0x00\n        /* \"#utility.yul\":5693:5708   */\n      revert\n        /* \"#utility.yul\":5720:6001   */\n    tag_135:\n        /* \"#utility.yul\":5803:5830   */\n      tag_234\n        /* \"#utility.yul\":5825:5829   */\n      dup3\n        /* \"#utility.yul\":5803:5830   */\n      tag_133\n      jump\t// in\n    tag_234:\n        /* \"#utility.yul\":5795:5801   */\n      dup2\n        /* \"#utility.yul\":5791:5831   */\n      add\n        /* \"#utility.yul\":5933:5939   */\n      dup2\n        /* \"#utility.yul\":5921:5931   */\n      dup2\n        /* \"#utility.yul\":5918:5940   */\n      lt\n        /* \"#utility.yul\":5897:5915   */\n      0xffffffffffffffff\n        /* \"#utility.yul\":5885:5895   */\n      dup3\n        /* \"#utility.yul\":5882:5916   */\n      gt\n        /* \"#utility.yul\":5879:5941   */\n      or\n        /* \"#utility.yul\":5876:5964   */\n      iszero\n      tag_235\n      jumpi\n        /* \"#utility.yul\":5944:5962   */\n      tag_236\n      tag_134\n      jump\t// in\n    tag_236:\n        /* \"#utility.yul\":5876:5964   */\n    tag_235:\n        /* \"#utility.yul\":5984:5994   */\n      dup1\n        /* \"#utility.yul\":5980:5982   */\n      0x40\n        /* \"#utility.yul\":5973:5995   */\n      mstore\n        /* \"#utility.yul\":5763:6001   */\n      pop\n        /* \"#utility.yul\":5720:6001   */\n      pop\n      pop\n      jump\t// out\n        /* \"#utility.yul\":6007:6136   */\n    tag_136:\n        /* \"#utility.yul\":6041:6047   */\n      0x00\n        /* \"#utility.yul\":6068:6088   */\n      tag_238\n      tag_112\n      jump\t// in\n    tag_238:\n        /* \"#utility.yul\":6058:6088   */\n      swap1\n      pop\n        /* \"#utility.yul\":6097:6130   */\n      tag_239\n        /* \"#utility.yul\":6125:6129   */\n      dup3\n        /* \"#utility.yul\":6117:6123   */\n      dup3\n        /* \"#utility.yul\":6097:6130   */\n      tag_135\n      jump\t// in\n    tag_239:\n        /* \"#utility.yul\":6007:6136   */\n      swap2\n      swap1\n      pop\n      jump\t// out\n        /* \"#utility.yul\":6142:6449   */\n    tag_137:\n        /* \"#utility.yul\":6203:6207   */\n      0x00\n        /* \"#utility.yul\":6293:6311   */\n      0xffffffffffffffff\n        /* \"#utility.yul\":6285:6291   */\n      dup3\n        /* \"#utility.yul\":6282:6312   */\n      gt\n        /* \"#utility.yul\":6279:6335   */\n      iszero\n      tag_241\n      jumpi\n        /* \"#utility.yul\":6315:6333   */\n      tag_242\n      tag_134\n      jump\t// in\n    tag_242:\n        /* \"#utility.yul\":6279:6335   */\n    tag_241:\n        /* \"#utility.yul\":6353:6382   */\n      tag_243\n        /* \"#utility.yul\":6375:6381   */\n      dup3\n        /* \"#utility.yul\":6353:6382   */\n      tag_133\n      jump\t// in\n    tag_243:\n        /* \"#utility.yul\":6345:6382   */\n      swap1\n      pop\n        /* \"#utility.yul\":6437:6441   */\n      0x20\n        /* \"#utility.yul\":6431:6435   */\n      dup2\n        /* \"#utility.yul\":6427:6442   */\n      add\n        /* \"#utility.yul\":6419:6442   */\n      swap1\n      pop\n        /* \"#utility.yul\":6142:6449   */\n      swap2\n      swap1\n      pop\n      jump\t// out\n        /* \"#utility.yul\":6455:6603   */\n    tag_138:\n        /* \"#utility.yul\":6553:6559   */\n      dup3\n        /* \"#utility.yul\":6548:6551   */\n      dup2\n        /* \"#utility.yul\":6543:6546   */\n      dup4\n        /* \"#utility.yul\":6530:6560   */\n      calldatacopy\n        /* \"#utility.yul\":6594:6595   */\n      0x00\n        /* \"#utility.yul\":6585:6591   */\n      dup4\n        /* \"#utility.yul\":6580:6583   */\n      dup4\n        /* \"#utility.yul\":6576:6592   */\n      add\n        /* \"#utility.yul\":6569:6596   */\n      mstore\n        /* \"#utility.yul\":6455:6603   */\n      pop\n      pop\n      pop\n      jump\t// out\n        /* \"#utility.yul\":6609:7032   */\n    tag_139:\n        /* \"#utility.yul\":6686:6691   */\n      0x00\n        /* \"#utility.yul\":6711:6776   */\n      tag_246\n        /* \"#utility.yul\":6727:6775   */\n      tag_247\n        /* \"#utility.yul\":6768:6774   */\n      dup5\n        /* \"#utility.yul\":6727:6775   */\n      tag_137\n      jump\t// in\n    tag_247:\n        /* \"#utility.yul\":6711:6776   */\n      tag_136\n      jump\t// in\n    tag_246:\n        /* \"#utility.yul\":6702:6776   */\n      swap1\n      pop\n        /* \"#utility.yul\":6799:6805   */\n      dup3\n        /* \"#utility.yul\":6792:6797   */\n      dup2\n        /* \"#utility.yul\":6785:6806   */\n      mstore\n        /* \"#utility.yul\":6837:6841   */\n      0x20\n        /* \"#utility.yul\":6830:6835   */\n      dup2\n        /* \"#utility.yul\":6826:6842   */\n      add\n        /* \"#utility.yul\":6875:6878   */\n      dup5\n        /* \"#utility.yul\":6866:6872   */\n      dup5\n        /* \"#utility.yul\":6861:6864   */\n      dup5\n        /* \"#utility.yul\":6857:6873   */\n      add\n        /* \"#utility.yul\":6854:6879   */\n      gt\n        /* \"#utility.yul\":6851:6963   */\n      iszero\n      tag_248\n      jumpi\n        /* \"#utility.yul\":6882:6961   */\n      tag_249\n      tag_132\n      jump\t// in\n    tag_249:\n        /* \"#utility.yul\":6851:6963   */\n    tag_248:\n        /* \"#utility.yul\":6972:7026   */\n      tag_250\n        /* \"#utility.yul\":7019:7025   */\n      dup5\n        /* \"#utility.yul\":7014:7017   */\n      dup3\n        /* \"#utility.yul\":7009:7012   */\n      dup6\n        /* \"#utility.yul\":6972:7026   */\n      tag_138\n      jump\t// in\n    tag_250:\n        /* \"#utility.yul\":6692:7032   */\n      pop\n        /* \"#utility.yul\":6609:7032   */\n      swap4\n      swap3\n      pop\n      pop\n      pop\n      jump\t// out\n        /* \"#utility.yul\":7051:7389   */\n    tag_140:\n        /* \"#utility.yul\":7106:7111   */\n      0x00\n        /* \"#utility.yul\":7155:7158   */\n      dup3\n        /* \"#utility.yul\":7148:7152   */\n      0x1f\n        /* \"#utility.yul\":7140:7146   */\n      dup4\n        /* \"#utility.yul\":7136:7153   */\n      add\n        /* \"#utility.yul\":7132:7159   */\n      slt\n        /* \"#utility.yul\":7122:7244   */\n      tag_252\n      jumpi\n        /* \"#utility.yul\":7163:7242   */\n      tag_253\n      tag_131\n      jump\t// in\n    tag_253:\n        /* \"#utility.yul\":7122:7244   */\n    tag_252:\n        /* \"#utility.yul\":7280:7286   */\n      dup2\n        /* \"#utility.yul\":7267:7287   */\n      calldataload\n        /* \"#utility.yul\":7305:7383   */\n      tag_254\n        /* \"#utility.yul\":7379:7382   */\n      dup5\n        /* \"#utility.yul\":7371:7377   */\n      dup3\n        /* \"#utility.yul\":7364:7368   */\n      0x20\n        /* \"#utility.yul\":7356:7362   */\n      dup7\n        /* \"#utility.yul\":7352:7369   */\n      add\n        /* \"#utility.yul\":7305:7383   */\n      tag_139\n      jump\t// in\n    tag_254:\n        /* \"#utility.yul\":7296:7383   */\n      swap2\n      pop\n        /* \"#utility.yul\":7112:7389   */\n      pop\n        /* \"#utility.yul\":7051:7389   */\n      swap3\n      swap2\n      pop\n      pop\n      jump\t// out\n        /* \"#utility.yul\":7395:8208   */\n    tag_67:\n        /* \"#utility.yul\":7489:7495   */\n      0x00\n        /* \"#utility.yul\":7497:7503   */\n      dup1\n        /* \"#utility.yul\":7505:7511   */\n      0x00\n        /* \"#utility.yul\":7554:7556   */\n      0x60\n        /* \"#utility.yul\":7542:7551   */\n      dup5\n        /* \"#utility.yul\":7533:7540   */\n      dup7\n        /* \"#utility.yul\":7529:7552   */\n      sub\n        /* \"#utility.yul\":7525:7557   */\n      slt\n        /* \"#utility.yul\":7522:7641   */\n      iszero\n      tag_256\n      jumpi\n        /* \"#utility.yul\":7560:7639   */\n      tag_257\n      tag_113\n      jump\t// in\n    tag_257:\n        /* \"#utility.yul\":7522:7641   */\n    tag_256:\n        /* \"#utility.yul\":7680:7681   */\n      0x00\n        /* \"#utility.yul\":7705:7766   */\n      tag_258\n        /* \"#utility.yul\":7758:7765   */\n      dup7\n        /* \"#utility.yul\":7749:7755   */\n      dup3\n        /* \"#utility.yul\":7738:7747   */\n      dup8\n        /* \"#utility.yul\":7734:7756   */\n      add\n        /* \"#utility.yul\":7705:7766   */\n      tag_130\n      jump\t// in\n    tag_258:\n        /* \"#utility.yul\":7695:7766   */\n      swap4\n      pop\n        /* \"#utility.yul\":7651:7776   */\n      pop\n        /* \"#utility.yul\":7815:7817   */\n      0x20\n        /* \"#utility.yul\":7841:7894   */\n      tag_259\n        /* \"#utility.yul\":7886:7893   */\n      dup7\n        /* \"#utility.yul\":7877:7883   */\n      dup3\n        /* \"#utility.yul\":7866:7875   */\n      dup8\n        /* \"#utility.yul\":7862:7884   */\n      add\n        /* \"#utility.yul\":7841:7894   */\n      tag_125\n      jump\t// in\n    tag_259:\n        /* \"#utility.yul\":7831:7894   */\n      swap3\n      pop\n        /* \"#utility.yul\":7786:7904   */\n      pop\n        /* \"#utility.yul\":7971:7973   */\n      0x40\n        /* \"#utility.yul\":7960:7969   */\n      dup5\n        /* \"#utility.yul\":7956:7974   */\n      add\n        /* \"#utility.yul\":7943:7975   */\n      calldataload\n        /* \"#utility.yul\":8002:8020   */\n      0xffffffffffffffff\n        /* \"#utility.yul\":7994:8000   */\n      dup2\n        /* \"#utility.yul\":7991:8021   */\n      gt\n        /* \"#utility.yul\":7988:8105   */\n      iszero\n      tag_260\n      jumpi\n        /* \"#utility.yul\":8024:8103   */\n      tag_261\n      tag_114\n      jump\t// in\n    tag_261:\n        /* \"#utility.yul\":7988:8105   */\n    tag_260:\n        /* \"#utility.yul\":8129:8191   */\n      tag_262\n        /* \"#utility.yul\":8183:8190   */\n      dup7\n        /* \"#utility.yul\":8174:8180   */\n      dup3\n        /* \"#utility.yul\":8163:8172   */\n      dup8\n        /* \"#utility.yul\":8159:8181   */\n      add\n        /* \"#utility.yul\":8129:8191   */\n      tag_140\n      jump\t// in\n    tag_262:\n        /* \"#utility.yul\":8119:8191   */\n      swap2\n      pop\n        /* \"#utility.yul\":7914:8201   */\n      pop\n        /* \"#utility.yul\":7395:8208   */\n      swap3\n      pop\n      swap3\n      pop\n      swap3\n      jump\t// out\n        /* \"#utility.yul\":8214:8312   */\n    tag_141:\n        /* \"#utility.yul\":8265:8271   */\n      0x00\n        /* \"#utility.yul\":8299:8304   */\n      dup2\n        /* \"#utility.yul\":8293:8305   */\n      mload\n        /* \"#utility.yul\":8283:8305   */\n      swap1\n      pop\n        /* \"#utility.yul\":8214:8312   */\n      swap2\n      swap1\n      pop\n      jump\t// out\n        /* \"#utility.yul\":8318:8486   */\n    tag_142:\n        /* \"#utility.yul\":8401:8412   */\n      0x00\n        /* \"#utility.yul\":8435:8441   */\n      dup3\n        /* \"#utility.yul\":8430:8433   */\n      dup3\n        /* \"#utility.yul\":8423:8442   */\n      mstore\n        /* \"#utility.yul\":8475:8479   */\n      0x20\n        /* \"#utility.yul\":8470:8473   */\n      dup3\n        /* \"#utility.yul\":8466:8480   */\n      add\n        /* \"#utility.yul\":8451:8480   */\n      swap1\n      pop\n        /* \"#utility.yul\":8318:8486   */\n      swap3\n      swap2\n      pop\n      pop\n      jump\t// out\n        /* \"#utility.yul\":8492:8631   */\n    tag_143:\n        /* \"#utility.yul\":8581:8587   */\n      dup3\n        /* \"#utility.yul\":8576:8579   */\n      dup2\n        /* \"#utility.yul\":8571:8574   */\n      dup4\n        /* \"#utility.yul\":8565:8588   */\n      mcopy\n        /* \"#utility.yul\":8622:8623   */\n      0x00\n        /* \"#utility.yul\":8613:8619   */\n      dup4\n        /* \"#utility.yul\":8608:8611   */\n      dup4\n        /* \"#utility.yul\":8604:8620   */\n      add\n        /* \"#utility.yul\":8597:8624   */\n      mstore\n        /* \"#utility.yul\":8492:8631   */\n      pop\n      pop\n      pop\n      jump\t// out\n        /* \"#utility.yul\":8637:9010   */\n    tag_144:\n        /* \"#utility.yul\":8723:8726   */\n      0x00\n        /* \"#utility.yul\":8751:8789   */\n      tag_267\n        /* \"#utility.yul\":8783:8788   */\n      dup3\n        /* \"#utility.yul\":8751:8789   */\n      tag_141\n      jump\t// in\n    tag_267:\n        /* \"#utility.yul\":8805:8875   */\n      tag_268\n        /* \"#utility.yul\":8868:8874   */\n      dup2\n        /* \"#utility.yul\":8863:8866   */\n      dup6\n        /* \"#utility.yul\":8805:8875   */\n      tag_142\n      jump\t// in\n    tag_268:\n        /* \"#utility.yul\":8798:8875   */\n      swap4\n      pop\n        /* \"#utility.yul\":8884:8949   */\n      tag_269\n        /* \"#utility.yul\":8942:8948   */\n      dup2\n        /* \"#utility.yul\":8937:8940   */\n      dup6\n        /* \"#utility.yul\":8930:8934   */\n      0x20\n        /* \"#utility.yul\":8923:8928   */\n      dup7\n        /* \"#utility.yul\":8919:8935   */\n      add\n        /* \"#utility.yul\":8884:8949   */\n      tag_143\n      jump\t// in\n    tag_269:\n        /* \"#utility.yul\":8974:9003   */\n      tag_270\n        /* \"#utility.yul\":8996:9002   */\n      dup2\n        /* \"#utility.yul\":8974:9003   */\n      tag_133\n      jump\t// in\n    tag_270:\n        /* \"#utility.yul\":8969:8972   */\n      dup5\n        /* \"#utility.yul\":8965:9004   */\n      add\n        /* \"#utility.yul\":8958:9004   */\n      swap2\n      pop\n        /* \"#utility.yul\":8727:9010   */\n      pop\n        /* \"#utility.yul\":8637:9010   */\n      swap3\n      swap2\n      pop\n      pop\n      jump\t// out\n        /* \"#utility.yul\":9016:9325   */\n    tag_70:\n        /* \"#utility.yul\":9127:9131   */\n      0x00\n        /* \"#utility.yul\":9165:9167   */\n      0x20\n        /* \"#utility.yul\":9154:9163   */\n      dup3\n        /* \"#utility.yul\":9150:9168   */\n      add\n        /* \"#utility.yul\":9142:9168   */\n      swap1\n      pop\n        /* \"#utility.yul\":9214:9223   */\n      dup2\n        /* \"#utility.yul\":9208:9212   */\n      dup2\n        /* \"#utility.yul\":9204:9224   */\n      sub\n        /* \"#utility.yul\":9200:9201   */\n      0x00\n        /* \"#utility.yul\":9189:9198   */\n      dup4\n        /* \"#utility.yul\":9185:9202   */\n      add\n        /* \"#utility.yul\":9178:9225   */\n      mstore\n        /* \"#utility.yul\":9242:9318   */\n      tag_272\n        /* \"#utility.yul\":9313:9317   */\n      dup2\n        /* \"#utility.yul\":9304:9310   */\n      dup5\n        /* \"#utility.yul\":9242:9318   */\n      tag_144\n      jump\t// in\n    tag_272:\n        /* \"#utility.yul\":9234:9318   */\n      swap1\n      pop\n        /* \"#utility.yul\":9016:9325   */\n      swap3\n      swap2\n      pop\n      pop\n      jump\t// out\n        /* \"#utility.yul\":9331:9500   */\n    tag_145:\n        /* \"#utility.yul\":9415:9426   */\n      0x00\n        /* \"#utility.yul\":9449:9455   */\n      dup3\n        /* \"#utility.yul\":9444:9447   */\n      dup3\n        /* \"#utility.yul\":9437:9456   */\n      mstore\n        /* \"#utility.yul\":9489:9493   */\n      0x20\n        /* \"#utility.yul\":9484:9487   */\n      dup3\n        /* \"#utility.yul\":9480:9494   */\n      add\n        /* \"#utility.yul\":9465:9494   */\n      swap1\n      pop\n        /* \"#utility.yul\":9331:9500   */\n      swap3\n      swap2\n      pop\n      pop\n      jump\t// out\n        /* \"#utility.yul\":9506:9687   */\n    tag_146:\n        /* \"#utility.yul\":9646:9679   */\n      0x596f7520617265206e6f7420746865206f776e65722c2061626f7274696e6700\n        /* \"#utility.yul\":9642:9643   */\n      0x00\n        /* \"#utility.yul\":9634:9640   */\n      dup3\n        /* \"#utility.yul\":9630:9644   */\n      add\n        /* \"#utility.yul\":9623:9680   */\n      mstore\n        /* \"#utility.yul\":9506:9687   */\n      pop\n      jump\t// out\n        /* \"#utility.yul\":9693:10059   */\n    tag_147:\n        /* \"#utility.yul\":9835:9838   */\n      0x00\n        /* \"#utility.yul\":9856:9923   */\n      tag_276\n        /* \"#utility.yul\":9920:9922   */\n      0x1f\n        /* \"#utility.yul\":9915:9918   */\n      dup4\n        /* \"#utility.yul\":9856:9923   */\n      tag_145\n      jump\t// in\n    tag_276:\n        /* \"#utility.yul\":9849:9923   */\n      swap2\n      pop\n        /* \"#utility.yul\":9932:10025   */\n      tag_277\n        /* \"#utility.yul\":10021:10024   */\n      dup3\n        /* \"#utility.yul\":9932:10025   */\n      tag_146\n      jump\t// in\n    tag_277:\n        /* \"#utility.yul\":10050:10052   */\n      0x20\n        /* \"#utility.yul\":10045:10048   */\n      dup3\n        /* \"#utility.yul\":10041:10053   */\n      add\n        /* \"#utility.yul\":10034:10053   */\n      swap1\n      pop\n        /* \"#utility.yul\":9693:10059   */\n      swap2\n      swap1\n      pop\n      jump\t// out\n        /* \"#utility.yul\":10065:10484   */\n    tag_74:\n        /* \"#utility.yul\":10231:10235   */\n      0x00\n        /* \"#utility.yul\":10269:10271   */\n      0x20\n        /* \"#utility.yul\":10258:10267   */\n      dup3\n        /* \"#utility.yul\":10254:10272   */\n      add\n        /* \"#utility.yul\":10246:10272   */\n      swap1\n      pop\n        /* \"#utility.yul\":10318:10327   */\n      dup2\n        /* \"#utility.yul\":10312:10316   */\n      dup2\n        /* \"#utility.yul\":10308:10328   */\n      sub\n        /* \"#utility.yul\":10304:10305   */\n      0x00\n        /* \"#utility.yul\":10293:10302   */\n      dup4\n        /* \"#utility.yul\":10289:10306   */\n      add\n        /* \"#utility.yul\":10282:10329   */\n      mstore\n        /* \"#utility.yul\":10346:10477   */\n      tag_279\n        /* \"#utility.yul\":10472:10476   */\n      dup2\n        /* \"#utility.yul\":10346:10477   */\n      tag_147\n      jump\t// in\n    tag_279:\n        /* \"#utility.yul\":10338:10477   */\n      swap1\n      pop\n        /* \"#utility.yul\":10065:10484   */\n      swap2\n      swap1\n      pop\n      jump\t// out\n        /* \"#utility.yul\":10490:10724   */\n    tag_148:\n        /* \"#utility.yul\":10630:10664   */\n      0x596f7520617265206e6f7420677561726469616e206f6620746869732077616c\n        /* \"#utility.yul\":10626:10627   */\n      0x00\n        /* \"#utility.yul\":10618:10624   */\n      dup3\n        /* \"#utility.yul\":10614:10628   */\n      add\n        /* \"#utility.yul\":10607:10665   */\n      mstore\n        /* \"#utility.yul\":10699:10716   */\n      0x6c65742c2061626f7274696e6721210000000000000000000000000000000000\n        /* \"#utility.yul\":10694:10696   */\n      0x20\n        /* \"#utility.yul\":10686:10692   */\n      dup3\n        /* \"#utility.yul\":10682:10697   */\n      add\n        /* \"#utility.yul\":10675:10717   */\n      mstore\n        /* \"#utility.yul\":10490:10724   */\n      pop\n      jump\t// out\n        /* \"#utility.yul\":10730:11096   */\n    tag_149:\n        /* \"#utility.yul\":10872:10875   */\n      0x00\n        /* \"#utility.yul\":10893:10960   */\n      tag_282\n        /* \"#utility.yul\":10957:10959   */\n      0x2f\n        /* \"#utility.yul\":10952:10955   */\n      dup4\n        /* \"#utility.yul\":10893:10960   */\n      tag_145\n      jump\t// in\n    tag_282:\n        /* \"#utility.yul\":10886:10960   */\n      swap2\n      pop\n        /* \"#utility.yul\":10969:11062   */\n      tag_283\n        /* \"#utility.yul\":11058:11061   */\n      dup3\n        /* \"#utility.yul\":10969:11062   */\n      tag_148\n      jump\t// in\n    tag_283:\n        /* \"#utility.yul\":11087:11089   */\n      0x40\n        /* \"#utility.yul\":11082:11085   */\n      dup3\n        /* \"#utility.yul\":11078:11090   */\n      add\n        /* \"#utility.yul\":11071:11090   */\n      swap1\n      pop\n        /* \"#utility.yul\":10730:11096   */\n      swap2\n      swap1\n      pop\n      jump\t// out\n        /* \"#utility.yul\":11102:11521   */\n    tag_83:\n        /* \"#utility.yul\":11268:11272   */\n      0x00\n        /* \"#utility.yul\":11306:11308   */\n      0x20\n        /* \"#utility.yul\":11295:11304   */\n      dup3\n        /* \"#utility.yul\":11291:11309   */\n      add\n        /* \"#utility.yul\":11283:11309   */\n      swap1\n      pop\n        /* \"#utility.yul\":11355:11364   */\n      dup2\n        /* \"#utility.yul\":11349:11353   */\n      dup2\n        /* \"#utility.yul\":11345:11365   */\n      sub\n        /* \"#utility.yul\":11341:11342   */\n      0x00\n        /* \"#utility.yul\":11330:11339   */\n      dup4\n        /* \"#utility.yul\":11326:11343   */\n      add\n        /* \"#utility.yul\":11319:11366   */\n      mstore\n        /* \"#utility.yul\":11383:11514   */\n      tag_285\n        /* \"#utility.yul\":11509:11513   */\n      dup2\n        /* \"#utility.yul\":11383:11514   */\n      tag_149\n      jump\t// in\n    tag_285:\n        /* \"#utility.yul\":11375:11514   */\n      swap1\n      pop\n        /* \"#utility.yul\":11102:11521   */\n      swap2\n      swap1\n      pop\n      jump\t// out\n        /* \"#utility.yul\":11527:11704   */\n    tag_150:\n        /* \"#utility.yul\":11667:11696   */\n      0x596f7520616c726561647920766f7465642c2061626f7274696e670000000000\n        /* \"#utility.yul\":11663:11664   */\n      0x00\n        /* \"#utility.yul\":11655:11661   */\n      dup3\n        /* \"#utility.yul\":11651:11665   */\n      add\n        /* \"#utility.yul\":11644:11697   */\n      mstore\n        /* \"#utility.yul\":11527:11704   */\n      pop\n      jump\t// out\n        /* \"#utility.yul\":11710:12076   */\n    tag_151:\n        /* \"#utility.yul\":11852:11855   */\n      0x00\n        /* \"#utility.yul\":11873:11940   */\n      tag_288\n        /* \"#utility.yul\":11937:11939   */\n      0x1b\n        /* \"#utility.yul\":11932:11935   */\n      dup4\n        /* \"#utility.yul\":11873:11940   */\n      tag_145\n      jump\t// in\n    tag_288:\n        /* \"#utility.yul\":11866:11940   */\n      swap2\n      pop\n        /* \"#utility.yul\":11949:12042   */\n      tag_289\n        /* \"#utility.yul\":12038:12041   */\n      dup3\n        /* \"#utility.yul\":11949:12042   */\n      tag_150\n      jump\t// in\n    tag_289:\n        /* \"#utility.yul\":12067:12069   */\n      0x20\n        /* \"#utility.yul\":12062:12065   */\n      dup3\n        /* \"#utility.yul\":12058:12070   */\n      add\n        /* \"#utility.yul\":12051:12070   */\n      swap1\n      pop\n        /* \"#utility.yul\":11710:12076   */\n      swap2\n      swap1\n      pop\n      jump\t// out\n        /* \"#utility.yul\":12082:12501   */\n    tag_86:\n        /* \"#utility.yul\":12248:12252   */\n      0x00\n        /* \"#utility.yul\":12286:12288   */\n      0x20\n        /* \"#utility.yul\":12275:12284   */\n      dup3\n        /* \"#utility.yul\":12271:12289   */\n      add\n        /* \"#utility.yul\":12263:12289   */\n      swap1\n      pop\n        /* \"#utility.yul\":12335:12344   */\n      dup2\n        /* \"#utility.yul\":12329:12333   */\n      dup2\n        /* \"#utility.yul\":12325:12345   */\n      sub\n        /* \"#utility.yul\":12321:12322   */\n      0x00\n        /* \"#utility.yul\":12310:12319   */\n      dup4\n        /* \"#utility.yul\":12306:12323   */\n      add\n        /* \"#utility.yul\":12299:12346   */\n      mstore\n        /* \"#utility.yul\":12363:12494   */\n      tag_291\n        /* \"#utility.yul\":12489:12493   */\n      dup2\n        /* \"#utility.yul\":12363:12494   */\n      tag_151\n      jump\t// in\n    tag_291:\n        /* \"#utility.yul\":12355:12494   */\n      swap1\n      pop\n        /* \"#utility.yul\":12082:12501   */\n      swap2\n      swap1\n      pop\n      jump\t// out\n        /* \"#utility.yul\":12507:12687   */\n    tag_152:\n        /* \"#utility.yul\":12555:12632   */\n      0x4e487b7100000000000000000000000000000000000000000000000000000000\n        /* \"#utility.yul\":12552:12553   */\n      0x00\n        /* \"#utility.yul\":12545:12633   */\n      mstore\n        /* \"#utility.yul\":12652:12656   */\n      0x11\n        /* \"#utility.yul\":12649:12650   */\n      0x04\n        /* \"#utility.yul\":12642:12657   */\n      mstore\n        /* \"#utility.yul\":12676:12680   */\n      0x24\n        /* \"#utility.yul\":12673:12674   */\n      0x00\n        /* \"#utility.yul\":12666:12681   */\n      revert\n        /* \"#utility.yul\":12693:12926   */\n    tag_89:\n        /* \"#utility.yul\":12732:12735   */\n      0x00\n        /* \"#utility.yul\":12755:12779   */\n      tag_294\n        /* \"#utility.yul\":12773:12778   */\n      dup3\n        /* \"#utility.yul\":12755:12779   */\n      tag_123\n      jump\t// in\n    tag_294:\n        /* \"#utility.yul\":12746:12779   */\n      swap2\n      pop\n        /* \"#utility.yul\":12801:12867   */\n      0xffffffffffffffffffffffffffffffffffffffffffffffffffffffffffffffff\n        /* \"#utility.yul\":12794:12799   */\n      dup3\n        /* \"#utility.yul\":12791:12868   */\n      sub\n        /* \"#utility.yul\":12788:12891   */\n      tag_295\n      jumpi\n        /* \"#utility.yul\":12871:12889   */\n      tag_296\n      tag_152\n      jump\t// in\n    tag_296:\n        /* \"#utility.yul\":12788:12891   */\n    tag_295:\n        /* \"#utility.yul\":12918:12919   */\n      0x01\n        /* \"#utility.yul\":12911:12916   */\n      dup3\n        /* \"#utility.yul\":12907:12920   */\n      add\n        /* \"#utility.yul\":12900:12920   */\n      swap1\n      pop\n        /* \"#utility.yul\":12693:12926   */\n      swap2\n      swap1\n      pop\n      jump\t// out\n        /* \"#utility.yul\":12932:13152   */\n    tag_153:\n        /* \"#utility.yul\":13072:13106   */\n      0x596f7520617265206e6f7420746865206f776e65722c2061626f7274696e6721\n        /* \"#utility.yul\":13068:13069   */\n      0x00\n        /* \"#utility.yul\":13060:13066   */\n      dup3\n        /* \"#utility.yul\":13056:13070   */\n      add\n        /* \"#utility.yul\":13049:13107   */\n      mstore\n        /* \"#utility.yul\":13141:13144   */\n      0x2100000000000000000000000000000000000000000000000000000000000000\n        /* \"#utility.yul\":13136:13138   */\n      0x20\n        /* \"#utility.yul\":13128:13134   */\n      dup3\n        /* \"#utility.yul\":13124:13139   */\n      add\n        /* \"#utility.yul\":13117:13145   */\n      mstore\n        /* \"#utility.yul\":12932:13152   */\n      pop\n      jump\t// out\n        /* \"#utility.yul\":13158:13524   */\n    tag_154:\n        /* \"#utility.yul\":13300:13303   */\n      0x00\n        /* \"#utility.yul\":13321:13388   */\n      tag_299\n        /* \"#utility.yul\":13385:13387   */\n      0x21\n        /* \"#utility.yul\":13380:13383   */\n      dup4\n        /* \"#utility.yul\":13321:13388   */\n      tag_145\n      jump\t// in\n    tag_299:\n        /* \"#utility.yul\":13314:13388   */\n      swap2\n      pop\n        /* \"#utility.yul\":13397:13490   */\n      tag_300\n        /* \"#utility.yul\":13486:13489   */\n      dup3\n        /* \"#utility.yul\":13397:13490   */\n      tag_153\n      jump\t// in\n    tag_300:\n        /* \"#utility.yul\":13515:13517   */\n      0x40\n        /* \"#utility.yul\":13510:13513   */\n      dup3\n        /* \"#utility.yul\":13506:13518   */\n      add\n        /* \"#utility.yul\":13499:13518   */\n      swap1\n      pop\n        /* \"#utility.yul\":13158:13524   */\n      swap2\n      swap1\n      pop\n      jump\t// out\n        /* \"#utility.yul\":13530:13949   */\n    tag_94:\n        /* \"#utility.yul\":13696:13700   */\n      0x00\n        /* \"#utility.yul\":13734:13736   */\n      0x20\n        /* \"#utility.yul\":13723:13732   */\n      dup3\n        /* \"#utility.yul\":13719:13737   */\n      add\n        /* \"#utility.yul\":13711:13737   */\n      swap1\n      pop\n        /* \"#utility.yul\":13783:13792   */\n      dup2\n        /* \"#utility.yul\":13777:13781   */\n      dup2\n        /* \"#utility.yul\":13773:13793   */\n      sub\n        /* \"#utility.yul\":13769:13770   */\n      0x00\n        /* \"#utility.yul\":13758:13767   */\n      dup4\n        /* \"#utility.yul\":13754:13771   */\n      add\n        /* \"#utility.yul\":13747:13794   */\n      mstore\n        /* \"#utility.yul\":13811:13942   */\n      tag_302\n        /* \"#utility.yul\":13937:13941   */\n      dup2\n        /* \"#utility.yul\":13811:13942   */\n      tag_154\n      jump\t// in\n    tag_302:\n        /* \"#utility.yul\":13803:13942   */\n      swap1\n      pop\n        /* \"#utility.yul\":13530:13949   */\n      swap2\n      swap1\n      pop\n      jump\t// out\n        /* \"#utility.yul\":13955:14205   */\n    tag_155:\n        /* \"#utility.yul\":14095:14129   */\n      0x596f752061726520747279696e6720746f2073656e64206d6f7265207468616e\n        /* \"#utility.yul\":14091:14092   */\n      0x00\n        /* \"#utility.yul\":14083:14089   */\n      dup3\n        /* \"#utility.yul\":14079:14093   */\n      add\n        /* \"#utility.yul\":14072:14130   */\n      mstore\n        /* \"#utility.yul\":14164:14197   */\n      0x20796f752061726520616c6c6f77656420746f2c2061626f7274696e67212100\n        /* \"#utility.yul\":14159:14161   */\n      0x20\n        /* \"#utility.yul\":14151:14157   */\n      dup3\n        /* \"#utility.yul\":14147:14162   */\n      add\n        /* \"#utility.yul\":14140:14198   */\n      mstore\n        /* \"#utility.yul\":13955:14205   */\n      pop\n      jump\t// out\n        /* \"#utility.yul\":14211:14577   */\n    tag_156:\n        /* \"#utility.yul\":14353:14356   */\n      0x00\n        /* \"#utility.yul\":14374:14441   */\n      tag_305\n        /* \"#utility.yul\":14438:14440   */\n      0x3f\n        /* \"#utility.yul\":14433:14436   */\n      dup4\n        /* \"#utility.yul\":14374:14441   */\n      tag_145\n      jump\t// in\n    tag_305:\n        /* \"#utility.yul\":14367:14441   */\n      swap2\n      pop\n        /* \"#utility.yul\":14450:14543   */\n      tag_306\n        /* \"#utility.yul\":14539:14542   */\n      dup3\n        /* \"#utility.yul\":14450:14543   */\n      tag_155\n      jump\t// in\n    tag_306:\n        /* \"#utility.yul\":14568:14570   */\n      0x40\n        /* \"#utility.yul\":14563:14566   */\n      dup3\n        /* \"#utility.yul\":14559:14571   */\n      add\n        /* \"#utility.yul\":14552:14571   */\n      swap1\n      pop\n        /* \"#utility.yul\":14211:14577   */\n      swap2\n      swap1\n      pop\n      jump\t// out\n        /* \"#utility.yul\":14583:15002   */\n    tag_98:\n        /* \"#utility.yul\":14749:14753   */\n      0x00\n        /* \"#utility.yul\":14787:14789   */\n      0x20\n        /* \"#utility.yul\":14776:14785   */\n      dup3\n        /* \"#utility.yul\":14772:14790   */\n      add\n        /* \"#utility.yul\":14764:14790   */\n      swap1\n      pop\n        /* \"#utility.yul\":14836:14845   */\n      dup2\n        /* \"#utility.yul\":14830:14834   */\n      dup2\n        /* \"#utility.yul\":14826:14846   */\n      sub\n        /* \"#utility.yul\":14822:14823   */\n      0x00\n        /* \"#utility.yul\":14811:14820   */\n      dup4\n        /* \"#utility.yul\":14807:14824   */\n      add\n        /* \"#utility.yul\":14800:14847   */\n      mstore\n        /* \"#utility.yul\":14864:14995   */\n      tag_308\n        /* \"#utility.yul\":14990:14994   */\n      dup2\n        /* \"#utility.yul\":14864:14995   */\n      tag_156\n      jump\t// in\n    tag_308:\n        /* \"#utility.yul\":14856:14995   */\n      swap1\n      pop\n        /* \"#utility.yul\":14583:15002   */\n      swap2\n      swap1\n      pop\n      jump\t// out\n        /* \"#utility.yul\":15008:15305   */\n    tag_157:\n        /* \"#utility.yul\":15148:15182   */\n      0x596f7520617265206e6f7420616c6c6f77656420746f2073656e6420616e7974\n        /* \"#utility.yul\":15144:15145   */\n      0x00\n        /* \"#utility.yul\":15136:15142   */\n      dup3\n        /* \"#utility.yul\":15132:15146   */\n      add\n        /* \"#utility.yul\":15125:15183   */\n      mstore\n        /* \"#utility.yul\":15217:15251   */\n      0x68696e672066726f6d207468697320736d61727420636f6e74726163742c2061\n        /* \"#utility.yul\":15212:15214   */\n      0x20\n        /* \"#utility.yul\":15204:15210   */\n      dup3\n        /* \"#utility.yul\":15200:15215   */\n      add\n        /* \"#utility.yul\":15193:15252   */\n      mstore\n        /* \"#utility.yul\":15286:15297   */\n      0x626f7274696e6721210000000000000000000000000000000000000000000000\n        /* \"#utility.yul\":15281:15283   */\n      0x40\n        /* \"#utility.yul\":15273:15279   */\n      dup3\n        /* \"#utility.yul\":15269:15284   */\n      add\n        /* \"#utility.yul\":15262:15298   */\n      mstore\n        /* \"#utility.yul\":15008:15305   */\n      pop\n      jump\t// out\n        /* \"#utility.yul\":15311:15677   */\n    tag_158:\n        /* \"#utility.yul\":15453:15456   */\n      0x00\n        /* \"#utility.yul\":15474:15541   */\n      tag_311\n        /* \"#utility.yul\":15538:15540   */\n      0x49\n        /* \"#utility.yul\":15533:15536   */\n      dup4\n        /* \"#utility.yul\":15474:15541   */\n      tag_145\n      jump\t// in\n    tag_311:\n        /* \"#utility.yul\":15467:15541   */\n      swap2\n      pop\n        /* \"#utility.yul\":15550:15643   */\n      tag_312\n        /* \"#utility.yul\":15639:15642   */\n      dup3\n        /* \"#utility.yul\":15550:15643   */\n      tag_157\n      jump\t// in\n    tag_312:\n        /* \"#utility.yul\":15668:15670   */\n      0x60\n        /* \"#utility.yul\":15663:15666   */\n      dup3\n        /* \"#utility.yul\":15659:15671   */\n      add\n        /* \"#utility.yul\":15652:15671   */\n      swap1\n      pop\n        /* \"#utility.yul\":15311:15677   */\n      swap2\n      swap1\n      pop\n      jump\t// out\n        /* \"#utility.yul\":15683:16102   */\n    tag_101:\n        /* \"#utility.yul\":15849:15853   */\n      0x00\n        /* \"#utility.yul\":15887:15889   */\n      0x20\n        /* \"#utility.yul\":15876:15885   */\n      dup3\n        /* \"#utility.yul\":15872:15890   */\n      add\n        /* \"#utility.yul\":15864:15890   */\n      swap1\n      pop\n        /* \"#utility.yul\":15936:15945   */\n      dup2\n        /* \"#utility.yul\":15930:15934   */\n      dup2\n        /* \"#utility.yul\":15926:15946   */\n      sub\n        /* \"#utility.yul\":15922:15923   */\n      0x00\n        /* \"#utility.yul\":15911:15920   */\n      dup4\n        /* \"#utility.yul\":15907:15924   */\n      add\n        /* \"#utility.yul\":15900:15947   */\n      mstore\n        /* \"#utility.yul\":15964:16095   */\n      tag_314\n        /* \"#utility.yul\":16090:16094   */\n      dup2\n        /* \"#utility.yul\":15964:16095   */\n      tag_158\n      jump\t// in\n    tag_314:\n        /* \"#utility.yul\":15956:16095   */\n      swap1\n      pop\n        /* \"#utility.yul\":15683:16102   */\n      swap2\n      swap1\n      pop\n      jump\t// out\n        /* \"#utility.yul\":16108:16302   */\n    tag_103:\n        /* \"#utility.yul\":16148:16152   */\n      0x00\n        /* \"#utility.yul\":16168:16188   */\n      tag_316\n        /* \"#utility.yul\":16186:16187   */\n      dup3\n        /* \"#utility.yul\":16168:16188   */\n      tag_123\n      jump\t// in\n    tag_316:\n        /* \"#utility.yul\":16163:16188   */\n      swap2\n      pop\n        /* \"#utility.yul\":16202:16222   */\n      tag_317\n        /* \"#utility.yul\":16220:16221   */\n      dup4\n        /* \"#utility.yul\":16202:16222   */\n      tag_123\n      jump\t// in\n    tag_317:\n        /* \"#utility.yul\":16197:16222   */\n      swap3\n      pop\n        /* \"#utility.yul\":16246:16247   */\n      dup3\n        /* \"#utility.yul\":16243:16244   */\n      dup3\n        /* \"#utility.yul\":16239:16248   */\n      sub\n        /* \"#utility.yul\":16231:16248   */\n      swap1\n      pop\n        /* \"#utility.yul\":16270:16271   */\n      dup2\n        /* \"#utility.yul\":16264:16268   */\n      dup2\n        /* \"#utility.yul\":16261:16272   */\n      gt\n        /* \"#utility.yul\":16258:16295   */\n      iszero\n      tag_318\n      jumpi\n        /* \"#utility.yul\":16275:16293   */\n      tag_319\n      tag_152\n      jump\t// in\n    tag_319:\n        /* \"#utility.yul\":16258:16295   */\n    tag_318:\n        /* \"#utility.yul\":16108:16302   */\n      swap3\n      swap2\n      pop\n      pop\n      jump\t// out\n        /* \"#utility.yul\":16308:16455   */\n    tag_159:\n        /* \"#utility.yul\":16409:16420   */\n      0x00\n        /* \"#utility.yul\":16446:16449   */\n      dup2\n        /* \"#utility.yul\":16431:16449   */\n      swap1\n      pop\n        /* \"#utility.yul\":16308:16455   */\n      swap3\n      swap2\n      pop\n      pop\n      jump\t// out\n        /* \"#utility.yul\":16461:16847   */\n    tag_160:\n        /* \"#utility.yul\":16565:16568   */\n      0x00\n        /* \"#utility.yul\":16593:16631   */\n      tag_322\n        /* \"#utility.yul\":16625:16630   */\n      dup3\n        /* \"#utility.yul\":16593:16631   */\n      tag_141\n      jump\t// in\n    tag_322:\n        /* \"#utility.yul\":16647:16735   */\n      tag_323\n        /* \"#utility.yul\":16728:16734   */\n      dup2\n        /* \"#utility.yul\":16723:16726   */\n      dup6\n        /* \"#utility.yul\":16647:16735   */\n      tag_159\n      jump\t// in\n    tag_323:\n        /* \"#utility.yul\":16640:16735   */\n      swap4\n      pop\n        /* \"#utility.yul\":16744:16809   */\n      tag_324\n        /* \"#utility.yul\":16802:16808   */\n      dup2\n        /* \"#utility.yul\":16797:16800   */\n      dup6\n        /* \"#utility.yul\":16790:16794   */\n      0x20\n        /* \"#utility.yul\":16783:16788   */\n      dup7\n        /* \"#utility.yul\":16779:16795   */\n      add\n        /* \"#utility.yul\":16744:16809   */\n      tag_143\n      jump\t// in\n    tag_324:\n        /* \"#utility.yul\":16834:16840   */\n      dup1\n        /* \"#utility.yul\":16829:16832   */\n      dup5\n        /* \"#utility.yul\":16825:16841   */\n      add\n        /* \"#utility.yul\":16818:16841   */\n      swap2\n      pop\n        /* \"#utility.yul\":16569:16847   */\n      pop\n        /* \"#utility.yul\":16461:16847   */\n      swap3\n      swap2\n      pop\n      pop\n      jump\t// out\n        /* \"#utility.yul\":16853:17124   */\n    tag_105:\n        /* \"#utility.yul\":16983:16986   */\n      0x00\n        /* \"#utility.yul\":17005:17098   */\n      tag_326\n        /* \"#utility.yul\":17094:17097   */\n      dup3\n        /* \"#utility.yul\":17085:17091   */\n      dup5\n        /* \"#utility.yul\":17005:17098   */\n      tag_160\n      jump\t// in\n    tag_326:\n        /* \"#utility.yul\":16998:17098   */\n      swap2\n      pop\n        /* \"#utility.yul\":17115:17118   */\n      dup2\n        /* \"#utility.yul\":17108:17118   */\n      swap1\n      pop\n        /* \"#utility.yul\":16853:17124   */\n      swap3\n      swap2\n      pop\n      pop\n      jump\t// out\n        /* \"#utility.yul\":17130:17350   */\n    tag_161:\n        /* \"#utility.yul\":17270:17304   */\n      0x41626f7274696e672c2063616c6c20776173206e6f7420737563636573736675\n        /* \"#utility.yul\":17266:17267   */\n      0x00\n        /* \"#utility.yul\":17258:17264   */\n      dup3\n        /* \"#utility.yul\":17254:17268   */\n      add\n        /* \"#utility.yul\":17247:17305   */\n      mstore\n        /* \"#utility.yul\":17339:17342   */\n      0x6c00000000000000000000000000000000000000000000000000000000000000\n        /* \"#utility.yul\":17334:17336   */\n      0x20\n        /* \"#utility.yul\":17326:17332   */\n      dup3\n        /* \"#utility.yul\":17322:17337   */\n      add\n        /* \"#utility.yul\":17315:17343   */\n      mstore\n        /* \"#utility.yul\":17130:17350   */\n      pop\n      jump\t// out\n        /* \"#utility.yul\":17356:17722   */\n    tag_162:\n        /* \"#utility.yul\":17498:17501   */\n      0x00\n        /* \"#utility.yul\":17519:17586   */\n      tag_329\n        /* \"#utility.yul\":17583:17585   */\n      0x21\n        /* \"#utility.yul\":17578:17581   */\n      dup4\n        /* \"#utility.yul\":17519:17586   */\n      tag_145\n      jump\t// in\n    tag_329:\n        /* \"#utility.yul\":17512:17586   */\n      swap2\n      pop\n        /* \"#utility.yul\":17595:17688   */\n      tag_330\n        /* \"#utility.yul\":17684:17687   */\n      dup3\n        /* \"#utility.yul\":17595:17688   */\n      tag_161\n      jump\t// in\n    tag_330:\n        /* \"#utility.yul\":17713:17715   */\n      0x40\n        /* \"#utility.yul\":17708:17711   */\n      dup3\n        /* \"#utility.yul\":17704:17716   */\n      add\n        /* \"#utility.yul\":17697:17716   */\n      swap1\n      pop\n        /* \"#utility.yul\":17356:17722   */\n      swap2\n      swap1\n      pop\n      jump\t// out\n        /* \"#utility.yul\":17728:18147   */\n    tag_111:\n        /* \"#utility.yul\":17894:17898   */\n      0x00\n        /* \"#utility.yul\":17932:17934   */\n      0x20\n        /* \"#utility.yul\":17921:17930   */\n      dup3\n        /* \"#utility.yul\":17917:17935   */\n      add\n        /* \"#utility.yul\":17909:17935   */\n      swap1\n      pop\n        /* \"#utility.yul\":17981:17990   */\n      dup2\n        /* \"#utility.yul\":17975:17979   */\n      dup2\n        /* \"#utility.yul\":17971:17991   */\n      sub\n        /* \"#utility.yul\":17967:17968   */\n      0x00\n        /* \"#utility.yul\":17956:17965   */\n      dup4\n        /* \"#utility.yul\":17952:17969   */\n      add\n        /* \"#utility.yul\":17945:17992   */\n      mstore\n        /* \"#utility.yul\":18009:18140   */\n      tag_332\n        /* \"#utility.yul\":18135:18139   */\n      dup2\n        /* \"#utility.yul\":18009:18140   */\n      tag_162\n      jump\t// in\n    tag_332:\n        /* \"#utility.yul\":18001:18140   */\n      swap1\n      pop\n        /* \"#utility.yul\":17728:18147   */\n      swap2\n      swap1\n      pop\n      jump\t// out\n\n    auxdata: 0xa264697066735822122081bdc620b1e4c5a4f5579c1e4a4daf9b51d676515d160f9317245ee9cec8601564736f6c634300081a0033\n}\n",
				"bytecode": {
					"linkReferences": {},
					"object": "6080604052348015600e575f80fd5b50335f806101000a81548173ffffffffffffffffffffffffffffffffffffffff021916908373ffffffffffffffffffffffffffffffffffffffff1602179055506115068061005b5f395ff3fe608060405260043610610094575f3560e01c806348d406871161005857806348d40687146101a357806383012be1146101df5780638da5cb5b14610209578063b1f8100d14610233578063be45fd621461025b5761009b565b80630633b14a1461009f5780630bc605ad146100db5780632b8a1c5a14610117578063310ec4a71461013f5780633e5beab9146101675761009b565b3661009b57005b5f80fd5b3480156100aa575f80fd5b506100c560048036038101906100c09190610bba565b610297565b6040516100d29190610bff565b60405180910390f35b3480156100e6575f80fd5b5061010160048036038101906100fc9190610bba565b6102b4565b60405161010e9190610bff565b60405180910390f35b348015610122575f80fd5b5061013d60048036038101906101389190610c42565b6102d1565b005b34801561014a575f80fd5b5061016560048036038101906101609190610cb3565b6103b6565b005b348015610172575f80fd5b5061018d60048036038101906101889190610bba565b610540565b60405161019a9190610d00565b60405180910390f35b3480156101ae575f80fd5b506101c960048036038101906101c49190610d19565b610555565b6040516101d69190610bff565b60405180910390f35b3480156101ea575f80fd5b506101f361057f565b6040516102009190610d00565b60405180910390f35b348015610214575f80fd5b5061021d610584565b60405161022a9190610d77565b60405180910390f35b34801561023e575f80fd5b5061025960048036038101906102549190610dba565b6105a7565b005b348015610266575f80fd5b50610281600480360381019061027c9190610f21565b610859565b60405161028e9190610fed565b60405180910390f35b6003602052805f5260405f205f915054906101000a900460ff1681565b6002602052805f5260405f205f915054906101000a900460ff1681565b5f8054906101000a900473ffffffffffffffffffffffffffffffffffffffff1673ffffffffffffffffffffffffffffffffffffffff163373ffffffffffffffffffffffffffffffffffffffff161461035e576040517f08c379a000000000000000000000000000000000000000000000000000000000815260040161035590611067565b60405180910390fd5b8060035f8473ffffffffffffffffffffffffffffffffffffffff1673ffffffffffffffffffffffffffffffffffffffff1681526020019081526020015f205f6101000a81548160ff0219169083151502179055505050565b5f8054906101000a900473ffffffffffffffffffffffffffffffffffffffff1673ffffffffffffffffffffffffffffffffffffffff163373ffffffffffffffffffffffffffffffffffffffff1614610443576040517f08c379a000000000000000000000000000000000000000000000000000000000815260040161043a90611067565b60405180910390fd5b8060015f8473ffffffffffffffffffffffffffffffffffffffff1673ffffffffffffffffffffffffffffffffffffffff1681526020019081526020015f20819055505f8111156104e757600160025f8473ffffffffffffffffffffffffffffffffffffffff1673ffffffffffffffffffffffffffffffffffffffff1681526020019081526020015f205f6101000a81548160ff02191690831515021790555061053c565b5f60025f8473ffffffffffffffffffffffffffffffffffffffff1673ffffffffffffffffffffffffffffffffffffffff1681526020019081526020015f205f6101000a81548160ff0219169083151502179055505b5050565b6001602052805f5260405f205f915090505481565b6005602052815f5260405f20602052805f5260405f205f915091509054906101000a900460ff1681565b600381565b5f8054906101000a900473ffffffffffffffffffffffffffffffffffffffff1681565b60035f3373ffffffffffffffffffffffffffffffffffffffff1673ffffffffffffffffffffffffffffffffffffffff1681526020019081526020015f205f9054906101000a900460ff16610630576040517f08c379a0000000000000000000000000000000000000000000000000000000008152600401610627906110f5565b60405180910390fd5b5f151560055f8373ffffffffffffffffffffffffffffffffffffffff1673ffffffffffffffffffffffffffffffffffffffff1681526020019081526020015f205f3373ffffffffffffffffffffffffffffffffffffffff1673ffffffffffffffffffffffffffffffffffffffff1681526020019081526020015f205f9054906101000a900460ff161515146106fa576040517f08c379a00000000000000000000000000000000000000000000000000000000081526004016106f19061115d565b60405180910390fd5b5f8054906101000a900473ffffffffffffffffffffffffffffffffffffffff1673ffffffffffffffffffffffffffffffffffffffff168173ffffffffffffffffffffffffffffffffffffffff1614610794578060045f6101000a81548173ffffffffffffffffffffffffffffffffffffffff021916908373ffffffffffffffffffffffffffffffffffffffff1602179055505f6006819055505b60065f8154809291906107a6906111a8565b91905055506003600654106108565760045f9054906101000a900473ffffffffffffffffffffffffffffffffffffffff165f806101000a81548173ffffffffffffffffffffffffffffffffffffffff021916908373ffffffffffffffffffffffffffffffffffffffff1602179055505f60045f6101000a81548173ffffffffffffffffffffffffffffffffffffffff021916908373ffffffffffffffffffffffffffffffffffffffff1602179055505b50565b60605f8054906101000a900473ffffffffffffffffffffffffffffffffffffffff1673ffffffffffffffffffffffffffffffffffffffff163373ffffffffffffffffffffffffffffffffffffffff16146108e8576040517f08c379a00000000000000000000000000000000000000000000000000000000081526004016108df9061125f565b60405180910390fd5b5f8054906101000a900473ffffffffffffffffffffffffffffffffffffffff1673ffffffffffffffffffffffffffffffffffffffff163373ffffffffffffffffffffffffffffffffffffffff1614610a97578260015f3373ffffffffffffffffffffffffffffffffffffffff1673ffffffffffffffffffffffffffffffffffffffff1681526020019081526020015f205410156109ba576040517f08c379a00000000000000000000000000000000000000000000000000000000081526004016109b1906112ed565b60405180910390fd5b60025f3373ffffffffffffffffffffffffffffffffffffffff1673ffffffffffffffffffffffffffffffffffffffff1681526020019081526020015f205f9054906101000a900460ff16610a43576040517f08c379a0000000000000000000000000000000000000000000000000000000008152600401610a3a906113a1565b60405180910390fd5b8260015f3373ffffffffffffffffffffffffffffffffffffffff1673ffffffffffffffffffffffffffffffffffffffff1681526020019081526020015f205f828254610a8f91906113bf565b925050819055505b5f808573ffffffffffffffffffffffffffffffffffffffff168585604051610abf919061142c565b5f6040518083038185875af1925050503d805f8114610af9576040519150601f19603f3d011682016040523d82523d5f602084013e610afe565b606091505b509150915081610b43576040517f08c379a0000000000000000000000000000000000000000000000000000000008152600401610b3a906114b2565b60405180910390fd5b80925050509392505050565b5f604051905090565b5f80fd5b5f80fd5b5f73ffffffffffffffffffffffffffffffffffffffff82169050919050565b5f610b8982610b60565b9050919050565b610b9981610b7f565b8114610ba3575f80fd5b50565b5f81359050610bb481610b90565b92915050565b5f60208284031215610bcf57610bce610b58565b5b5f610bdc84828501610ba6565b91505092915050565b5f8115159050919050565b610bf981610be5565b82525050565b5f602082019050610c125f830184610bf0565b92915050565b610c2181610be5565b8114610c2b575f80fd5b50565b5f81359050610c3c81610c18565b92915050565b5f8060408385031215610c5857610c57610b58565b5b5f610c6585828601610ba6565b9250506020610c7685828601610c2e565b9150509250929050565b5f819050919050565b610c9281610c80565b8114610c9c575f80fd5b50565b5f81359050610cad81610c89565b92915050565b5f8060408385031215610cc957610cc8610b58565b5b5f610cd685828601610ba6565b9250506020610ce785828601610c9f565b9150509250929050565b610cfa81610c80565b82525050565b5f602082019050610d135f830184610cf1565b92915050565b5f8060408385031215610d2f57610d2e610b58565b5b5f610d3c85828601610ba6565b9250506020610d4d85828601610ba6565b9150509250929050565b5f610d6182610b60565b9050919050565b610d7181610d57565b82525050565b5f602082019050610d8a5f830184610d68565b92915050565b610d9981610d57565b8114610da3575f80fd5b50565b5f81359050610db481610d90565b92915050565b5f60208284031215610dcf57610dce610b58565b5b5f610ddc84828501610da6565b91505092915050565b5f80fd5b5f80fd5b5f601f19601f8301169050919050565b7f4e487b71000000000000000000000000000000000000000000000000000000005f52604160045260245ffd5b610e3382610ded565b810181811067ffffffffffffffff82111715610e5257610e51610dfd565b5b80604052505050565b5f610e64610b4f565b9050610e708282610e2a565b919050565b5f67ffffffffffffffff821115610e8f57610e8e610dfd565b5b610e9882610ded565b9050602081019050919050565b828183375f83830152505050565b5f610ec5610ec084610e75565b610e5b565b905082815260208101848484011115610ee157610ee0610de9565b5b610eec848285610ea5565b509392505050565b5f82601f830112610f0857610f07610de5565b5b8135610f18848260208601610eb3565b91505092915050565b5f805f60608486031215610f3857610f37610b58565b5b5f610f4586828701610da6565b9350506020610f5686828701610c9f565b925050604084013567ffffffffffffffff811115610f7757610f76610b5c565b5b610f8386828701610ef4565b9150509250925092565b5f81519050919050565b5f82825260208201905092915050565b8281835e5f83830152505050565b5f610fbf82610f8d565b610fc98185610f97565b9350610fd9818560208601610fa7565b610fe281610ded565b840191505092915050565b5f6020820190508181035f8301526110058184610fb5565b905092915050565b5f82825260208201905092915050565b7f596f7520617265206e6f7420746865206f776e65722c2061626f7274696e67005f82015250565b5f611051601f8361100d565b915061105c8261101d565b602082019050919050565b5f6020820190508181035f83015261107e81611045565b9050919050565b7f596f7520617265206e6f7420677561726469616e206f6620746869732077616c5f8201527f6c65742c2061626f7274696e6721210000000000000000000000000000000000602082015250565b5f6110df602f8361100d565b91506110ea82611085565b604082019050919050565b5f6020820190508181035f83015261110c816110d3565b9050919050565b7f596f7520616c726561647920766f7465642c2061626f7274696e6700000000005f82015250565b5f611147601b8361100d565b915061115282611113565b602082019050919050565b5f6020820190508181035f8301526111748161113b565b9050919050565b7f4e487b71000000000000000000000000000000000000000000000000000000005f52601160045260245ffd5b5f6111b282610c80565b91507fffffffffffffffffffffffffffffffffffffffffffffffffffffffffffffffff82036111e4576111e361117b565b5b600182019050919050565b7f596f7520617265206e6f7420746865206f776e65722c2061626f7274696e67215f8201527f2100000000000000000000000000000000000000000000000000000000000000602082015250565b5f61124960218361100d565b9150611254826111ef565b604082019050919050565b5f6020820190508181035f8301526112768161123d565b9050919050565b7f596f752061726520747279696e6720746f2073656e64206d6f7265207468616e5f8201527f20796f752061726520616c6c6f77656420746f2c2061626f7274696e67212100602082015250565b5f6112d7603f8361100d565b91506112e28261127d565b604082019050919050565b5f6020820190508181035f830152611304816112cb565b9050919050565b7f596f7520617265206e6f7420616c6c6f77656420746f2073656e6420616e79745f8201527f68696e672066726f6d207468697320736d61727420636f6e74726163742c206160208201527f626f7274696e6721210000000000000000000000000000000000000000000000604082015250565b5f61138b60498361100d565b91506113968261130b565b606082019050919050565b5f6020820190508181035f8301526113b88161137f565b9050919050565b5f6113c982610c80565b91506113d483610c80565b92508282039050818111156113ec576113eb61117b565b5b92915050565b5f81905092915050565b5f61140682610f8d565b61141081856113f2565b9350611420818560208601610fa7565b80840191505092915050565b5f61143782846113fc565b915081905092915050565b7f41626f7274696e672c2063616c6c20776173206e6f74207375636365737366755f8201527f6c00000000000000000000000000000000000000000000000000000000000000602082015250565b5f61149c60218361100d565b91506114a782611442565b604082019050919050565b5f6020820190508181035f8301526114c981611490565b905091905056fea264697066735822122081bdc620b1e4c5a4f5579c1e4a4daf9b51d676515d160f9317245ee9cec8601564736f6c634300081a0033",
					"opcodes": "PUSH1 0x80 PUSH1 0x40 MSTORE CALLVALUE DUP1 ISZERO PUSH1 0xE JUMPI PUSH0 DUP1 REVERT JUMPDEST POP CALLER PUSH0 DUP1 PUSH2 0x100 EXP DUP2 SLOAD DUP2 PUSH20 0xFFFFFFFFFFFFFFFFFFFFFFFFFFFFFFFFFFFFFFFF MUL NOT AND SWAP1 DUP4 PUSH20 0xFFFFFFFFFFFFFFFFFFFFFFFFFFFFFFFFFFFFFFFF AND MUL OR SWAP1 SSTORE POP PUSH2 0x1506 DUP1 PUSH2 0x5B PUSH0 CODECOPY PUSH0 RETURN INVALID PUSH1 0x80 PUSH1 0x40 MSTORE PUSH1 0x4 CALLDATASIZE LT PUSH2 0x94 JUMPI PUSH0 CALLDATALOAD PUSH1 0xE0 SHR DUP1 PUSH4 0x48D40687 GT PUSH2 0x58 JUMPI DUP1 PUSH4 0x48D40687 EQ PUSH2 0x1A3 JUMPI DUP1 PUSH4 0x83012BE1 EQ PUSH2 0x1DF JUMPI DUP1 PUSH4 0x8DA5CB5B EQ PUSH2 0x209 JUMPI DUP1 PUSH4 0xB1F8100D EQ PUSH2 0x233 JUMPI DUP1 PUSH4 0xBE45FD62 EQ PUSH2 0x25B JUMPI PUSH2 0x9B JUMP JUMPDEST DUP1 PUSH4 0x633B14A EQ PUSH2 0x9F JUMPI DUP1 PUSH4 0xBC605AD EQ PUSH2 0xDB JUMPI DUP1 PUSH4 0x2B8A1C5A EQ PUSH2 0x117 JUMPI DUP1 PUSH4 0x310EC4A7 EQ PUSH2 0x13F JUMPI DUP1 PUSH4 0x3E5BEAB9 EQ PUSH2 0x167 JUMPI PUSH2 0x9B JUMP JUMPDEST CALLDATASIZE PUSH2 0x9B JUMPI STOP JUMPDEST PUSH0 DUP1 REVERT JUMPDEST CALLVALUE DUP1 ISZERO PUSH2 0xAA JUMPI PUSH0 DUP1 REVERT JUMPDEST POP PUSH2 0xC5 PUSH1 0x4 DUP1 CALLDATASIZE SUB DUP2 ADD SWAP1 PUSH2 0xC0 SWAP2 SWAP1 PUSH2 0xBBA JUMP JUMPDEST PUSH2 0x297 JUMP JUMPDEST PUSH1 0x40 MLOAD PUSH2 0xD2 SWAP2 SWAP1 PUSH2 0xBFF JUMP JUMPDEST PUSH1 0x40 MLOAD DUP1 SWAP2 SUB SWAP1 RETURN JUMPDEST CALLVALUE DUP1 ISZERO PUSH2 0xE6 JUMPI PUSH0 DUP1 REVERT JUMPDEST POP PUSH2 0x101 PUSH1 0x4 DUP1 CALLDATASIZE SUB DUP2 ADD SWAP1 PUSH2 0xFC SWAP2 SWAP1 PUSH2 0xBBA JUMP JUMPDEST PUSH2 0x2B4 JUMP JUMPDEST PUSH1 0x40 MLOAD PUSH2 0x10E SWAP2 SWAP1 PUSH2 0xBFF JUMP JUMPDEST PUSH1 0x40 MLOAD DUP1 SWAP2 SUB SWAP1 RETURN JUMPDEST CALLVALUE DUP1 ISZERO PUSH2 0x122 JUMPI PUSH0 DUP1 REVERT JUMPDEST POP PUSH2 0x13D PUSH1 0x4 DUP1 CALLDATASIZE SUB DUP2 ADD SWAP1 PUSH2 0x138 SWAP2 SWAP1 PUSH2 0xC42 JUMP JUMPDEST PUSH2 0x2D1 JUMP JUMPDEST STOP JUMPDEST CALLVALUE DUP1 ISZERO PUSH2 0x14A JUMPI PUSH0 DUP1 REVERT JUMPDEST POP PUSH2 0x165 PUSH1 0x4 DUP1 CALLDATASIZE SUB DUP2 ADD SWAP1 PUSH2 0x160 SWAP2 SWAP1 PUSH2 0xCB3 JUMP JUMPDEST PUSH2 0x3B6 JUMP JUMPDEST STOP JUMPDEST CALLVALUE DUP1 ISZERO PUSH2 0x172 JUMPI PUSH0 DUP1 REVERT JUMPDEST POP PUSH2 0x18D PUSH1 0x4 DUP1 CALLDATASIZE SUB DUP2 ADD SWAP1 PUSH2 0x188 SWAP2 SWAP1 PUSH2 0xBBA JUMP JUMPDEST PUSH2 0x540 JUMP JUMPDEST PUSH1 0x40 MLOAD PUSH2 0x19A SWAP2 SWAP1 PUSH2 0xD00 JUMP JUMPDEST PUSH1 0x40 MLOAD DUP1 SWAP2 SUB SWAP1 RETURN JUMPDEST CALLVALUE DUP1 ISZERO PUSH2 0x1AE JUMPI PUSH0 DUP1 REVERT JUMPDEST POP PUSH2 0x1C9 PUSH1 0x4 DUP1 CALLDATASIZE SUB DUP2 ADD SWAP1 PUSH2 0x1C4 SWAP2 SWAP1 PUSH2 0xD19 JUMP JUMPDEST PUSH2 0x555 JUMP JUMPDEST PUSH1 0x40 MLOAD PUSH2 0x1D6 SWAP2 SWAP1 PUSH2 0xBFF JUMP JUMPDEST PUSH1 0x40 MLOAD DUP1 SWAP2 SUB SWAP1 RETURN JUMPDEST CALLVALUE DUP1 ISZERO PUSH2 0x1EA JUMPI PUSH0 DUP1 REVERT JUMPDEST POP PUSH2 0x1F3 PUSH2 0x57F JUMP JUMPDEST PUSH1 0x40 MLOAD PUSH2 0x200 SWAP2 SWAP1 PUSH2 0xD00 JUMP JUMPDEST PUSH1 0x40 MLOAD DUP1 SWAP2 SUB SWAP1 RETURN JUMPDEST CALLVALUE DUP1 ISZERO PUSH2 0x214 JUMPI PUSH0 DUP1 REVERT JUMPDEST POP PUSH2 0x21D PUSH2 0x584 JUMP JUMPDEST PUSH1 0x40 MLOAD PUSH2 0x22A SWAP2 SWAP1 PUSH2 0xD77 JUMP JUMPDEST PUSH1 0x40 MLOAD DUP1 SWAP2 SUB SWAP1 RETURN JUMPDEST CALLVALUE DUP1 ISZERO PUSH2 0x23E JUMPI PUSH0 DUP1 REVERT JUMPDEST POP PUSH2 0x259 PUSH1 0x4 DUP1 CALLDATASIZE SUB DUP2 ADD SWAP1 PUSH2 0x254 SWAP2 SWAP1 PUSH2 0xDBA JUMP JUMPDEST PUSH2 0x5A7 JUMP JUMPDEST STOP JUMPDEST CALLVALUE DUP1 ISZERO PUSH2 0x266 JUMPI PUSH0 DUP1 REVERT JUMPDEST POP PUSH2 0x281 PUSH1 0x4 DUP1 CALLDATASIZE SUB DUP2 ADD SWAP1 PUSH2 0x27C SWAP2 SWAP1 PUSH2 0xF21 JUMP JUMPDEST PUSH2 0x859 JUMP JUMPDEST PUSH1 0x40 MLOAD PUSH2 0x28E SWAP2 SWAP1 PUSH2 0xFED JUMP JUMPDEST PUSH1 0x40 MLOAD DUP1 SWAP2 SUB SWAP1 RETURN JUMPDEST PUSH1 0x3 PUSH1 0x20 MSTORE DUP1 PUSH0 MSTORE PUSH1 0x40 PUSH0 KECCAK256 PUSH0 SWAP2 POP SLOAD SWAP1 PUSH2 0x100 EXP SWAP1 DIV PUSH1 0xFF AND DUP2 JUMP JUMPDEST PUSH1 0x2 PUSH1 0x20 MSTORE DUP1 PUSH0 MSTORE PUSH1 0x40 PUSH0 KECCAK256 PUSH0 SWAP2 POP SLOAD SWAP1 PUSH2 0x100 EXP SWAP1 DIV PUSH1 0xFF AND DUP2 JUMP JUMPDEST PUSH0 DUP1 SLOAD SWAP1 PUSH2 0x100 EXP SWAP1 DIV PUSH20 0xFFFFFFFFFFFFFFFFFFFFFFFFFFFFFFFFFFFFFFFF AND PUSH20 0xFFFFFFFFFFFFFFFFFFFFFFFFFFFFFFFFFFFFFFFF AND CALLER PUSH20 0xFFFFFFFFFFFFFFFFFFFFFFFFFFFFFFFFFFFFFFFF AND EQ PUSH2 0x35E JUMPI PUSH1 0x40 MLOAD PUSH32 0x8C379A000000000000000000000000000000000000000000000000000000000 DUP2 MSTORE PUSH1 0x4 ADD PUSH2 0x355 SWAP1 PUSH2 0x1067 JUMP JUMPDEST PUSH1 0x40 MLOAD DUP1 SWAP2 SUB SWAP1 REVERT JUMPDEST DUP1 PUSH1 0x3 PUSH0 DUP5 PUSH20 0xFFFFFFFFFFFFFFFFFFFFFFFFFFFFFFFFFFFFFFFF AND PUSH20 0xFFFFFFFFFFFFFFFFFFFFFFFFFFFFFFFFFFFFFFFF AND DUP2 MSTORE PUSH1 0x20 ADD SWAP1 DUP2 MSTORE PUSH1 0x20 ADD PUSH0 KECCAK256 PUSH0 PUSH2 0x100 EXP DUP2 SLOAD DUP2 PUSH1 0xFF MUL NOT AND SWAP1 DUP4 ISZERO ISZERO MUL OR SWAP1 SSTORE POP POP POP JUMP JUMPDEST PUSH0 DUP1 SLOAD SWAP1 PUSH2 0x100 EXP SWAP1 DIV PUSH20 0xFFFFFFFFFFFFFFFFFFFFFFFFFFFFFFFFFFFFFFFF AND PUSH20 0xFFFFFFFFFFFFFFFFFFFFFFFFFFFFFFFFFFFFFFFF AND CALLER PUSH20 0xFFFFFFFFFFFFFFFFFFFFFFFFFFFFFFFFFFFFFFFF AND EQ PUSH2 0x443 JUMPI PUSH1 0x40 MLOAD PUSH32 0x8C379A000000000000000000000000000000000000000000000000000000000 DUP2 MSTORE PUSH1 0x4 ADD PUSH2 0x43A SWAP1 PUSH2 0x1067 JUMP JUMPDEST PUSH1 0x40 MLOAD DUP1 SWAP2 SUB SWAP1 REVERT JUMPDEST DUP1 PUSH1 0x1 PUSH0 DUP5 PUSH20 0xFFFFFFFFFFFFFFFFFFFFFFFFFFFFFFFFFFFFFFFF AND PUSH20 0xFFFFFFFFFFFFFFFFFFFFFFFFFFFFFFFFFFFFFFFF AND DUP2 MSTORE PUSH1 0x20 ADD SWAP1 DUP2 MSTORE PUSH1 0x20 ADD PUSH0 KECCAK256 DUP2 SWAP1 SSTORE POP PUSH0 DUP2 GT ISZERO PUSH2 0x4E7 JUMPI PUSH1 0x1 PUSH1 0x2 PUSH0 DUP5 PUSH20 0xFFFFFFFFFFFFFFFFFFFFFFFFFFFFFFFFFFFFFFFF AND PUSH20 0xFFFFFFFFFFFFFFFFFFFFFFFFFFFFFFFFFFFFFFFF AND DUP2 MSTORE PUSH1 0x20 ADD SWAP1 DUP2 MSTORE PUSH1 0x20 ADD PUSH0 KECCAK256 PUSH0 PUSH2 0x100 EXP DUP2 SLOAD DUP2 PUSH1 0xFF MUL NOT AND SWAP1 DUP4 ISZERO ISZERO MUL OR SWAP1 SSTORE POP PUSH2 0x53C JUMP JUMPDEST PUSH0 PUSH1 0x2 PUSH0 DUP5 PUSH20 0xFFFFFFFFFFFFFFFFFFFFFFFFFFFFFFFFFFFFFFFF AND PUSH20 0xFFFFFFFFFFFFFFFFFFFFFFFFFFFFFFFFFFFFFFFF AND DUP2 MSTORE PUSH1 0x20 ADD SWAP1 DUP2 MSTORE PUSH1 0x20 ADD PUSH0 KECCAK256 PUSH0 PUSH2 0x100 EXP DUP2 SLOAD DUP2 PUSH1 0xFF MUL NOT AND SWAP1 DUP4 ISZERO ISZERO MUL OR SWAP1 SSTORE POP JUMPDEST POP POP JUMP JUMPDEST PUSH1 0x1 PUSH1 0x20 MSTORE DUP1 PUSH0 MSTORE PUSH1 0x40 PUSH0 KECCAK256 PUSH0 SWAP2 POP SWAP1 POP SLOAD DUP2 JUMP JUMPDEST PUSH1 0x5 PUSH1 0x20 MSTORE DUP2 PUSH0 MSTORE PUSH1 0x40 PUSH0 KECCAK256 PUSH1 0x20 MSTORE DUP1 PUSH0 MSTORE PUSH1 0x40 PUSH0 KECCAK256 PUSH0 SWAP2 POP SWAP2 POP SWAP1 SLOAD SWAP1 PUSH2 0x100 EXP SWAP1 DIV PUSH1 0xFF AND DUP2 JUMP JUMPDEST PUSH1 0x3 DUP2 JUMP JUMPDEST PUSH0 DUP1 SLOAD SWAP1 PUSH2 0x100 EXP SWAP1 DIV PUSH20 0xFFFFFFFFFFFFFFFFFFFFFFFFFFFFFFFFFFFFFFFF AND DUP2 JUMP JUMPDEST PUSH1 0x3 PUSH0 CALLER PUSH20 0xFFFFFFFFFFFFFFFFFFFFFFFFFFFFFFFFFFFFFFFF AND PUSH20 0xFFFFFFFFFFFFFFFFFFFFFFFFFFFFFFFFFFFFFFFF AND DUP2 MSTORE PUSH1 0x20 ADD SWAP1 DUP2 MSTORE PUSH1 0x20 ADD PUSH0 KECCAK256 PUSH0 SWAP1 SLOAD SWAP1 PUSH2 0x100 EXP SWAP1 DIV PUSH1 0xFF AND PUSH2 0x630 JUMPI PUSH1 0x40 MLOAD PUSH32 0x8C379A000000000000000000000000000000000000000000000000000000000 DUP2 MSTORE PUSH1 0x4 ADD PUSH2 0x627 SWAP1 PUSH2 0x10F5 JUMP JUMPDEST PUSH1 0x40 MLOAD DUP1 SWAP2 SUB SWAP1 REVERT JUMPDEST PUSH0 ISZERO ISZERO PUSH1 0x5 PUSH0 DUP4 PUSH20 0xFFFFFFFFFFFFFFFFFFFFFFFFFFFFFFFFFFFFFFFF AND PUSH20 0xFFFFFFFFFFFFFFFFFFFFFFFFFFFFFFFFFFFFFFFF AND DUP2 MSTORE PUSH1 0x20 ADD SWAP1 DUP2 MSTORE PUSH1 0x20 ADD PUSH0 KECCAK256 PUSH0 CALLER PUSH20 0xFFFFFFFFFFFFFFFFFFFFFFFFFFFFFFFFFFFFFFFF AND PUSH20 0xFFFFFFFFFFFFFFFFFFFFFFFFFFFFFFFFFFFFFFFF AND DUP2 MSTORE PUSH1 0x20 ADD SWAP1 DUP2 MSTORE PUSH1 0x20 ADD PUSH0 KECCAK256 PUSH0 SWAP1 SLOAD SWAP1 PUSH2 0x100 EXP SWAP1 DIV PUSH1 0xFF AND ISZERO ISZERO EQ PUSH2 0x6FA JUMPI PUSH1 0x40 MLOAD PUSH32 0x8C379A000000000000000000000000000000000000000000000000000000000 DUP2 MSTORE PUSH1 0x4 ADD PUSH2 0x6F1 SWAP1 PUSH2 0x115D JUMP JUMPDEST PUSH1 0x40 MLOAD DUP1 SWAP2 SUB SWAP1 REVERT JUMPDEST PUSH0 DUP1 SLOAD SWAP1 PUSH2 0x100 EXP SWAP1 DIV PUSH20 0xFFFFFFFFFFFFFFFFFFFFFFFFFFFFFFFFFFFFFFFF AND PUSH20 0xFFFFFFFFFFFFFFFFFFFFFFFFFFFFFFFFFFFFFFFF AND DUP2 PUSH20 0xFFFFFFFFFFFFFFFFFFFFFFFFFFFFFFFFFFFFFFFF AND EQ PUSH2 0x794 JUMPI DUP1 PUSH1 0x4 PUSH0 PUSH2 0x100 EXP DUP2 SLOAD DUP2 PUSH20 0xFFFFFFFFFFFFFFFFFFFFFFFFFFFFFFFFFFFFFFFF MUL NOT AND SWAP1 DUP4 PUSH20 0xFFFFFFFFFFFFFFFFFFFFFFFFFFFFFFFFFFFFFFFF AND MUL OR SWAP1 SSTORE POP PUSH0 PUSH1 0x6 DUP2 SWAP1 SSTORE POP JUMPDEST PUSH1 0x6 PUSH0 DUP2 SLOAD DUP1 SWAP3 SWAP2 SWAP1 PUSH2 0x7A6 SWAP1 PUSH2 0x11A8 JUMP JUMPDEST SWAP2 SWAP1 POP SSTORE POP PUSH1 0x3 PUSH1 0x6 SLOAD LT PUSH2 0x856 JUMPI PUSH1 0x4 PUSH0 SWAP1 SLOAD SWAP1 PUSH2 0x100 EXP SWAP1 DIV PUSH20 0xFFFFFFFFFFFFFFFFFFFFFFFFFFFFFFFFFFFFFFFF AND PUSH0 DUP1 PUSH2 0x100 EXP DUP2 SLOAD DUP2 PUSH20 0xFFFFFFFFFFFFFFFFFFFFFFFFFFFFFFFFFFFFFFFF MUL NOT AND SWAP1 DUP4 PUSH20 0xFFFFFFFFFFFFFFFFFFFFFFFFFFFFFFFFFFFFFFFF AND MUL OR SWAP1 SSTORE POP PUSH0 PUSH1 0x4 PUSH0 PUSH2 0x100 EXP DUP2 SLOAD DUP2 PUSH20 0xFFFFFFFFFFFFFFFFFFFFFFFFFFFFFFFFFFFFFFFF MUL NOT AND SWAP1 DUP4 PUSH20 0xFFFFFFFFFFFFFFFFFFFFFFFFFFFFFFFFFFFFFFFF AND MUL OR SWAP1 SSTORE POP JUMPDEST POP JUMP JUMPDEST PUSH1 0x60 PUSH0 DUP1 SLOAD SWAP1 PUSH2 0x100 EXP SWAP1 DIV PUSH20 0xFFFFFFFFFFFFFFFFFFFFFFFFFFFFFFFFFFFFFFFF AND PUSH20 0xFFFFFFFFFFFFFFFFFFFFFFFFFFFFFFFFFFFFFFFF AND CALLER PUSH20 0xFFFFFFFFFFFFFFFFFFFFFFFFFFFFFFFFFFFFFFFF AND EQ PUSH2 0x8E8 JUMPI PUSH1 0x40 MLOAD PUSH32 0x8C379A000000000000000000000000000000000000000000000000000000000 DUP2 MSTORE PUSH1 0x4 ADD PUSH2 0x8DF SWAP1 PUSH2 0x125F JUMP JUMPDEST PUSH1 0x40 MLOAD DUP1 SWAP2 SUB SWAP1 REVERT JUMPDEST PUSH0 DUP1 SLOAD SWAP1 PUSH2 0x100 EXP SWAP1 DIV PUSH20 0xFFFFFFFFFFFFFFFFFFFFFFFFFFFFFFFFFFFFFFFF AND PUSH20 0xFFFFFFFFFFFFFFFFFFFFFFFFFFFFFFFFFFFFFFFF AND CALLER PUSH20 0xFFFFFFFFFFFFFFFFFFFFFFFFFFFFFFFFFFFFFFFF AND EQ PUSH2 0xA97 JUMPI DUP3 PUSH1 0x1 PUSH0 CALLER PUSH20 0xFFFFFFFFFFFFFFFFFFFFFFFFFFFFFFFFFFFFFFFF AND PUSH20 0xFFFFFFFFFFFFFFFFFFFFFFFFFFFFFFFFFFFFFFFF AND DUP2 MSTORE PUSH1 0x20 ADD SWAP1 DUP2 MSTORE PUSH1 0x20 ADD PUSH0 KECCAK256 SLOAD LT ISZERO PUSH2 0x9BA JUMPI PUSH1 0x40 MLOAD PUSH32 0x8C379A000000000000000000000000000000000000000000000000000000000 DUP2 MSTORE PUSH1 0x4 ADD PUSH2 0x9B1 SWAP1 PUSH2 0x12ED JUMP JUMPDEST PUSH1 0x40 MLOAD DUP1 SWAP2 SUB SWAP1 REVERT JUMPDEST PUSH1 0x2 PUSH0 CALLER PUSH20 0xFFFFFFFFFFFFFFFFFFFFFFFFFFFFFFFFFFFFFFFF AND PUSH20 0xFFFFFFFFFFFFFFFFFFFFFFFFFFFFFFFFFFFFFFFF AND DUP2 MSTORE PUSH1 0x20 ADD SWAP1 DUP2 MSTORE PUSH1 0x20 ADD PUSH0 KECCAK256 PUSH0 SWAP1 SLOAD SWAP1 PUSH2 0x100 EXP SWAP1 DIV PUSH1 0xFF AND PUSH2 0xA43 JUMPI PUSH1 0x40 MLOAD PUSH32 0x8C379A000000000000000000000000000000000000000000000000000000000 DUP2 MSTORE PUSH1 0x4 ADD PUSH2 0xA3A SWAP1 PUSH2 0x13A1 JUMP JUMPDEST PUSH1 0x40 MLOAD DUP1 SWAP2 SUB SWAP1 REVERT JUMPDEST DUP3 PUSH1 0x1 PUSH0 CALLER PUSH20 0xFFFFFFFFFFFFFFFFFFFFFFFFFFFFFFFFFFFFFFFF AND PUSH20 0xFFFFFFFFFFFFFFFFFFFFFFFFFFFFFFFFFFFFFFFF AND DUP2 MSTORE PUSH1 0x20 ADD SWAP1 DUP2 MSTORE PUSH1 0x20 ADD PUSH0 KECCAK256 PUSH0 DUP3 DUP3 SLOAD PUSH2 0xA8F SWAP2 SWAP1 PUSH2 0x13BF JUMP JUMPDEST SWAP3 POP POP DUP2 SWAP1 SSTORE POP JUMPDEST PUSH0 DUP1 DUP6 PUSH20 0xFFFFFFFFFFFFFFFFFFFFFFFFFFFFFFFFFFFFFFFF AND DUP6 DUP6 PUSH1 0x40 MLOAD PUSH2 0xABF SWAP2 SWAP1 PUSH2 0x142C JUMP JUMPDEST PUSH0 PUSH1 0x40 MLOAD DUP1 DUP4 SUB DUP2 DUP6 DUP8 GAS CALL SWAP3 POP POP POP RETURNDATASIZE DUP1 PUSH0 DUP2 EQ PUSH2 0xAF9 JUMPI PUSH1 0x40 MLOAD SWAP2 POP PUSH1 0x1F NOT PUSH1 0x3F RETURNDATASIZE ADD AND DUP3 ADD PUSH1 0x40 MSTORE RETURNDATASIZE DUP3 MSTORE RETURNDATASIZE PUSH0 PUSH1 0x20 DUP5 ADD RETURNDATACOPY PUSH2 0xAFE JUMP JUMPDEST PUSH1 0x60 SWAP2 POP JUMPDEST POP SWAP2 POP SWAP2 POP DUP2 PUSH2 0xB43 JUMPI PUSH1 0x40 MLOAD PUSH32 0x8C379A000000000000000000000000000000000000000000000000000000000 DUP2 MSTORE PUSH1 0x4 ADD PUSH2 0xB3A SWAP1 PUSH2 0x14B2 JUMP JUMPDEST PUSH1 0x40 MLOAD DUP1 SWAP2 SUB SWAP1 REVERT JUMPDEST DUP1 SWAP3 POP POP POP SWAP4 SWAP3 POP POP POP JUMP JUMPDEST PUSH0 PUSH1 0x40 MLOAD SWAP1 POP SWAP1 JUMP JUMPDEST PUSH0 DUP1 REVERT JUMPDEST PUSH0 DUP1 REVERT JUMPDEST PUSH0 PUSH20 0xFFFFFFFFFFFFFFFFFFFFFFFFFFFFFFFFFFFFFFFF DUP3 AND SWAP1 POP SWAP2 SWAP1 POP JUMP JUMPDEST PUSH0 PUSH2 0xB89 DUP3 PUSH2 0xB60 JUMP JUMPDEST SWAP1 POP SWAP2 SWAP1 POP JUMP JUMPDEST PUSH2 0xB99 DUP2 PUSH2 0xB7F JUMP JUMPDEST DUP2 EQ PUSH2 0xBA3 JUMPI PUSH0 DUP1 REVERT JUMPDEST POP JUMP JUMPDEST PUSH0 DUP2 CALLDATALOAD SWAP1 POP PUSH2 0xBB4 DUP2 PUSH2 0xB90 JUMP JUMPDEST SWAP3 SWAP2 POP POP JUMP JUMPDEST PUSH0 PUSH1 0x20 DUP3 DUP5 SUB SLT ISZERO PUSH2 0xBCF JUMPI PUSH2 0xBCE PUSH2 0xB58 JUMP JUMPDEST JUMPDEST PUSH0 PUSH2 0xBDC DUP5 DUP3 DUP6 ADD PUSH2 0xBA6 JUMP JUMPDEST SWAP2 POP POP SWAP3 SWAP2 POP POP JUMP JUMPDEST PUSH0 DUP2 ISZERO ISZERO SWAP1 POP SWAP2 SWAP1 POP JUMP JUMPDEST PUSH2 0xBF9 DUP2 PUSH2 0xBE5 JUMP JUMPDEST DUP3 MSTORE POP POP JUMP JUMPDEST PUSH0 PUSH1 0x20 DUP3 ADD SWAP1 POP PUSH2 0xC12 PUSH0 DUP4 ADD DUP5 PUSH2 0xBF0 JUMP JUMPDEST SWAP3 SWAP2 POP POP JUMP JUMPDEST PUSH2 0xC21 DUP2 PUSH2 0xBE5 JUMP JUMPDEST DUP2 EQ PUSH2 0xC2B JUMPI PUSH0 DUP1 REVERT JUMPDEST POP JUMP JUMPDEST PUSH0 DUP2 CALLDATALOAD SWAP1 POP PUSH2 0xC3C DUP2 PUSH2 0xC18 JUMP JUMPDEST SWAP3 SWAP2 POP POP JUMP JUMPDEST PUSH0 DUP1 PUSH1 0x40 DUP4 DUP6 SUB SLT ISZERO PUSH2 0xC58 JUMPI PUSH2 0xC57 PUSH2 0xB58 JUMP JUMPDEST JUMPDEST PUSH0 PUSH2 0xC65 DUP6 DUP3 DUP7 ADD PUSH2 0xBA6 JUMP JUMPDEST SWAP3 POP POP PUSH1 0x20 PUSH2 0xC76 DUP6 DUP3 DUP7 ADD PUSH2 0xC2E JUMP JUMPDEST SWAP2 POP POP SWAP3 POP SWAP3 SWAP1 POP JUMP JUMPDEST PUSH0 DUP2 SWAP1 POP SWAP2 SWAP1 POP JUMP JUMPDEST PUSH2 0xC92 DUP2 PUSH2 0xC80 JUMP JUMPDEST DUP2 EQ PUSH2 0xC9C JUMPI PUSH0 DUP1 REVERT JUMPDEST POP JUMP JUMPDEST PUSH0 DUP2 CALLDATALOAD SWAP1 POP PUSH2 0xCAD DUP2 PUSH2 0xC89 JUMP JUMPDEST SWAP3 SWAP2 POP POP JUMP JUMPDEST PUSH0 DUP1 PUSH1 0x40 DUP4 DUP6 SUB SLT ISZERO PUSH2 0xCC9 JUMPI PUSH2 0xCC8 PUSH2 0xB58 JUMP JUMPDEST JUMPDEST PUSH0 PUSH2 0xCD6 DUP6 DUP3 DUP7 ADD PUSH2 0xBA6 JUMP JUMPDEST SWAP3 POP POP PUSH1 0x20 PUSH2 0xCE7 DUP6 DUP3 DUP7 ADD PUSH2 0xC9F JUMP JUMPDEST SWAP2 POP POP SWAP3 POP SWAP3 SWAP1 POP JUMP JUMPDEST PUSH2 0xCFA DUP2 PUSH2 0xC80 JUMP JUMPDEST DUP3 MSTORE POP POP JUMP JUMPDEST PUSH0 PUSH1 0x20 DUP3 ADD SWAP1 POP PUSH2 0xD13 PUSH0 DUP4 ADD DUP5 PUSH2 0xCF1 JUMP JUMPDEST SWAP3 SWAP2 POP POP JUMP JUMPDEST PUSH0 DUP1 PUSH1 0x40 DUP4 DUP6 SUB SLT ISZERO PUSH2 0xD2F JUMPI PUSH2 0xD2E PUSH2 0xB58 JUMP JUMPDEST JUMPDEST PUSH0 PUSH2 0xD3C DUP6 DUP3 DUP7 ADD PUSH2 0xBA6 JUMP JUMPDEST SWAP3 POP POP PUSH1 0x20 PUSH2 0xD4D DUP6 DUP3 DUP7 ADD PUSH2 0xBA6 JUMP JUMPDEST SWAP2 POP POP SWAP3 POP SWAP3 SWAP1 POP JUMP JUMPDEST PUSH0 PUSH2 0xD61 DUP3 PUSH2 0xB60 JUMP JUMPDEST SWAP1 POP SWAP2 SWAP1 POP JUMP JUMPDEST PUSH2 0xD71 DUP2 PUSH2 0xD57 JUMP JUMPDEST DUP3 MSTORE POP POP JUMP JUMPDEST PUSH0 PUSH1 0x20 DUP3 ADD SWAP1 POP PUSH2 0xD8A PUSH0 DUP4 ADD DUP5 PUSH2 0xD68 JUMP JUMPDEST SWAP3 SWAP2 POP POP JUMP JUMPDEST PUSH2 0xD99 DUP2 PUSH2 0xD57 JUMP JUMPDEST DUP2 EQ PUSH2 0xDA3 JUMPI PUSH0 DUP1 REVERT JUMPDEST POP JUMP JUMPDEST PUSH0 DUP2 CALLDATALOAD SWAP1 POP PUSH2 0xDB4 DUP2 PUSH2 0xD90 JUMP JUMPDEST SWAP3 SWAP2 POP POP JUMP JUMPDEST PUSH0 PUSH1 0x20 DUP3 DUP5 SUB SLT ISZERO PUSH2 0xDCF JUMPI PUSH2 0xDCE PUSH2 0xB58 JUMP JUMPDEST JUMPDEST PUSH0 PUSH2 0xDDC DUP5 DUP3 DUP6 ADD PUSH2 0xDA6 JUMP JUMPDEST SWAP2 POP POP SWAP3 SWAP2 POP POP JUMP JUMPDEST PUSH0 DUP1 REVERT JUMPDEST PUSH0 DUP1 REVERT JUMPDEST PUSH0 PUSH1 0x1F NOT PUSH1 0x1F DUP4 ADD AND SWAP1 POP SWAP2 SWAP1 POP JUMP JUMPDEST PUSH32 0x4E487B7100000000000000000000000000000000000000000000000000000000 PUSH0 MSTORE PUSH1 0x41 PUSH1 0x4 MSTORE PUSH1 0x24 PUSH0 REVERT JUMPDEST PUSH2 0xE33 DUP3 PUSH2 0xDED JUMP JUMPDEST DUP2 ADD DUP2 DUP2 LT PUSH8 0xFFFFFFFFFFFFFFFF DUP3 GT OR ISZERO PUSH2 0xE52 JUMPI PUSH2 0xE51 PUSH2 0xDFD JUMP JUMPDEST JUMPDEST DUP1 PUSH1 0x40 MSTORE POP POP POP JUMP JUMPDEST PUSH0 PUSH2 0xE64 PUSH2 0xB4F JUMP JUMPDEST SWAP1 POP PUSH2 0xE70 DUP3 DUP3 PUSH2 0xE2A JUMP JUMPDEST SWAP2 SWAP1 POP JUMP JUMPDEST PUSH0 PUSH8 0xFFFFFFFFFFFFFFFF DUP3 GT ISZERO PUSH2 0xE8F JUMPI PUSH2 0xE8E PUSH2 0xDFD JUMP JUMPDEST JUMPDEST PUSH2 0xE98 DUP3 PUSH2 0xDED JUMP JUMPDEST SWAP1 POP PUSH1 0x20 DUP2 ADD SWAP1 POP SWAP2 SWAP1 POP JUMP JUMPDEST DUP3 DUP2 DUP4 CALLDATACOPY PUSH0 DUP4 DUP4 ADD MSTORE POP POP POP JUMP JUMPDEST PUSH0 PUSH2 0xEC5 PUSH2 0xEC0 DUP5 PUSH2 0xE75 JUMP JUMPDEST PUSH2 0xE5B JUMP JUMPDEST SWAP1 POP DUP3 DUP2 MSTORE PUSH1 0x20 DUP2 ADD DUP5 DUP5 DUP5 ADD GT ISZERO PUSH2 0xEE1 JUMPI PUSH2 0xEE0 PUSH2 0xDE9 JUMP JUMPDEST JUMPDEST PUSH2 0xEEC DUP5 DUP3 DUP6 PUSH2 0xEA5 JUMP JUMPDEST POP SWAP4 SWAP3 POP POP POP JUMP JUMPDEST PUSH0 DUP3 PUSH1 0x1F DUP4 ADD SLT PUSH2 0xF08 JUMPI PUSH2 0xF07 PUSH2 0xDE5 JUMP JUMPDEST JUMPDEST DUP2 CALLDATALOAD PUSH2 0xF18 DUP5 DUP3 PUSH1 0x20 DUP7 ADD PUSH2 0xEB3 JUMP JUMPDEST SWAP2 POP POP SWAP3 SWAP2 POP POP JUMP JUMPDEST PUSH0 DUP1 PUSH0 PUSH1 0x60 DUP5 DUP7 SUB SLT ISZERO PUSH2 0xF38 JUMPI PUSH2 0xF37 PUSH2 0xB58 JUMP JUMPDEST JUMPDEST PUSH0 PUSH2 0xF45 DUP7 DUP3 DUP8 ADD PUSH2 0xDA6 JUMP JUMPDEST SWAP4 POP POP PUSH1 0x20 PUSH2 0xF56 DUP7 DUP3 DUP8 ADD PUSH2 0xC9F JUMP JUMPDEST SWAP3 POP POP PUSH1 0x40 DUP5 ADD CALLDATALOAD PUSH8 0xFFFFFFFFFFFFFFFF DUP2 GT ISZERO PUSH2 0xF77 JUMPI PUSH2 0xF76 PUSH2 0xB5C JUMP JUMPDEST JUMPDEST PUSH2 0xF83 DUP7 DUP3 DUP8 ADD PUSH2 0xEF4 JUMP JUMPDEST SWAP2 POP POP SWAP3 POP SWAP3 POP SWAP3 JUMP JUMPDEST PUSH0 DUP2 MLOAD SWAP1 POP SWAP2 SWAP1 POP JUMP JUMPDEST PUSH0 DUP3 DUP3 MSTORE PUSH1 0x20 DUP3 ADD SWAP1 POP SWAP3 SWAP2 POP POP JUMP JUMPDEST DUP3 DUP2 DUP4 MCOPY PUSH0 DUP4 DUP4 ADD MSTORE POP POP POP JUMP JUMPDEST PUSH0 PUSH2 0xFBF DUP3 PUSH2 0xF8D JUMP JUMPDEST PUSH2 0xFC9 DUP2 DUP6 PUSH2 0xF97 JUMP JUMPDEST SWAP4 POP PUSH2 0xFD9 DUP2 DUP6 PUSH1 0x20 DUP7 ADD PUSH2 0xFA7 JUMP JUMPDEST PUSH2 0xFE2 DUP2 PUSH2 0xDED JUMP JUMPDEST DUP5 ADD SWAP2 POP POP SWAP3 SWAP2 POP POP JUMP JUMPDEST PUSH0 PUSH1 0x20 DUP3 ADD SWAP1 POP DUP2 DUP2 SUB PUSH0 DUP4 ADD MSTORE PUSH2 0x1005 DUP2 DUP5 PUSH2 0xFB5 JUMP JUMPDEST SWAP1 POP SWAP3 SWAP2 POP POP JUMP JUMPDEST PUSH0 DUP3 DUP3 MSTORE PUSH1 0x20 DUP3 ADD SWAP1 POP SWAP3 SWAP2 POP POP JUMP JUMPDEST PUSH32 0x596F7520617265206E6F7420746865206F776E65722C2061626F7274696E6700 PUSH0 DUP3 ADD MSTORE POP JUMP JUMPDEST PUSH0 PUSH2 0x1051 PUSH1 0x1F DUP4 PUSH2 0x100D JUMP JUMPDEST SWAP2 POP PUSH2 0x105C DUP3 PUSH2 0x101D JUMP JUMPDEST PUSH1 0x20 DUP3 ADD SWAP1 POP SWAP2 SWAP1 POP JUMP JUMPDEST PUSH0 PUSH1 0x20 DUP3 ADD SWAP1 POP DUP2 DUP2 SUB PUSH0 DUP4 ADD MSTORE PUSH2 0x107E DUP2 PUSH2 0x1045 JUMP JUMPDEST SWAP1 POP SWAP2 SWAP1 POP JUMP JUMPDEST PUSH32 0x596F7520617265206E6F7420677561726469616E206F6620746869732077616C PUSH0 DUP3 ADD MSTORE PUSH32 0x6C65742C2061626F7274696E6721210000000000000000000000000000000000 PUSH1 0x20 DUP3 ADD MSTORE POP JUMP JUMPDEST PUSH0 PUSH2 0x10DF PUSH1 0x2F DUP4 PUSH2 0x100D JUMP JUMPDEST SWAP2 POP PUSH2 0x10EA DUP3 PUSH2 0x1085 JUMP JUMPDEST PUSH1 0x40 DUP3 ADD SWAP1 POP SWAP2 SWAP1 POP JUMP JUMPDEST PUSH0 PUSH1 0x20 DUP3 ADD SWAP1 POP DUP2 DUP2 SUB PUSH0 DUP4 ADD MSTORE PUSH2 0x110C DUP2 PUSH2 0x10D3 JUMP JUMPDEST SWAP1 POP SWAP2 SWAP1 POP JUMP JUMPDEST PUSH32 0x596F7520616C726561647920766F7465642C2061626F7274696E670000000000 PUSH0 DUP3 ADD MSTORE POP JUMP JUMPDEST PUSH0 PUSH2 0x1147 PUSH1 0x1B DUP4 PUSH2 0x100D JUMP JUMPDEST SWAP2 POP PUSH2 0x1152 DUP3 PUSH2 0x1113 JUMP JUMPDEST PUSH1 0x20 DUP3 ADD SWAP1 POP SWAP2 SWAP1 POP JUMP JUMPDEST PUSH0 PUSH1 0x20 DUP3 ADD SWAP1 POP DUP2 DUP2 SUB PUSH0 DUP4 ADD MSTORE PUSH2 0x1174 DUP2 PUSH2 0x113B JUMP JUMPDEST SWAP1 POP SWAP2 SWAP1 POP JUMP JUMPDEST PUSH32 0x4E487B7100000000000000000000000000000000000000000000000000000000 PUSH0 MSTORE PUSH1 0x11 PUSH1 0x4 MSTORE PUSH1 0x24 PUSH0 REVERT JUMPDEST PUSH0 PUSH2 0x11B2 DUP3 PUSH2 0xC80 JUMP JUMPDEST SWAP2 POP PUSH32 0xFFFFFFFFFFFFFFFFFFFFFFFFFFFFFFFFFFFFFFFFFFFFFFFFFFFFFFFFFFFFFFFF DUP3 SUB PUSH2 0x11E4 JUMPI PUSH2 0x11E3 PUSH2 0x117B JUMP JUMPDEST JUMPDEST PUSH1 0x1 DUP3 ADD SWAP1 POP SWAP2 SWAP1 POP JUMP JUMPDEST PUSH32 0x596F7520617265206E6F7420746865206F776E65722C2061626F7274696E6721 PUSH0 DUP3 ADD MSTORE PUSH32 0x2100000000000000000000000000000000000000000000000000000000000000 PUSH1 0x20 DUP3 ADD MSTORE POP JUMP JUMPDEST PUSH0 PUSH2 0x1249 PUSH1 0x21 DUP4 PUSH2 0x100D JUMP JUMPDEST SWAP2 POP PUSH2 0x1254 DUP3 PUSH2 0x11EF JUMP JUMPDEST PUSH1 0x40 DUP3 ADD SWAP1 POP SWAP2 SWAP1 POP JUMP JUMPDEST PUSH0 PUSH1 0x20 DUP3 ADD SWAP1 POP DUP2 DUP2 SUB PUSH0 DUP4 ADD MSTORE PUSH2 0x1276 DUP2 PUSH2 0x123D JUMP JUMPDEST SWAP1 POP SWAP2 SWAP1 POP JUMP JUMPDEST PUSH32 0x596F752061726520747279696E6720746F2073656E64206D6F7265207468616E PUSH0 DUP3 ADD MSTORE PUSH32 0x20796F752061726520616C6C6F77656420746F2C2061626F7274696E67212100 PUSH1 0x20 DUP3 ADD MSTORE POP JUMP JUMPDEST PUSH0 PUSH2 0x12D7 PUSH1 0x3F DUP4 PUSH2 0x100D JUMP JUMPDEST SWAP2 POP PUSH2 0x12E2 DUP3 PUSH2 0x127D JUMP JUMPDEST PUSH1 0x40 DUP3 ADD SWAP1 POP SWAP2 SWAP1 POP JUMP JUMPDEST PUSH0 PUSH1 0x20 DUP3 ADD SWAP1 POP DUP2 DUP2 SUB PUSH0 DUP4 ADD MSTORE PUSH2 0x1304 DUP2 PUSH2 0x12CB JUMP JUMPDEST SWAP1 POP SWAP2 SWAP1 POP JUMP JUMPDEST PUSH32 0x596F7520617265206E6F7420616C6C6F77656420746F2073656E6420616E7974 PUSH0 DUP3 ADD MSTORE PUSH32 0x68696E672066726F6D207468697320736D61727420636F6E74726163742C2061 PUSH1 0x20 DUP3 ADD MSTORE PUSH32 0x626F7274696E6721210000000000000000000000000000000000000000000000 PUSH1 0x40 DUP3 ADD MSTORE POP JUMP JUMPDEST PUSH0 PUSH2 0x138B PUSH1 0x49 DUP4 PUSH2 0x100D JUMP JUMPDEST SWAP2 POP PUSH2 0x1396 DUP3 PUSH2 0x130B JUMP JUMPDEST PUSH1 0x60 DUP3 ADD SWAP1 POP SWAP2 SWAP1 POP JUMP JUMPDEST PUSH0 PUSH1 0x20 DUP3 ADD SWAP1 POP DUP2 DUP2 SUB PUSH0 DUP4 ADD MSTORE PUSH2 0x13B8 DUP2 PUSH2 0x137F JUMP JUMPDEST SWAP1 POP SWAP2 SWAP1 POP JUMP JUMPDEST PUSH0 PUSH2 0x13C9 DUP3 PUSH2 0xC80 JUMP JUMPDEST SWAP2 POP PUSH2 0x13D4 DUP4 PUSH2 0xC80 JUMP JUMPDEST SWAP3 POP DUP3 DUP3 SUB SWAP1 POP DUP2 DUP2 GT ISZERO PUSH2 0x13EC JUMPI PUSH2 0x13EB PUSH2 0x117B JUMP JUMPDEST JUMPDEST SWAP3 SWAP2 POP POP JUMP JUMPDEST PUSH0 DUP2 SWAP1 POP SWAP3 SWAP2 POP POP JUMP JUMPDEST PUSH0 PUSH2 0x1406 DUP3 PUSH2 0xF8D JUMP JUMPDEST PUSH2 0x1410 DUP2 DUP6 PUSH2 0x13F2 JUMP JUMPDEST SWAP4 POP PUSH2 0x1420 DUP2 DUP6 PUSH1 0x20 DUP7 ADD PUSH2 0xFA7 JUMP JUMPDEST DUP1 DUP5 ADD SWAP2 POP POP SWAP3 SWAP2 POP POP JUMP JUMPDEST PUSH0 PUSH2 0x1437 DUP3 DUP5 PUSH2 0x13FC JUMP JUMPDEST SWAP2 POP DUP2 SWAP1 POP SWAP3 SWAP2 POP POP JUMP JUMPDEST PUSH32 0x41626F7274696E672C2063616C6C20776173206E6F7420737563636573736675 PUSH0 DUP3 ADD MSTORE PUSH32 0x6C00000000000000000000000000000000000000000000000000000000000000 PUSH1 0x20 DUP3 ADD MSTORE POP JUMP JUMPDEST PUSH0 PUSH2 0x149C PUSH1 0x21 DUP4 PUSH2 0x100D JUMP JUMPDEST SWAP2 POP PUSH2 0x14A7 DUP3 PUSH2 0x1442 JUMP JUMPDEST PUSH1 0x40 DUP3 ADD SWAP1 POP SWAP2 SWAP1 POP JUMP JUMPDEST PUSH0 PUSH1 0x20 DUP3 ADD SWAP1 POP DUP2 DUP2 SUB PUSH0 DUP4 ADD MSTORE PUSH2 0x14C9 DUP2 PUSH2 0x1490 JUMP JUMPDEST SWAP1 POP SWAP2 SWAP1 POP JUMP INVALID LOG2 PUSH5 0x6970667358 0x22 SLT KECCAK256 DUP2 0xBD 0xC6 KECCAK256 0xB1 0xE4 0xC5 LOG4 CREATE2 JUMPI SWAP13 0x1E BLOBBASEFEE 0x4D 0xAF SWAP12 MLOAD 0xD6 PUSH23 0x515D160F9317245EE9CEC8601564736F6C634300081A00 CALLER "
				},
				"gasEstimates": {
					"creation": {
						"codeDepositCost": "1076400",
						"executionCost": "25383",
						"totalCost": "1101783"
					},
					"external": {
						"allowance(address)": "2891",
						"confirmationsFromGuardiansForReset()": "347",
						"guardians(address)": "2834",
						"isAllowedToSend(address)": "2856",
						"nextOwnerGuardianVotedBool(address,address)": "infinite",
						"owner()": "2549",
						"proposeNewOwner(address)": "63021",
						"setAllowance(address,uint256)": "49445",
						"setGuardian(address,bool)": "27191",
						"transfer(address,uint256,bytes)": "infinite"
					}
				},
				"methodIdentifiers": {
					"allowance(address)": "3e5beab9",
					"confirmationsFromGuardiansForReset()": "83012be1",
					"guardians(address)": "0633b14a",
					"isAllowedToSend(address)": "0bc605ad",
					"nextOwnerGuardianVotedBool(address,address)": "48d40687",
					"owner()": "8da5cb5b",
					"proposeNewOwner(address)": "b1f8100d",
					"setAllowance(address,uint256)": "310ec4a7",
					"setGuardian(address,bool)": "2b8a1c5a",
					"transfer(address,uint256,bytes)": "be45fd62"
				}
			},
			"storageLayout": {
				"storage": [
					{
						"astId": 20,
						"contract": "contracts/SmartContractWallet.sol:SmartContracWallet",
						"label": "owner",
						"offset": 0,
						"slot": "0",
						"type": "t_address_payable"
					},
					{
						"astId": 24,
						"contract": "contracts/SmartContractWallet.sol:SmartContracWallet",
						"label": "allowance",
						"offset": 0,
						"slot": "1",
						"type": "t_mapping(t_address,t_uint256)"
					},
					{
						"astId": 28,
						"contract": "contracts/SmartContractWallet.sol:SmartContracWallet",
						"label": "isAllowedToSend",
						"offset": 0,
						"slot": "2",
						"type": "t_mapping(t_address,t_bool)"
					},
					{
						"astId": 32,
						"contract": "contracts/SmartContractWallet.sol:SmartContracWallet",
						"label": "guardians",
						"offset": 0,
						"slot": "3",
						"type": "t_mapping(t_address,t_bool)"
					},
					{
						"astId": 34,
						"contract": "contracts/SmartContractWallet.sol:SmartContracWallet",
						"label": "nextOwner",
						"offset": 0,
						"slot": "4",
						"type": "t_address_payable"
					},
					{
						"astId": 40,
						"contract": "contracts/SmartContractWallet.sol:SmartContracWallet",
						"label": "nextOwnerGuardianVotedBool",
						"offset": 0,
						"slot": "5",
						"type": "t_mapping(t_address,t_mapping(t_address,t_bool))"
					},
					{
						"astId": 42,
						"contract": "contracts/SmartContractWallet.sol:SmartContracWallet",
						"label": "guardiansResetCount",
						"offset": 0,
						"slot": "6",
						"type": "t_uint256"
					}
				],
				"types": {
					"t_address": {
						"encoding": "inplace",
						"label": "address",
						"numberOfBytes": "20"
					},
					"t_address_payable": {
						"encoding": "inplace",
						"label": "address payable",
						"numberOfBytes": "20"
					},
					"t_bool": {
						"encoding": "inplace",
						"label": "bool",
						"numberOfBytes": "1"
					},
					"t_mapping(t_address,t_bool)": {
						"encoding": "mapping",
						"key": "t_address",
						"label": "mapping(address => bool)",
						"numberOfBytes": "32",
						"value": "t_bool"
					},
					"t_mapping(t_address,t_mapping(t_address,t_bool))": {
						"encoding": "mapping",
						"key": "t_address",
						"label": "mapping(address => mapping(address => bool))",
						"numberOfBytes": "32",
						"value": "t_mapping(t_address,t_bool)"
					},
					"t_mapping(t_address,t_uint256)": {
						"encoding": "mapping",
						"key": "t_address",
						"label": "mapping(address => uint256)",
						"numberOfBytes": "32",
						"value": "t_uint256"
					},
					"t_uint256": {
						"encoding": "inplace",
						"label": "uint256",
						"numberOfBytes": "32"
					}
				}
			},
			"userdoc": {
				"kind": "user",
				"methods": {},
				"version": 1
			}
		}
	}
}