{
	"contracts/ExampleMappingStruct.sol": {
		"Wallet": {
			"abi": [
				{
					"inputs": [
						{
							"internalType": "address",
							"name": "",
							"type": "address"
						}
					],
					"name": "balance",
					"outputs": [
						{
							"internalType": "uint256",
							"name": "",
							"type": "uint256"
						}
					],
					"stateMutability": "view",
					"type": "function"
				},
				{
					"inputs": [],
					"name": "depositMoney",
					"outputs": [],
					"stateMutability": "payable",
					"type": "function"
				},
				{
					"inputs": [
						{
							"internalType": "address payable",
							"name": "_to",
							"type": "address"
						},
						{
							"internalType": "uint256",
							"name": "_amount",
							"type": "uint256"
						}
					],
					"name": "withdrawMoney",
					"outputs": [],
					"stateMutability": "nonpayable",
					"type": "function"
				}
			],
			"devdoc": {
				"kind": "dev",
				"methods": {},
				"version": 1
			},
			"evm": {
				"assembly": "    /* \"contracts/ExampleMappingStruct.sol\":60:384  contract Wallet{... */\n  mstore(0x40, 0x80)\n  callvalue\n  dup1\n  iszero\n  tag_1\n  jumpi\n  0x00\n  dup1\n  revert\ntag_1:\n  pop\n  dataSize(sub_0)\n  dup1\n  dataOffset(sub_0)\n  0x00\n  codecopy\n  0x00\n  return\nstop\n\nsub_0: assembly {\n        /* \"contracts/ExampleMappingStruct.sol\":60:384  contract Wallet{... */\n      mstore(0x40, 0x80)\n      jumpi(tag_1, lt(calldatasize, 0x04))\n      shr(0xe0, calldataload(0x00))\n      dup1\n      0x16c05aa2\n      eq\n      tag_2\n      jumpi\n      dup1\n      0xe3d670d7\n      eq\n      tag_3\n      jumpi\n      dup1\n      0xf274c897\n      eq\n      tag_4\n      jumpi\n    tag_1:\n      0x00\n      dup1\n      revert\n        /* \"contracts/ExampleMappingStruct.sol\":130:223  function depositMoney () public  payable {... */\n    tag_2:\n      tag_5\n      tag_6\n      jump\t// in\n    tag_5:\n      stop\n        /* \"contracts/ExampleMappingStruct.sol\":82:121  mapping(address => uint) public balance */\n    tag_3:\n      callvalue\n      dup1\n      iszero\n      tag_7\n      jumpi\n      0x00\n      dup1\n      revert\n    tag_7:\n      pop\n      tag_8\n      0x04\n      dup1\n      calldatasize\n      sub\n      dup2\n      add\n      swap1\n      tag_9\n      swap2\n      swap1\n      tag_10\n      jump\t// in\n    tag_9:\n      tag_11\n      jump\t// in\n    tag_8:\n      mload(0x40)\n      tag_12\n      swap2\n      swap1\n      tag_13\n      jump\t// in\n    tag_12:\n      mload(0x40)\n      dup1\n      swap2\n      sub\n      swap1\n      return\n        /* \"contracts/ExampleMappingStruct.sol\":231:381  function withdrawMoney (address payable  _to, uint _amount) public{... */\n    tag_4:\n      callvalue\n      dup1\n      iszero\n      tag_14\n      jumpi\n      0x00\n      dup1\n      revert\n    tag_14:\n      pop\n      tag_15\n      0x04\n      dup1\n      calldatasize\n      sub\n      dup2\n      add\n      swap1\n      tag_16\n      swap2\n      swap1\n      tag_17\n      jump\t// in\n    tag_16:\n      tag_18\n      jump\t// in\n    tag_15:\n      stop\n        /* \"contracts/ExampleMappingStruct.sol\":130:223  function depositMoney () public  payable {... */\n    tag_6:\n        /* \"contracts/ExampleMappingStruct.sol\":206:215  msg.value */\n      callvalue\n        /* \"contracts/ExampleMappingStruct.sol\":182:189  balance */\n      0x00\n        /* \"contracts/ExampleMappingStruct.sol\":182:201  balance[msg.sender] */\n      dup1\n        /* \"contracts/ExampleMappingStruct.sol\":190:200  msg.sender */\n      caller\n        /* \"contracts/ExampleMappingStruct.sol\":182:201  balance[msg.sender] */\n      0xffffffffffffffffffffffffffffffffffffffff\n      and\n      0xffffffffffffffffffffffffffffffffffffffff\n      and\n      dup2\n      mstore\n      0x20\n      add\n      swap1\n      dup2\n      mstore\n      0x20\n      add\n      0x00\n      keccak256\n      0x00\n        /* \"contracts/ExampleMappingStruct.sol\":182:215  balance[msg.sender]  += msg.value */\n      dup3\n      dup3\n      sload\n      tag_20\n      swap2\n      swap1\n      tag_21\n      jump\t// in\n    tag_20:\n      swap3\n      pop\n      pop\n      dup2\n      swap1\n      sstore\n      pop\n        /* \"contracts/ExampleMappingStruct.sol\":130:223  function depositMoney () public  payable {... */\n      jump\t// out\n        /* \"contracts/ExampleMappingStruct.sol\":82:121  mapping(address => uint) public balance */\n    tag_11:\n      mstore(0x20, 0x00)\n      dup1\n      0x00\n      mstore\n      keccak256(0x00, 0x40)\n      0x00\n      swap2\n      pop\n      swap1\n      pop\n      sload\n      dup2\n      jump\t// out\n        /* \"contracts/ExampleMappingStruct.sol\":231:381  function withdrawMoney (address payable  _to, uint _amount) public{... */\n    tag_18:\n        /* \"contracts/ExampleMappingStruct.sol\":333:340  _amount */\n      dup1\n        /* \"contracts/ExampleMappingStruct.sol\":309:316  balance */\n      0x00\n        /* \"contracts/ExampleMappingStruct.sol\":309:328  balance[msg.sender] */\n      dup1\n        /* \"contracts/ExampleMappingStruct.sol\":317:327  msg.sender */\n      caller\n        /* \"contracts/ExampleMappingStruct.sol\":309:328  balance[msg.sender] */\n      0xffffffffffffffffffffffffffffffffffffffff\n      and\n      0xffffffffffffffffffffffffffffffffffffffff\n      and\n      dup2\n      mstore\n      0x20\n      add\n      swap1\n      dup2\n      mstore\n      0x20\n      add\n      0x00\n      keccak256\n      0x00\n        /* \"contracts/ExampleMappingStruct.sol\":309:340  balance[msg.sender]  -= _amount */\n      dup3\n      dup3\n      sload\n      tag_23\n      swap2\n      swap1\n      tag_24\n      jump\t// in\n    tag_23:\n      swap3\n      pop\n      pop\n      dup2\n      swap1\n      sstore\n      pop\n        /* \"contracts/ExampleMappingStruct.sol\":352:355  _to */\n      dup2\n        /* \"contracts/ExampleMappingStruct.sol\":352:364  _to.transfer */\n      0xffffffffffffffffffffffffffffffffffffffff\n      and\n        /* \"contracts/ExampleMappingStruct.sol\":352:373  _to.transfer(_amount) */\n      0x08fc\n        /* \"contracts/ExampleMappingStruct.sol\":365:372  _amount */\n      dup3\n        /* \"contracts/ExampleMappingStruct.sol\":352:373  _to.transfer(_amount) */\n      swap1\n      dup2\n      iszero\n      mul\n      swap1\n      mload(0x40)\n      0x00\n      mload(0x40)\n      dup1\n      dup4\n      sub\n      dup2\n      dup6\n      dup9\n      dup9\n      call\n      swap4\n      pop\n      pop\n      pop\n      pop\n      iszero\n      dup1\n      iszero\n      tag_26\n      jumpi\n      returndatasize\n      0x00\n      dup1\n      returndatacopy\n      revert(0x00, returndatasize)\n    tag_26:\n      pop\n        /* \"contracts/ExampleMappingStruct.sol\":231:381  function withdrawMoney (address payable  _to, uint _amount) public{... */\n      pop\n      pop\n      jump\t// out\n        /* \"#utility.yul\":88:205   */\n    tag_28:\n        /* \"#utility.yul\":197:198   */\n      0x00\n        /* \"#utility.yul\":194:195   */\n      dup1\n        /* \"#utility.yul\":187:199   */\n      revert\n        /* \"#utility.yul\":334:460   */\n    tag_30:\n        /* \"#utility.yul\":371:378   */\n      0x00\n        /* \"#utility.yul\":411:453   */\n      0xffffffffffffffffffffffffffffffffffffffff\n        /* \"#utility.yul\":404:409   */\n      dup3\n        /* \"#utility.yul\":400:454   */\n      and\n        /* \"#utility.yul\":389:454   */\n      swap1\n      pop\n        /* \"#utility.yul\":334:460   */\n      swap2\n      swap1\n      pop\n      jump\t// out\n        /* \"#utility.yul\":466:562   */\n    tag_31:\n        /* \"#utility.yul\":503:510   */\n      0x00\n        /* \"#utility.yul\":532:556   */\n      tag_48\n        /* \"#utility.yul\":550:555   */\n      dup3\n        /* \"#utility.yul\":532:556   */\n      tag_30\n      jump\t// in\n    tag_48:\n        /* \"#utility.yul\":521:556   */\n      swap1\n      pop\n        /* \"#utility.yul\":466:562   */\n      swap2\n      swap1\n      pop\n      jump\t// out\n        /* \"#utility.yul\":568:690   */\n    tag_32:\n        /* \"#utility.yul\":641:665   */\n      tag_50\n        /* \"#utility.yul\":659:664   */\n      dup2\n        /* \"#utility.yul\":641:665   */\n      tag_31\n      jump\t// in\n    tag_50:\n        /* \"#utility.yul\":634:639   */\n      dup2\n        /* \"#utility.yul\":631:666   */\n      eq\n        /* \"#utility.yul\":621:684   */\n      tag_51\n      jumpi\n        /* \"#utility.yul\":680:681   */\n      0x00\n        /* \"#utility.yul\":677:678   */\n      dup1\n        /* \"#utility.yul\":670:682   */\n      revert\n        /* \"#utility.yul\":621:684   */\n    tag_51:\n        /* \"#utility.yul\":568:690   */\n      pop\n      jump\t// out\n        /* \"#utility.yul\":696:835   */\n    tag_33:\n        /* \"#utility.yul\":742:747   */\n      0x00\n        /* \"#utility.yul\":780:786   */\n      dup2\n        /* \"#utility.yul\":767:787   */\n      calldataload\n        /* \"#utility.yul\":758:787   */\n      swap1\n      pop\n        /* \"#utility.yul\":796:829   */\n      tag_53\n        /* \"#utility.yul\":823:828   */\n      dup2\n        /* \"#utility.yul\":796:829   */\n      tag_32\n      jump\t// in\n    tag_53:\n        /* \"#utility.yul\":696:835   */\n      swap3\n      swap2\n      pop\n      pop\n      jump\t// out\n        /* \"#utility.yul\":841:1170   */\n    tag_10:\n        /* \"#utility.yul\":900:906   */\n      0x00\n        /* \"#utility.yul\":949:951   */\n      0x20\n        /* \"#utility.yul\":937:946   */\n      dup3\n        /* \"#utility.yul\":928:935   */\n      dup5\n        /* \"#utility.yul\":924:947   */\n      sub\n        /* \"#utility.yul\":920:952   */\n      slt\n        /* \"#utility.yul\":917:1036   */\n      iszero\n      tag_55\n      jumpi\n        /* \"#utility.yul\":955:1034   */\n      tag_56\n      tag_28\n      jump\t// in\n    tag_56:\n        /* \"#utility.yul\":917:1036   */\n    tag_55:\n        /* \"#utility.yul\":1075:1076   */\n      0x00\n        /* \"#utility.yul\":1100:1153   */\n      tag_57\n        /* \"#utility.yul\":1145:1152   */\n      dup5\n        /* \"#utility.yul\":1136:1142   */\n      dup3\n        /* \"#utility.yul\":1125:1134   */\n      dup6\n        /* \"#utility.yul\":1121:1143   */\n      add\n        /* \"#utility.yul\":1100:1153   */\n      tag_33\n      jump\t// in\n    tag_57:\n        /* \"#utility.yul\":1090:1153   */\n      swap2\n      pop\n        /* \"#utility.yul\":1046:1163   */\n      pop\n        /* \"#utility.yul\":841:1170   */\n      swap3\n      swap2\n      pop\n      pop\n      jump\t// out\n        /* \"#utility.yul\":1176:1253   */\n    tag_34:\n        /* \"#utility.yul\":1213:1220   */\n      0x00\n        /* \"#utility.yul\":1242:1247   */\n      dup2\n        /* \"#utility.yul\":1231:1247   */\n      swap1\n      pop\n        /* \"#utility.yul\":1176:1253   */\n      swap2\n      swap1\n      pop\n      jump\t// out\n        /* \"#utility.yul\":1259:1377   */\n    tag_35:\n        /* \"#utility.yul\":1346:1370   */\n      tag_60\n        /* \"#utility.yul\":1364:1369   */\n      dup2\n        /* \"#utility.yul\":1346:1370   */\n      tag_34\n      jump\t// in\n    tag_60:\n        /* \"#utility.yul\":1341:1344   */\n      dup3\n        /* \"#utility.yul\":1334:1371   */\n      mstore\n        /* \"#utility.yul\":1259:1377   */\n      pop\n      pop\n      jump\t// out\n        /* \"#utility.yul\":1383:1605   */\n    tag_13:\n        /* \"#utility.yul\":1476:1480   */\n      0x00\n        /* \"#utility.yul\":1514:1516   */\n      0x20\n        /* \"#utility.yul\":1503:1512   */\n      dup3\n        /* \"#utility.yul\":1499:1517   */\n      add\n        /* \"#utility.yul\":1491:1517   */\n      swap1\n      pop\n        /* \"#utility.yul\":1527:1598   */\n      tag_62\n        /* \"#utility.yul\":1595:1596   */\n      0x00\n        /* \"#utility.yul\":1584:1593   */\n      dup4\n        /* \"#utility.yul\":1580:1597   */\n      add\n        /* \"#utility.yul\":1571:1577   */\n      dup5\n        /* \"#utility.yul\":1527:1598   */\n      tag_35\n      jump\t// in\n    tag_62:\n        /* \"#utility.yul\":1383:1605   */\n      swap3\n      swap2\n      pop\n      pop\n      jump\t// out\n        /* \"#utility.yul\":1611:1715   */\n    tag_36:\n        /* \"#utility.yul\":1656:1663   */\n      0x00\n        /* \"#utility.yul\":1685:1709   */\n      tag_64\n        /* \"#utility.yul\":1703:1708   */\n      dup3\n        /* \"#utility.yul\":1685:1709   */\n      tag_30\n      jump\t// in\n    tag_64:\n        /* \"#utility.yul\":1674:1709   */\n      swap1\n      pop\n        /* \"#utility.yul\":1611:1715   */\n      swap2\n      swap1\n      pop\n      jump\t// out\n        /* \"#utility.yul\":1721:1859   */\n    tag_37:\n        /* \"#utility.yul\":1802:1834   */\n      tag_66\n        /* \"#utility.yul\":1828:1833   */\n      dup2\n        /* \"#utility.yul\":1802:1834   */\n      tag_36\n      jump\t// in\n    tag_66:\n        /* \"#utility.yul\":1795:1800   */\n      dup2\n        /* \"#utility.yul\":1792:1835   */\n      eq\n        /* \"#utility.yul\":1782:1853   */\n      tag_67\n      jumpi\n        /* \"#utility.yul\":1849:1850   */\n      0x00\n        /* \"#utility.yul\":1846:1847   */\n      dup1\n        /* \"#utility.yul\":1839:1851   */\n      revert\n        /* \"#utility.yul\":1782:1853   */\n    tag_67:\n        /* \"#utility.yul\":1721:1859   */\n      pop\n      jump\t// out\n        /* \"#utility.yul\":1865:2020   */\n    tag_38:\n        /* \"#utility.yul\":1919:1924   */\n      0x00\n        /* \"#utility.yul\":1957:1963   */\n      dup2\n        /* \"#utility.yul\":1944:1964   */\n      calldataload\n        /* \"#utility.yul\":1935:1964   */\n      swap1\n      pop\n        /* \"#utility.yul\":1973:2014   */\n      tag_69\n        /* \"#utility.yul\":2008:2013   */\n      dup2\n        /* \"#utility.yul\":1973:2014   */\n      tag_37\n      jump\t// in\n    tag_69:\n        /* \"#utility.yul\":1865:2020   */\n      swap3\n      swap2\n      pop\n      pop\n      jump\t// out\n        /* \"#utility.yul\":2026:2148   */\n    tag_39:\n        /* \"#utility.yul\":2099:2123   */\n      tag_71\n        /* \"#utility.yul\":2117:2122   */\n      dup2\n        /* \"#utility.yul\":2099:2123   */\n      tag_34\n      jump\t// in\n    tag_71:\n        /* \"#utility.yul\":2092:2097   */\n      dup2\n        /* \"#utility.yul\":2089:2124   */\n      eq\n        /* \"#utility.yul\":2079:2142   */\n      tag_72\n      jumpi\n        /* \"#utility.yul\":2138:2139   */\n      0x00\n        /* \"#utility.yul\":2135:2136   */\n      dup1\n        /* \"#utility.yul\":2128:2140   */\n      revert\n        /* \"#utility.yul\":2079:2142   */\n    tag_72:\n        /* \"#utility.yul\":2026:2148   */\n      pop\n      jump\t// out\n        /* \"#utility.yul\":2154:2293   */\n    tag_40:\n        /* \"#utility.yul\":2200:2205   */\n      0x00\n        /* \"#utility.yul\":2238:2244   */\n      dup2\n        /* \"#utility.yul\":2225:2245   */\n      calldataload\n        /* \"#utility.yul\":2216:2245   */\n      swap1\n      pop\n        /* \"#utility.yul\":2254:2287   */\n      tag_74\n        /* \"#utility.yul\":2281:2286   */\n      dup2\n        /* \"#utility.yul\":2254:2287   */\n      tag_39\n      jump\t// in\n    tag_74:\n        /* \"#utility.yul\":2154:2293   */\n      swap3\n      swap2\n      pop\n      pop\n      jump\t// out\n        /* \"#utility.yul\":2299:2789   */\n    tag_17:\n        /* \"#utility.yul\":2375:2381   */\n      0x00\n        /* \"#utility.yul\":2383:2389   */\n      dup1\n        /* \"#utility.yul\":2432:2434   */\n      0x40\n        /* \"#utility.yul\":2420:2429   */\n      dup4\n        /* \"#utility.yul\":2411:2418   */\n      dup6\n        /* \"#utility.yul\":2407:2430   */\n      sub\n        /* \"#utility.yul\":2403:2435   */\n      slt\n        /* \"#utility.yul\":2400:2519   */\n      iszero\n      tag_76\n      jumpi\n        /* \"#utility.yul\":2438:2517   */\n      tag_77\n      tag_28\n      jump\t// in\n    tag_77:\n        /* \"#utility.yul\":2400:2519   */\n    tag_76:\n        /* \"#utility.yul\":2558:2559   */\n      0x00\n        /* \"#utility.yul\":2583:2644   */\n      tag_78\n        /* \"#utility.yul\":2636:2643   */\n      dup6\n        /* \"#utility.yul\":2627:2633   */\n      dup3\n        /* \"#utility.yul\":2616:2625   */\n      dup7\n        /* \"#utility.yul\":2612:2634   */\n      add\n        /* \"#utility.yul\":2583:2644   */\n      tag_38\n      jump\t// in\n    tag_78:\n        /* \"#utility.yul\":2573:2644   */\n      swap3\n      pop\n        /* \"#utility.yul\":2529:2654   */\n      pop\n        /* \"#utility.yul\":2693:2695   */\n      0x20\n        /* \"#utility.yul\":2719:2772   */\n      tag_79\n        /* \"#utility.yul\":2764:2771   */\n      dup6\n        /* \"#utility.yul\":2755:2761   */\n      dup3\n        /* \"#utility.yul\":2744:2753   */\n      dup7\n        /* \"#utility.yul\":2740:2762   */\n      add\n        /* \"#utility.yul\":2719:2772   */\n      tag_40\n      jump\t// in\n    tag_79:\n        /* \"#utility.yul\":2709:2772   */\n      swap2\n      pop\n        /* \"#utility.yul\":2664:2782   */\n      pop\n        /* \"#utility.yul\":2299:2789   */\n      swap3\n      pop\n      swap3\n      swap1\n      pop\n      jump\t// out\n        /* \"#utility.yul\":2795:2975   */\n    tag_41:\n        /* \"#utility.yul\":2843:2920   */\n      0x4e487b7100000000000000000000000000000000000000000000000000000000\n        /* \"#utility.yul\":2840:2841   */\n      0x00\n        /* \"#utility.yul\":2833:2921   */\n      mstore\n        /* \"#utility.yul\":2940:2944   */\n      0x11\n        /* \"#utility.yul\":2937:2938   */\n      0x04\n        /* \"#utility.yul\":2930:2945   */\n      mstore\n        /* \"#utility.yul\":2964:2968   */\n      0x24\n        /* \"#utility.yul\":2961:2962   */\n      0x00\n        /* \"#utility.yul\":2954:2969   */\n      revert\n        /* \"#utility.yul\":2981:3172   */\n    tag_21:\n        /* \"#utility.yul\":3021:3024   */\n      0x00\n        /* \"#utility.yul\":3040:3060   */\n      tag_82\n        /* \"#utility.yul\":3058:3059   */\n      dup3\n        /* \"#utility.yul\":3040:3060   */\n      tag_34\n      jump\t// in\n    tag_82:\n        /* \"#utility.yul\":3035:3060   */\n      swap2\n      pop\n        /* \"#utility.yul\":3074:3094   */\n      tag_83\n        /* \"#utility.yul\":3092:3093   */\n      dup4\n        /* \"#utility.yul\":3074:3094   */\n      tag_34\n      jump\t// in\n    tag_83:\n        /* \"#utility.yul\":3069:3094   */\n      swap3\n      pop\n        /* \"#utility.yul\":3117:3118   */\n      dup3\n        /* \"#utility.yul\":3114:3115   */\n      dup3\n        /* \"#utility.yul\":3110:3119   */\n      add\n        /* \"#utility.yul\":3103:3119   */\n      swap1\n      pop\n        /* \"#utility.yul\":3138:3141   */\n      dup1\n        /* \"#utility.yul\":3135:3136   */\n      dup3\n        /* \"#utility.yul\":3132:3142   */\n      gt\n        /* \"#utility.yul\":3129:3165   */\n      iszero\n      tag_84\n      jumpi\n        /* \"#utility.yul\":3145:3163   */\n      tag_85\n      tag_41\n      jump\t// in\n    tag_85:\n        /* \"#utility.yul\":3129:3165   */\n    tag_84:\n        /* \"#utility.yul\":2981:3172   */\n      swap3\n      swap2\n      pop\n      pop\n      jump\t// out\n        /* \"#utility.yul\":3178:3372   */\n    tag_24:\n        /* \"#utility.yul\":3218:3222   */\n      0x00\n        /* \"#utility.yul\":3238:3258   */\n      tag_87\n        /* \"#utility.yul\":3256:3257   */\n      dup3\n        /* \"#utility.yul\":3238:3258   */\n      tag_34\n      jump\t// in\n    tag_87:\n        /* \"#utility.yul\":3233:3258   */\n      swap2\n      pop\n        /* \"#utility.yul\":3272:3292   */\n      tag_88\n        /* \"#utility.yul\":3290:3291   */\n      dup4\n        /* \"#utility.yul\":3272:3292   */\n      tag_34\n      jump\t// in\n    tag_88:\n        /* \"#utility.yul\":3267:3292   */\n      swap3\n      pop\n        /* \"#utility.yul\":3316:3317   */\n      dup3\n        /* \"#utility.yul\":3313:3314   */\n      dup3\n        /* \"#utility.yul\":3309:3318   */\n      sub\n        /* \"#utility.yul\":3301:3318   */\n      swap1\n      pop\n        /* \"#utility.yul\":3340:3341   */\n      dup2\n        /* \"#utility.yul\":3334:3338   */\n      dup2\n        /* \"#utility.yul\":3331:3342   */\n      gt\n        /* \"#utility.yul\":3328:3365   */\n      iszero\n      tag_89\n      jumpi\n        /* \"#utility.yul\":3345:3363   */\n      tag_90\n      tag_41\n      jump\t// in\n    tag_90:\n        /* \"#utility.yul\":3328:3365   */\n    tag_89:\n        /* \"#utility.yul\":3178:3372   */\n      swap3\n      swap2\n      pop\n      pop\n      jump\t// out\n\n    auxdata: 0xa2646970667358221220904138198ecea80373a210b5b50a08ab04314d2bb1860e127c15cf67bcf2ecd664736f6c634300081a0033\n}\n",
				"bytecode": {
					"linkReferences": {},
					"object": "6080604052348015600e575f80fd5b506103cd8061001c5f395ff3fe608060405260043610610033575f3560e01c806316c05aa214610037578063e3d670d714610041578063f274c8971461007d575b5f80fd5b61003f6100a5565b005b34801561004c575f80fd5b5061006760048036038101906100629190610205565b6100f9565b6040516100749190610248565b60405180910390f35b348015610088575f80fd5b506100a3600480360381019061009e91906102c6565b61010d565b005b345f803373ffffffffffffffffffffffffffffffffffffffff1673ffffffffffffffffffffffffffffffffffffffff1681526020019081526020015f205f8282546100f09190610331565b92505081905550565b5f602052805f5260405f205f915090505481565b805f803373ffffffffffffffffffffffffffffffffffffffff1673ffffffffffffffffffffffffffffffffffffffff1681526020019081526020015f205f8282546101589190610364565b925050819055508173ffffffffffffffffffffffffffffffffffffffff166108fc8290811502906040515f60405180830381858888f193505050501580156101a2573d5f803e3d5ffd5b505050565b5f80fd5b5f73ffffffffffffffffffffffffffffffffffffffff82169050919050565b5f6101d4826101ab565b9050919050565b6101e4816101ca565b81146101ee575f80fd5b50565b5f813590506101ff816101db565b92915050565b5f6020828403121561021a576102196101a7565b5b5f610227848285016101f1565b91505092915050565b5f819050919050565b61024281610230565b82525050565b5f60208201905061025b5f830184610239565b92915050565b5f61026b826101ab565b9050919050565b61027b81610261565b8114610285575f80fd5b50565b5f8135905061029681610272565b92915050565b6102a581610230565b81146102af575f80fd5b50565b5f813590506102c08161029c565b92915050565b5f80604083850312156102dc576102db6101a7565b5b5f6102e985828601610288565b92505060206102fa858286016102b2565b9150509250929050565b7f4e487b71000000000000000000000000000000000000000000000000000000005f52601160045260245ffd5b5f61033b82610230565b915061034683610230565b925082820190508082111561035e5761035d610304565b5b92915050565b5f61036e82610230565b915061037983610230565b925082820390508181111561039157610390610304565b5b9291505056fea2646970667358221220904138198ecea80373a210b5b50a08ab04314d2bb1860e127c15cf67bcf2ecd664736f6c634300081a0033",
					"opcodes": "PUSH1 0x80 PUSH1 0x40 MSTORE CALLVALUE DUP1 ISZERO PUSH1 0xE JUMPI PUSH0 DUP1 REVERT JUMPDEST POP PUSH2 0x3CD DUP1 PUSH2 0x1C PUSH0 CODECOPY PUSH0 RETURN INVALID PUSH1 0x80 PUSH1 0x40 MSTORE PUSH1 0x4 CALLDATASIZE LT PUSH2 0x33 JUMPI PUSH0 CALLDATALOAD PUSH1 0xE0 SHR DUP1 PUSH4 0x16C05AA2 EQ PUSH2 0x37 JUMPI DUP1 PUSH4 0xE3D670D7 EQ PUSH2 0x41 JUMPI DUP1 PUSH4 0xF274C897 EQ PUSH2 0x7D JUMPI JUMPDEST PUSH0 DUP1 REVERT JUMPDEST PUSH2 0x3F PUSH2 0xA5 JUMP JUMPDEST STOP JUMPDEST CALLVALUE DUP1 ISZERO PUSH2 0x4C JUMPI PUSH0 DUP1 REVERT JUMPDEST POP PUSH2 0x67 PUSH1 0x4 DUP1 CALLDATASIZE SUB DUP2 ADD SWAP1 PUSH2 0x62 SWAP2 SWAP1 PUSH2 0x205 JUMP JUMPDEST PUSH2 0xF9 JUMP JUMPDEST PUSH1 0x40 MLOAD PUSH2 0x74 SWAP2 SWAP1 PUSH2 0x248 JUMP JUMPDEST PUSH1 0x40 MLOAD DUP1 SWAP2 SUB SWAP1 RETURN JUMPDEST CALLVALUE DUP1 ISZERO PUSH2 0x88 JUMPI PUSH0 DUP1 REVERT JUMPDEST POP PUSH2 0xA3 PUSH1 0x4 DUP1 CALLDATASIZE SUB DUP2 ADD SWAP1 PUSH2 0x9E SWAP2 SWAP1 PUSH2 0x2C6 JUMP JUMPDEST PUSH2 0x10D JUMP JUMPDEST STOP JUMPDEST CALLVALUE PUSH0 DUP1 CALLER PUSH20 0xFFFFFFFFFFFFFFFFFFFFFFFFFFFFFFFFFFFFFFFF AND PUSH20 0xFFFFFFFFFFFFFFFFFFFFFFFFFFFFFFFFFFFFFFFF AND DUP2 MSTORE PUSH1 0x20 ADD SWAP1 DUP2 MSTORE PUSH1 0x20 ADD PUSH0 KECCAK256 PUSH0 DUP3 DUP3 SLOAD PUSH2 0xF0 SWAP2 SWAP1 PUSH2 0x331 JUMP JUMPDEST SWAP3 POP POP DUP2 SWAP1 SSTORE POP JUMP JUMPDEST PUSH0 PUSH1 0x20 MSTORE DUP1 PUSH0 MSTORE PUSH1 0x40 PUSH0 KECCAK256 PUSH0 SWAP2 POP SWAP1 POP SLOAD DUP2 JUMP JUMPDEST DUP1 PUSH0 DUP1 CALLER PUSH20 0xFFFFFFFFFFFFFFFFFFFFFFFFFFFFFFFFFFFFFFFF AND PUSH20 0xFFFFFFFFFFFFFFFFFFFFFFFFFFFFFFFFFFFFFFFF AND DUP2 MSTORE PUSH1 0x20 ADD SWAP1 DUP2 MSTORE PUSH1 0x20 ADD PUSH0 KECCAK256 PUSH0 DUP3 DUP3 SLOAD PUSH2 0x158 SWAP2 SWAP1 PUSH2 0x364 JUMP JUMPDEST SWAP3 POP POP DUP2 SWAP1 SSTORE POP DUP2 PUSH20 0xFFFFFFFFFFFFFFFFFFFFFFFFFFFFFFFFFFFFFFFF AND PUSH2 0x8FC DUP3 SWAP1 DUP2 ISZERO MUL SWAP1 PUSH1 0x40 MLOAD PUSH0 PUSH1 0x40 MLOAD DUP1 DUP4 SUB DUP2 DUP6 DUP9 DUP9 CALL SWAP4 POP POP POP POP ISZERO DUP1 ISZERO PUSH2 0x1A2 JUMPI RETURNDATASIZE PUSH0 DUP1 RETURNDATACOPY RETURNDATASIZE PUSH0 REVERT JUMPDEST POP POP POP JUMP JUMPDEST PUSH0 DUP1 REVERT JUMPDEST PUSH0 PUSH20 0xFFFFFFFFFFFFFFFFFFFFFFFFFFFFFFFFFFFFFFFF DUP3 AND SWAP1 POP SWAP2 SWAP1 POP JUMP JUMPDEST PUSH0 PUSH2 0x1D4 DUP3 PUSH2 0x1AB JUMP JUMPDEST SWAP1 POP SWAP2 SWAP1 POP JUMP JUMPDEST PUSH2 0x1E4 DUP2 PUSH2 0x1CA JUMP JUMPDEST DUP2 EQ PUSH2 0x1EE JUMPI PUSH0 DUP1 REVERT JUMPDEST POP JUMP JUMPDEST PUSH0 DUP2 CALLDATALOAD SWAP1 POP PUSH2 0x1FF DUP2 PUSH2 0x1DB JUMP JUMPDEST SWAP3 SWAP2 POP POP JUMP JUMPDEST PUSH0 PUSH1 0x20 DUP3 DUP5 SUB SLT ISZERO PUSH2 0x21A JUMPI PUSH2 0x219 PUSH2 0x1A7 JUMP JUMPDEST JUMPDEST PUSH0 PUSH2 0x227 DUP5 DUP3 DUP6 ADD PUSH2 0x1F1 JUMP JUMPDEST SWAP2 POP POP SWAP3 SWAP2 POP POP JUMP JUMPDEST PUSH0 DUP2 SWAP1 POP SWAP2 SWAP1 POP JUMP JUMPDEST PUSH2 0x242 DUP2 PUSH2 0x230 JUMP JUMPDEST DUP3 MSTORE POP POP JUMP JUMPDEST PUSH0 PUSH1 0x20 DUP3 ADD SWAP1 POP PUSH2 0x25B PUSH0 DUP4 ADD DUP5 PUSH2 0x239 JUMP JUMPDEST SWAP3 SWAP2 POP POP JUMP JUMPDEST PUSH0 PUSH2 0x26B DUP3 PUSH2 0x1AB JUMP JUMPDEST SWAP1 POP SWAP2 SWAP1 POP JUMP JUMPDEST PUSH2 0x27B DUP2 PUSH2 0x261 JUMP JUMPDEST DUP2 EQ PUSH2 0x285 JUMPI PUSH0 DUP1 REVERT JUMPDEST POP JUMP JUMPDEST PUSH0 DUP2 CALLDATALOAD SWAP1 POP PUSH2 0x296 DUP2 PUSH2 0x272 JUMP JUMPDEST SWAP3 SWAP2 POP POP JUMP JUMPDEST PUSH2 0x2A5 DUP2 PUSH2 0x230 JUMP JUMPDEST DUP2 EQ PUSH2 0x2AF JUMPI PUSH0 DUP1 REVERT JUMPDEST POP JUMP JUMPDEST PUSH0 DUP2 CALLDATALOAD SWAP1 POP PUSH2 0x2C0 DUP2 PUSH2 0x29C JUMP JUMPDEST SWAP3 SWAP2 POP POP JUMP JUMPDEST PUSH0 DUP1 PUSH1 0x40 DUP4 DUP6 SUB SLT ISZERO PUSH2 0x2DC JUMPI PUSH2 0x2DB PUSH2 0x1A7 JUMP JUMPDEST JUMPDEST PUSH0 PUSH2 0x2E9 DUP6 DUP3 DUP7 ADD PUSH2 0x288 JUMP JUMPDEST SWAP3 POP POP PUSH1 0x20 PUSH2 0x2FA DUP6 DUP3 DUP7 ADD PUSH2 0x2B2 JUMP JUMPDEST SWAP2 POP POP SWAP3 POP SWAP3 SWAP1 POP JUMP JUMPDEST PUSH32 0x4E487B7100000000000000000000000000000000000000000000000000000000 PUSH0 MSTORE PUSH1 0x11 PUSH1 0x4 MSTORE PUSH1 0x24 PUSH0 REVERT JUMPDEST PUSH0 PUSH2 0x33B DUP3 PUSH2 0x230 JUMP JUMPDEST SWAP2 POP PUSH2 0x346 DUP4 PUSH2 0x230 JUMP JUMPDEST SWAP3 POP DUP3 DUP3 ADD SWAP1 POP DUP1 DUP3 GT ISZERO PUSH2 0x35E JUMPI PUSH2 0x35D PUSH2 0x304 JUMP JUMPDEST JUMPDEST SWAP3 SWAP2 POP POP JUMP JUMPDEST PUSH0 PUSH2 0x36E DUP3 PUSH2 0x230 JUMP JUMPDEST SWAP2 POP PUSH2 0x379 DUP4 PUSH2 0x230 JUMP JUMPDEST SWAP3 POP DUP3 DUP3 SUB SWAP1 POP DUP2 DUP2 GT ISZERO PUSH2 0x391 JUMPI PUSH2 0x390 PUSH2 0x304 JUMP JUMPDEST JUMPDEST SWAP3 SWAP2 POP POP JUMP INVALID LOG2 PUSH5 0x6970667358 0x22 SLT KECCAK256 SWAP1 COINBASE CODESIZE NOT DUP15 0xCE 0xA8 SUB PUSH20 0xA210B5B50A08AB04314D2BB1860E127C15CF67BC CALLCODE 0xEC 0xD6 PUSH5 0x736F6C6343 STOP ADDMOD BYTE STOP CALLER "
				},
				"gasEstimates": {
					"creation": {
						"codeDepositCost": "194600",
						"executionCost": "236",
						"totalCost": "194836"
					},
					"external": {
						"balance(address)": "2801",
						"depositMoney()": "infinite",
						"withdrawMoney(address,uint256)": "infinite"
					}
				},
				"methodIdentifiers": {
					"balance(address)": "e3d670d7",
					"depositMoney()": "16c05aa2",
					"withdrawMoney(address,uint256)": "f274c897"
				}
			},
			"storageLayout": {
				"storage": [
					{
						"astId": 5,
						"contract": "contracts/ExampleMappingStruct.sol:Wallet",
						"label": "balance",
						"offset": 0,
						"slot": "0",
						"type": "t_mapping(t_address,t_uint256)"
					}
				],
				"types": {
					"t_address": {
						"encoding": "inplace",
						"label": "address",
						"numberOfBytes": "20"
					},
					"t_mapping(t_address,t_uint256)": {
						"encoding": "mapping",
						"key": "t_address",
						"label": "mapping(address => uint256)",
						"numberOfBytes": "32",
						"value": "t_uint256"
					},
					"t_uint256": {
						"encoding": "inplace",
						"label": "uint256",
						"numberOfBytes": "32"
					}
				}
			},
			"userdoc": {
				"kind": "user",
				"methods": {},
				"version": 1
			}
		}
	}
}