{
	"contracts/ExampleMappingStruct.sol": {
		"Wallet": {
			"abi": [
				{
					"inputs": [
						{
							"internalType": "address",
							"name": "",
							"type": "address"
						}
					],
					"name": "balances",
					"outputs": [
						{
							"internalType": "uint256",
							"name": "totalBalance",
							"type": "uint256"
						},
						{
							"internalType": "uint256",
							"name": "numDeposit",
							"type": "uint256"
						},
						{
							"internalType": "uint256",
							"name": "numWithdrawals",
							"type": "uint256"
						}
					],
					"stateMutability": "view",
					"type": "function"
				},
				{
					"inputs": [],
					"name": "depositMoney",
					"outputs": [],
					"stateMutability": "payable",
					"type": "function"
				},
				{
					"inputs": [
						{
							"internalType": "address",
							"name": "_from",
							"type": "address"
						},
						{
							"internalType": "uint256",
							"name": "_numDeposits",
							"type": "uint256"
						}
					],
					"name": "getDepositNum",
					"outputs": [
						{
							"components": [
								{
									"internalType": "uint256",
									"name": "amount",
									"type": "uint256"
								},
								{
									"internalType": "uint256",
									"name": "timestamp",
									"type": "uint256"
								}
							],
							"internalType": "struct Wallet.Transaction",
							"name": "",
							"type": "tuple"
						}
					],
					"stateMutability": "view",
					"type": "function"
				},
				{
					"inputs": [
						{
							"internalType": "address payable",
							"name": "_to",
							"type": "address"
						},
						{
							"internalType": "uint256",
							"name": "_amount",
							"type": "uint256"
						}
					],
					"name": "withdrawMoney",
					"outputs": [],
					"stateMutability": "nonpayable",
					"type": "function"
				}
			],
			"devdoc": {
				"kind": "dev",
				"methods": {},
				"version": 1
			},
			"evm": {
				"assembly": "    /* \"contracts/ExampleMappingStruct.sol\":60:1324  contract Wallet{... */\n  mstore(0x40, 0x80)\n  callvalue\n  dup1\n  iszero\n  tag_1\n  jumpi\n  0x00\n  dup1\n  revert\ntag_1:\n  pop\n  dataSize(sub_0)\n  dup1\n  dataOffset(sub_0)\n  0x00\n  codecopy\n  0x00\n  return\nstop\n\nsub_0: assembly {\n        /* \"contracts/ExampleMappingStruct.sol\":60:1324  contract Wallet{... */\n      mstore(0x40, 0x80)\n      jumpi(tag_1, lt(calldatasize, 0x04))\n      shr(0xe0, calldataload(0x00))\n      dup1\n      0x16c05aa2\n      eq\n      tag_2\n      jumpi\n      dup1\n      0x27e235e3\n      eq\n      tag_3\n      jumpi\n      dup1\n      0x55e14fe6\n      eq\n      tag_4\n      jumpi\n      dup1\n      0xf274c897\n      eq\n      tag_5\n      jumpi\n    tag_1:\n      0x00\n      dup1\n      revert\n        /* \"contracts/ExampleMappingStruct.sol\":601:918  function depositMoney () public  payable {... */\n    tag_2:\n      tag_6\n      tag_7\n      jump\t// in\n    tag_6:\n      stop\n        /* \"contracts/ExampleMappingStruct.sol\":382:425  mapping(address => Balance) public balances */\n    tag_3:\n      callvalue\n      dup1\n      iszero\n      tag_8\n      jumpi\n      0x00\n      dup1\n      revert\n    tag_8:\n      pop\n      tag_9\n      0x04\n      dup1\n      calldatasize\n      sub\n      dup2\n      add\n      swap1\n      tag_10\n      swap2\n      swap1\n      tag_11\n      jump\t// in\n    tag_10:\n      tag_12\n      jump\t// in\n    tag_9:\n      mload(0x40)\n      tag_13\n      swap4\n      swap3\n      swap2\n      swap1\n      tag_14\n      jump\t// in\n    tag_13:\n      mload(0x40)\n      dup1\n      swap2\n      sub\n      swap1\n      return\n        /* \"contracts/ExampleMappingStruct.sol\":434:593  function getDepositNum (address _from, uint _numDeposits) public view returns(Transaction memory){... */\n    tag_4:\n      callvalue\n      dup1\n      iszero\n      tag_15\n      jumpi\n      0x00\n      dup1\n      revert\n    tag_15:\n      pop\n      tag_16\n      0x04\n      dup1\n      calldatasize\n      sub\n      dup2\n      add\n      swap1\n      tag_17\n      swap2\n      swap1\n      tag_18\n      jump\t// in\n    tag_17:\n      tag_19\n      jump\t// in\n    tag_16:\n      mload(0x40)\n      tag_20\n      swap2\n      swap1\n      tag_21\n      jump\t// in\n    tag_20:\n      mload(0x40)\n      dup1\n      swap2\n      sub\n      swap1\n      return\n        /* \"contracts/ExampleMappingStruct.sol\":926:1321  function withdrawMoney (address payable  _to, uint _amount) public{... */\n    tag_5:\n      callvalue\n      dup1\n      iszero\n      tag_22\n      jumpi\n      0x00\n      dup1\n      revert\n    tag_22:\n      pop\n      tag_23\n      0x04\n      dup1\n      calldatasize\n      sub\n      dup2\n      add\n      swap1\n      tag_24\n      swap2\n      swap1\n      tag_25\n      jump\t// in\n    tag_24:\n      tag_26\n      jump\t// in\n    tag_23:\n      stop\n        /* \"contracts/ExampleMappingStruct.sol\":601:918  function depositMoney () public  payable {... */\n    tag_7:\n        /* \"contracts/ExampleMappingStruct.sol\":691:700  msg.value */\n      callvalue\n        /* \"contracts/ExampleMappingStruct.sol\":653:661  balances */\n      0x00\n        /* \"contracts/ExampleMappingStruct.sol\":653:673  balances[msg.sender] */\n      dup1\n        /* \"contracts/ExampleMappingStruct.sol\":662:672  msg.sender */\n      caller\n        /* \"contracts/ExampleMappingStruct.sol\":653:673  balances[msg.sender] */\n      0xffffffffffffffffffffffffffffffffffffffff\n      and\n      0xffffffffffffffffffffffffffffffffffffffff\n      and\n      dup2\n      mstore\n      0x20\n      add\n      swap1\n      dup2\n      mstore\n      0x20\n      add\n      0x00\n      keccak256\n        /* \"contracts/ExampleMappingStruct.sol\":653:686  balances[msg.sender].totalBalance */\n      0x00\n      add\n      0x00\n        /* \"contracts/ExampleMappingStruct.sol\":653:700  balances[msg.sender].totalBalance  += msg.value */\n      dup3\n      dup3\n      sload\n      tag_28\n      swap2\n      swap1\n      tag_29\n      jump\t// in\n    tag_28:\n      swap3\n      pop\n      pop\n      dup2\n      swap1\n      sstore\n      pop\n        /* \"contracts/ExampleMappingStruct.sol\":711:737  Transaction memory deposit */\n      0x00\n        /* \"contracts/ExampleMappingStruct.sol\":740:779  Transaction(msg.value, block.timestamp) */\n      mload(0x40)\n      dup1\n      0x40\n      add\n      0x40\n      mstore\n      dup1\n        /* \"contracts/ExampleMappingStruct.sol\":752:761  msg.value */\n      callvalue\n        /* \"contracts/ExampleMappingStruct.sol\":740:779  Transaction(msg.value, block.timestamp) */\n      dup2\n      mstore\n      0x20\n      add\n        /* \"contracts/ExampleMappingStruct.sol\":763:778  block.timestamp */\n      timestamp\n        /* \"contracts/ExampleMappingStruct.sol\":740:779  Transaction(msg.value, block.timestamp) */\n      dup2\n      mstore\n      pop\n        /* \"contracts/ExampleMappingStruct.sol\":711:779  Transaction memory deposit = Transaction(msg.value, block.timestamp) */\n      swap1\n      pop\n        /* \"contracts/ExampleMappingStruct.sol\":857:864  deposit */\n      dup1\n        /* \"contracts/ExampleMappingStruct.sol\":792:800  balances */\n      0x00\n        /* \"contracts/ExampleMappingStruct.sol\":792:812  balances[msg.sender] */\n      dup1\n        /* \"contracts/ExampleMappingStruct.sol\":801:811  msg.sender */\n      caller\n        /* \"contracts/ExampleMappingStruct.sol\":792:812  balances[msg.sender] */\n      0xffffffffffffffffffffffffffffffffffffffff\n      and\n      0xffffffffffffffffffffffffffffffffffffffff\n      and\n      dup2\n      mstore\n      0x20\n      add\n      swap1\n      dup2\n      mstore\n      0x20\n      add\n      0x00\n      keccak256\n        /* \"contracts/ExampleMappingStruct.sol\":792:821  balances[msg.sender].deposits */\n      0x02\n      add\n        /* \"contracts/ExampleMappingStruct.sol\":792:854  balances[msg.sender].deposits[balances[msg.sender].numDeposit] */\n      0x00\n        /* \"contracts/ExampleMappingStruct.sol\":822:830  balances */\n      dup1\n        /* \"contracts/ExampleMappingStruct.sol\":822:842  balances[msg.sender] */\n      0x00\n        /* \"contracts/ExampleMappingStruct.sol\":831:841  msg.sender */\n      caller\n        /* \"contracts/ExampleMappingStruct.sol\":822:842  balances[msg.sender] */\n      0xffffffffffffffffffffffffffffffffffffffff\n      and\n      0xffffffffffffffffffffffffffffffffffffffff\n      and\n      dup2\n      mstore\n      0x20\n      add\n      swap1\n      dup2\n      mstore\n      0x20\n      add\n      0x00\n      keccak256\n        /* \"contracts/ExampleMappingStruct.sol\":822:853  balances[msg.sender].numDeposit */\n      0x01\n      add\n      sload\n        /* \"contracts/ExampleMappingStruct.sol\":792:854  balances[msg.sender].deposits[balances[msg.sender].numDeposit] */\n      dup2\n      mstore\n      0x20\n      add\n      swap1\n      dup2\n      mstore\n      0x20\n      add\n      0x00\n      keccak256\n        /* \"contracts/ExampleMappingStruct.sol\":792:864  balances[msg.sender].deposits[balances[msg.sender].numDeposit] = deposit */\n      0x00\n      dup3\n      add\n      mload\n      dup2\n      0x00\n      add\n      sstore\n      0x20\n      dup3\n      add\n      mload\n      dup2\n      0x01\n      add\n      sstore\n      swap1\n      pop\n      pop\n        /* \"contracts/ExampleMappingStruct.sol\":875:883  balances */\n      0x00\n        /* \"contracts/ExampleMappingStruct.sol\":875:895  balances[msg.sender] */\n      dup1\n        /* \"contracts/ExampleMappingStruct.sol\":884:894  msg.sender */\n      caller\n        /* \"contracts/ExampleMappingStruct.sol\":875:895  balances[msg.sender] */\n      0xffffffffffffffffffffffffffffffffffffffff\n      and\n      0xffffffffffffffffffffffffffffffffffffffff\n      and\n      dup2\n      mstore\n      0x20\n      add\n      swap1\n      dup2\n      mstore\n      0x20\n      add\n      0x00\n      keccak256\n        /* \"contracts/ExampleMappingStruct.sol\":875:906  balances[msg.sender].numDeposit */\n      0x01\n      add\n      0x00\n        /* \"contracts/ExampleMappingStruct.sol\":875:908  balances[msg.sender].numDeposit++ */\n      dup2\n      sload\n      dup1\n      swap3\n      swap2\n      swap1\n      tag_30\n      swap1\n      tag_31\n      jump\t// in\n    tag_30:\n      swap2\n      swap1\n      pop\n      sstore\n      pop\n        /* \"contracts/ExampleMappingStruct.sol\":642:918  {... */\n      pop\n        /* \"contracts/ExampleMappingStruct.sol\":601:918  function depositMoney () public  payable {... */\n      jump\t// out\n        /* \"contracts/ExampleMappingStruct.sol\":382:425  mapping(address => Balance) public balances */\n    tag_12:\n      mstore(0x20, 0x00)\n      dup1\n      0x00\n      mstore\n      keccak256(0x00, 0x40)\n      0x00\n      swap2\n      pop\n      swap1\n      pop\n      dup1\n      0x00\n      add\n      sload\n      swap1\n      dup1\n      0x01\n      add\n      sload\n      swap1\n      dup1\n      0x03\n      add\n      sload\n      swap1\n      pop\n      dup4\n      jump\t// out\n        /* \"contracts/ExampleMappingStruct.sol\":434:593  function getDepositNum (address _from, uint _numDeposits) public view returns(Transaction memory){... */\n    tag_19:\n        /* \"contracts/ExampleMappingStruct.sol\":512:530  Transaction memory */\n      tag_32\n      tag_33\n      jump\t// in\n    tag_32:\n        /* \"contracts/ExampleMappingStruct.sol\":547:555  balances */\n      0x00\n        /* \"contracts/ExampleMappingStruct.sol\":547:562  balances[_from] */\n      dup1\n        /* \"contracts/ExampleMappingStruct.sol\":556:561  _from */\n      dup5\n        /* \"contracts/ExampleMappingStruct.sol\":547:562  balances[_from] */\n      0xffffffffffffffffffffffffffffffffffffffff\n      and\n      0xffffffffffffffffffffffffffffffffffffffff\n      and\n      dup2\n      mstore\n      0x20\n      add\n      swap1\n      dup2\n      mstore\n      0x20\n      add\n      0x00\n      keccak256\n        /* \"contracts/ExampleMappingStruct.sol\":547:571  balances[_from].deposits */\n      0x02\n      add\n        /* \"contracts/ExampleMappingStruct.sol\":547:585  balances[_from].deposits[_numDeposits] */\n      0x00\n        /* \"contracts/ExampleMappingStruct.sol\":572:584  _numDeposits */\n      dup4\n        /* \"contracts/ExampleMappingStruct.sol\":547:585  balances[_from].deposits[_numDeposits] */\n      dup2\n      mstore\n      0x20\n      add\n      swap1\n      dup2\n      mstore\n      0x20\n      add\n      0x00\n      keccak256\n        /* \"contracts/ExampleMappingStruct.sol\":539:585  return  balances[_from].deposits[_numDeposits] */\n      mload(0x40)\n      dup1\n      0x40\n      add\n      0x40\n      mstore\n      swap1\n      dup2\n      0x00\n      dup3\n      add\n      sload\n      dup2\n      mstore\n      0x20\n      add\n      0x01\n      dup3\n      add\n      sload\n      dup2\n      mstore\n      pop\n      pop\n      swap1\n      pop\n        /* \"contracts/ExampleMappingStruct.sol\":434:593  function getDepositNum (address _from, uint _numDeposits) public view returns(Transaction memory){... */\n      swap3\n      swap2\n      pop\n      pop\n      jump\t// out\n        /* \"contracts/ExampleMappingStruct.sol\":926:1321  function withdrawMoney (address payable  _to, uint _amount) public{... */\n    tag_26:\n        /* \"contracts/ExampleMappingStruct.sol\":1041:1048  _amount */\n      dup1\n        /* \"contracts/ExampleMappingStruct.sol\":1004:1012  balances */\n      0x00\n        /* \"contracts/ExampleMappingStruct.sol\":1004:1024  balances[msg.sender] */\n      dup1\n        /* \"contracts/ExampleMappingStruct.sol\":1013:1023  msg.sender */\n      caller\n        /* \"contracts/ExampleMappingStruct.sol\":1004:1024  balances[msg.sender] */\n      0xffffffffffffffffffffffffffffffffffffffff\n      and\n      0xffffffffffffffffffffffffffffffffffffffff\n      and\n      dup2\n      mstore\n      0x20\n      add\n      swap1\n      dup2\n      mstore\n      0x20\n      add\n      0x00\n      keccak256\n        /* \"contracts/ExampleMappingStruct.sol\":1004:1037  balances[msg.sender].totalBalance */\n      0x00\n      add\n      0x00\n        /* \"contracts/ExampleMappingStruct.sol\":1004:1048  balances[msg.sender].totalBalance -= _amount */\n      dup3\n      dup3\n      sload\n      tag_36\n      swap2\n      swap1\n      tag_37\n      jump\t// in\n    tag_36:\n      swap3\n      pop\n      pop\n      dup2\n      swap1\n      sstore\n      pop\n        /* \"contracts/ExampleMappingStruct.sol\":1062:1091  Transaction memory withdrawal */\n      0x00\n        /* \"contracts/ExampleMappingStruct.sol\":1094:1131  Transaction(_amount, block.timestamp) */\n      mload(0x40)\n      dup1\n      0x40\n      add\n      0x40\n      mstore\n      dup1\n        /* \"contracts/ExampleMappingStruct.sol\":1106:1113  _amount */\n      dup4\n        /* \"contracts/ExampleMappingStruct.sol\":1094:1131  Transaction(_amount, block.timestamp) */\n      dup2\n      mstore\n      0x20\n      add\n        /* \"contracts/ExampleMappingStruct.sol\":1115:1130  block.timestamp */\n      timestamp\n        /* \"contracts/ExampleMappingStruct.sol\":1094:1131  Transaction(_amount, block.timestamp) */\n      dup2\n      mstore\n      pop\n        /* \"contracts/ExampleMappingStruct.sol\":1062:1131  Transaction memory withdrawal = Transaction(_amount, block.timestamp) */\n      swap1\n      pop\n        /* \"contracts/ExampleMappingStruct.sol\":1217:1227  withdrawal */\n      dup1\n        /* \"contracts/ExampleMappingStruct.sol\":1145:1153  balances */\n      0x00\n        /* \"contracts/ExampleMappingStruct.sol\":1145:1165  balances[msg.sender] */\n      dup1\n        /* \"contracts/ExampleMappingStruct.sol\":1154:1164  msg.sender */\n      caller\n        /* \"contracts/ExampleMappingStruct.sol\":1145:1165  balances[msg.sender] */\n      0xffffffffffffffffffffffffffffffffffffffff\n      and\n      0xffffffffffffffffffffffffffffffffffffffff\n      and\n      dup2\n      mstore\n      0x20\n      add\n      swap1\n      dup2\n      mstore\n      0x20\n      add\n      0x00\n      keccak256\n        /* \"contracts/ExampleMappingStruct.sol\":1145:1177  balances[msg.sender].withdrawals */\n      0x04\n      add\n        /* \"contracts/ExampleMappingStruct.sol\":1145:1214  balances[msg.sender].withdrawals[balances[msg.sender].numWithdrawals] */\n      0x00\n        /* \"contracts/ExampleMappingStruct.sol\":1178:1186  balances */\n      dup1\n        /* \"contracts/ExampleMappingStruct.sol\":1178:1198  balances[msg.sender] */\n      0x00\n        /* \"contracts/ExampleMappingStruct.sol\":1187:1197  msg.sender */\n      caller\n        /* \"contracts/ExampleMappingStruct.sol\":1178:1198  balances[msg.sender] */\n      0xffffffffffffffffffffffffffffffffffffffff\n      and\n      0xffffffffffffffffffffffffffffffffffffffff\n      and\n      dup2\n      mstore\n      0x20\n      add\n      swap1\n      dup2\n      mstore\n      0x20\n      add\n      0x00\n      keccak256\n        /* \"contracts/ExampleMappingStruct.sol\":1178:1213  balances[msg.sender].numWithdrawals */\n      0x03\n      add\n      sload\n        /* \"contracts/ExampleMappingStruct.sol\":1145:1214  balances[msg.sender].withdrawals[balances[msg.sender].numWithdrawals] */\n      dup2\n      mstore\n      0x20\n      add\n      swap1\n      dup2\n      mstore\n      0x20\n      add\n      0x00\n      keccak256\n        /* \"contracts/ExampleMappingStruct.sol\":1145:1227  balances[msg.sender].withdrawals[balances[msg.sender].numWithdrawals] = withdrawal */\n      0x00\n      dup3\n      add\n      mload\n      dup2\n      0x00\n      add\n      sstore\n      0x20\n      dup3\n      add\n      mload\n      dup2\n      0x01\n      add\n      sstore\n      swap1\n      pop\n      pop\n        /* \"contracts/ExampleMappingStruct.sol\":1241:1249  balances */\n      0x00\n        /* \"contracts/ExampleMappingStruct.sol\":1241:1261  balances[msg.sender] */\n      dup1\n        /* \"contracts/ExampleMappingStruct.sol\":1250:1260  msg.sender */\n      caller\n        /* \"contracts/ExampleMappingStruct.sol\":1241:1261  balances[msg.sender] */\n      0xffffffffffffffffffffffffffffffffffffffff\n      and\n      0xffffffffffffffffffffffffffffffffffffffff\n      and\n      dup2\n      mstore\n      0x20\n      add\n      swap1\n      dup2\n      mstore\n      0x20\n      add\n      0x00\n      keccak256\n        /* \"contracts/ExampleMappingStruct.sol\":1241:1276  balances[msg.sender].numWithdrawals */\n      0x03\n      add\n      0x00\n        /* \"contracts/ExampleMappingStruct.sol\":1241:1278  balances[msg.sender].numWithdrawals++ */\n      dup2\n      sload\n      dup1\n      swap3\n      swap2\n      swap1\n      tag_38\n      swap1\n      tag_31\n      jump\t// in\n    tag_38:\n      swap2\n      swap1\n      pop\n      sstore\n      pop\n        /* \"contracts/ExampleMappingStruct.sol\":1292:1295  _to */\n      dup3\n        /* \"contracts/ExampleMappingStruct.sol\":1292:1304  _to.transfer */\n      0xffffffffffffffffffffffffffffffffffffffff\n      and\n        /* \"contracts/ExampleMappingStruct.sol\":1292:1313  _to.transfer(_amount) */\n      0x08fc\n        /* \"contracts/ExampleMappingStruct.sol\":1305:1312  _amount */\n      dup4\n        /* \"contracts/ExampleMappingStruct.sol\":1292:1313  _to.transfer(_amount) */\n      swap1\n      dup2\n      iszero\n      mul\n      swap1\n      mload(0x40)\n      0x00\n      mload(0x40)\n      dup1\n      dup4\n      sub\n      dup2\n      dup6\n      dup9\n      dup9\n      call\n      swap4\n      pop\n      pop\n      pop\n      pop\n      iszero\n      dup1\n      iszero\n      tag_40\n      jumpi\n      returndatasize\n      0x00\n      dup1\n      returndatacopy\n      revert(0x00, returndatasize)\n    tag_40:\n      pop\n        /* \"contracts/ExampleMappingStruct.sol\":992:1321  {... */\n      pop\n        /* \"contracts/ExampleMappingStruct.sol\":926:1321  function withdrawMoney (address payable  _to, uint _amount) public{... */\n      pop\n      pop\n      jump\t// out\n    tag_33:\n      mload(0x40)\n      dup1\n      0x40\n      add\n      0x40\n      mstore\n      dup1\n      0x00\n      dup2\n      mstore\n      0x20\n      add\n      0x00\n      dup2\n      mstore\n      pop\n      swap1\n      jump\t// out\n        /* \"#utility.yul\":88:205   */\n    tag_42:\n        /* \"#utility.yul\":197:198   */\n      0x00\n        /* \"#utility.yul\":194:195   */\n      dup1\n        /* \"#utility.yul\":187:199   */\n      revert\n        /* \"#utility.yul\":334:460   */\n    tag_44:\n        /* \"#utility.yul\":371:378   */\n      0x00\n        /* \"#utility.yul\":411:453   */\n      0xffffffffffffffffffffffffffffffffffffffff\n        /* \"#utility.yul\":404:409   */\n      dup3\n        /* \"#utility.yul\":400:454   */\n      and\n        /* \"#utility.yul\":389:454   */\n      swap1\n      pop\n        /* \"#utility.yul\":334:460   */\n      swap2\n      swap1\n      pop\n      jump\t// out\n        /* \"#utility.yul\":466:562   */\n    tag_45:\n        /* \"#utility.yul\":503:510   */\n      0x00\n        /* \"#utility.yul\":532:556   */\n      tag_64\n        /* \"#utility.yul\":550:555   */\n      dup3\n        /* \"#utility.yul\":532:556   */\n      tag_44\n      jump\t// in\n    tag_64:\n        /* \"#utility.yul\":521:556   */\n      swap1\n      pop\n        /* \"#utility.yul\":466:562   */\n      swap2\n      swap1\n      pop\n      jump\t// out\n        /* \"#utility.yul\":568:690   */\n    tag_46:\n        /* \"#utility.yul\":641:665   */\n      tag_66\n        /* \"#utility.yul\":659:664   */\n      dup2\n        /* \"#utility.yul\":641:665   */\n      tag_45\n      jump\t// in\n    tag_66:\n        /* \"#utility.yul\":634:639   */\n      dup2\n        /* \"#utility.yul\":631:666   */\n      eq\n        /* \"#utility.yul\":621:684   */\n      tag_67\n      jumpi\n        /* \"#utility.yul\":680:681   */\n      0x00\n        /* \"#utility.yul\":677:678   */\n      dup1\n        /* \"#utility.yul\":670:682   */\n      revert\n        /* \"#utility.yul\":621:684   */\n    tag_67:\n        /* \"#utility.yul\":568:690   */\n      pop\n      jump\t// out\n        /* \"#utility.yul\":696:835   */\n    tag_47:\n        /* \"#utility.yul\":742:747   */\n      0x00\n        /* \"#utility.yul\":780:786   */\n      dup2\n        /* \"#utility.yul\":767:787   */\n      calldataload\n        /* \"#utility.yul\":758:787   */\n      swap1\n      pop\n        /* \"#utility.yul\":796:829   */\n      tag_69\n        /* \"#utility.yul\":823:828   */\n      dup2\n        /* \"#utility.yul\":796:829   */\n      tag_46\n      jump\t// in\n    tag_69:\n        /* \"#utility.yul\":696:835   */\n      swap3\n      swap2\n      pop\n      pop\n      jump\t// out\n        /* \"#utility.yul\":841:1170   */\n    tag_11:\n        /* \"#utility.yul\":900:906   */\n      0x00\n        /* \"#utility.yul\":949:951   */\n      0x20\n        /* \"#utility.yul\":937:946   */\n      dup3\n        /* \"#utility.yul\":928:935   */\n      dup5\n        /* \"#utility.yul\":924:947   */\n      sub\n        /* \"#utility.yul\":920:952   */\n      slt\n        /* \"#utility.yul\":917:1036   */\n      iszero\n      tag_71\n      jumpi\n        /* \"#utility.yul\":955:1034   */\n      tag_72\n      tag_42\n      jump\t// in\n    tag_72:\n        /* \"#utility.yul\":917:1036   */\n    tag_71:\n        /* \"#utility.yul\":1075:1076   */\n      0x00\n        /* \"#utility.yul\":1100:1153   */\n      tag_73\n        /* \"#utility.yul\":1145:1152   */\n      dup5\n        /* \"#utility.yul\":1136:1142   */\n      dup3\n        /* \"#utility.yul\":1125:1134   */\n      dup6\n        /* \"#utility.yul\":1121:1143   */\n      add\n        /* \"#utility.yul\":1100:1153   */\n      tag_47\n      jump\t// in\n    tag_73:\n        /* \"#utility.yul\":1090:1153   */\n      swap2\n      pop\n        /* \"#utility.yul\":1046:1163   */\n      pop\n        /* \"#utility.yul\":841:1170   */\n      swap3\n      swap2\n      pop\n      pop\n      jump\t// out\n        /* \"#utility.yul\":1176:1253   */\n    tag_48:\n        /* \"#utility.yul\":1213:1220   */\n      0x00\n        /* \"#utility.yul\":1242:1247   */\n      dup2\n        /* \"#utility.yul\":1231:1247   */\n      swap1\n      pop\n        /* \"#utility.yul\":1176:1253   */\n      swap2\n      swap1\n      pop\n      jump\t// out\n        /* \"#utility.yul\":1259:1377   */\n    tag_49:\n        /* \"#utility.yul\":1346:1370   */\n      tag_76\n        /* \"#utility.yul\":1364:1369   */\n      dup2\n        /* \"#utility.yul\":1346:1370   */\n      tag_48\n      jump\t// in\n    tag_76:\n        /* \"#utility.yul\":1341:1344   */\n      dup3\n        /* \"#utility.yul\":1334:1371   */\n      mstore\n        /* \"#utility.yul\":1259:1377   */\n      pop\n      pop\n      jump\t// out\n        /* \"#utility.yul\":1383:1825   */\n    tag_14:\n        /* \"#utility.yul\":1532:1536   */\n      0x00\n        /* \"#utility.yul\":1570:1572   */\n      0x60\n        /* \"#utility.yul\":1559:1568   */\n      dup3\n        /* \"#utility.yul\":1555:1573   */\n      add\n        /* \"#utility.yul\":1547:1573   */\n      swap1\n      pop\n        /* \"#utility.yul\":1583:1654   */\n      tag_78\n        /* \"#utility.yul\":1651:1652   */\n      0x00\n        /* \"#utility.yul\":1640:1649   */\n      dup4\n        /* \"#utility.yul\":1636:1653   */\n      add\n        /* \"#utility.yul\":1627:1633   */\n      dup7\n        /* \"#utility.yul\":1583:1654   */\n      tag_49\n      jump\t// in\n    tag_78:\n        /* \"#utility.yul\":1664:1736   */\n      tag_79\n        /* \"#utility.yul\":1732:1734   */\n      0x20\n        /* \"#utility.yul\":1721:1730   */\n      dup4\n        /* \"#utility.yul\":1717:1735   */\n      add\n        /* \"#utility.yul\":1708:1714   */\n      dup6\n        /* \"#utility.yul\":1664:1736   */\n      tag_49\n      jump\t// in\n    tag_79:\n        /* \"#utility.yul\":1746:1818   */\n      tag_80\n        /* \"#utility.yul\":1814:1816   */\n      0x40\n        /* \"#utility.yul\":1803:1812   */\n      dup4\n        /* \"#utility.yul\":1799:1817   */\n      add\n        /* \"#utility.yul\":1790:1796   */\n      dup5\n        /* \"#utility.yul\":1746:1818   */\n      tag_49\n      jump\t// in\n    tag_80:\n        /* \"#utility.yul\":1383:1825   */\n      swap5\n      swap4\n      pop\n      pop\n      pop\n      pop\n      jump\t// out\n        /* \"#utility.yul\":1831:1953   */\n    tag_50:\n        /* \"#utility.yul\":1904:1928   */\n      tag_82\n        /* \"#utility.yul\":1922:1927   */\n      dup2\n        /* \"#utility.yul\":1904:1928   */\n      tag_48\n      jump\t// in\n    tag_82:\n        /* \"#utility.yul\":1897:1902   */\n      dup2\n        /* \"#utility.yul\":1894:1929   */\n      eq\n        /* \"#utility.yul\":1884:1947   */\n      tag_83\n      jumpi\n        /* \"#utility.yul\":1943:1944   */\n      0x00\n        /* \"#utility.yul\":1940:1941   */\n      dup1\n        /* \"#utility.yul\":1933:1945   */\n      revert\n        /* \"#utility.yul\":1884:1947   */\n    tag_83:\n        /* \"#utility.yul\":1831:1953   */\n      pop\n      jump\t// out\n        /* \"#utility.yul\":1959:2098   */\n    tag_51:\n        /* \"#utility.yul\":2005:2010   */\n      0x00\n        /* \"#utility.yul\":2043:2049   */\n      dup2\n        /* \"#utility.yul\":2030:2050   */\n      calldataload\n        /* \"#utility.yul\":2021:2050   */\n      swap1\n      pop\n        /* \"#utility.yul\":2059:2092   */\n      tag_85\n        /* \"#utility.yul\":2086:2091   */\n      dup2\n        /* \"#utility.yul\":2059:2092   */\n      tag_50\n      jump\t// in\n    tag_85:\n        /* \"#utility.yul\":1959:2098   */\n      swap3\n      swap2\n      pop\n      pop\n      jump\t// out\n        /* \"#utility.yul\":2104:2578   */\n    tag_18:\n        /* \"#utility.yul\":2172:2178   */\n      0x00\n        /* \"#utility.yul\":2180:2186   */\n      dup1\n        /* \"#utility.yul\":2229:2231   */\n      0x40\n        /* \"#utility.yul\":2217:2226   */\n      dup4\n        /* \"#utility.yul\":2208:2215   */\n      dup6\n        /* \"#utility.yul\":2204:2227   */\n      sub\n        /* \"#utility.yul\":2200:2232   */\n      slt\n        /* \"#utility.yul\":2197:2316   */\n      iszero\n      tag_87\n      jumpi\n        /* \"#utility.yul\":2235:2314   */\n      tag_88\n      tag_42\n      jump\t// in\n    tag_88:\n        /* \"#utility.yul\":2197:2316   */\n    tag_87:\n        /* \"#utility.yul\":2355:2356   */\n      0x00\n        /* \"#utility.yul\":2380:2433   */\n      tag_89\n        /* \"#utility.yul\":2425:2432   */\n      dup6\n        /* \"#utility.yul\":2416:2422   */\n      dup3\n        /* \"#utility.yul\":2405:2414   */\n      dup7\n        /* \"#utility.yul\":2401:2423   */\n      add\n        /* \"#utility.yul\":2380:2433   */\n      tag_47\n      jump\t// in\n    tag_89:\n        /* \"#utility.yul\":2370:2433   */\n      swap3\n      pop\n        /* \"#utility.yul\":2326:2443   */\n      pop\n        /* \"#utility.yul\":2482:2484   */\n      0x20\n        /* \"#utility.yul\":2508:2561   */\n      tag_90\n        /* \"#utility.yul\":2553:2560   */\n      dup6\n        /* \"#utility.yul\":2544:2550   */\n      dup3\n        /* \"#utility.yul\":2533:2542   */\n      dup7\n        /* \"#utility.yul\":2529:2551   */\n      add\n        /* \"#utility.yul\":2508:2561   */\n      tag_51\n      jump\t// in\n    tag_90:\n        /* \"#utility.yul\":2498:2561   */\n      swap2\n      pop\n        /* \"#utility.yul\":2453:2571   */\n      pop\n        /* \"#utility.yul\":2104:2578   */\n      swap3\n      pop\n      swap3\n      swap1\n      pop\n      jump\t// out\n        /* \"#utility.yul\":2584:2692   */\n    tag_52:\n        /* \"#utility.yul\":2661:2685   */\n      tag_92\n        /* \"#utility.yul\":2679:2684   */\n      dup2\n        /* \"#utility.yul\":2661:2685   */\n      tag_48\n      jump\t// in\n    tag_92:\n        /* \"#utility.yul\":2656:2659   */\n      dup3\n        /* \"#utility.yul\":2649:2686   */\n      mstore\n        /* \"#utility.yul\":2584:2692   */\n      pop\n      pop\n      jump\t// out\n        /* \"#utility.yul\":2760:3276   */\n    tag_53:\n        /* \"#utility.yul\":2909:2913   */\n      0x40\n        /* \"#utility.yul\":2904:2907   */\n      dup3\n        /* \"#utility.yul\":2900:2914   */\n      add\n        /* \"#utility.yul\":2998:3002   */\n      0x00\n        /* \"#utility.yul\":2991:2996   */\n      dup3\n        /* \"#utility.yul\":2987:3003   */\n      add\n        /* \"#utility.yul\":2981:3004   */\n      mload\n        /* \"#utility.yul\":3017:3080   */\n      tag_94\n        /* \"#utility.yul\":3074:3078   */\n      0x00\n        /* \"#utility.yul\":3069:3072   */\n      dup6\n        /* \"#utility.yul\":3065:3079   */\n      add\n        /* \"#utility.yul\":3051:3063   */\n      dup3\n        /* \"#utility.yul\":3017:3080   */\n      tag_52\n      jump\t// in\n    tag_94:\n        /* \"#utility.yul\":2924:3090   */\n      pop\n        /* \"#utility.yul\":3177:3181   */\n      0x20\n        /* \"#utility.yul\":3170:3175   */\n      dup3\n        /* \"#utility.yul\":3166:3182   */\n      add\n        /* \"#utility.yul\":3160:3183   */\n      mload\n        /* \"#utility.yul\":3196:3259   */\n      tag_95\n        /* \"#utility.yul\":3253:3257   */\n      0x20\n        /* \"#utility.yul\":3248:3251   */\n      dup6\n        /* \"#utility.yul\":3244:3258   */\n      add\n        /* \"#utility.yul\":3230:3242   */\n      dup3\n        /* \"#utility.yul\":3196:3259   */\n      tag_52\n      jump\t// in\n    tag_95:\n        /* \"#utility.yul\":3100:3269   */\n      pop\n        /* \"#utility.yul\":2878:3276   */\n      pop\n        /* \"#utility.yul\":2760:3276   */\n      pop\n      pop\n      jump\t// out\n        /* \"#utility.yul\":3282:3608   */\n    tag_21:\n        /* \"#utility.yul\":3427:3431   */\n      0x00\n        /* \"#utility.yul\":3465:3467   */\n      0x40\n        /* \"#utility.yul\":3454:3463   */\n      dup3\n        /* \"#utility.yul\":3450:3468   */\n      add\n        /* \"#utility.yul\":3442:3468   */\n      swap1\n      pop\n        /* \"#utility.yul\":3478:3601   */\n      tag_97\n        /* \"#utility.yul\":3598:3599   */\n      0x00\n        /* \"#utility.yul\":3587:3596   */\n      dup4\n        /* \"#utility.yul\":3583:3600   */\n      add\n        /* \"#utility.yul\":3574:3580   */\n      dup5\n        /* \"#utility.yul\":3478:3601   */\n      tag_53\n      jump\t// in\n    tag_97:\n        /* \"#utility.yul\":3282:3608   */\n      swap3\n      swap2\n      pop\n      pop\n      jump\t// out\n        /* \"#utility.yul\":3614:3718   */\n    tag_54:\n        /* \"#utility.yul\":3659:3666   */\n      0x00\n        /* \"#utility.yul\":3688:3712   */\n      tag_99\n        /* \"#utility.yul\":3706:3711   */\n      dup3\n        /* \"#utility.yul\":3688:3712   */\n      tag_44\n      jump\t// in\n    tag_99:\n        /* \"#utility.yul\":3677:3712   */\n      swap1\n      pop\n        /* \"#utility.yul\":3614:3718   */\n      swap2\n      swap1\n      pop\n      jump\t// out\n        /* \"#utility.yul\":3724:3862   */\n    tag_55:\n        /* \"#utility.yul\":3805:3837   */\n      tag_101\n        /* \"#utility.yul\":3831:3836   */\n      dup2\n        /* \"#utility.yul\":3805:3837   */\n      tag_54\n      jump\t// in\n    tag_101:\n        /* \"#utility.yul\":3798:3803   */\n      dup2\n        /* \"#utility.yul\":3795:3838   */\n      eq\n        /* \"#utility.yul\":3785:3856   */\n      tag_102\n      jumpi\n        /* \"#utility.yul\":3852:3853   */\n      0x00\n        /* \"#utility.yul\":3849:3850   */\n      dup1\n        /* \"#utility.yul\":3842:3854   */\n      revert\n        /* \"#utility.yul\":3785:3856   */\n    tag_102:\n        /* \"#utility.yul\":3724:3862   */\n      pop\n      jump\t// out\n        /* \"#utility.yul\":3868:4023   */\n    tag_56:\n        /* \"#utility.yul\":3922:3927   */\n      0x00\n        /* \"#utility.yul\":3960:3966   */\n      dup2\n        /* \"#utility.yul\":3947:3967   */\n      calldataload\n        /* \"#utility.yul\":3938:3967   */\n      swap1\n      pop\n        /* \"#utility.yul\":3976:4017   */\n      tag_104\n        /* \"#utility.yul\":4011:4016   */\n      dup2\n        /* \"#utility.yul\":3976:4017   */\n      tag_55\n      jump\t// in\n    tag_104:\n        /* \"#utility.yul\":3868:4023   */\n      swap3\n      swap2\n      pop\n      pop\n      jump\t// out\n        /* \"#utility.yul\":4029:4519   */\n    tag_25:\n        /* \"#utility.yul\":4105:4111   */\n      0x00\n        /* \"#utility.yul\":4113:4119   */\n      dup1\n        /* \"#utility.yul\":4162:4164   */\n      0x40\n        /* \"#utility.yul\":4150:4159   */\n      dup4\n        /* \"#utility.yul\":4141:4148   */\n      dup6\n        /* \"#utility.yul\":4137:4160   */\n      sub\n        /* \"#utility.yul\":4133:4165   */\n      slt\n        /* \"#utility.yul\":4130:4249   */\n      iszero\n      tag_106\n      jumpi\n        /* \"#utility.yul\":4168:4247   */\n      tag_107\n      tag_42\n      jump\t// in\n    tag_107:\n        /* \"#utility.yul\":4130:4249   */\n    tag_106:\n        /* \"#utility.yul\":4288:4289   */\n      0x00\n        /* \"#utility.yul\":4313:4374   */\n      tag_108\n        /* \"#utility.yul\":4366:4373   */\n      dup6\n        /* \"#utility.yul\":4357:4363   */\n      dup3\n        /* \"#utility.yul\":4346:4355   */\n      dup7\n        /* \"#utility.yul\":4342:4364   */\n      add\n        /* \"#utility.yul\":4313:4374   */\n      tag_56\n      jump\t// in\n    tag_108:\n        /* \"#utility.yul\":4303:4374   */\n      swap3\n      pop\n        /* \"#utility.yul\":4259:4384   */\n      pop\n        /* \"#utility.yul\":4423:4425   */\n      0x20\n        /* \"#utility.yul\":4449:4502   */\n      tag_109\n        /* \"#utility.yul\":4494:4501   */\n      dup6\n        /* \"#utility.yul\":4485:4491   */\n      dup3\n        /* \"#utility.yul\":4474:4483   */\n      dup7\n        /* \"#utility.yul\":4470:4492   */\n      add\n        /* \"#utility.yul\":4449:4502   */\n      tag_51\n      jump\t// in\n    tag_109:\n        /* \"#utility.yul\":4439:4502   */\n      swap2\n      pop\n        /* \"#utility.yul\":4394:4512   */\n      pop\n        /* \"#utility.yul\":4029:4519   */\n      swap3\n      pop\n      swap3\n      swap1\n      pop\n      jump\t// out\n        /* \"#utility.yul\":4525:4705   */\n    tag_57:\n        /* \"#utility.yul\":4573:4650   */\n      0x4e487b7100000000000000000000000000000000000000000000000000000000\n        /* \"#utility.yul\":4570:4571   */\n      0x00\n        /* \"#utility.yul\":4563:4651   */\n      mstore\n        /* \"#utility.yul\":4670:4674   */\n      0x11\n        /* \"#utility.yul\":4667:4668   */\n      0x04\n        /* \"#utility.yul\":4660:4675   */\n      mstore\n        /* \"#utility.yul\":4694:4698   */\n      0x24\n        /* \"#utility.yul\":4691:4692   */\n      0x00\n        /* \"#utility.yul\":4684:4699   */\n      revert\n        /* \"#utility.yul\":4711:4902   */\n    tag_29:\n        /* \"#utility.yul\":4751:4754   */\n      0x00\n        /* \"#utility.yul\":4770:4790   */\n      tag_112\n        /* \"#utility.yul\":4788:4789   */\n      dup3\n        /* \"#utility.yul\":4770:4790   */\n      tag_48\n      jump\t// in\n    tag_112:\n        /* \"#utility.yul\":4765:4790   */\n      swap2\n      pop\n        /* \"#utility.yul\":4804:4824   */\n      tag_113\n        /* \"#utility.yul\":4822:4823   */\n      dup4\n        /* \"#utility.yul\":4804:4824   */\n      tag_48\n      jump\t// in\n    tag_113:\n        /* \"#utility.yul\":4799:4824   */\n      swap3\n      pop\n        /* \"#utility.yul\":4847:4848   */\n      dup3\n        /* \"#utility.yul\":4844:4845   */\n      dup3\n        /* \"#utility.yul\":4840:4849   */\n      add\n        /* \"#utility.yul\":4833:4849   */\n      swap1\n      pop\n        /* \"#utility.yul\":4868:4871   */\n      dup1\n        /* \"#utility.yul\":4865:4866   */\n      dup3\n        /* \"#utility.yul\":4862:4872   */\n      gt\n        /* \"#utility.yul\":4859:4895   */\n      iszero\n      tag_114\n      jumpi\n        /* \"#utility.yul\":4875:4893   */\n      tag_115\n      tag_57\n      jump\t// in\n    tag_115:\n        /* \"#utility.yul\":4859:4895   */\n    tag_114:\n        /* \"#utility.yul\":4711:4902   */\n      swap3\n      swap2\n      pop\n      pop\n      jump\t// out\n        /* \"#utility.yul\":4908:5141   */\n    tag_31:\n        /* \"#utility.yul\":4947:4950   */\n      0x00\n        /* \"#utility.yul\":4970:4994   */\n      tag_117\n        /* \"#utility.yul\":4988:4993   */\n      dup3\n        /* \"#utility.yul\":4970:4994   */\n      tag_48\n      jump\t// in\n    tag_117:\n        /* \"#utility.yul\":4961:4994   */\n      swap2\n      pop\n        /* \"#utility.yul\":5016:5082   */\n      0xffffffffffffffffffffffffffffffffffffffffffffffffffffffffffffffff\n        /* \"#utility.yul\":5009:5014   */\n      dup3\n        /* \"#utility.yul\":5006:5083   */\n      sub\n        /* \"#utility.yul\":5003:5106   */\n      tag_118\n      jumpi\n        /* \"#utility.yul\":5086:5104   */\n      tag_119\n      tag_57\n      jump\t// in\n    tag_119:\n        /* \"#utility.yul\":5003:5106   */\n    tag_118:\n        /* \"#utility.yul\":5133:5134   */\n      0x01\n        /* \"#utility.yul\":5126:5131   */\n      dup3\n        /* \"#utility.yul\":5122:5135   */\n      add\n        /* \"#utility.yul\":5115:5135   */\n      swap1\n      pop\n        /* \"#utility.yul\":4908:5141   */\n      swap2\n      swap1\n      pop\n      jump\t// out\n        /* \"#utility.yul\":5147:5341   */\n    tag_37:\n        /* \"#utility.yul\":5187:5191   */\n      0x00\n        /* \"#utility.yul\":5207:5227   */\n      tag_121\n        /* \"#utility.yul\":5225:5226   */\n      dup3\n        /* \"#utility.yul\":5207:5227   */\n      tag_48\n      jump\t// in\n    tag_121:\n        /* \"#utility.yul\":5202:5227   */\n      swap2\n      pop\n        /* \"#utility.yul\":5241:5261   */\n      tag_122\n        /* \"#utility.yul\":5259:5260   */\n      dup4\n        /* \"#utility.yul\":5241:5261   */\n      tag_48\n      jump\t// in\n    tag_122:\n        /* \"#utility.yul\":5236:5261   */\n      swap3\n      pop\n        /* \"#utility.yul\":5285:5286   */\n      dup3\n        /* \"#utility.yul\":5282:5283   */\n      dup3\n        /* \"#utility.yul\":5278:5287   */\n      sub\n        /* \"#utility.yul\":5270:5287   */\n      swap1\n      pop\n        /* \"#utility.yul\":5309:5310   */\n      dup2\n        /* \"#utility.yul\":5303:5307   */\n      dup2\n        /* \"#utility.yul\":5300:5311   */\n      gt\n        /* \"#utility.yul\":5297:5334   */\n      iszero\n      tag_123\n      jumpi\n        /* \"#utility.yul\":5314:5332   */\n      tag_124\n      tag_57\n      jump\t// in\n    tag_124:\n        /* \"#utility.yul\":5297:5334   */\n    tag_123:\n        /* \"#utility.yul\":5147:5341   */\n      swap3\n      swap2\n      pop\n      pop\n      jump\t// out\n\n    auxdata: 0xa2646970667358221220e56a2c6472c3cdaf795a92d1662aea190e94f0afa0319f02cf0e342ad5a3c1c964736f6c634300081a0033\n}\n",
				"bytecode": {
					"linkReferences": {},
					"object": "6080604052348015600e575f80fd5b506107d58061001c5f395ff3fe60806040526004361061003e575f3560e01c806316c05aa21461004257806327e235e31461004c57806355e14fe61461008a578063f274c897146100c6575b5f80fd5b61004a6100ee565b005b348015610057575f80fd5b50610072600480360381019061006d9190610517565b610254565b6040516100819392919061055a565b60405180910390f35b348015610095575f80fd5b506100b060048036038101906100ab91906105b9565b610279565b6040516100bd9190610633565b60405180910390f35b3480156100d1575f80fd5b506100ec60048036038101906100e79190610687565b6102f5565b005b345f803373ffffffffffffffffffffffffffffffffffffffff1673ffffffffffffffffffffffffffffffffffffffff1681526020019081526020015f205f015f82825461013b91906106f2565b925050819055505f6040518060400160405280348152602001428152509050805f803373ffffffffffffffffffffffffffffffffffffffff1673ffffffffffffffffffffffffffffffffffffffff1681526020019081526020015f206002015f805f3373ffffffffffffffffffffffffffffffffffffffff1673ffffffffffffffffffffffffffffffffffffffff1681526020019081526020015f206001015481526020019081526020015f205f820151815f0155602082015181600101559050505f803373ffffffffffffffffffffffffffffffffffffffff1673ffffffffffffffffffffffffffffffffffffffff1681526020019081526020015f206001015f81548092919061024c90610725565b919050555050565b5f602052805f5260405f205f91509050805f0154908060010154908060030154905083565b6102816104a1565b5f808473ffffffffffffffffffffffffffffffffffffffff1673ffffffffffffffffffffffffffffffffffffffff1681526020019081526020015f206002015f8381526020019081526020015f206040518060400160405290815f8201548152602001600182015481525050905092915050565b805f803373ffffffffffffffffffffffffffffffffffffffff1673ffffffffffffffffffffffffffffffffffffffff1681526020019081526020015f205f015f828254610342919061076c565b925050819055505f6040518060400160405280838152602001428152509050805f803373ffffffffffffffffffffffffffffffffffffffff1673ffffffffffffffffffffffffffffffffffffffff1681526020019081526020015f206004015f805f3373ffffffffffffffffffffffffffffffffffffffff1673ffffffffffffffffffffffffffffffffffffffff1681526020019081526020015f206003015481526020019081526020015f205f820151815f0155602082015181600101559050505f803373ffffffffffffffffffffffffffffffffffffffff1673ffffffffffffffffffffffffffffffffffffffff1681526020019081526020015f206003015f81548092919061045390610725565b91905055508273ffffffffffffffffffffffffffffffffffffffff166108fc8390811502906040515f60405180830381858888f1935050505015801561049b573d5f803e3d5ffd5b50505050565b60405180604001604052805f81526020015f81525090565b5f80fd5b5f73ffffffffffffffffffffffffffffffffffffffff82169050919050565b5f6104e6826104bd565b9050919050565b6104f6816104dc565b8114610500575f80fd5b50565b5f81359050610511816104ed565b92915050565b5f6020828403121561052c5761052b6104b9565b5b5f61053984828501610503565b91505092915050565b5f819050919050565b61055481610542565b82525050565b5f60608201905061056d5f83018661054b565b61057a602083018561054b565b610587604083018461054b565b949350505050565b61059881610542565b81146105a2575f80fd5b50565b5f813590506105b38161058f565b92915050565b5f80604083850312156105cf576105ce6104b9565b5b5f6105dc85828601610503565b92505060206105ed858286016105a5565b9150509250929050565b61060081610542565b82525050565b604082015f82015161061a5f8501826105f7565b50602082015161062d60208501826105f7565b50505050565b5f6040820190506106465f830184610606565b92915050565b5f610656826104bd565b9050919050565b6106668161064c565b8114610670575f80fd5b50565b5f813590506106818161065d565b92915050565b5f806040838503121561069d5761069c6104b9565b5b5f6106aa85828601610673565b92505060206106bb858286016105a5565b9150509250929050565b7f4e487b71000000000000000000000000000000000000000000000000000000005f52601160045260245ffd5b5f6106fc82610542565b915061070783610542565b925082820190508082111561071f5761071e6106c5565b5b92915050565b5f61072f82610542565b91507fffffffffffffffffffffffffffffffffffffffffffffffffffffffffffffffff8203610761576107606106c5565b5b600182019050919050565b5f61077682610542565b915061078183610542565b9250828203905081811115610799576107986106c5565b5b9291505056fea2646970667358221220e56a2c6472c3cdaf795a92d1662aea190e94f0afa0319f02cf0e342ad5a3c1c964736f6c634300081a0033",
					"opcodes": "PUSH1 0x80 PUSH1 0x40 MSTORE CALLVALUE DUP1 ISZERO PUSH1 0xE JUMPI PUSH0 DUP1 REVERT JUMPDEST POP PUSH2 0x7D5 DUP1 PUSH2 0x1C PUSH0 CODECOPY PUSH0 RETURN INVALID PUSH1 0x80 PUSH1 0x40 MSTORE PUSH1 0x4 CALLDATASIZE LT PUSH2 0x3E JUMPI PUSH0 CALLDATALOAD PUSH1 0xE0 SHR DUP1 PUSH4 0x16C05AA2 EQ PUSH2 0x42 JUMPI DUP1 PUSH4 0x27E235E3 EQ PUSH2 0x4C JUMPI DUP1 PUSH4 0x55E14FE6 EQ PUSH2 0x8A JUMPI DUP1 PUSH4 0xF274C897 EQ PUSH2 0xC6 JUMPI JUMPDEST PUSH0 DUP1 REVERT JUMPDEST PUSH2 0x4A PUSH2 0xEE JUMP JUMPDEST STOP JUMPDEST CALLVALUE DUP1 ISZERO PUSH2 0x57 JUMPI PUSH0 DUP1 REVERT JUMPDEST POP PUSH2 0x72 PUSH1 0x4 DUP1 CALLDATASIZE SUB DUP2 ADD SWAP1 PUSH2 0x6D SWAP2 SWAP1 PUSH2 0x517 JUMP JUMPDEST PUSH2 0x254 JUMP JUMPDEST PUSH1 0x40 MLOAD PUSH2 0x81 SWAP4 SWAP3 SWAP2 SWAP1 PUSH2 0x55A JUMP JUMPDEST PUSH1 0x40 MLOAD DUP1 SWAP2 SUB SWAP1 RETURN JUMPDEST CALLVALUE DUP1 ISZERO PUSH2 0x95 JUMPI PUSH0 DUP1 REVERT JUMPDEST POP PUSH2 0xB0 PUSH1 0x4 DUP1 CALLDATASIZE SUB DUP2 ADD SWAP1 PUSH2 0xAB SWAP2 SWAP1 PUSH2 0x5B9 JUMP JUMPDEST PUSH2 0x279 JUMP JUMPDEST PUSH1 0x40 MLOAD PUSH2 0xBD SWAP2 SWAP1 PUSH2 0x633 JUMP JUMPDEST PUSH1 0x40 MLOAD DUP1 SWAP2 SUB SWAP1 RETURN JUMPDEST CALLVALUE DUP1 ISZERO PUSH2 0xD1 JUMPI PUSH0 DUP1 REVERT JUMPDEST POP PUSH2 0xEC PUSH1 0x4 DUP1 CALLDATASIZE SUB DUP2 ADD SWAP1 PUSH2 0xE7 SWAP2 SWAP1 PUSH2 0x687 JUMP JUMPDEST PUSH2 0x2F5 JUMP JUMPDEST STOP JUMPDEST CALLVALUE PUSH0 DUP1 CALLER PUSH20 0xFFFFFFFFFFFFFFFFFFFFFFFFFFFFFFFFFFFFFFFF AND PUSH20 0xFFFFFFFFFFFFFFFFFFFFFFFFFFFFFFFFFFFFFFFF AND DUP2 MSTORE PUSH1 0x20 ADD SWAP1 DUP2 MSTORE PUSH1 0x20 ADD PUSH0 KECCAK256 PUSH0 ADD PUSH0 DUP3 DUP3 SLOAD PUSH2 0x13B SWAP2 SWAP1 PUSH2 0x6F2 JUMP JUMPDEST SWAP3 POP POP DUP2 SWAP1 SSTORE POP PUSH0 PUSH1 0x40 MLOAD DUP1 PUSH1 0x40 ADD PUSH1 0x40 MSTORE DUP1 CALLVALUE DUP2 MSTORE PUSH1 0x20 ADD TIMESTAMP DUP2 MSTORE POP SWAP1 POP DUP1 PUSH0 DUP1 CALLER PUSH20 0xFFFFFFFFFFFFFFFFFFFFFFFFFFFFFFFFFFFFFFFF AND PUSH20 0xFFFFFFFFFFFFFFFFFFFFFFFFFFFFFFFFFFFFFFFF AND DUP2 MSTORE PUSH1 0x20 ADD SWAP1 DUP2 MSTORE PUSH1 0x20 ADD PUSH0 KECCAK256 PUSH1 0x2 ADD PUSH0 DUP1 PUSH0 CALLER PUSH20 0xFFFFFFFFFFFFFFFFFFFFFFFFFFFFFFFFFFFFFFFF AND PUSH20 0xFFFFFFFFFFFFFFFFFFFFFFFFFFFFFFFFFFFFFFFF AND DUP2 MSTORE PUSH1 0x20 ADD SWAP1 DUP2 MSTORE PUSH1 0x20 ADD PUSH0 KECCAK256 PUSH1 0x1 ADD SLOAD DUP2 MSTORE PUSH1 0x20 ADD SWAP1 DUP2 MSTORE PUSH1 0x20 ADD PUSH0 KECCAK256 PUSH0 DUP3 ADD MLOAD DUP2 PUSH0 ADD SSTORE PUSH1 0x20 DUP3 ADD MLOAD DUP2 PUSH1 0x1 ADD SSTORE SWAP1 POP POP PUSH0 DUP1 CALLER PUSH20 0xFFFFFFFFFFFFFFFFFFFFFFFFFFFFFFFFFFFFFFFF AND PUSH20 0xFFFFFFFFFFFFFFFFFFFFFFFFFFFFFFFFFFFFFFFF AND DUP2 MSTORE PUSH1 0x20 ADD SWAP1 DUP2 MSTORE PUSH1 0x20 ADD PUSH0 KECCAK256 PUSH1 0x1 ADD PUSH0 DUP2 SLOAD DUP1 SWAP3 SWAP2 SWAP1 PUSH2 0x24C SWAP1 PUSH2 0x725 JUMP JUMPDEST SWAP2 SWAP1 POP SSTORE POP POP JUMP JUMPDEST PUSH0 PUSH1 0x20 MSTORE DUP1 PUSH0 MSTORE PUSH1 0x40 PUSH0 KECCAK256 PUSH0 SWAP2 POP SWAP1 POP DUP1 PUSH0 ADD SLOAD SWAP1 DUP1 PUSH1 0x1 ADD SLOAD SWAP1 DUP1 PUSH1 0x3 ADD SLOAD SWAP1 POP DUP4 JUMP JUMPDEST PUSH2 0x281 PUSH2 0x4A1 JUMP JUMPDEST PUSH0 DUP1 DUP5 PUSH20 0xFFFFFFFFFFFFFFFFFFFFFFFFFFFFFFFFFFFFFFFF AND PUSH20 0xFFFFFFFFFFFFFFFFFFFFFFFFFFFFFFFFFFFFFFFF AND DUP2 MSTORE PUSH1 0x20 ADD SWAP1 DUP2 MSTORE PUSH1 0x20 ADD PUSH0 KECCAK256 PUSH1 0x2 ADD PUSH0 DUP4 DUP2 MSTORE PUSH1 0x20 ADD SWAP1 DUP2 MSTORE PUSH1 0x20 ADD PUSH0 KECCAK256 PUSH1 0x40 MLOAD DUP1 PUSH1 0x40 ADD PUSH1 0x40 MSTORE SWAP1 DUP2 PUSH0 DUP3 ADD SLOAD DUP2 MSTORE PUSH1 0x20 ADD PUSH1 0x1 DUP3 ADD SLOAD DUP2 MSTORE POP POP SWAP1 POP SWAP3 SWAP2 POP POP JUMP JUMPDEST DUP1 PUSH0 DUP1 CALLER PUSH20 0xFFFFFFFFFFFFFFFFFFFFFFFFFFFFFFFFFFFFFFFF AND PUSH20 0xFFFFFFFFFFFFFFFFFFFFFFFFFFFFFFFFFFFFFFFF AND DUP2 MSTORE PUSH1 0x20 ADD SWAP1 DUP2 MSTORE PUSH1 0x20 ADD PUSH0 KECCAK256 PUSH0 ADD PUSH0 DUP3 DUP3 SLOAD PUSH2 0x342 SWAP2 SWAP1 PUSH2 0x76C JUMP JUMPDEST SWAP3 POP POP DUP2 SWAP1 SSTORE POP PUSH0 PUSH1 0x40 MLOAD DUP1 PUSH1 0x40 ADD PUSH1 0x40 MSTORE DUP1 DUP4 DUP2 MSTORE PUSH1 0x20 ADD TIMESTAMP DUP2 MSTORE POP SWAP1 POP DUP1 PUSH0 DUP1 CALLER PUSH20 0xFFFFFFFFFFFFFFFFFFFFFFFFFFFFFFFFFFFFFFFF AND PUSH20 0xFFFFFFFFFFFFFFFFFFFFFFFFFFFFFFFFFFFFFFFF AND DUP2 MSTORE PUSH1 0x20 ADD SWAP1 DUP2 MSTORE PUSH1 0x20 ADD PUSH0 KECCAK256 PUSH1 0x4 ADD PUSH0 DUP1 PUSH0 CALLER PUSH20 0xFFFFFFFFFFFFFFFFFFFFFFFFFFFFFFFFFFFFFFFF AND PUSH20 0xFFFFFFFFFFFFFFFFFFFFFFFFFFFFFFFFFFFFFFFF AND DUP2 MSTORE PUSH1 0x20 ADD SWAP1 DUP2 MSTORE PUSH1 0x20 ADD PUSH0 KECCAK256 PUSH1 0x3 ADD SLOAD DUP2 MSTORE PUSH1 0x20 ADD SWAP1 DUP2 MSTORE PUSH1 0x20 ADD PUSH0 KECCAK256 PUSH0 DUP3 ADD MLOAD DUP2 PUSH0 ADD SSTORE PUSH1 0x20 DUP3 ADD MLOAD DUP2 PUSH1 0x1 ADD SSTORE SWAP1 POP POP PUSH0 DUP1 CALLER PUSH20 0xFFFFFFFFFFFFFFFFFFFFFFFFFFFFFFFFFFFFFFFF AND PUSH20 0xFFFFFFFFFFFFFFFFFFFFFFFFFFFFFFFFFFFFFFFF AND DUP2 MSTORE PUSH1 0x20 ADD SWAP1 DUP2 MSTORE PUSH1 0x20 ADD PUSH0 KECCAK256 PUSH1 0x3 ADD PUSH0 DUP2 SLOAD DUP1 SWAP3 SWAP2 SWAP1 PUSH2 0x453 SWAP1 PUSH2 0x725 JUMP JUMPDEST SWAP2 SWAP1 POP SSTORE POP DUP3 PUSH20 0xFFFFFFFFFFFFFFFFFFFFFFFFFFFFFFFFFFFFFFFF AND PUSH2 0x8FC DUP4 SWAP1 DUP2 ISZERO MUL SWAP1 PUSH1 0x40 MLOAD PUSH0 PUSH1 0x40 MLOAD DUP1 DUP4 SUB DUP2 DUP6 DUP9 DUP9 CALL SWAP4 POP POP POP POP ISZERO DUP1 ISZERO PUSH2 0x49B JUMPI RETURNDATASIZE PUSH0 DUP1 RETURNDATACOPY RETURNDATASIZE PUSH0 REVERT JUMPDEST POP POP POP POP JUMP JUMPDEST PUSH1 0x40 MLOAD DUP1 PUSH1 0x40 ADD PUSH1 0x40 MSTORE DUP1 PUSH0 DUP2 MSTORE PUSH1 0x20 ADD PUSH0 DUP2 MSTORE POP SWAP1 JUMP JUMPDEST PUSH0 DUP1 REVERT JUMPDEST PUSH0 PUSH20 0xFFFFFFFFFFFFFFFFFFFFFFFFFFFFFFFFFFFFFFFF DUP3 AND SWAP1 POP SWAP2 SWAP1 POP JUMP JUMPDEST PUSH0 PUSH2 0x4E6 DUP3 PUSH2 0x4BD JUMP JUMPDEST SWAP1 POP SWAP2 SWAP1 POP JUMP JUMPDEST PUSH2 0x4F6 DUP2 PUSH2 0x4DC JUMP JUMPDEST DUP2 EQ PUSH2 0x500 JUMPI PUSH0 DUP1 REVERT JUMPDEST POP JUMP JUMPDEST PUSH0 DUP2 CALLDATALOAD SWAP1 POP PUSH2 0x511 DUP2 PUSH2 0x4ED JUMP JUMPDEST SWAP3 SWAP2 POP POP JUMP JUMPDEST PUSH0 PUSH1 0x20 DUP3 DUP5 SUB SLT ISZERO PUSH2 0x52C JUMPI PUSH2 0x52B PUSH2 0x4B9 JUMP JUMPDEST JUMPDEST PUSH0 PUSH2 0x539 DUP5 DUP3 DUP6 ADD PUSH2 0x503 JUMP JUMPDEST SWAP2 POP POP SWAP3 SWAP2 POP POP JUMP JUMPDEST PUSH0 DUP2 SWAP1 POP SWAP2 SWAP1 POP JUMP JUMPDEST PUSH2 0x554 DUP2 PUSH2 0x542 JUMP JUMPDEST DUP3 MSTORE POP POP JUMP JUMPDEST PUSH0 PUSH1 0x60 DUP3 ADD SWAP1 POP PUSH2 0x56D PUSH0 DUP4 ADD DUP7 PUSH2 0x54B JUMP JUMPDEST PUSH2 0x57A PUSH1 0x20 DUP4 ADD DUP6 PUSH2 0x54B JUMP JUMPDEST PUSH2 0x587 PUSH1 0x40 DUP4 ADD DUP5 PUSH2 0x54B JUMP JUMPDEST SWAP5 SWAP4 POP POP POP POP JUMP JUMPDEST PUSH2 0x598 DUP2 PUSH2 0x542 JUMP JUMPDEST DUP2 EQ PUSH2 0x5A2 JUMPI PUSH0 DUP1 REVERT JUMPDEST POP JUMP JUMPDEST PUSH0 DUP2 CALLDATALOAD SWAP1 POP PUSH2 0x5B3 DUP2 PUSH2 0x58F JUMP JUMPDEST SWAP3 SWAP2 POP POP JUMP JUMPDEST PUSH0 DUP1 PUSH1 0x40 DUP4 DUP6 SUB SLT ISZERO PUSH2 0x5CF JUMPI PUSH2 0x5CE PUSH2 0x4B9 JUMP JUMPDEST JUMPDEST PUSH0 PUSH2 0x5DC DUP6 DUP3 DUP7 ADD PUSH2 0x503 JUMP JUMPDEST SWAP3 POP POP PUSH1 0x20 PUSH2 0x5ED DUP6 DUP3 DUP7 ADD PUSH2 0x5A5 JUMP JUMPDEST SWAP2 POP POP SWAP3 POP SWAP3 SWAP1 POP JUMP JUMPDEST PUSH2 0x600 DUP2 PUSH2 0x542 JUMP JUMPDEST DUP3 MSTORE POP POP JUMP JUMPDEST PUSH1 0x40 DUP3 ADD PUSH0 DUP3 ADD MLOAD PUSH2 0x61A PUSH0 DUP6 ADD DUP3 PUSH2 0x5F7 JUMP JUMPDEST POP PUSH1 0x20 DUP3 ADD MLOAD PUSH2 0x62D PUSH1 0x20 DUP6 ADD DUP3 PUSH2 0x5F7 JUMP JUMPDEST POP POP POP POP JUMP JUMPDEST PUSH0 PUSH1 0x40 DUP3 ADD SWAP1 POP PUSH2 0x646 PUSH0 DUP4 ADD DUP5 PUSH2 0x606 JUMP JUMPDEST SWAP3 SWAP2 POP POP JUMP JUMPDEST PUSH0 PUSH2 0x656 DUP3 PUSH2 0x4BD JUMP JUMPDEST SWAP1 POP SWAP2 SWAP1 POP JUMP JUMPDEST PUSH2 0x666 DUP2 PUSH2 0x64C JUMP JUMPDEST DUP2 EQ PUSH2 0x670 JUMPI PUSH0 DUP1 REVERT JUMPDEST POP JUMP JUMPDEST PUSH0 DUP2 CALLDATALOAD SWAP1 POP PUSH2 0x681 DUP2 PUSH2 0x65D JUMP JUMPDEST SWAP3 SWAP2 POP POP JUMP JUMPDEST PUSH0 DUP1 PUSH1 0x40 DUP4 DUP6 SUB SLT ISZERO PUSH2 0x69D JUMPI PUSH2 0x69C PUSH2 0x4B9 JUMP JUMPDEST JUMPDEST PUSH0 PUSH2 0x6AA DUP6 DUP3 DUP7 ADD PUSH2 0x673 JUMP JUMPDEST SWAP3 POP POP PUSH1 0x20 PUSH2 0x6BB DUP6 DUP3 DUP7 ADD PUSH2 0x5A5 JUMP JUMPDEST SWAP2 POP POP SWAP3 POP SWAP3 SWAP1 POP JUMP JUMPDEST PUSH32 0x4E487B7100000000000000000000000000000000000000000000000000000000 PUSH0 MSTORE PUSH1 0x11 PUSH1 0x4 MSTORE PUSH1 0x24 PUSH0 REVERT JUMPDEST PUSH0 PUSH2 0x6FC DUP3 PUSH2 0x542 JUMP JUMPDEST SWAP2 POP PUSH2 0x707 DUP4 PUSH2 0x542 JUMP JUMPDEST SWAP3 POP DUP3 DUP3 ADD SWAP1 POP DUP1 DUP3 GT ISZERO PUSH2 0x71F JUMPI PUSH2 0x71E PUSH2 0x6C5 JUMP JUMPDEST JUMPDEST SWAP3 SWAP2 POP POP JUMP JUMPDEST PUSH0 PUSH2 0x72F DUP3 PUSH2 0x542 JUMP JUMPDEST SWAP2 POP PUSH32 0xFFFFFFFFFFFFFFFFFFFFFFFFFFFFFFFFFFFFFFFFFFFFFFFFFFFFFFFFFFFFFFFF DUP3 SUB PUSH2 0x761 JUMPI PUSH2 0x760 PUSH2 0x6C5 JUMP JUMPDEST JUMPDEST PUSH1 0x1 DUP3 ADD SWAP1 POP SWAP2 SWAP1 POP JUMP JUMPDEST PUSH0 PUSH2 0x776 DUP3 PUSH2 0x542 JUMP JUMPDEST SWAP2 POP PUSH2 0x781 DUP4 PUSH2 0x542 JUMP JUMPDEST SWAP3 POP DUP3 DUP3 SUB SWAP1 POP DUP2 DUP2 GT ISZERO PUSH2 0x799 JUMPI PUSH2 0x798 PUSH2 0x6C5 JUMP JUMPDEST JUMPDEST SWAP3 SWAP2 POP POP JUMP INVALID LOG2 PUSH5 0x6970667358 0x22 SLT KECCAK256 0xE5 PUSH11 0x2C6472C3CDAF795A92D166 0x2A 0xEA NOT 0xE SWAP5 CREATE 0xAF LOG0 BALANCE SWAP16 MUL 0xCF 0xE CALLVALUE 0x2A 0xD5 LOG3 0xC1 0xC9 PUSH5 0x736F6C6343 STOP ADDMOD BYTE STOP CALLER "
				},
				"gasEstimates": {
					"creation": {
						"codeDepositCost": "401000",
						"executionCost": "434",
						"totalCost": "401434"
					},
					"external": {
						"balances(address)": "infinite",
						"depositMoney()": "infinite",
						"getDepositNum(address,uint256)": "infinite",
						"withdrawMoney(address,uint256)": "infinite"
					}
				},
				"methodIdentifiers": {
					"balances(address)": "27e235e3",
					"depositMoney()": "16c05aa2",
					"getDepositNum(address,uint256)": "55e14fe6",
					"withdrawMoney(address,uint256)": "f274c897"
				}
			},
			"storageLayout": {
				"storage": [
					{
						"astId": 28,
						"contract": "contracts/ExampleMappingStruct.sol:Wallet",
						"label": "balances",
						"offset": 0,
						"slot": "0",
						"type": "t_mapping(t_address,t_struct(Balance)23_storage)"
					}
				],
				"types": {
					"t_address": {
						"encoding": "inplace",
						"label": "address",
						"numberOfBytes": "20"
					},
					"t_mapping(t_address,t_struct(Balance)23_storage)": {
						"encoding": "mapping",
						"key": "t_address",
						"label": "mapping(address => struct Wallet.Balance)",
						"numberOfBytes": "32",
						"value": "t_struct(Balance)23_storage"
					},
					"t_mapping(t_uint256,t_struct(Transaction)6_storage)": {
						"encoding": "mapping",
						"key": "t_uint256",
						"label": "mapping(uint256 => struct Wallet.Transaction)",
						"numberOfBytes": "32",
						"value": "t_struct(Transaction)6_storage"
					},
					"t_struct(Balance)23_storage": {
						"encoding": "inplace",
						"label": "struct Wallet.Balance",
						"members": [
							{
								"astId": 8,
								"contract": "contracts/ExampleMappingStruct.sol:Wallet",
								"label": "totalBalance",
								"offset": 0,
								"slot": "0",
								"type": "t_uint256"
							},
							{
								"astId": 10,
								"contract": "contracts/ExampleMappingStruct.sol:Wallet",
								"label": "numDeposit",
								"offset": 0,
								"slot": "1",
								"type": "t_uint256"
							},
							{
								"astId": 15,
								"contract": "contracts/ExampleMappingStruct.sol:Wallet",
								"label": "deposits",
								"offset": 0,
								"slot": "2",
								"type": "t_mapping(t_uint256,t_struct(Transaction)6_storage)"
							},
							{
								"astId": 17,
								"contract": "contracts/ExampleMappingStruct.sol:Wallet",
								"label": "numWithdrawals",
								"offset": 0,
								"slot": "3",
								"type": "t_uint256"
							},
							{
								"astId": 22,
								"contract": "contracts/ExampleMappingStruct.sol:Wallet",
								"label": "withdrawals",
								"offset": 0,
								"slot": "4",
								"type": "t_mapping(t_uint256,t_struct(Transaction)6_storage)"
							}
						],
						"numberOfBytes": "160"
					},
					"t_struct(Transaction)6_storage": {
						"encoding": "inplace",
						"label": "struct Wallet.Transaction",
						"members": [
							{
								"astId": 3,
								"contract": "contracts/ExampleMappingStruct.sol:Wallet",
								"label": "amount",
								"offset": 0,
								"slot": "0",
								"type": "t_uint256"
							},
							{
								"astId": 5,
								"contract": "contracts/ExampleMappingStruct.sol:Wallet",
								"label": "timestamp",
								"offset": 0,
								"slot": "1",
								"type": "t_uint256"
							}
						],
						"numberOfBytes": "64"
					},
					"t_uint256": {
						"encoding": "inplace",
						"label": "uint256",
						"numberOfBytes": "32"
					}
				}
			},
			"userdoc": {
				"kind": "user",
				"methods": {},
				"version": 1
			}
		}
	}
}