{
	"contracts/SampleSelfdestruct.sol": {
		"SampleSelfDestruct": {
			"abi": [
				{
					"inputs": [],
					"name": "destroySmartContract",
					"outputs": [],
					"stateMutability": "nonpayable",
					"type": "function"
				},
				{
					"stateMutability": "payable",
					"type": "receive"
				}
			],
			"devdoc": {
				"kind": "dev",
				"methods": {},
				"version": 1
			},
			"evm": {
				"assembly": "    /* \"contracts/SampleSelfdestruct.sol\":61:229  contract SampleSelfDestruct{... */\n  mstore(0x40, 0x80)\n  callvalue\n  dup1\n  iszero\n  tag_1\n  jumpi\n  0x00\n  dup1\n  revert\ntag_1:\n  pop\n  dataSize(sub_0)\n  dup1\n  dataOffset(sub_0)\n  0x00\n  codecopy\n  0x00\n  return\nstop\n\nsub_0: assembly {\n        /* \"contracts/SampleSelfdestruct.sol\":61:229  contract SampleSelfDestruct{... */\n      mstore(0x40, 0x80)\n      jumpi(tag_1, lt(calldatasize, 0x04))\n      shr(0xe0, calldataload(0x00))\n      dup1\n      0x85474728\n      eq\n      tag_3\n      jumpi\n      jump(tag_2)\n    tag_1:\n      jumpi(tag_2, calldatasize)\n      stop\n    tag_2:\n      0x00\n      dup1\n      revert\n        /* \"contracts/SampleSelfdestruct.sol\":135:226  function destroySmartContract() public {... */\n    tag_3:\n      callvalue\n      dup1\n      iszero\n      tag_6\n      jumpi\n      0x00\n      dup1\n      revert\n    tag_6:\n      pop\n      tag_7\n      tag_8\n      jump\t// in\n    tag_7:\n      stop\n    tag_8:\n        /* \"contracts/SampleSelfdestruct.sol\":206:216  msg.sender */\n      caller\n        /* \"contracts/SampleSelfdestruct.sol\":185:218  selfdestruct(payable(msg.sender)) */\n      0xffffffffffffffffffffffffffffffffffffffff\n      and\n      selfdestruct\n\n    auxdata: 0xa26469706673582212205904b3d85c3bc8232f654a97125c643a291a9d4eb295ee2d37aa6449cfc39b5e64736f6c63430008100033\n}\n",
				"bytecode": {
					"linkReferences": {},
					"object": "6080604052348015600f57600080fd5b50608d8061001e6000396000f3fe608060405260043610601f5760003560e01c80638547472814602a576025565b36602557005b600080fd5b348015603557600080fd5b50603c603e565b005b3373ffffffffffffffffffffffffffffffffffffffff16fffea26469706673582212205904b3d85c3bc8232f654a97125c643a291a9d4eb295ee2d37aa6449cfc39b5e64736f6c63430008100033",
					"opcodes": "PUSH1 0x80 PUSH1 0x40 MSTORE CALLVALUE DUP1 ISZERO PUSH1 0xF JUMPI PUSH1 0x0 DUP1 REVERT JUMPDEST POP PUSH1 0x8D DUP1 PUSH2 0x1E PUSH1 0x0 CODECOPY PUSH1 0x0 RETURN INVALID PUSH1 0x80 PUSH1 0x40 MSTORE PUSH1 0x4 CALLDATASIZE LT PUSH1 0x1F JUMPI PUSH1 0x0 CALLDATALOAD PUSH1 0xE0 SHR DUP1 PUSH4 0x85474728 EQ PUSH1 0x2A JUMPI PUSH1 0x25 JUMP JUMPDEST CALLDATASIZE PUSH1 0x25 JUMPI STOP JUMPDEST PUSH1 0x0 DUP1 REVERT JUMPDEST CALLVALUE DUP1 ISZERO PUSH1 0x35 JUMPI PUSH1 0x0 DUP1 REVERT JUMPDEST POP PUSH1 0x3C PUSH1 0x3E JUMP JUMPDEST STOP JUMPDEST CALLER PUSH20 0xFFFFFFFFFFFFFFFFFFFFFFFFFFFFFFFFFFFFFFFF AND SELFDESTRUCT INVALID LOG2 PUSH5 0x6970667358 0x22 SLT KECCAK256 MSIZE DIV 0xB3 0xD8 0x5C EXTCODESIZE 0xC8 0x23 0x2F PUSH6 0x4A97125C643A 0x29 BYTE SWAP14 0x4E 0xB2 SWAP6 0xEE 0x2D CALLDATACOPY 0xAA PUSH5 0x49CFC39B5E PUSH5 0x736F6C6343 STOP ADDMOD LT STOP CALLER "
				},
				"gasEstimates": {
					"creation": {
						"codeDepositCost": "28200",
						"executionCost": "81",
						"totalCost": "28281"
					},
					"external": {
						"destroySmartContract()": "27721"
					}
				},
				"methodIdentifiers": {
					"destroySmartContract()": "85474728"
				}
			},
			"storageLayout": {
				"storage": [],
				"types": null
			},
			"userdoc": {
				"kind": "user",
				"methods": {},
				"version": 1
			}
		}
	}
}