{
	"contracts/ExampleContractCall.sol": {
		"ContactTwo": {
			"abi": [
				{
					"inputs": [
						{
							"internalType": "address payable",
							"name": "_contractOne",
							"type": "address"
						}
					],
					"name": "depositContractOne",
					"outputs": [],
					"stateMutability": "nonpayable",
					"type": "function"
				},
				{
					"stateMutability": "payable",
					"type": "receive"
				}
			],
			"devdoc": {
				"kind": "dev",
				"methods": {},
				"version": 1
			},
			"evm": {
				"assembly": "    /* \"contracts/ExampleContractCall.sol\":441:676  contract ContactTwo{... */\n  mstore(0x40, 0x80)\n  callvalue\n  dup1\n  iszero\n  tag_1\n  jumpi\n  0x00\n  dup1\n  revert\ntag_1:\n  pop\n  dataSize(sub_0)\n  dup1\n  dataOffset(sub_0)\n  0x00\n  codecopy\n  0x00\n  return\nstop\n\nsub_0: assembly {\n        /* \"contracts/ExampleContractCall.sol\":441:676  contract ContactTwo{... */\n      mstore(0x40, 0x80)\n      jumpi(tag_1, lt(calldatasize, 0x04))\n      shr(0xe0, calldataload(0x00))\n      dup1\n      0xb68d39e4\n      eq\n      tag_3\n      jumpi\n      jump(tag_2)\n    tag_1:\n      jumpi(tag_2, calldatasize)\n      stop\n    tag_2:\n      0x00\n      dup1\n      revert\n        /* \"contracts/ExampleContractCall.sol\":505:673  function depositContractOne (address payable  _contractOne) public {... */\n    tag_3:\n      callvalue\n      dup1\n      iszero\n      tag_6\n      jumpi\n      0x00\n      dup1\n      revert\n    tag_6:\n      pop\n      tag_7\n      0x04\n      dup1\n      calldatasize\n      sub\n      dup2\n      add\n      swap1\n      tag_8\n      swap2\n      swap1\n      tag_9\n      jump\t// in\n    tag_8:\n      tag_10\n      jump\t// in\n    tag_7:\n      stop\n    tag_10:\n        /* \"contracts/ExampleContractCall.sol\":580:595  ContractOne one */\n      0x00\n        /* \"contracts/ExampleContractCall.sol\":610:622  _contractOne */\n      dup2\n        /* \"contracts/ExampleContractCall.sol\":580:623  ContractOne one = ContractOne(_contractOne) */\n      swap1\n      pop\n        /* \"contracts/ExampleContractCall.sol\":631:634  one */\n      dup1\n        /* \"contracts/ExampleContractCall.sol\":631:642  one.deposit */\n      0xffffffffffffffffffffffffffffffffffffffff\n      and\n      0xd0e30db0\n        /* \"contracts/ExampleContractCall.sol\":649:651  10 */\n      0x0a\n        /* \"contracts/ExampleContractCall.sol\":657:663  100000 */\n      0x0186a0\n        /* \"contracts/ExampleContractCall.sol\":631:666  one.deposit{value:10, gas:100000}() */\n      swap1\n      mload(0x40)\n      dup4\n      0xffffffff\n      and\n      0xe0\n      shl\n      dup2\n      mstore\n      0x04\n      add\n      0x00\n      mload(0x40)\n      dup1\n      dup4\n      sub\n      dup2\n      dup6\n      dup10\n      dup1\n      extcodesize\n      iszero\n      dup1\n      iszero\n      tag_12\n      jumpi\n      0x00\n      dup1\n      revert\n    tag_12:\n      pop\n      dup9\n      call\n      iszero\n      dup1\n      iszero\n      tag_14\n      jumpi\n      returndatasize\n      0x00\n      dup1\n      returndatacopy\n      revert(0x00, returndatasize)\n    tag_14:\n      pop\n      pop\n      pop\n      pop\n      pop\n      pop\n        /* \"contracts/ExampleContractCall.sol\":572:673  {... */\n      pop\n        /* \"contracts/ExampleContractCall.sol\":505:673  function depositContractOne (address payable  _contractOne) public {... */\n      pop\n      jump\t// out\n        /* \"#utility.yul\":88:205   */\n    tag_16:\n        /* \"#utility.yul\":197:198   */\n      0x00\n        /* \"#utility.yul\":194:195   */\n      dup1\n        /* \"#utility.yul\":187:199   */\n      revert\n        /* \"#utility.yul\":334:460   */\n    tag_18:\n        /* \"#utility.yul\":371:378   */\n      0x00\n        /* \"#utility.yul\":411:453   */\n      0xffffffffffffffffffffffffffffffffffffffff\n        /* \"#utility.yul\":404:409   */\n      dup3\n        /* \"#utility.yul\":400:454   */\n      and\n        /* \"#utility.yul\":389:454   */\n      swap1\n      pop\n        /* \"#utility.yul\":334:460   */\n      swap2\n      swap1\n      pop\n      jump\t// out\n        /* \"#utility.yul\":466:570   */\n    tag_19:\n        /* \"#utility.yul\":511:518   */\n      0x00\n        /* \"#utility.yul\":540:564   */\n      tag_28\n        /* \"#utility.yul\":558:563   */\n      dup3\n        /* \"#utility.yul\":540:564   */\n      tag_18\n      jump\t// in\n    tag_28:\n        /* \"#utility.yul\":529:564   */\n      swap1\n      pop\n        /* \"#utility.yul\":466:570   */\n      swap2\n      swap1\n      pop\n      jump\t// out\n        /* \"#utility.yul\":576:714   */\n    tag_20:\n        /* \"#utility.yul\":657:689   */\n      tag_30\n        /* \"#utility.yul\":683:688   */\n      dup2\n        /* \"#utility.yul\":657:689   */\n      tag_19\n      jump\t// in\n    tag_30:\n        /* \"#utility.yul\":650:655   */\n      dup2\n        /* \"#utility.yul\":647:690   */\n      eq\n        /* \"#utility.yul\":637:708   */\n      tag_31\n      jumpi\n        /* \"#utility.yul\":704:705   */\n      0x00\n        /* \"#utility.yul\":701:702   */\n      dup1\n        /* \"#utility.yul\":694:706   */\n      revert\n        /* \"#utility.yul\":637:708   */\n    tag_31:\n        /* \"#utility.yul\":576:714   */\n      pop\n      jump\t// out\n        /* \"#utility.yul\":720:875   */\n    tag_21:\n        /* \"#utility.yul\":774:779   */\n      0x00\n        /* \"#utility.yul\":812:818   */\n      dup2\n        /* \"#utility.yul\":799:819   */\n      calldataload\n        /* \"#utility.yul\":790:819   */\n      swap1\n      pop\n        /* \"#utility.yul\":828:869   */\n      tag_33\n        /* \"#utility.yul\":863:868   */\n      dup2\n        /* \"#utility.yul\":828:869   */\n      tag_20\n      jump\t// in\n    tag_33:\n        /* \"#utility.yul\":720:875   */\n      swap3\n      swap2\n      pop\n      pop\n      jump\t// out\n        /* \"#utility.yul\":881:1226   */\n    tag_9:\n        /* \"#utility.yul\":948:954   */\n      0x00\n        /* \"#utility.yul\":997:999   */\n      0x20\n        /* \"#utility.yul\":985:994   */\n      dup3\n        /* \"#utility.yul\":976:983   */\n      dup5\n        /* \"#utility.yul\":972:995   */\n      sub\n        /* \"#utility.yul\":968:1000   */\n      slt\n        /* \"#utility.yul\":965:1084   */\n      iszero\n      tag_35\n      jumpi\n        /* \"#utility.yul\":1003:1082   */\n      tag_36\n      tag_16\n      jump\t// in\n    tag_36:\n        /* \"#utility.yul\":965:1084   */\n    tag_35:\n        /* \"#utility.yul\":1123:1124   */\n      0x00\n        /* \"#utility.yul\":1148:1209   */\n      tag_37\n        /* \"#utility.yul\":1201:1208   */\n      dup5\n        /* \"#utility.yul\":1192:1198   */\n      dup3\n        /* \"#utility.yul\":1181:1190   */\n      dup6\n        /* \"#utility.yul\":1177:1199   */\n      add\n        /* \"#utility.yul\":1148:1209   */\n      tag_21\n      jump\t// in\n    tag_37:\n        /* \"#utility.yul\":1138:1209   */\n      swap2\n      pop\n        /* \"#utility.yul\":1094:1219   */\n      pop\n        /* \"#utility.yul\":881:1226   */\n      swap3\n      swap2\n      pop\n      pop\n      jump\t// out\n\n    auxdata: 0xa264697066735822122098b8d7ca96c3aa8a2267438ff95f0ca9065281322003c6f8d737db1fe5a274c564736f6c634300081a0033\n}\n",
				"bytecode": {
					"linkReferences": {},
					"object": "6080604052348015600e575f80fd5b5061017f8061001c5f395ff3fe608060405260043610610021575f3560e01c8063b68d39e41461002c57610028565b3661002857005b5f80fd5b348015610037575f80fd5b50610052600480360381019061004d919061011e565b610054565b005b5f8190508073ffffffffffffffffffffffffffffffffffffffff1663d0e30db0600a620186a0906040518363ffffffff1660e01b81526004015f604051808303818589803b1580156100a4575f80fd5b5088f11580156100b6573d5f803e3d5ffd5b5050505050505050565b5f80fd5b5f73ffffffffffffffffffffffffffffffffffffffff82169050919050565b5f6100ed826100c4565b9050919050565b6100fd816100e3565b8114610107575f80fd5b50565b5f81359050610118816100f4565b92915050565b5f60208284031215610133576101326100c0565b5b5f6101408482850161010a565b9150509291505056fea264697066735822122098b8d7ca96c3aa8a2267438ff95f0ca9065281322003c6f8d737db1fe5a274c564736f6c634300081a0033",
					"opcodes": "PUSH1 0x80 PUSH1 0x40 MSTORE CALLVALUE DUP1 ISZERO PUSH1 0xE JUMPI PUSH0 DUP1 REVERT JUMPDEST POP PUSH2 0x17F DUP1 PUSH2 0x1C PUSH0 CODECOPY PUSH0 RETURN INVALID PUSH1 0x80 PUSH1 0x40 MSTORE PUSH1 0x4 CALLDATASIZE LT PUSH2 0x21 JUMPI PUSH0 CALLDATALOAD PUSH1 0xE0 SHR DUP1 PUSH4 0xB68D39E4 EQ PUSH2 0x2C JUMPI PUSH2 0x28 JUMP JUMPDEST CALLDATASIZE PUSH2 0x28 JUMPI STOP JUMPDEST PUSH0 DUP1 REVERT JUMPDEST CALLVALUE DUP1 ISZERO PUSH2 0x37 JUMPI PUSH0 DUP1 REVERT JUMPDEST POP PUSH2 0x52 PUSH1 0x4 DUP1 CALLDATASIZE SUB DUP2 ADD SWAP1 PUSH2 0x4D SWAP2 SWAP1 PUSH2 0x11E JUMP JUMPDEST PUSH2 0x54 JUMP JUMPDEST STOP JUMPDEST PUSH0 DUP2 SWAP1 POP DUP1 PUSH20 0xFFFFFFFFFFFFFFFFFFFFFFFFFFFFFFFFFFFFFFFF AND PUSH4 0xD0E30DB0 PUSH1 0xA PUSH3 0x186A0 SWAP1 PUSH1 0x40 MLOAD DUP4 PUSH4 0xFFFFFFFF AND PUSH1 0xE0 SHL DUP2 MSTORE PUSH1 0x4 ADD PUSH0 PUSH1 0x40 MLOAD DUP1 DUP4 SUB DUP2 DUP6 DUP10 DUP1 EXTCODESIZE ISZERO DUP1 ISZERO PUSH2 0xA4 JUMPI PUSH0 DUP1 REVERT JUMPDEST POP DUP9 CALL ISZERO DUP1 ISZERO PUSH2 0xB6 JUMPI RETURNDATASIZE PUSH0 DUP1 RETURNDATACOPY RETURNDATASIZE PUSH0 REVERT JUMPDEST POP POP POP POP POP POP POP POP JUMP JUMPDEST PUSH0 DUP1 REVERT JUMPDEST PUSH0 PUSH20 0xFFFFFFFFFFFFFFFFFFFFFFFFFFFFFFFFFFFFFFFF DUP3 AND SWAP1 POP SWAP2 SWAP1 POP JUMP JUMPDEST PUSH0 PUSH2 0xED DUP3 PUSH2 0xC4 JUMP JUMPDEST SWAP1 POP SWAP2 SWAP1 POP JUMP JUMPDEST PUSH2 0xFD DUP2 PUSH2 0xE3 JUMP JUMPDEST DUP2 EQ PUSH2 0x107 JUMPI PUSH0 DUP1 REVERT JUMPDEST POP JUMP JUMPDEST PUSH0 DUP2 CALLDATALOAD SWAP1 POP PUSH2 0x118 DUP2 PUSH2 0xF4 JUMP JUMPDEST SWAP3 SWAP2 POP POP JUMP JUMPDEST PUSH0 PUSH1 0x20 DUP3 DUP5 SUB SLT ISZERO PUSH2 0x133 JUMPI PUSH2 0x132 PUSH2 0xC0 JUMP JUMPDEST JUMPDEST PUSH0 PUSH2 0x140 DUP5 DUP3 DUP6 ADD PUSH2 0x10A JUMP JUMPDEST SWAP2 POP POP SWAP3 SWAP2 POP POP JUMP INVALID LOG2 PUSH5 0x6970667358 0x22 SLT KECCAK256 SWAP9 0xB8 0xD7 0xCA SWAP7 0xC3 0xAA DUP11 0x22 PUSH8 0x438FF95F0CA90652 DUP2 ORIGIN KECCAK256 SUB 0xC6 0xF8 0xD7 CALLDATACOPY 0xDB 0x1F 0xE5 LOG2 PUSH21 0xC564736F6C634300081A0033000000000000000000 "
				},
				"gasEstimates": {
					"creation": {
						"codeDepositCost": "76600",
						"executionCost": "121",
						"totalCost": "76721"
					},
					"external": {
						"depositContractOne(address)": "infinite"
					}
				},
				"methodIdentifiers": {
					"depositContractOne(address)": "b68d39e4"
				}
			},
			"storageLayout": {
				"storage": [],
				"types": null
			},
			"userdoc": {
				"kind": "user",
				"methods": {},
				"version": 1
			}
		}
	}
}