{
	"data": {
		"bytecode": {
			"linkReferences": {},
			"object": "6080604052670de0b6b3a76400005f5534801561001a575f80fd5b506040516109a83803806109a8833981810160405281019061003c9190610120565b3360025f6101000a81548173ffffffffffffffffffffffffffffffffffffffff021916908373ffffffffffffffffffffffffffffffffffffffff1602179055508060015f6101000a81548173ffffffffffffffffffffffffffffffffffffffff021916908373ffffffffffffffffffffffffffffffffffffffff1602179055505061014b565b5f80fd5b5f73ffffffffffffffffffffffffffffffffffffffff82169050919050565b5f6100ef826100c6565b9050919050565b6100ff816100e5565b8114610109575f80fd5b50565b5f8151905061011a816100f6565b92915050565b5f60208284031215610135576101346100c2565b5b5f6101428482850161010c565b91505092915050565b610850806101585f395ff3fe60806040526004361061003e575f3560e01c80632f8de810146100425780634419d6131461006c578063a3e6761014610076578063fc0c546a146100a0575b5f80fd5b34801561004d575f80fd5b506100566100ca565b604051610063919061034c565b60405180910390f35b6100746100cf565b005b348015610081575f80fd5b5061008a6102ea565b60405161009791906103a4565b60405180910390f35b3480156100ab575f80fd5b506100b461030f565b6040516100c19190610418565b60405180910390f35b5f5481565b5f54341015610113576040517f08c379a000000000000000000000000000000000000000000000000000000000815260040161010a9061048b565b60405180910390fd5b5f8054346101219190610503565b90505f8054826101319190610533565b3461013c9190610574565b905060015f9054906101000a900473ffffffffffffffffffffffffffffffffffffffff1673ffffffffffffffffffffffffffffffffffffffff166323b872dd60025f9054906101000a900473ffffffffffffffffffffffffffffffffffffffff163360015f9054906101000a900473ffffffffffffffffffffffffffffffffffffffff1673ffffffffffffffffffffffffffffffffffffffff1663313ce5676040518163ffffffff1660e01b8152600401602060405180830381865afa158015610208573d5f803e3d5ffd5b505050506040513d601f19601f8201168201806040525081019061022c91906105e1565b600a610238919061073b565b866102439190610533565b6040518463ffffffff1660e01b815260040161026193929190610785565b6020604051808303815f875af115801561027d573d5f803e3d5ffd5b505050506040513d601f19601f820116820180604052508101906102a191906107ef565b503373ffffffffffffffffffffffffffffffffffffffff166108fc8290811502906040515f60405180830381858888f193505050501580156102e5573d5f803e3d5ffd5b505050565b60025f9054906101000a900473ffffffffffffffffffffffffffffffffffffffff1681565b60015f9054906101000a900473ffffffffffffffffffffffffffffffffffffffff1681565b5f819050919050565b61034681610334565b82525050565b5f60208201905061035f5f83018461033d565b92915050565b5f73ffffffffffffffffffffffffffffffffffffffff82169050919050565b5f61038e82610365565b9050919050565b61039e81610384565b82525050565b5f6020820190506103b75f830184610395565b92915050565b5f819050919050565b5f6103e06103db6103d684610365565b6103bd565b610365565b9050919050565b5f6103f1826103c6565b9050919050565b5f610402826103e7565b9050919050565b610412816103f8565b82525050565b5f60208201905061042b5f830184610409565b92915050565b5f82825260208201905092915050565b7f4e6f7420656e6f756768204554480000000000000000000000000000000000005f82015250565b5f610475600e83610431565b915061048082610441565b602082019050919050565b5f6020820190508181035f8301526104a281610469565b9050919050565b7f4e487b71000000000000000000000000000000000000000000000000000000005f52601260045260245ffd5b7f4e487b71000000000000000000000000000000000000000000000000000000005f52601160045260245ffd5b5f61050d82610334565b915061051883610334565b925082610528576105276104a9565b5b828204905092915050565b5f61053d82610334565b915061054883610334565b925082820261055681610334565b9150828204841483151761056d5761056c6104d6565b5b5092915050565b5f61057e82610334565b915061058983610334565b92508282039050818111156105a1576105a06104d6565b5b92915050565b5f80fd5b5f60ff82169050919050565b6105c0816105ab565b81146105ca575f80fd5b50565b5f815190506105db816105b7565b92915050565b5f602082840312156105f6576105f56105a7565b5b5f610603848285016105cd565b91505092915050565b5f8160011c9050919050565b5f808291508390505b60018511156106615780860481111561063d5761063c6104d6565b5b600185161561064c5780820291505b808102905061065a8561060c565b9450610621565b94509492505050565b5f826106795760019050610734565b81610686575f9050610734565b816001811461069c57600281146106a6576106d5565b6001915050610734565b60ff8411156106b8576106b76104d6565b5b8360020a9150848211156106cf576106ce6104d6565b5b50610734565b5060208310610133831016604e8410600b841016171561070a5782820a905083811115610705576107046104d6565b5b610734565b6107178484846001610618565b9250905081840481111561072e5761072d6104d6565b5b81810290505b9392505050565b5f61074582610334565b9150610750836105ab565b925061077d7fffffffffffffffffffffffffffffffffffffffffffffffffffffffffffffffff848461066a565b905092915050565b5f6060820190506107985f830186610395565b6107a56020830185610395565b6107b2604083018461033d565b949350505050565b5f8115159050919050565b6107ce816107ba565b81146107d8575f80fd5b50565b5f815190506107e9816107c5565b92915050565b5f60208284031215610804576108036105a7565b5b5f610811848285016107db565b9150509291505056fea26469706673582212201890a1264f1463db298f3cee3e363ca7abfa2bf8b35664282ff48440ac23735164736f6c634300081a0033",
			"opcodes": "PUSH1 0x80 PUSH1 0x40 MSTORE PUSH8 0xDE0B6B3A7640000 PUSH0 SSTORE CALLVALUE DUP1 ISZERO PUSH2 0x1A JUMPI PUSH0 DUP1 REVERT JUMPDEST POP PUSH1 0x40 MLOAD PUSH2 0x9A8 CODESIZE SUB DUP1 PUSH2 0x9A8 DUP4 CODECOPY DUP2 DUP2 ADD PUSH1 0x40 MSTORE DUP2 ADD SWAP1 PUSH2 0x3C SWAP2 SWAP1 PUSH2 0x120 JUMP JUMPDEST CALLER PUSH1 0x2 PUSH0 PUSH2 0x100 EXP DUP2 SLOAD DUP2 PUSH20 0xFFFFFFFFFFFFFFFFFFFFFFFFFFFFFFFFFFFFFFFF MUL NOT AND SWAP1 DUP4 PUSH20 0xFFFFFFFFFFFFFFFFFFFFFFFFFFFFFFFFFFFFFFFF AND MUL OR SWAP1 SSTORE POP DUP1 PUSH1 0x1 PUSH0 PUSH2 0x100 EXP DUP2 SLOAD DUP2 PUSH20 0xFFFFFFFFFFFFFFFFFFFFFFFFFFFFFFFFFFFFFFFF MUL NOT AND SWAP1 DUP4 PUSH20 0xFFFFFFFFFFFFFFFFFFFFFFFFFFFFFFFFFFFFFFFF AND MUL OR SWAP1 SSTORE POP POP PUSH2 0x14B JUMP JUMPDEST PUSH0 DUP1 REVERT JUMPDEST PUSH0 PUSH20 0xFFFFFFFFFFFFFFFFFFFFFFFFFFFFFFFFFFFFFFFF DUP3 AND SWAP1 POP SWAP2 SWAP1 POP JUMP JUMPDEST PUSH0 PUSH2 0xEF DUP3 PUSH2 0xC6 JUMP JUMPDEST SWAP1 POP SWAP2 SWAP1 POP JUMP JUMPDEST PUSH2 0xFF DUP2 PUSH2 0xE5 JUMP JUMPDEST DUP2 EQ PUSH2 0x109 JUMPI PUSH0 DUP1 REVERT JUMPDEST POP JUMP JUMPDEST PUSH0 DUP2 MLOAD SWAP1 POP PUSH2 0x11A DUP2 PUSH2 0xF6 JUMP JUMPDEST SWAP3 SWAP2 POP POP JUMP JUMPDEST PUSH0 PUSH1 0x20 DUP3 DUP5 SUB SLT ISZERO PUSH2 0x135 JUMPI PUSH2 0x134 PUSH2 0xC2 JUMP JUMPDEST JUMPDEST PUSH0 PUSH2 0x142 DUP5 DUP3 DUP6 ADD PUSH2 0x10C JUMP JUMPDEST SWAP2 POP POP SWAP3 SWAP2 POP POP JUMP JUMPDEST PUSH2 0x850 DUP1 PUSH2 0x158 PUSH0 CODECOPY PUSH0 RETURN INVALID PUSH1 0x80 PUSH1 0x40 MSTORE PUSH1 0x4 CALLDATASIZE LT PUSH2 0x3E JUMPI PUSH0 CALLDATALOAD PUSH1 0xE0 SHR DUP1 PUSH4 0x2F8DE810 EQ PUSH2 0x42 JUMPI DUP1 PUSH4 0x4419D613 EQ PUSH2 0x6C JUMPI DUP1 PUSH4 0xA3E67610 EQ PUSH2 0x76 JUMPI DUP1 PUSH4 0xFC0C546A EQ PUSH2 0xA0 JUMPI JUMPDEST PUSH0 DUP1 REVERT JUMPDEST CALLVALUE DUP1 ISZERO PUSH2 0x4D JUMPI PUSH0 DUP1 REVERT JUMPDEST POP PUSH2 0x56 PUSH2 0xCA JUMP JUMPDEST PUSH1 0x40 MLOAD PUSH2 0x63 SWAP2 SWAP1 PUSH2 0x34C JUMP JUMPDEST PUSH1 0x40 MLOAD DUP1 SWAP2 SUB SWAP1 RETURN JUMPDEST PUSH2 0x74 PUSH2 0xCF JUMP JUMPDEST STOP JUMPDEST CALLVALUE DUP1 ISZERO PUSH2 0x81 JUMPI PUSH0 DUP1 REVERT JUMPDEST POP PUSH2 0x8A PUSH2 0x2EA JUMP JUMPDEST PUSH1 0x40 MLOAD PUSH2 0x97 SWAP2 SWAP1 PUSH2 0x3A4 JUMP JUMPDEST PUSH1 0x40 MLOAD DUP1 SWAP2 SUB SWAP1 RETURN JUMPDEST CALLVALUE DUP1 ISZERO PUSH2 0xAB JUMPI PUSH0 DUP1 REVERT JUMPDEST POP PUSH2 0xB4 PUSH2 0x30F JUMP JUMPDEST PUSH1 0x40 MLOAD PUSH2 0xC1 SWAP2 SWAP1 PUSH2 0x418 JUMP JUMPDEST PUSH1 0x40 MLOAD DUP1 SWAP2 SUB SWAP1 RETURN JUMPDEST PUSH0 SLOAD DUP2 JUMP JUMPDEST PUSH0 SLOAD CALLVALUE LT ISZERO PUSH2 0x113 JUMPI PUSH1 0x40 MLOAD PUSH32 0x8C379A000000000000000000000000000000000000000000000000000000000 DUP2 MSTORE PUSH1 0x4 ADD PUSH2 0x10A SWAP1 PUSH2 0x48B JUMP JUMPDEST PUSH1 0x40 MLOAD DUP1 SWAP2 SUB SWAP1 REVERT JUMPDEST PUSH0 DUP1 SLOAD CALLVALUE PUSH2 0x121 SWAP2 SWAP1 PUSH2 0x503 JUMP JUMPDEST SWAP1 POP PUSH0 DUP1 SLOAD DUP3 PUSH2 0x131 SWAP2 SWAP1 PUSH2 0x533 JUMP JUMPDEST CALLVALUE PUSH2 0x13C SWAP2 SWAP1 PUSH2 0x574 JUMP JUMPDEST SWAP1 POP PUSH1 0x1 PUSH0 SWAP1 SLOAD SWAP1 PUSH2 0x100 EXP SWAP1 DIV PUSH20 0xFFFFFFFFFFFFFFFFFFFFFFFFFFFFFFFFFFFFFFFF AND PUSH20 0xFFFFFFFFFFFFFFFFFFFFFFFFFFFFFFFFFFFFFFFF AND PUSH4 0x23B872DD PUSH1 0x2 PUSH0 SWAP1 SLOAD SWAP1 PUSH2 0x100 EXP SWAP1 DIV PUSH20 0xFFFFFFFFFFFFFFFFFFFFFFFFFFFFFFFFFFFFFFFF AND CALLER PUSH1 0x1 PUSH0 SWAP1 SLOAD SWAP1 PUSH2 0x100 EXP SWAP1 DIV PUSH20 0xFFFFFFFFFFFFFFFFFFFFFFFFFFFFFFFFFFFFFFFF AND PUSH20 0xFFFFFFFFFFFFFFFFFFFFFFFFFFFFFFFFFFFFFFFF AND PUSH4 0x313CE567 PUSH1 0x40 MLOAD DUP2 PUSH4 0xFFFFFFFF AND PUSH1 0xE0 SHL DUP2 MSTORE PUSH1 0x4 ADD PUSH1 0x20 PUSH1 0x40 MLOAD DUP1 DUP4 SUB DUP2 DUP7 GAS STATICCALL ISZERO DUP1 ISZERO PUSH2 0x208 JUMPI RETURNDATASIZE PUSH0 DUP1 RETURNDATACOPY RETURNDATASIZE PUSH0 REVERT JUMPDEST POP POP POP POP PUSH1 0x40 MLOAD RETURNDATASIZE PUSH1 0x1F NOT PUSH1 0x1F DUP3 ADD AND DUP3 ADD DUP1 PUSH1 0x40 MSTORE POP DUP2 ADD SWAP1 PUSH2 0x22C SWAP2 SWAP1 PUSH2 0x5E1 JUMP JUMPDEST PUSH1 0xA PUSH2 0x238 SWAP2 SWAP1 PUSH2 0x73B JUMP JUMPDEST DUP7 PUSH2 0x243 SWAP2 SWAP1 PUSH2 0x533 JUMP JUMPDEST PUSH1 0x40 MLOAD DUP5 PUSH4 0xFFFFFFFF AND PUSH1 0xE0 SHL DUP2 MSTORE PUSH1 0x4 ADD PUSH2 0x261 SWAP4 SWAP3 SWAP2 SWAP1 PUSH2 0x785 JUMP JUMPDEST PUSH1 0x20 PUSH1 0x40 MLOAD DUP1 DUP4 SUB DUP2 PUSH0 DUP8 GAS CALL ISZERO DUP1 ISZERO PUSH2 0x27D JUMPI RETURNDATASIZE PUSH0 DUP1 RETURNDATACOPY RETURNDATASIZE PUSH0 REVERT JUMPDEST POP POP POP POP PUSH1 0x40 MLOAD RETURNDATASIZE PUSH1 0x1F NOT PUSH1 0x1F DUP3 ADD AND DUP3 ADD DUP1 PUSH1 0x40 MSTORE POP DUP2 ADD SWAP1 PUSH2 0x2A1 SWAP2 SWAP1 PUSH2 0x7EF JUMP JUMPDEST POP CALLER PUSH20 0xFFFFFFFFFFFFFFFFFFFFFFFFFFFFFFFFFFFFFFFF AND PUSH2 0x8FC DUP3 SWAP1 DUP2 ISZERO MUL SWAP1 PUSH1 0x40 MLOAD PUSH0 PUSH1 0x40 MLOAD DUP1 DUP4 SUB DUP2 DUP6 DUP9 DUP9 CALL SWAP4 POP POP POP POP ISZERO DUP1 ISZERO PUSH2 0x2E5 JUMPI RETURNDATASIZE PUSH0 DUP1 RETURNDATACOPY RETURNDATASIZE PUSH0 REVERT JUMPDEST POP POP POP JUMP JUMPDEST PUSH1 0x2 PUSH0 SWAP1 SLOAD SWAP1 PUSH2 0x100 EXP SWAP1 DIV PUSH20 0xFFFFFFFFFFFFFFFFFFFFFFFFFFFFFFFFFFFFFFFF AND DUP2 JUMP JUMPDEST PUSH1 0x1 PUSH0 SWAP1 SLOAD SWAP1 PUSH2 0x100 EXP SWAP1 DIV PUSH20 0xFFFFFFFFFFFFFFFFFFFFFFFFFFFFFFFFFFFFFFFF AND DUP2 JUMP JUMPDEST PUSH0 DUP2 SWAP1 POP SWAP2 SWAP1 POP JUMP JUMPDEST PUSH2 0x346 DUP2 PUSH2 0x334 JUMP JUMPDEST DUP3 MSTORE POP POP JUMP JUMPDEST PUSH0 PUSH1 0x20 DUP3 ADD SWAP1 POP PUSH2 0x35F PUSH0 DUP4 ADD DUP5 PUSH2 0x33D JUMP JUMPDEST SWAP3 SWAP2 POP POP JUMP JUMPDEST PUSH0 PUSH20 0xFFFFFFFFFFFFFFFFFFFFFFFFFFFFFFFFFFFFFFFF DUP3 AND SWAP1 POP SWAP2 SWAP1 POP JUMP JUMPDEST PUSH0 PUSH2 0x38E DUP3 PUSH2 0x365 JUMP JUMPDEST SWAP1 POP SWAP2 SWAP1 POP JUMP JUMPDEST PUSH2 0x39E DUP2 PUSH2 0x384 JUMP JUMPDEST DUP3 MSTORE POP POP JUMP JUMPDEST PUSH0 PUSH1 0x20 DUP3 ADD SWAP1 POP PUSH2 0x3B7 PUSH0 DUP4 ADD DUP5 PUSH2 0x395 JUMP JUMPDEST SWAP3 SWAP2 POP POP JUMP JUMPDEST PUSH0 DUP2 SWAP1 POP SWAP2 SWAP1 POP JUMP JUMPDEST PUSH0 PUSH2 0x3E0 PUSH2 0x3DB PUSH2 0x3D6 DUP5 PUSH2 0x365 JUMP JUMPDEST PUSH2 0x3BD JUMP JUMPDEST PUSH2 0x365 JUMP JUMPDEST SWAP1 POP SWAP2 SWAP1 POP JUMP JUMPDEST PUSH0 PUSH2 0x3F1 DUP3 PUSH2 0x3C6 JUMP JUMPDEST SWAP1 POP SWAP2 SWAP1 POP JUMP JUMPDEST PUSH0 PUSH2 0x402 DUP3 PUSH2 0x3E7 JUMP JUMPDEST SWAP1 POP SWAP2 SWAP1 POP JUMP JUMPDEST PUSH2 0x412 DUP2 PUSH2 0x3F8 JUMP JUMPDEST DUP3 MSTORE POP POP JUMP JUMPDEST PUSH0 PUSH1 0x20 DUP3 ADD SWAP1 POP PUSH2 0x42B PUSH0 DUP4 ADD DUP5 PUSH2 0x409 JUMP JUMPDEST SWAP3 SWAP2 POP POP JUMP JUMPDEST PUSH0 DUP3 DUP3 MSTORE PUSH1 0x20 DUP3 ADD SWAP1 POP SWAP3 SWAP2 POP POP JUMP JUMPDEST PUSH32 0x4E6F7420656E6F75676820455448000000000000000000000000000000000000 PUSH0 DUP3 ADD MSTORE POP JUMP JUMPDEST PUSH0 PUSH2 0x475 PUSH1 0xE DUP4 PUSH2 0x431 JUMP JUMPDEST SWAP2 POP PUSH2 0x480 DUP3 PUSH2 0x441 JUMP JUMPDEST PUSH1 0x20 DUP3 ADD SWAP1 POP SWAP2 SWAP1 POP JUMP JUMPDEST PUSH0 PUSH1 0x20 DUP3 ADD SWAP1 POP DUP2 DUP2 SUB PUSH0 DUP4 ADD MSTORE PUSH2 0x4A2 DUP2 PUSH2 0x469 JUMP JUMPDEST SWAP1 POP SWAP2 SWAP1 POP JUMP JUMPDEST PUSH32 0x4E487B7100000000000000000000000000000000000000000000000000000000 PUSH0 MSTORE PUSH1 0x12 PUSH1 0x4 MSTORE PUSH1 0x24 PUSH0 REVERT JUMPDEST PUSH32 0x4E487B7100000000000000000000000000000000000000000000000000000000 PUSH0 MSTORE PUSH1 0x11 PUSH1 0x4 MSTORE PUSH1 0x24 PUSH0 REVERT JUMPDEST PUSH0 PUSH2 0x50D DUP3 PUSH2 0x334 JUMP JUMPDEST SWAP2 POP PUSH2 0x518 DUP4 PUSH2 0x334 JUMP JUMPDEST SWAP3 POP DUP3 PUSH2 0x528 JUMPI PUSH2 0x527 PUSH2 0x4A9 JUMP JUMPDEST JUMPDEST DUP3 DUP3 DIV SWAP1 POP SWAP3 SWAP2 POP POP JUMP JUMPDEST PUSH0 PUSH2 0x53D DUP3 PUSH2 0x334 JUMP JUMPDEST SWAP2 POP PUSH2 0x548 DUP4 PUSH2 0x334 JUMP JUMPDEST SWAP3 POP DUP3 DUP3 MUL PUSH2 0x556 DUP2 PUSH2 0x334 JUMP JUMPDEST SWAP2 POP DUP3 DUP3 DIV DUP5 EQ DUP4 ISZERO OR PUSH2 0x56D JUMPI PUSH2 0x56C PUSH2 0x4D6 JUMP JUMPDEST JUMPDEST POP SWAP3 SWAP2 POP POP JUMP JUMPDEST PUSH0 PUSH2 0x57E DUP3 PUSH2 0x334 JUMP JUMPDEST SWAP2 POP PUSH2 0x589 DUP4 PUSH2 0x334 JUMP JUMPDEST SWAP3 POP DUP3 DUP3 SUB SWAP1 POP DUP2 DUP2 GT ISZERO PUSH2 0x5A1 JUMPI PUSH2 0x5A0 PUSH2 0x4D6 JUMP JUMPDEST JUMPDEST SWAP3 SWAP2 POP POP JUMP JUMPDEST PUSH0 DUP1 REVERT JUMPDEST PUSH0 PUSH1 0xFF DUP3 AND SWAP1 POP SWAP2 SWAP1 POP JUMP JUMPDEST PUSH2 0x5C0 DUP2 PUSH2 0x5AB JUMP JUMPDEST DUP2 EQ PUSH2 0x5CA JUMPI PUSH0 DUP1 REVERT JUMPDEST POP JUMP JUMPDEST PUSH0 DUP2 MLOAD SWAP1 POP PUSH2 0x5DB DUP2 PUSH2 0x5B7 JUMP JUMPDEST SWAP3 SWAP2 POP POP JUMP JUMPDEST PUSH0 PUSH1 0x20 DUP3 DUP5 SUB SLT ISZERO PUSH2 0x5F6 JUMPI PUSH2 0x5F5 PUSH2 0x5A7 JUMP JUMPDEST JUMPDEST PUSH0 PUSH2 0x603 DUP5 DUP3 DUP6 ADD PUSH2 0x5CD JUMP JUMPDEST SWAP2 POP POP SWAP3 SWAP2 POP POP JUMP JUMPDEST PUSH0 DUP2 PUSH1 0x1 SHR SWAP1 POP SWAP2 SWAP1 POP JUMP JUMPDEST PUSH0 DUP1 DUP3 SWAP2 POP DUP4 SWAP1 POP JUMPDEST PUSH1 0x1 DUP6 GT ISZERO PUSH2 0x661 JUMPI DUP1 DUP7 DIV DUP2 GT ISZERO PUSH2 0x63D JUMPI PUSH2 0x63C PUSH2 0x4D6 JUMP JUMPDEST JUMPDEST PUSH1 0x1 DUP6 AND ISZERO PUSH2 0x64C JUMPI DUP1 DUP3 MUL SWAP2 POP JUMPDEST DUP1 DUP2 MUL SWAP1 POP PUSH2 0x65A DUP6 PUSH2 0x60C JUMP JUMPDEST SWAP5 POP PUSH2 0x621 JUMP JUMPDEST SWAP5 POP SWAP5 SWAP3 POP POP POP JUMP JUMPDEST PUSH0 DUP3 PUSH2 0x679 JUMPI PUSH1 0x1 SWAP1 POP PUSH2 0x734 JUMP JUMPDEST DUP2 PUSH2 0x686 JUMPI PUSH0 SWAP1 POP PUSH2 0x734 JUMP JUMPDEST DUP2 PUSH1 0x1 DUP2 EQ PUSH2 0x69C JUMPI PUSH1 0x2 DUP2 EQ PUSH2 0x6A6 JUMPI PUSH2 0x6D5 JUMP JUMPDEST PUSH1 0x1 SWAP2 POP POP PUSH2 0x734 JUMP JUMPDEST PUSH1 0xFF DUP5 GT ISZERO PUSH2 0x6B8 JUMPI PUSH2 0x6B7 PUSH2 0x4D6 JUMP JUMPDEST JUMPDEST DUP4 PUSH1 0x2 EXP SWAP2 POP DUP5 DUP3 GT ISZERO PUSH2 0x6CF JUMPI PUSH2 0x6CE PUSH2 0x4D6 JUMP JUMPDEST JUMPDEST POP PUSH2 0x734 JUMP JUMPDEST POP PUSH1 0x20 DUP4 LT PUSH2 0x133 DUP4 LT AND PUSH1 0x4E DUP5 LT PUSH1 0xB DUP5 LT AND OR ISZERO PUSH2 0x70A JUMPI DUP3 DUP3 EXP SWAP1 POP DUP4 DUP2 GT ISZERO PUSH2 0x705 JUMPI PUSH2 0x704 PUSH2 0x4D6 JUMP JUMPDEST JUMPDEST PUSH2 0x734 JUMP JUMPDEST PUSH2 0x717 DUP5 DUP5 DUP5 PUSH1 0x1 PUSH2 0x618 JUMP JUMPDEST SWAP3 POP SWAP1 POP DUP2 DUP5 DIV DUP2 GT ISZERO PUSH2 0x72E JUMPI PUSH2 0x72D PUSH2 0x4D6 JUMP JUMPDEST JUMPDEST DUP2 DUP2 MUL SWAP1 POP JUMPDEST SWAP4 SWAP3 POP POP POP JUMP JUMPDEST PUSH0 PUSH2 0x745 DUP3 PUSH2 0x334 JUMP JUMPDEST SWAP2 POP PUSH2 0x750 DUP4 PUSH2 0x5AB JUMP JUMPDEST SWAP3 POP PUSH2 0x77D PUSH32 0xFFFFFFFFFFFFFFFFFFFFFFFFFFFFFFFFFFFFFFFFFFFFFFFFFFFFFFFFFFFFFFFF DUP5 DUP5 PUSH2 0x66A JUMP JUMPDEST SWAP1 POP SWAP3 SWAP2 POP POP JUMP JUMPDEST PUSH0 PUSH1 0x60 DUP3 ADD SWAP1 POP PUSH2 0x798 PUSH0 DUP4 ADD DUP7 PUSH2 0x395 JUMP JUMPDEST PUSH2 0x7A5 PUSH1 0x20 DUP4 ADD DUP6 PUSH2 0x395 JUMP JUMPDEST PUSH2 0x7B2 PUSH1 0x40 DUP4 ADD DUP5 PUSH2 0x33D JUMP JUMPDEST SWAP5 SWAP4 POP POP POP POP JUMP JUMPDEST PUSH0 DUP2 ISZERO ISZERO SWAP1 POP SWAP2 SWAP1 POP JUMP JUMPDEST PUSH2 0x7CE DUP2 PUSH2 0x7BA JUMP JUMPDEST DUP2 EQ PUSH2 0x7D8 JUMPI PUSH0 DUP1 REVERT JUMPDEST POP JUMP JUMPDEST PUSH0 DUP2 MLOAD SWAP1 POP PUSH2 0x7E9 DUP2 PUSH2 0x7C5 JUMP JUMPDEST SWAP3 SWAP2 POP POP JUMP JUMPDEST PUSH0 PUSH1 0x20 DUP3 DUP5 SUB SLT ISZERO PUSH2 0x804 JUMPI PUSH2 0x803 PUSH2 0x5A7 JUMP JUMPDEST JUMPDEST PUSH0 PUSH2 0x811 DUP5 DUP3 DUP6 ADD PUSH2 0x7DB JUMP JUMPDEST SWAP2 POP POP SWAP3 SWAP2 POP POP JUMP INVALID LOG2 PUSH5 0x6970667358 0x22 SLT KECCAK256 XOR SWAP1 LOG1 0x26 0x4F EQ PUSH4 0xDB298F3C 0xEE RETURNDATACOPY CALLDATASIZE EXTCODECOPY 0xA7 0xAB STATICCALL 0x2B 0xF8 0xB3 JUMP PUSH5 0x282FF48440 0xAC 0x23 PUSH20 0x5164736F6C634300081A00330000000000000000 "
		},
		"gasEstimates": {
			"creation": {
				"codeDepositCost": "425600",
				"executionCost": "infinite",
				"totalCost": "infinite"
			},
			"external": {
				"purchaseACoffee()": "infinite",
				"token()": "infinite",
				"tokenOwner()": "2530",
				"tokenPriceInWei()": "2402"
			}
		},
		"methodIdentifiers": {
			"purchaseACoffee()": "4419d613",
			"token()": "fc0c546a",
			"tokenOwner()": "a3e67610",
			"tokenPriceInWei()": "2f8de810"
		}
	},
	"abi": [
		{
			"inputs": [
				{
					"internalType": "address",
					"name": "_token",
					"type": "address"
				}
			],
			"stateMutability": "nonpayable",
			"type": "constructor"
		},
		{
			"inputs": [],
			"name": "purchaseACoffee",
			"outputs": [],
			"stateMutability": "payable",
			"type": "function"
		},
		{
			"inputs": [],
			"name": "token",
			"outputs": [
				{
					"internalType": "contract ERC20",
					"name": "",
					"type": "address"
				}
			],
			"stateMutability": "view",
			"type": "function"
		},
		{
			"inputs": [],
			"name": "tokenOwner",
			"outputs": [
				{
					"internalType": "address",
					"name": "",
					"type": "address"
				}
			],
			"stateMutability": "view",
			"type": "function"
		},
		{
			"inputs": [],
			"name": "tokenPriceInWei",
			"outputs": [
				{
					"internalType": "uint256",
					"name": "",
					"type": "uint256"
				}
			],
			"stateMutability": "view",
			"type": "function"
		}
	]
}